{
  "contractName": "DocumentNFT",
  "abi": [
    {
      "inputs": [],
      "stateMutability": "nonpayable",
      "type": "constructor"
    },
    {
      "anonymous": false,
      "inputs": [
        {
          "indexed": true,
          "internalType": "address",
          "name": "owner",
          "type": "address"
        },
        {
          "indexed": true,
          "internalType": "address",
          "name": "approved",
          "type": "address"
        },
        {
          "indexed": true,
          "internalType": "uint256",
          "name": "tokenId",
          "type": "uint256"
        }
      ],
      "name": "Approval",
      "type": "event"
    },
    {
      "anonymous": false,
      "inputs": [
        {
          "indexed": true,
          "internalType": "address",
          "name": "owner",
          "type": "address"
        },
        {
          "indexed": true,
          "internalType": "address",
          "name": "operator",
          "type": "address"
        },
        {
          "indexed": false,
          "internalType": "bool",
          "name": "approved",
          "type": "bool"
        }
      ],
      "name": "ApprovalForAll",
      "type": "event"
    },
    {
      "anonymous": false,
      "inputs": [
        {
          "indexed": true,
          "internalType": "address",
          "name": "from",
          "type": "address"
        },
        {
          "indexed": true,
          "internalType": "address",
          "name": "to",
          "type": "address"
        },
        {
          "indexed": true,
          "internalType": "uint256",
          "name": "tokenId",
          "type": "uint256"
        }
      ],
      "name": "Transfer",
      "type": "event"
    },
    {
      "inputs": [
        {
          "internalType": "address",
          "name": "to",
          "type": "address"
        },
        {
          "internalType": "uint256",
          "name": "tokenId",
          "type": "uint256"
        }
      ],
      "name": "approve",
      "outputs": [],
      "stateMutability": "nonpayable",
      "type": "function"
    },
    {
      "inputs": [
        {
          "internalType": "address",
          "name": "owner",
          "type": "address"
        }
      ],
      "name": "balanceOf",
      "outputs": [
        {
          "internalType": "uint256",
          "name": "",
          "type": "uint256"
        }
      ],
      "stateMutability": "view",
      "type": "function"
    },
    {
      "inputs": [
        {
          "internalType": "uint256",
          "name": "tokenId",
          "type": "uint256"
        }
      ],
      "name": "getApproved",
      "outputs": [
        {
          "internalType": "address",
          "name": "",
          "type": "address"
        }
      ],
      "stateMutability": "view",
      "type": "function"
    },
    {
      "inputs": [
        {
          "internalType": "address",
          "name": "owner",
          "type": "address"
        },
        {
          "internalType": "address",
          "name": "operator",
          "type": "address"
        }
      ],
      "name": "isApprovedForAll",
      "outputs": [
        {
          "internalType": "bool",
          "name": "",
          "type": "bool"
        }
      ],
      "stateMutability": "view",
      "type": "function"
    },
    {
      "inputs": [],
      "name": "name",
      "outputs": [
        {
          "internalType": "string",
          "name": "",
          "type": "string"
        }
      ],
      "stateMutability": "view",
      "type": "function"
    },
    {
      "inputs": [
        {
          "internalType": "uint256",
          "name": "tokenId",
          "type": "uint256"
        }
      ],
      "name": "ownerOf",
      "outputs": [
        {
          "internalType": "address",
          "name": "",
          "type": "address"
        }
      ],
      "stateMutability": "view",
      "type": "function"
    },
    {
      "inputs": [
        {
          "internalType": "address",
          "name": "from",
          "type": "address"
        },
        {
          "internalType": "address",
          "name": "to",
          "type": "address"
        },
        {
          "internalType": "uint256",
          "name": "tokenId",
          "type": "uint256"
        }
      ],
      "name": "safeTransferFrom",
      "outputs": [],
      "stateMutability": "nonpayable",
      "type": "function"
    },
    {
      "inputs": [
        {
          "internalType": "address",
          "name": "from",
          "type": "address"
        },
        {
          "internalType": "address",
          "name": "to",
          "type": "address"
        },
        {
          "internalType": "uint256",
          "name": "tokenId",
          "type": "uint256"
        },
        {
          "internalType": "bytes",
          "name": "data",
          "type": "bytes"
        }
      ],
      "name": "safeTransferFrom",
      "outputs": [],
      "stateMutability": "nonpayable",
      "type": "function"
    },
    {
      "inputs": [
        {
          "internalType": "address",
          "name": "operator",
          "type": "address"
        },
        {
          "internalType": "bool",
          "name": "approved",
          "type": "bool"
        }
      ],
      "name": "setApprovalForAll",
      "outputs": [],
      "stateMutability": "nonpayable",
      "type": "function"
    },
    {
      "inputs": [],
      "name": "symbol",
      "outputs": [
        {
          "internalType": "string",
          "name": "",
          "type": "string"
        }
      ],
      "stateMutability": "view",
      "type": "function"
    },
    {
      "inputs": [
        {
          "internalType": "uint256",
          "name": "index",
          "type": "uint256"
        }
      ],
      "name": "tokenByIndex",
      "outputs": [
        {
          "internalType": "uint256",
          "name": "",
          "type": "uint256"
        }
      ],
      "stateMutability": "view",
      "type": "function"
    },
    {
      "inputs": [
        {
          "internalType": "address",
          "name": "owner",
          "type": "address"
        },
        {
          "internalType": "uint256",
          "name": "index",
          "type": "uint256"
        }
      ],
      "name": "tokenOfOwnerByIndex",
      "outputs": [
        {
          "internalType": "uint256",
          "name": "",
          "type": "uint256"
        }
      ],
      "stateMutability": "view",
      "type": "function"
    },
    {
      "inputs": [
        {
          "internalType": "uint256",
          "name": "tokenId",
          "type": "uint256"
        }
      ],
      "name": "tokenURI",
      "outputs": [
        {
          "internalType": "string",
          "name": "",
          "type": "string"
        }
      ],
      "stateMutability": "view",
      "type": "function"
    },
    {
      "inputs": [],
      "name": "totalSupply",
      "outputs": [
        {
          "internalType": "uint256",
          "name": "",
          "type": "uint256"
        }
      ],
      "stateMutability": "view",
      "type": "function"
    },
    {
      "inputs": [
        {
          "internalType": "address",
          "name": "from",
          "type": "address"
        },
        {
          "internalType": "address",
          "name": "to",
          "type": "address"
        },
        {
          "internalType": "uint256",
          "name": "tokenId",
          "type": "uint256"
        }
      ],
      "name": "transferFrom",
      "outputs": [],
      "stateMutability": "nonpayable",
      "type": "function"
    },
    {
      "inputs": [
        {
          "internalType": "address",
          "name": "_receiver",
          "type": "address"
        },
        {
          "internalType": "string",
          "name": "_name",
          "type": "string"
        },
        {
          "internalType": "string",
          "name": "_documentType",
          "type": "string"
        },
        {
          "internalType": "string",
          "name": "_uri",
          "type": "string"
        }
      ],
      "name": "sendDocument",
      "outputs": [],
      "stateMutability": "nonpayable",
      "type": "function"
    },
    {
      "inputs": [
        {
          "internalType": "uint256",
          "name": "_documentId",
          "type": "uint256"
        }
      ],
      "name": "getDocumentData",
      "outputs": [
        {
          "components": [
            {
              "internalType": "string",
              "name": "name",
              "type": "string"
            },
            {
              "internalType": "string",
              "name": "documentType",
              "type": "string"
            },
            {
              "internalType": "address",
              "name": "fromOrganization",
              "type": "address"
            },
            {
              "internalType": "address",
              "name": "owner",
              "type": "address"
            },
            {
              "internalType": "string",
              "name": "uri",
              "type": "string"
            }
          ],
          "internalType": "struct DocumentNFT.DocumentMetadata",
          "name": "",
          "type": "tuple"
        }
      ],
      "stateMutability": "view",
      "type": "function"
    },
    {
      "inputs": [
        {
          "internalType": "address",
          "name": "_accountant",
          "type": "address"
        }
      ],
      "name": "addAccountant",
      "outputs": [],
      "stateMutability": "nonpayable",
      "type": "function"
    },
    {
      "inputs": [
        {
          "internalType": "address",
          "name": "_accountant",
          "type": "address"
        }
      ],
      "name": "setInactiveAccountant",
      "outputs": [],
      "stateMutability": "nonpayable",
      "type": "function"
    },
    {
      "inputs": [
        {
          "internalType": "bytes4",
          "name": "interfaceId",
          "type": "bytes4"
        }
      ],
      "name": "supportsInterface",
      "outputs": [
        {
          "internalType": "bool",
          "name": "",
          "type": "bool"
        }
      ],
      "stateMutability": "view",
      "type": "function"
    }
  ],
  "bytecode": "0x60806040526000600d60006101000a81548173ffffffffffffffffffffffffffffffffffffffff021916908373ffffffffffffffffffffffffffffffffffffffff1602179055503480156200005357600080fd5b506040518060400160405280600b81526020017f446f63756d656e744e46540000000000000000000000000000000000000000008152506040518060400160405280600381526020017f444f4300000000000000000000000000000000000000000000000000000000008152508160009080519060200190620000d8929190620000fa565b508060019080519060200190620000f1929190620000fa565b5050506200020e565b8280546200010890620001d9565b90600052602060002090601f0160209004810192826200012c576000855562000178565b82601f106200014757805160ff191683800117855562000178565b8280016001018555821562000178579182015b82811115620001775782518255916020019190600101906200015a565b5b5090506200018791906200018b565b5090565b5b80821115620001a65760008160009055506001016200018c565b5090565b7f4e487b7100000000000000000000000000000000000000000000000000000000600052602260045260246000fd5b60006002820490506001821680620001f257607f821691505b602082108103620002085762000207620001aa565b5b50919050565b613cba806200021e6000396000f3fe608060405234801561001057600080fd5b506004361061012c5760003560e01c80635dde49c3116100ad578063b88d4fde11610071578063b88d4fde14610353578063c87b56dd1461036f578063d105cdde1461039f578063e985e9c5146103cf578063fa6d6f8e146103ff5761012c565b80635dde49c31461029d5780636352211e146102b957806370a08231146102e957806395d89b4114610319578063a22cb465146103375761012c565b8063187c1bb4116100f4578063187c1bb4146101e957806323b872dd146102055780632f745c591461022157806342842e0e146102515780634f6ccce71461026d5761012c565b806301ffc9a71461013157806306fdde0314610161578063081812fc1461017f578063095ea7b3146101af57806318160ddd146101cb575b600080fd5b61014b6004803603810190610146919061282b565b61041b565b6040516101589190612873565b60405180910390f35b61016961042d565b6040516101769190612927565b60405180910390f35b6101996004803603810190610194919061297f565b6104bf565b6040516101a691906129ed565b60405180910390f35b6101c960048036038101906101c49190612a34565b610505565b005b6101d361061c565b6040516101e09190612a83565b60405180910390f35b61020360048036038101906101fe9190612a9e565b610629565b005b61021f600480360381019061021a9190612acb565b6107e9565b005b61023b60048036038101906102369190612a34565b610849565b6040516102489190612a83565b60405180910390f35b61026b60048036038101906102669190612acb565b6108ee565b005b6102876004803603810190610282919061297f565b61090e565b6040516102949190612a83565b60405180910390f35b6102b760048036038101906102b29190612a9e565b61097f565b005b6102d360048036038101906102ce919061297f565b610afc565b6040516102e091906129ed565b60405180910390f35b61030360048036038101906102fe9190612a9e565b610bad565b6040516103109190612a83565b60405180910390f35b610321610c64565b60405161032e9190612927565b60405180910390f35b610351600480360381019061034c9190612b4a565b610cf6565b005b61036d60048036038101906103689190612cbf565b610d0c565b005b6103896004803603810190610384919061297f565b610d6e565b6040516103969190612927565b60405180910390f35b6103b960048036038101906103b4919061297f565b610dd6565b6040516103c69190612e1f565b60405180910390f35b6103e960048036038101906103e49190612e41565b611065565b6040516103f69190612873565b60405180910390f35b61041960048036038101906104149190612f22565b6110f9565b005b600061042682611570565b9050919050565b60606000805461043c9061300c565b80601f01602080910402602001604051908101604052809291908181526020018280546104689061300c565b80156104b55780601f1061048a576101008083540402835291602001916104b5565b820191906000526020600020905b81548152906001019060200180831161049857829003601f168201915b5050505050905090565b60006104ca826115ea565b6004600083815260200190815260200160002060009054906101000a900473ffffffffffffffffffffffffffffffffffffffff169050919050565b600061051082610afc565b90508073ffffffffffffffffffffffffffffffffffffffff168373ffffffffffffffffffffffffffffffffffffffff1603610580576040517f08c379a0000000000000000000000000000000000000000000000000000000008152600401610577906130af565b60405180910390fd5b8073ffffffffffffffffffffffffffffffffffffffff1661059f611635565b73ffffffffffffffffffffffffffffffffffffffff1614806105ce57506105cd816105c8611635565b611065565b5b61060d576040517f08c379a000000000000000000000000000000000000000000000000000000000815260040161060490613141565b60405180910390fd5b610617838361163d565b505050565b6000600880549050905090565b600d60009054906101000a900473ffffffffffffffffffffffffffffffffffffffff1673ffffffffffffffffffffffffffffffffffffffff163373ffffffffffffffffffffffffffffffffffffffff16146106b9576040517f08c379a00000000000000000000000000000000000000000000000000000000081526004016106b0906131ad565b60405180910390fd5b600c60008273ffffffffffffffffffffffffffffffffffffffff1673ffffffffffffffffffffffffffffffffffffffff16815260200190815260200160002060000160019054906101000a900460ff1615610749576040517f08c379a000000000000000000000000000000000000000000000000000000000815260040161074090613219565b60405180910390fd5b604051806040016040528060011515815260200160011515815250600c60008373ffffffffffffffffffffffffffffffffffffffff1673ffffffffffffffffffffffffffffffffffffffff16815260200190815260200160002060008201518160000160006101000a81548160ff02191690831515021790555060208201518160000160016101000a81548160ff02191690831515021790555090505050565b6107fa6107f4611635565b826116f6565b610839576040517f08c379a0000000000000000000000000000000000000000000000000000000008152600401610830906132ab565b60405180910390fd5b61084483838361178b565b505050565b600061085483610bad565b8210610895576040517f08c379a000000000000000000000000000000000000000000000000000000000815260040161088c9061333d565b60405180910390fd5b600660008473ffffffffffffffffffffffffffffffffffffffff1673ffffffffffffffffffffffffffffffffffffffff168152602001908152602001600020600083815260200190815260200160002054905092915050565b61090983838360405180602001604052806000815250610d0c565b505050565b600061091861061c565b8210610959576040517f08c379a0000000000000000000000000000000000000000000000000000000008152600401610950906133cf565b60405180910390fd5b6008828154811061096d5761096c6133ef565b5b90600052602060002001549050919050565b600d60009054906101000a900473ffffffffffffffffffffffffffffffffffffffff1673ffffffffffffffffffffffffffffffffffffffff163373ffffffffffffffffffffffffffffffffffffffff1614610a0f576040517f08c379a0000000000000000000000000000000000000000000000000000000008152600401610a06906131ad565b60405180910390fd5b600c60008273ffffffffffffffffffffffffffffffffffffffff1673ffffffffffffffffffffffffffffffffffffffff16815260200190815260200160002060000160019054906101000a900460ff16610a9e576040517f08c379a0000000000000000000000000000000000000000000000000000000008152600401610a959061346a565b60405180910390fd5b6000600c60008373ffffffffffffffffffffffffffffffffffffffff1673ffffffffffffffffffffffffffffffffffffffff16815260200190815260200160002060000160006101000a81548160ff02191690831515021790555050565b6000806002600084815260200190815260200160002060009054906101000a900473ffffffffffffffffffffffffffffffffffffffff169050600073ffffffffffffffffffffffffffffffffffffffff168173ffffffffffffffffffffffffffffffffffffffff1603610ba4576040517f08c379a0000000000000000000000000000000000000000000000000000000008152600401610b9b906134d6565b60405180910390fd5b80915050919050565b60008073ffffffffffffffffffffffffffffffffffffffff168273ffffffffffffffffffffffffffffffffffffffff1603610c1d576040517f08c379a0000000000000000000000000000000000000000000000000000000008152600401610c1490613568565b60405180910390fd5b600360008373ffffffffffffffffffffffffffffffffffffffff1673ffffffffffffffffffffffffffffffffffffffff168152602001908152602001600020549050919050565b606060018054610c739061300c565b80601f0160208091040260200160405190810160405280929190818152602001828054610c9f9061300c565b8015610cec5780601f10610cc157610100808354040283529160200191610cec565b820191906000526020600020905b815481529060010190602001808311610ccf57829003601f168201915b5050505050905090565b610d08610d01611635565b83836119f1565b5050565b610d1d610d17611635565b836116f6565b610d5c576040517f08c379a0000000000000000000000000000000000000000000000000000000008152600401610d53906132ab565b60405180910390fd5b610d6884848484611b5d565b50505050565b6060610d79826115ea565b6000610d83611bb9565b90506000815111610da35760405180602001604052806000815250610dce565b80610dad84611bd0565b604051602001610dbe9291906135c4565b6040516020818303038152906040525b915050919050565b610dde6126c1565b600b60008381526020019081526020016000206040518060a0016040529081600082018054610e0c9061300c565b80601f0160208091040260200160405190810160405280929190818152602001828054610e389061300c565b8015610e855780601f10610e5a57610100808354040283529160200191610e85565b820191906000526020600020905b815481529060010190602001808311610e6857829003601f168201915b50505050508152602001600182018054610e9e9061300c565b80601f0160208091040260200160405190810160405280929190818152602001828054610eca9061300c565b8015610f175780601f10610eec57610100808354040283529160200191610f17565b820191906000526020600020905b815481529060010190602001808311610efa57829003601f168201915b505050505081526020016002820160009054906101000a900473ffffffffffffffffffffffffffffffffffffffff1673ffffffffffffffffffffffffffffffffffffffff1673ffffffffffffffffffffffffffffffffffffffff1681526020016003820160009054906101000a900473ffffffffffffffffffffffffffffffffffffffff1673ffffffffffffffffffffffffffffffffffffffff1673ffffffffffffffffffffffffffffffffffffffff168152602001600482018054610fdc9061300c565b80601f01602080910402602001604051908101604052809291908181526020018280546110089061300c565b80156110555780601f1061102a57610100808354040283529160200191611055565b820191906000526020600020905b81548152906001019060200180831161103857829003601f168201915b5050505050815250509050919050565b6000600560008473ffffffffffffffffffffffffffffffffffffffff1673ffffffffffffffffffffffffffffffffffffffff16815260200190815260200160002060008373ffffffffffffffffffffffffffffffffffffffff1673ffffffffffffffffffffffffffffffffffffffff16815260200190815260200160002060009054906101000a900460ff16905092915050565b600d60009054906101000a900473ffffffffffffffffffffffffffffffffffffffff1673ffffffffffffffffffffffffffffffffffffffff163373ffffffffffffffffffffffffffffffffffffffff16036112cf57600061115a600a611d30565b90506040518060a001604052808581526020018481526020013373ffffffffffffffffffffffffffffffffffffffff1681526020018673ffffffffffffffffffffffffffffffffffffffff16815260200183815250600b600083815260200190815260200160002060008201518160000190805190602001906111de92919061271c565b5060208201518160010190805190602001906111fb92919061271c565b5060408201518160020160006101000a81548173ffffffffffffffffffffffffffffffffffffffff021916908373ffffffffffffffffffffffffffffffffffffffff16021790555060608201518160030160006101000a81548173ffffffffffffffffffffffffffffffffffffffff021916908373ffffffffffffffffffffffffffffffffffffffff16021790555060808201518160040190805190602001906112a692919061271c565b509050506112b43382611d3e565b6112bf33868361178b565b6112c9600a611f17565b5061156a565b600c60003373ffffffffffffffffffffffffffffffffffffffff1673ffffffffffffffffffffffffffffffffffffffff16815260200190815260200160002060000160019054906101000a900460ff1661135e576040517f08c379a000000000000000000000000000000000000000000000000000000000815260040161135590613634565b60405180910390fd5b600c60003373ffffffffffffffffffffffffffffffffffffffff1673ffffffffffffffffffffffffffffffffffffffff16815260200190815260200160002060000160009054906101000a900460ff166113ed576040517f08c379a00000000000000000000000000000000000000000000000000000000081526004016113e4906136c6565b60405180910390fd5b60006113f9600a611d30565b90506040518060a001604052808581526020018481526020013373ffffffffffffffffffffffffffffffffffffffff1681526020018673ffffffffffffffffffffffffffffffffffffffff16815260200183815250600b6000838152602001908152602001600020600082015181600001908051906020019061147d92919061271c565b50602082015181600101908051906020019061149a92919061271c565b5060408201518160020160006101000a81548173ffffffffffffffffffffffffffffffffffffffff021916908373ffffffffffffffffffffffffffffffffffffffff16021790555060608201518160030160006101000a81548173ffffffffffffffffffffffffffffffffffffffff021916908373ffffffffffffffffffffffffffffffffffffffff160217905550608082015181600401908051906020019061154592919061271c565b509050506115533382611d3e565b61155e33868361178b565b611568600a611f17565b505b50505050565b60007f780e9d63000000000000000000000000000000000000000000000000000000007bffffffffffffffffffffffffffffffffffffffffffffffffffffffff1916827bffffffffffffffffffffffffffffffffffffffffffffffffffffffff191614806115e357506115e282611f2d565b5b9050919050565b6115f38161200f565b611632576040517f08c379a0000000000000000000000000000000000000000000000000000000008152600401611629906134d6565b60405180910390fd5b50565b600033905090565b816004600083815260200190815260200160002060006101000a81548173ffffffffffffffffffffffffffffffffffffffff021916908373ffffffffffffffffffffffffffffffffffffffff160217905550808273ffffffffffffffffffffffffffffffffffffffff166116b083610afc565b73ffffffffffffffffffffffffffffffffffffffff167f8c5be1e5ebec7d5bd14f71427d1e84f3dd0314c0f7b2291e5b200ac8c7c3b92560405160405180910390a45050565b60008061170283610afc565b90508073ffffffffffffffffffffffffffffffffffffffff168473ffffffffffffffffffffffffffffffffffffffff16148061174457506117438185611065565b5b8061178257508373ffffffffffffffffffffffffffffffffffffffff1661176a846104bf565b73ffffffffffffffffffffffffffffffffffffffff16145b91505092915050565b8273ffffffffffffffffffffffffffffffffffffffff166117ab82610afc565b73ffffffffffffffffffffffffffffffffffffffff1614611801576040517f08c379a00000000000000000000000000000000000000000000000000000000081526004016117f890613758565b60405180910390fd5b600073ffffffffffffffffffffffffffffffffffffffff168273ffffffffffffffffffffffffffffffffffffffff1603611870576040517f08c379a0000000000000000000000000000000000000000000000000000000008152600401611867906137ea565b60405180910390fd5b61187b83838361207b565b61188660008261163d565b6001600360008573ffffffffffffffffffffffffffffffffffffffff1673ffffffffffffffffffffffffffffffffffffffff16815260200190815260200160002060008282546118d69190613839565b925050819055506001600360008473ffffffffffffffffffffffffffffffffffffffff1673ffffffffffffffffffffffffffffffffffffffff168152602001908152602001600020600082825461192d919061386d565b92505081905550816002600083815260200190815260200160002060006101000a81548173ffffffffffffffffffffffffffffffffffffffff021916908373ffffffffffffffffffffffffffffffffffffffff160217905550808273ffffffffffffffffffffffffffffffffffffffff168473ffffffffffffffffffffffffffffffffffffffff167fddf252ad1be2c89b69c2b068fc378daa952ba7f163c4a11628f55a4df523b3ef60405160405180910390a46119ec83838361208b565b505050565b8173ffffffffffffffffffffffffffffffffffffffff168373ffffffffffffffffffffffffffffffffffffffff1603611a5f576040517f08c379a0000000000000000000000000000000000000000000000000000000008152600401611a569061390f565b60405180910390fd5b80600560008573ffffffffffffffffffffffffffffffffffffffff1673ffffffffffffffffffffffffffffffffffffffff16815260200190815260200160002060008473ffffffffffffffffffffffffffffffffffffffff1673ffffffffffffffffffffffffffffffffffffffff16815260200190815260200160002060006101000a81548160ff0219169083151502179055508173ffffffffffffffffffffffffffffffffffffffff168373ffffffffffffffffffffffffffffffffffffffff167f17307eab39ab6107e8899845ad3d59bd9653f200f220920489ca2b5937696c3183604051611b509190612873565b60405180910390a3505050565b611b6884848461178b565b611b7484848484612090565b611bb3576040517f08c379a0000000000000000000000000000000000000000000000000000000008152600401611baa906139a1565b60405180910390fd5b50505050565b606060405180602001604052806000815250905090565b606060008203611c17576040518060400160405280600181526020017f30000000000000000000000000000000000000000000000000000000000000008152509050611d2b565b600082905060005b60008214611c49578080611c32906139c1565b915050600a82611c429190613a38565b9150611c1f565b60008167ffffffffffffffff811115611c6557611c64612b94565b5b6040519080825280601f01601f191660200182016040528015611c975781602001600182028036833780820191505090505b5090505b60008514611d2457600182611cb09190613839565b9150600a85611cbf9190613a69565b6030611ccb919061386d565b60f81b818381518110611ce157611ce06133ef565b5b60200101907effffffffffffffffffffffffffffffffffffffffffffffffffffffffffffff1916908160001a905350600a85611d1d9190613a38565b9450611c9b565b8093505050505b919050565b600081600001549050919050565b600073ffffffffffffffffffffffffffffffffffffffff168273ffffffffffffffffffffffffffffffffffffffff1603611dad576040517f08c379a0000000000000000000000000000000000000000000000000000000008152600401611da490613ae6565b60405180910390fd5b611db68161200f565b15611df6576040517f08c379a0000000000000000000000000000000000000000000000000000000008152600401611ded90613b52565b60405180910390fd5b611e026000838361207b565b6001600360008473ffffffffffffffffffffffffffffffffffffffff1673ffffffffffffffffffffffffffffffffffffffff1681526020019081526020016000206000828254611e52919061386d565b92505081905550816002600083815260200190815260200160002060006101000a81548173ffffffffffffffffffffffffffffffffffffffff021916908373ffffffffffffffffffffffffffffffffffffffff160217905550808273ffffffffffffffffffffffffffffffffffffffff16600073ffffffffffffffffffffffffffffffffffffffff167fddf252ad1be2c89b69c2b068fc378daa952ba7f163c4a11628f55a4df523b3ef60405160405180910390a4611f136000838361208b565b5050565b6001816000016000828254019250508190555050565b60007f80ac58cd000000000000000000000000000000000000000000000000000000007bffffffffffffffffffffffffffffffffffffffffffffffffffffffff1916827bffffffffffffffffffffffffffffffffffffffffffffffffffffffff19161480611ff857507f5b5e139f000000000000000000000000000000000000000000000000000000007bffffffffffffffffffffffffffffffffffffffffffffffffffffffff1916827bffffffffffffffffffffffffffffffffffffffffffffffffffffffff1916145b80612008575061200782612217565b5b9050919050565b60008073ffffffffffffffffffffffffffffffffffffffff166002600084815260200190815260200160002060009054906101000a900473ffffffffffffffffffffffffffffffffffffffff1673ffffffffffffffffffffffffffffffffffffffff1614159050919050565b612086838383612281565b505050565b505050565b60006120b18473ffffffffffffffffffffffffffffffffffffffff16612393565b1561220a578373ffffffffffffffffffffffffffffffffffffffff1663150b7a026120da611635565b8786866040518563ffffffff1660e01b81526004016120fc9493929190613bc7565b6020604051808303816000875af192505050801561213857506040513d601f19601f820116820180604052508101906121359190613c28565b60015b6121ba573d8060008114612168576040519150601f19603f3d011682016040523d82523d6000602084013e61216d565b606091505b5060008151036121b2576040517f08c379a00000000000000000000000000000000000000000000000000000000081526004016121a9906139a1565b60405180910390fd5b805181602001fd5b63150b7a0260e01b7bffffffffffffffffffffffffffffffffffffffffffffffffffffffff1916817bffffffffffffffffffffffffffffffffffffffffffffffffffffffff19161491505061220f565b600190505b949350505050565b60007f01ffc9a7000000000000000000000000000000000000000000000000000000007bffffffffffffffffffffffffffffffffffffffffffffffffffffffff1916827bffffffffffffffffffffffffffffffffffffffffffffffffffffffff1916149050919050565b61228c8383836123b6565b600073ffffffffffffffffffffffffffffffffffffffff168373ffffffffffffffffffffffffffffffffffffffff16036122ce576122c9816123bb565b61230d565b8173ffffffffffffffffffffffffffffffffffffffff168373ffffffffffffffffffffffffffffffffffffffff161461230c5761230b8382612404565b5b5b600073ffffffffffffffffffffffffffffffffffffffff168273ffffffffffffffffffffffffffffffffffffffff160361234f5761234a81612571565b61238e565b8273ffffffffffffffffffffffffffffffffffffffff168273ffffffffffffffffffffffffffffffffffffffff161461238d5761238c8282612642565b5b5b505050565b6000808273ffffffffffffffffffffffffffffffffffffffff163b119050919050565b505050565b6008805490506009600083815260200190815260200160002081905550600881908060018154018082558091505060019003906000526020600020016000909190919091505550565b6000600161241184610bad565b61241b9190613839565b9050600060076000848152602001908152602001600020549050818114612500576000600660008673ffffffffffffffffffffffffffffffffffffffff1673ffffffffffffffffffffffffffffffffffffffff168152602001908152602001600020600084815260200190815260200160002054905080600660008773ffffffffffffffffffffffffffffffffffffffff1673ffffffffffffffffffffffffffffffffffffffff168152602001908152602001600020600084815260200190815260200160002081905550816007600083815260200190815260200160002081905550505b6007600084815260200190815260200160002060009055600660008573ffffffffffffffffffffffffffffffffffffffff1673ffffffffffffffffffffffffffffffffffffffff16815260200190815260200160002060008381526020019081526020016000206000905550505050565b600060016008805490506125859190613839565b90506000600960008481526020019081526020016000205490506000600883815481106125b5576125b46133ef565b5b9060005260206000200154905080600883815481106125d7576125d66133ef565b5b90600052602060002001819055508160096000838152602001908152602001600020819055506009600085815260200190815260200160002060009055600880548061262657612625613c55565b5b6001900381819060005260206000200160009055905550505050565b600061264d83610bad565b905081600660008573ffffffffffffffffffffffffffffffffffffffff1673ffffffffffffffffffffffffffffffffffffffff168152602001908152602001600020600083815260200190815260200160002081905550806007600084815260200190815260200160002081905550505050565b6040518060a001604052806060815260200160608152602001600073ffffffffffffffffffffffffffffffffffffffff168152602001600073ffffffffffffffffffffffffffffffffffffffff168152602001606081525090565b8280546127289061300c565b90600052602060002090601f01602090048101928261274a5760008555612791565b82601f1061276357805160ff1916838001178555612791565b82800160010185558215612791579182015b82811115612790578251825591602001919060010190612775565b5b50905061279e91906127a2565b5090565b5b808211156127bb5760008160009055506001016127a3565b5090565b6000604051905090565b600080fd5b600080fd5b60007fffffffff0000000000000000000000000000000000000000000000000000000082169050919050565b612808816127d3565b811461281357600080fd5b50565b600081359050612825816127ff565b92915050565b600060208284031215612841576128406127c9565b5b600061284f84828501612816565b91505092915050565b60008115159050919050565b61286d81612858565b82525050565b60006020820190506128886000830184612864565b92915050565b600081519050919050565b600082825260208201905092915050565b60005b838110156128c85780820151818401526020810190506128ad565b838111156128d7576000848401525b50505050565b6000601f19601f8301169050919050565b60006128f98261288e565b6129038185612899565b93506129138185602086016128aa565b61291c816128dd565b840191505092915050565b6000602082019050818103600083015261294181846128ee565b905092915050565b6000819050919050565b61295c81612949565b811461296757600080fd5b50565b60008135905061297981612953565b92915050565b600060208284031215612995576129946127c9565b5b60006129a38482850161296a565b91505092915050565b600073ffffffffffffffffffffffffffffffffffffffff82169050919050565b60006129d7826129ac565b9050919050565b6129e7816129cc565b82525050565b6000602082019050612a0260008301846129de565b92915050565b612a11816129cc565b8114612a1c57600080fd5b50565b600081359050612a2e81612a08565b92915050565b60008060408385031215612a4b57612a4a6127c9565b5b6000612a5985828601612a1f565b9250506020612a6a8582860161296a565b9150509250929050565b612a7d81612949565b82525050565b6000602082019050612a986000830184612a74565b92915050565b600060208284031215612ab457612ab36127c9565b5b6000612ac284828501612a1f565b91505092915050565b600080600060608486031215612ae457612ae36127c9565b5b6000612af286828701612a1f565b9350506020612b0386828701612a1f565b9250506040612b148682870161296a565b9150509250925092565b612b2781612858565b8114612b3257600080fd5b50565b600081359050612b4481612b1e565b92915050565b60008060408385031215612b6157612b606127c9565b5b6000612b6f85828601612a1f565b9250506020612b8085828601612b35565b9150509250929050565b600080fd5b600080fd5b7f4e487b7100000000000000000000000000000000000000000000000000000000600052604160045260246000fd5b612bcc826128dd565b810181811067ffffffffffffffff82111715612beb57612bea612b94565b5b80604052505050565b6000612bfe6127bf565b9050612c0a8282612bc3565b919050565b600067ffffffffffffffff821115612c2a57612c29612b94565b5b612c33826128dd565b9050602081019050919050565b82818337600083830152505050565b6000612c62612c5d84612c0f565b612bf4565b905082815260208101848484011115612c7e57612c7d612b8f565b5b612c89848285612c40565b509392505050565b600082601f830112612ca657612ca5612b8a565b5b8135612cb6848260208601612c4f565b91505092915050565b60008060008060808587031215612cd957612cd86127c9565b5b6000612ce787828801612a1f565b9450506020612cf887828801612a1f565b9350506040612d098782880161296a565b925050606085013567ffffffffffffffff811115612d2a57612d296127ce565b5b612d3687828801612c91565b91505092959194509250565b600082825260208201905092915050565b6000612d5e8261288e565b612d688185612d42565b9350612d788185602086016128aa565b612d81816128dd565b840191505092915050565b612d95816129cc565b82525050565b600060a0830160008301518482036000860152612db88282612d53565b91505060208301518482036020860152612dd28282612d53565b9150506040830151612de76040860182612d8c565b506060830151612dfa6060860182612d8c565b5060808301518482036080860152612e128282612d53565b9150508091505092915050565b60006020820190508181036000830152612e398184612d9b565b905092915050565b60008060408385031215612e5857612e576127c9565b5b6000612e6685828601612a1f565b9250506020612e7785828601612a1f565b9150509250929050565b600067ffffffffffffffff821115612e9c57612e9b612b94565b5b612ea5826128dd565b9050602081019050919050565b6000612ec5612ec084612e81565b612bf4565b905082815260208101848484011115612ee157612ee0612b8f565b5b612eec848285612c40565b509392505050565b600082601f830112612f0957612f08612b8a565b5b8135612f19848260208601612eb2565b91505092915050565b60008060008060808587031215612f3c57612f3b6127c9565b5b6000612f4a87828801612a1f565b945050602085013567ffffffffffffffff811115612f6b57612f6a6127ce565b5b612f7787828801612ef4565b935050604085013567ffffffffffffffff811115612f9857612f976127ce565b5b612fa487828801612ef4565b925050606085013567ffffffffffffffff811115612fc557612fc46127ce565b5b612fd187828801612ef4565b91505092959194509250565b7f4e487b7100000000000000000000000000000000000000000000000000000000600052602260045260246000fd5b6000600282049050600182168061302457607f821691505b60208210810361303757613036612fdd565b5b50919050565b7f4552433732313a20617070726f76616c20746f2063757272656e74206f776e6560008201527f7200000000000000000000000000000000000000000000000000000000000000602082015250565b6000613099602183612899565b91506130a48261303d565b604082019050919050565b600060208201905081810360008301526130c88161308c565b9050919050565b7f4552433732313a20617070726f76652063616c6c6572206973206e6f7420746f60008201527f6b656e206f776e6572206e6f7220617070726f76656420666f7220616c6c0000602082015250565b600061312b603e83612899565b9150613136826130cf565b604082019050919050565b6000602082019050818103600083015261315a8161311e565b9050919050565b7f53656e646572206973206e6f7420616e2061646d696e00000000000000000000600082015250565b6000613197601683612899565b91506131a282613161565b602082019050919050565b600060208201905081810360008301526131c68161318a565b9050919050565b7f4163636f756e74616e7420616c72656164792061646465640000000000000000600082015250565b6000613203601883612899565b915061320e826131cd565b602082019050919050565b60006020820190508181036000830152613232816131f6565b9050919050565b7f4552433732313a2063616c6c6572206973206e6f7420746f6b656e206f776e6560008201527f72206e6f7220617070726f766564000000000000000000000000000000000000602082015250565b6000613295602e83612899565b91506132a082613239565b604082019050919050565b600060208201905081810360008301526132c481613288565b9050919050565b7f455243373231456e756d657261626c653a206f776e657220696e646578206f7560008201527f74206f6620626f756e6473000000000000000000000000000000000000000000602082015250565b6000613327602b83612899565b9150613332826132cb565b604082019050919050565b600060208201905081810360008301526133568161331a565b9050919050565b7f455243373231456e756d657261626c653a20676c6f62616c20696e646578206f60008201527f7574206f6620626f756e64730000000000000000000000000000000000000000602082015250565b60006133b9602c83612899565b91506133c48261335d565b604082019050919050565b600060208201905081810360008301526133e8816133ac565b9050919050565b7f4e487b7100000000000000000000000000000000000000000000000000000000600052603260045260246000fd5b7f4163636f756e74616e74206e6f74206578697374696e67000000000000000000600082015250565b6000613454601783612899565b915061345f8261341e565b602082019050919050565b6000602082019050818103600083015261348381613447565b9050919050565b7f4552433732313a20696e76616c696420746f6b656e2049440000000000000000600082015250565b60006134c0601883612899565b91506134cb8261348a565b602082019050919050565b600060208201905081810360008301526134ef816134b3565b9050919050565b7f4552433732313a2061646472657373207a65726f206973206e6f74206120766160008201527f6c6964206f776e65720000000000000000000000000000000000000000000000602082015250565b6000613552602983612899565b915061355d826134f6565b604082019050919050565b6000602082019050818103600083015261358181613545565b9050919050565b600081905092915050565b600061359e8261288e565b6135a88185613588565b93506135b88185602086016128aa565b80840191505092915050565b60006135d08285613593565b91506135dc8284613593565b91508190509392505050565b7f53656e646572206973206e6f7420616e206163636f756e74616e740000000000600082015250565b600061361e601b83612899565b9150613629826135e8565b602082019050919050565b6000602082019050818103600083015261364d81613611565b9050919050565b7f53656e646572206973206e6f7420616e20616374697665206163636f756e746160008201527f6e74000000000000000000000000000000000000000000000000000000000000602082015250565b60006136b0602283612899565b91506136bb82613654565b604082019050919050565b600060208201905081810360008301526136df816136a3565b9050919050565b7f4552433732313a207472616e736665722066726f6d20696e636f72726563742060008201527f6f776e6572000000000000000000000000000000000000000000000000000000602082015250565b6000613742602583612899565b915061374d826136e6565b604082019050919050565b6000602082019050818103600083015261377181613735565b9050919050565b7f4552433732313a207472616e7366657220746f20746865207a65726f2061646460008201527f7265737300000000000000000000000000000000000000000000000000000000602082015250565b60006137d4602483612899565b91506137df82613778565b604082019050919050565b60006020820190508181036000830152613803816137c7565b9050919050565b7f4e487b7100000000000000000000000000000000000000000000000000000000600052601160045260246000fd5b600061384482612949565b915061384f83612949565b9250828210156138625761386161380a565b5b828203905092915050565b600061387882612949565b915061388383612949565b9250827fffffffffffffffffffffffffffffffffffffffffffffffffffffffffffffffff038211156138b8576138b761380a565b5b828201905092915050565b7f4552433732313a20617070726f766520746f2063616c6c657200000000000000600082015250565b60006138f9601983612899565b9150613904826138c3565b602082019050919050565b60006020820190508181036000830152613928816138ec565b9050919050565b7f4552433732313a207472616e7366657220746f206e6f6e20455243373231526560008201527f63656976657220696d706c656d656e7465720000000000000000000000000000602082015250565b600061398b603283612899565b91506139968261392f565b604082019050919050565b600060208201905081810360008301526139ba8161397e565b9050919050565b60006139cc82612949565b91507fffffffffffffffffffffffffffffffffffffffffffffffffffffffffffffffff82036139fe576139fd61380a565b5b600182019050919050565b7f4e487b7100000000000000000000000000000000000000000000000000000000600052601260045260246000fd5b6000613a4382612949565b9150613a4e83612949565b925082613a5e57613a5d613a09565b5b828204905092915050565b6000613a7482612949565b9150613a7f83612949565b925082613a8f57613a8e613a09565b5b828206905092915050565b7f4552433732313a206d696e7420746f20746865207a65726f2061646472657373600082015250565b6000613ad0602083612899565b9150613adb82613a9a565b602082019050919050565b60006020820190508181036000830152613aff81613ac3565b9050919050565b7f4552433732313a20746f6b656e20616c7265616479206d696e74656400000000600082015250565b6000613b3c601c83612899565b9150613b4782613b06565b602082019050919050565b60006020820190508181036000830152613b6b81613b2f565b9050919050565b600081519050919050565b600082825260208201905092915050565b6000613b9982613b72565b613ba38185613b7d565b9350613bb38185602086016128aa565b613bbc816128dd565b840191505092915050565b6000608082019050613bdc60008301876129de565b613be960208301866129de565b613bf66040830185612a74565b8181036060830152613c088184613b8e565b905095945050505050565b600081519050613c22816127ff565b92915050565b600060208284031215613c3e57613c3d6127c9565b5b6000613c4c84828501613c13565b91505092915050565b7f4e487b7100000000000000000000000000000000000000000000000000000000600052603160045260246000fdfea2646970667358221220af6e74918cc98d32858540ff5d947cf5225eee2dce94fd5e0f76fe5d9f49fe1d64736f6c634300080d0033",
  "immutableReferences": {},
  "source": "// SPDX-License-Identifier: MIT\npragma solidity >=0.4.22 <0.9.0;\n\nimport '@openzeppelin/contracts/token/ERC721/ERC721.sol';\nimport '@openzeppelin/contracts/token/ERC721/extensions/ERC721Enumerable.sol';\nimport '@openzeppelin/contracts/utils/Counters.sol';\n\ncontract DocumentNFT is ERC721, ERC721Enumerable\n{\n  using Counters for Counters.Counter;\n  Counters.Counter documentIds;\n\n  // Document data\n  struct DocumentMetadata\n  {\n    string name;\n    string documentType;\n    address fromOrganization;\n    address owner;\n    string uri;\n  }\n  \n  // Accountant status\n  struct Accountant\n  {\n    bool isActive;\n    bool doesExist;\n  }\n  \n  mapping(uint256 => DocumentMetadata) documents;\n  mapping(address => Accountant) accountants;\n\n  address ADMIN_ADDRESS = address(0);\n\n  constructor() ERC721('DocumentNFT', 'DOC') {}\n\n  function sendDocument(address _receiver, string memory _name, string memory _documentType, string memory _uri) public sendingRestriction\n  {\n    // Generate a unique, new document id\n    uint256 newDocumentId = documentIds.current();\n\n    // Create a DocumentMetadata instance and store it to the documents mapping\n    documents[newDocumentId] = DocumentMetadata(_name, _documentType, msg.sender, _receiver, _uri);\n\n    _mint(msg.sender, newDocumentId);                 // mint\n    _transfer(msg.sender, _receiver, newDocumentId);  // transfer\n\n    documentIds.increment();\n  }\n\n  function getDocumentData(uint256 _documentId) public view returns(DocumentMetadata memory)\n  {\n    return documents[_documentId];\n  }\n\n  // Accountant\n  function addAccountant(address _accountant) public\n  {\n    require(msg.sender == ADMIN_ADDRESS, \"Sender is not an admin\");\n    require(!accountants[_accountant].doesExist, \"Accountant already added\");\n\n    accountants[_accountant] = Accountant(true, true);\n  }\n\n  function setInactiveAccountant(address _accountant) public\n  {\n    require(msg.sender == ADMIN_ADDRESS, \"Sender is not an admin\");\n    require(accountants[_accountant].doesExist, \"Accountant not existing\");\n\n    accountants[_accountant].isActive = false;\n  }\n\n  modifier sendingRestriction()\n  {\n    // If the sender is the admin, allow sending\n    if(msg.sender == ADMIN_ADDRESS)\n    {\n      _;\n    }\n    // Else, check if the sender is an accountant. If so, allow sending\n    else\n    {\n      require(accountants[msg.sender].doesExist, \"Sender is not an accountant\");\n      require(accountants[msg.sender].isActive, \"Sender is not an active accountant\");\n      _;\n    }\n  }\n\n  // Overrides\n  function _beforeTokenTransfer(address from, address to, uint256 tokenId) internal override(ERC721, ERC721Enumerable)\n  {\n    super._beforeTokenTransfer(from, to, tokenId);\n  }\n\n  function supportsInterface(bytes4 interfaceId) public view override(ERC721, ERC721Enumerable) returns(bool)\n  {\n    return super.supportsInterface(interfaceId);\n  }\n}\n",
  "sourcePath": "C:\\Users\\admin\\Documents\\GitHub\\iCertify\\server\\contracts\\DocumentNFT.sol",
  "compiler": {
    "name": "solc",
    "version": "0.8.13+commit.abaa5c0e.Emscripten.clang"
  },
  "schemaVersion": "3.4.7",
  "updatedAt": "2022-10-05T13:05:52.126Z",
  "devdoc": {
    "kind": "dev",
    "methods": {
      "approve(address,uint256)": {
        "details": "See {IERC721-approve}."
      },
      "balanceOf(address)": {
        "details": "See {IERC721-balanceOf}."
      },
      "getApproved(uint256)": {
        "details": "See {IERC721-getApproved}."
      },
      "isApprovedForAll(address,address)": {
        "details": "See {IERC721-isApprovedForAll}."
      },
      "name()": {
        "details": "See {IERC721Metadata-name}."
      },
      "ownerOf(uint256)": {
        "details": "See {IERC721-ownerOf}."
      },
      "safeTransferFrom(address,address,uint256)": {
        "details": "See {IERC721-safeTransferFrom}."
      },
      "safeTransferFrom(address,address,uint256,bytes)": {
        "details": "See {IERC721-safeTransferFrom}."
      },
      "setApprovalForAll(address,bool)": {
        "details": "See {IERC721-setApprovalForAll}."
      },
      "symbol()": {
        "details": "See {IERC721Metadata-symbol}."
      },
      "tokenByIndex(uint256)": {
        "details": "See {IERC721Enumerable-tokenByIndex}."
      },
      "tokenOfOwnerByIndex(address,uint256)": {
        "details": "See {IERC721Enumerable-tokenOfOwnerByIndex}."
      },
      "tokenURI(uint256)": {
        "details": "See {IERC721Metadata-tokenURI}."
      },
      "totalSupply()": {
        "details": "See {IERC721Enumerable-totalSupply}."
      },
      "transferFrom(address,address,uint256)": {
        "details": "See {IERC721-transferFrom}."
      }
    },
    "version": 1
  },
  "userdoc": {
    "kind": "user",
    "methods": {},
    "version": 1
  }
}