{
  "contractName": "DocumentNFT",
  "abi": [
    {
      "inputs": [],
      "stateMutability": "nonpayable",
      "type": "constructor"
    },
    {
      "anonymous": false,
      "inputs": [
        {
          "indexed": true,
          "internalType": "address",
          "name": "owner",
          "type": "address"
        },
        {
          "indexed": true,
          "internalType": "address",
          "name": "approved",
          "type": "address"
        },
        {
          "indexed": true,
          "internalType": "uint256",
          "name": "tokenId",
          "type": "uint256"
        }
      ],
      "name": "Approval",
      "type": "event"
    },
    {
      "anonymous": false,
      "inputs": [
        {
          "indexed": true,
          "internalType": "address",
          "name": "owner",
          "type": "address"
        },
        {
          "indexed": true,
          "internalType": "address",
          "name": "operator",
          "type": "address"
        },
        {
          "indexed": false,
          "internalType": "bool",
          "name": "approved",
          "type": "bool"
        }
      ],
      "name": "ApprovalForAll",
      "type": "event"
    },
    {
      "anonymous": false,
      "inputs": [
        {
          "indexed": true,
          "internalType": "address",
          "name": "from",
          "type": "address"
        },
        {
          "indexed": true,
          "internalType": "address",
          "name": "to",
          "type": "address"
        },
        {
          "indexed": true,
          "internalType": "uint256",
          "name": "tokenId",
          "type": "uint256"
        }
      ],
      "name": "Transfer",
      "type": "event"
    },
    {
      "inputs": [
        {
          "internalType": "address",
          "name": "to",
          "type": "address"
        },
        {
          "internalType": "uint256",
          "name": "tokenId",
          "type": "uint256"
        }
      ],
      "name": "approve",
      "outputs": [],
      "stateMutability": "nonpayable",
      "type": "function"
    },
    {
      "inputs": [
        {
          "internalType": "address",
          "name": "owner",
          "type": "address"
        }
      ],
      "name": "balanceOf",
      "outputs": [
        {
          "internalType": "uint256",
          "name": "",
          "type": "uint256"
        }
      ],
      "stateMutability": "view",
      "type": "function",
      "constant": true
    },
    {
      "inputs": [
        {
          "internalType": "uint256",
          "name": "tokenId",
          "type": "uint256"
        }
      ],
      "name": "getApproved",
      "outputs": [
        {
          "internalType": "address",
          "name": "",
          "type": "address"
        }
      ],
      "stateMutability": "view",
      "type": "function",
      "constant": true
    },
    {
      "inputs": [
        {
          "internalType": "address",
          "name": "owner",
          "type": "address"
        },
        {
          "internalType": "address",
          "name": "operator",
          "type": "address"
        }
      ],
      "name": "isApprovedForAll",
      "outputs": [
        {
          "internalType": "bool",
          "name": "",
          "type": "bool"
        }
      ],
      "stateMutability": "view",
      "type": "function",
      "constant": true
    },
    {
      "inputs": [],
      "name": "name",
      "outputs": [
        {
          "internalType": "string",
          "name": "",
          "type": "string"
        }
      ],
      "stateMutability": "view",
      "type": "function",
      "constant": true
    },
    {
      "inputs": [
        {
          "internalType": "uint256",
          "name": "tokenId",
          "type": "uint256"
        }
      ],
      "name": "ownerOf",
      "outputs": [
        {
          "internalType": "address",
          "name": "",
          "type": "address"
        }
      ],
      "stateMutability": "view",
      "type": "function",
      "constant": true
    },
    {
      "inputs": [
        {
          "internalType": "address",
          "name": "from",
          "type": "address"
        },
        {
          "internalType": "address",
          "name": "to",
          "type": "address"
        },
        {
          "internalType": "uint256",
          "name": "tokenId",
          "type": "uint256"
        }
      ],
      "name": "safeTransferFrom",
      "outputs": [],
      "stateMutability": "nonpayable",
      "type": "function"
    },
    {
      "inputs": [
        {
          "internalType": "address",
          "name": "from",
          "type": "address"
        },
        {
          "internalType": "address",
          "name": "to",
          "type": "address"
        },
        {
          "internalType": "uint256",
          "name": "tokenId",
          "type": "uint256"
        },
        {
          "internalType": "bytes",
          "name": "data",
          "type": "bytes"
        }
      ],
      "name": "safeTransferFrom",
      "outputs": [],
      "stateMutability": "nonpayable",
      "type": "function"
    },
    {
      "inputs": [
        {
          "internalType": "address",
          "name": "operator",
          "type": "address"
        },
        {
          "internalType": "bool",
          "name": "approved",
          "type": "bool"
        }
      ],
      "name": "setApprovalForAll",
      "outputs": [],
      "stateMutability": "nonpayable",
      "type": "function"
    },
    {
      "inputs": [],
      "name": "symbol",
      "outputs": [
        {
          "internalType": "string",
          "name": "",
          "type": "string"
        }
      ],
      "stateMutability": "view",
      "type": "function",
      "constant": true
    },
    {
      "inputs": [
        {
          "internalType": "uint256",
          "name": "index",
          "type": "uint256"
        }
      ],
      "name": "tokenByIndex",
      "outputs": [
        {
          "internalType": "uint256",
          "name": "",
          "type": "uint256"
        }
      ],
      "stateMutability": "view",
      "type": "function",
      "constant": true
    },
    {
      "inputs": [
        {
          "internalType": "address",
          "name": "owner",
          "type": "address"
        },
        {
          "internalType": "uint256",
          "name": "index",
          "type": "uint256"
        }
      ],
      "name": "tokenOfOwnerByIndex",
      "outputs": [
        {
          "internalType": "uint256",
          "name": "",
          "type": "uint256"
        }
      ],
      "stateMutability": "view",
      "type": "function",
      "constant": true
    },
    {
      "inputs": [
        {
          "internalType": "uint256",
          "name": "tokenId",
          "type": "uint256"
        }
      ],
      "name": "tokenURI",
      "outputs": [
        {
          "internalType": "string",
          "name": "",
          "type": "string"
        }
      ],
      "stateMutability": "view",
      "type": "function",
      "constant": true
    },
    {
      "inputs": [],
      "name": "totalSupply",
      "outputs": [
        {
          "internalType": "uint256",
          "name": "",
          "type": "uint256"
        }
      ],
      "stateMutability": "view",
      "type": "function",
      "constant": true
    },
    {
      "inputs": [
        {
          "internalType": "address",
          "name": "from",
          "type": "address"
        },
        {
          "internalType": "address",
          "name": "to",
          "type": "address"
        },
        {
          "internalType": "uint256",
          "name": "tokenId",
          "type": "uint256"
        }
      ],
      "name": "transferFrom",
      "outputs": [],
      "stateMutability": "nonpayable",
      "type": "function"
    },
    {
      "inputs": [
        {
          "internalType": "address",
          "name": "_receiver",
          "type": "address"
        },
        {
          "internalType": "string",
          "name": "_name",
          "type": "string"
        },
        {
          "internalType": "string",
          "name": "_documentType",
          "type": "string"
        },
        {
          "internalType": "string",
          "name": "_uri",
          "type": "string"
        }
      ],
      "name": "sendDocument",
      "outputs": [],
      "stateMutability": "nonpayable",
      "type": "function"
    },
    {
      "inputs": [
        {
          "internalType": "uint256",
          "name": "_documentId",
          "type": "uint256"
        }
      ],
      "name": "getDocumentData",
      "outputs": [
        {
          "components": [
            {
              "internalType": "string",
              "name": "name",
              "type": "string"
            },
            {
              "internalType": "string",
              "name": "documentType",
              "type": "string"
            },
            {
              "internalType": "address",
              "name": "fromOrganization",
              "type": "address"
            },
            {
              "internalType": "address",
              "name": "owner",
              "type": "address"
            },
            {
              "internalType": "string",
              "name": "uri",
              "type": "string"
            }
          ],
          "internalType": "struct DocumentNFT.DocumentMetadata",
          "name": "",
          "type": "tuple"
        }
      ],
      "stateMutability": "view",
      "type": "function",
      "constant": true
    },
    {
      "inputs": [
        {
          "internalType": "address",
          "name": "_accountant",
          "type": "address"
        }
      ],
      "name": "addAccountant",
      "outputs": [],
      "stateMutability": "nonpayable",
      "type": "function"
    },
    {
      "inputs": [
        {
          "internalType": "address",
          "name": "_accountant",
          "type": "address"
        }
      ],
      "name": "setInactiveAccountant",
      "outputs": [],
      "stateMutability": "nonpayable",
      "type": "function"
    },
    {
      "inputs": [
        {
          "internalType": "bytes4",
          "name": "interfaceId",
          "type": "bytes4"
        }
      ],
      "name": "supportsInterface",
      "outputs": [
        {
          "internalType": "bool",
          "name": "",
          "type": "bool"
        }
      ],
      "stateMutability": "view",
      "type": "function",
      "constant": true
    }
  ],
  "bytecode": "0x60806040526000600d60006101000a81548173ffffffffffffffffffffffffffffffffffffffff021916908373ffffffffffffffffffffffffffffffffffffffff1602179055503480156200005357600080fd5b506040518060400160405280600b81526020017f446f63756d656e744e46540000000000000000000000000000000000000000008152506040518060400160405280600381526020017f444f4300000000000000000000000000000000000000000000000000000000008152508160009080519060200190620000d8929190620000fa565b508060019080519060200190620000f1929190620000fa565b5050506200020e565b8280546200010890620001d9565b90600052602060002090601f0160209004810192826200012c576000855562000178565b82601f106200014757805160ff191683800117855562000178565b8280016001018555821562000178579182015b82811115620001775782518255916020019190600101906200015a565b5b5090506200018791906200018b565b5090565b5b80821115620001a65760008160009055506001016200018c565b5090565b7f4e487b7100000000000000000000000000000000000000000000000000000000600052602260045260246000fd5b60006002820490506001821680620001f257607f821691505b602082108103620002085762000207620001aa565b5b50919050565b6138c7806200021e6000396000f3fe608060405234801561001057600080fd5b506004361061012c5760003560e01c80635dde49c3116100ad578063b88d4fde11610071578063b88d4fde14610353578063c87b56dd1461036f578063d105cdde1461039f578063e985e9c5146103cf578063fa6d6f8e146103ff5761012c565b80635dde49c31461029d5780636352211e146102b957806370a08231146102e957806395d89b4114610319578063a22cb465146103375761012c565b8063187c1bb4116100f4578063187c1bb4146101e957806323b872dd146102055780632f745c591461022157806342842e0e146102515780634f6ccce71461026d5761012c565b806301ffc9a71461013157806306fdde0314610161578063081812fc1461017f578063095ea7b3146101af57806318160ddd146101cb575b600080fd5b61014b60048036038101906101469190612536565b61041b565b604051610158919061257e565b60405180910390f35b61016961042d565b6040516101769190612632565b60405180910390f35b6101996004803603810190610194919061268a565b6104bf565b6040516101a691906126f8565b60405180910390f35b6101c960048036038101906101c4919061273f565b610505565b005b6101d361061c565b6040516101e0919061278e565b60405180910390f35b61020360048036038101906101fe91906127a9565b610629565b005b61021f600480360381019061021a91906127d6565b6107e9565b005b61023b6004803603810190610236919061273f565b610849565b604051610248919061278e565b60405180910390f35b61026b600480360381019061026691906127d6565b6108ee565b005b6102876004803603810190610282919061268a565b61090e565b604051610294919061278e565b60405180910390f35b6102b760048036038101906102b291906127a9565b61097f565b005b6102d360048036038101906102ce919061268a565b610afc565b6040516102e091906126f8565b60405180910390f35b61030360048036038101906102fe91906127a9565b610bad565b604051610310919061278e565b60405180910390f35b610321610c64565b60405161032e9190612632565b60405180910390f35b610351600480360381019061034c9190612855565b610cf6565b005b61036d600480360381019061036891906129ca565b610d0c565b005b6103896004803603810190610384919061268a565b610d6e565b6040516103969190612632565b60405180910390f35b6103b960048036038101906103b4919061268a565b610dd6565b6040516103c69190612b2a565b60405180910390f35b6103e960048036038101906103e49190612b4c565b611065565b6040516103f6919061257e565b60405180910390f35b61041960048036038101906104149190612c2d565b6110f9565b005b60006104268261127b565b9050919050565b60606000805461043c90612d17565b80601f016020809104026020016040519081016040528092919081815260200182805461046890612d17565b80156104b55780601f1061048a576101008083540402835291602001916104b5565b820191906000526020600020905b81548152906001019060200180831161049857829003601f168201915b5050505050905090565b60006104ca826112f5565b6004600083815260200190815260200160002060009054906101000a900473ffffffffffffffffffffffffffffffffffffffff169050919050565b600061051082610afc565b90508073ffffffffffffffffffffffffffffffffffffffff168373ffffffffffffffffffffffffffffffffffffffff1603610580576040517f08c379a000000000000000000000000000000000000000000000000000000000815260040161057790612dba565b60405180910390fd5b8073ffffffffffffffffffffffffffffffffffffffff1661059f611340565b73ffffffffffffffffffffffffffffffffffffffff1614806105ce57506105cd816105c8611340565b611065565b5b61060d576040517f08c379a000000000000000000000000000000000000000000000000000000000815260040161060490612e4c565b60405180910390fd5b6106178383611348565b505050565b6000600880549050905090565b600d60009054906101000a900473ffffffffffffffffffffffffffffffffffffffff1673ffffffffffffffffffffffffffffffffffffffff163373ffffffffffffffffffffffffffffffffffffffff16146106b9576040517f08c379a00000000000000000000000000000000000000000000000000000000081526004016106b090612eb8565b60405180910390fd5b600c60008273ffffffffffffffffffffffffffffffffffffffff1673ffffffffffffffffffffffffffffffffffffffff16815260200190815260200160002060000160019054906101000a900460ff1615610749576040517f08c379a000000000000000000000000000000000000000000000000000000000815260040161074090612f24565b60405180910390fd5b604051806040016040528060011515815260200160011515815250600c60008373ffffffffffffffffffffffffffffffffffffffff1673ffffffffffffffffffffffffffffffffffffffff16815260200190815260200160002060008201518160000160006101000a81548160ff02191690831515021790555060208201518160000160016101000a81548160ff02191690831515021790555090505050565b6107fa6107f4611340565b82611401565b610839576040517f08c379a000000000000000000000000000000000000000000000000000000000815260040161083090612fb6565b60405180910390fd5b610844838383611496565b505050565b600061085483610bad565b8210610895576040517f08c379a000000000000000000000000000000000000000000000000000000000815260040161088c90613048565b60405180910390fd5b600660008473ffffffffffffffffffffffffffffffffffffffff1673ffffffffffffffffffffffffffffffffffffffff168152602001908152602001600020600083815260200190815260200160002054905092915050565b61090983838360405180602001604052806000815250610d0c565b505050565b600061091861061c565b8210610959576040517f08c379a0000000000000000000000000000000000000000000000000000000008152600401610950906130da565b60405180910390fd5b6008828154811061096d5761096c6130fa565b5b90600052602060002001549050919050565b600d60009054906101000a900473ffffffffffffffffffffffffffffffffffffffff1673ffffffffffffffffffffffffffffffffffffffff163373ffffffffffffffffffffffffffffffffffffffff1614610a0f576040517f08c379a0000000000000000000000000000000000000000000000000000000008152600401610a0690612eb8565b60405180910390fd5b600c60008273ffffffffffffffffffffffffffffffffffffffff1673ffffffffffffffffffffffffffffffffffffffff16815260200190815260200160002060000160019054906101000a900460ff16610a9e576040517f08c379a0000000000000000000000000000000000000000000000000000000008152600401610a9590613175565b60405180910390fd5b6000600c60008373ffffffffffffffffffffffffffffffffffffffff1673ffffffffffffffffffffffffffffffffffffffff16815260200190815260200160002060000160006101000a81548160ff02191690831515021790555050565b6000806002600084815260200190815260200160002060009054906101000a900473ffffffffffffffffffffffffffffffffffffffff169050600073ffffffffffffffffffffffffffffffffffffffff168173ffffffffffffffffffffffffffffffffffffffff1603610ba4576040517f08c379a0000000000000000000000000000000000000000000000000000000008152600401610b9b906131e1565b60405180910390fd5b80915050919050565b60008073ffffffffffffffffffffffffffffffffffffffff168273ffffffffffffffffffffffffffffffffffffffff1603610c1d576040517f08c379a0000000000000000000000000000000000000000000000000000000008152600401610c1490613273565b60405180910390fd5b600360008373ffffffffffffffffffffffffffffffffffffffff1673ffffffffffffffffffffffffffffffffffffffff168152602001908152602001600020549050919050565b606060018054610c7390612d17565b80601f0160208091040260200160405190810160405280929190818152602001828054610c9f90612d17565b8015610cec5780601f10610cc157610100808354040283529160200191610cec565b820191906000526020600020905b815481529060010190602001808311610ccf57829003601f168201915b5050505050905090565b610d08610d01611340565b83836116fc565b5050565b610d1d610d17611340565b83611401565b610d5c576040517f08c379a0000000000000000000000000000000000000000000000000000000008152600401610d5390612fb6565b60405180910390fd5b610d6884848484611868565b50505050565b6060610d79826112f5565b6000610d836118c4565b90506000815111610da35760405180602001604052806000815250610dce565b80610dad846118db565b604051602001610dbe9291906132cf565b6040516020818303038152906040525b915050919050565b610dde6123cc565b600b60008381526020019081526020016000206040518060a0016040529081600082018054610e0c90612d17565b80601f0160208091040260200160405190810160405280929190818152602001828054610e3890612d17565b8015610e855780601f10610e5a57610100808354040283529160200191610e85565b820191906000526020600020905b815481529060010190602001808311610e6857829003601f168201915b50505050508152602001600182018054610e9e90612d17565b80601f0160208091040260200160405190810160405280929190818152602001828054610eca90612d17565b8015610f175780601f10610eec57610100808354040283529160200191610f17565b820191906000526020600020905b815481529060010190602001808311610efa57829003601f168201915b505050505081526020016002820160009054906101000a900473ffffffffffffffffffffffffffffffffffffffff1673ffffffffffffffffffffffffffffffffffffffff1673ffffffffffffffffffffffffffffffffffffffff1681526020016003820160009054906101000a900473ffffffffffffffffffffffffffffffffffffffff1673ffffffffffffffffffffffffffffffffffffffff1673ffffffffffffffffffffffffffffffffffffffff168152602001600482018054610fdc90612d17565b80601f016020809104026020016040519081016040528092919081815260200182805461100890612d17565b80156110555780601f1061102a57610100808354040283529160200191611055565b820191906000526020600020905b81548152906001019060200180831161103857829003601f168201915b5050505050815250509050919050565b6000600560008473ffffffffffffffffffffffffffffffffffffffff1673ffffffffffffffffffffffffffffffffffffffff16815260200190815260200160002060008373ffffffffffffffffffffffffffffffffffffffff1673ffffffffffffffffffffffffffffffffffffffff16815260200190815260200160002060009054906101000a900460ff16905092915050565b6000611105600a611a3b565b90506040518060a001604052808581526020018481526020013373ffffffffffffffffffffffffffffffffffffffff1681526020018673ffffffffffffffffffffffffffffffffffffffff16815260200183815250600b60008381526020019081526020016000206000820151816000019080519060200190611189929190612427565b5060208201518160010190805190602001906111a6929190612427565b5060408201518160020160006101000a81548173ffffffffffffffffffffffffffffffffffffffff021916908373ffffffffffffffffffffffffffffffffffffffff16021790555060608201518160030160006101000a81548173ffffffffffffffffffffffffffffffffffffffff021916908373ffffffffffffffffffffffffffffffffffffffff1602179055506080820151816004019080519060200190611251929190612427565b5090505061125f3382611a49565b61126a338683611496565b611274600a611c22565b5050505050565b60007f780e9d63000000000000000000000000000000000000000000000000000000007bffffffffffffffffffffffffffffffffffffffffffffffffffffffff1916827bffffffffffffffffffffffffffffffffffffffffffffffffffffffff191614806112ee57506112ed82611c38565b5b9050919050565b6112fe81611d1a565b61133d576040517f08c379a0000000000000000000000000000000000000000000000000000000008152600401611334906131e1565b60405180910390fd5b50565b600033905090565b816004600083815260200190815260200160002060006101000a81548173ffffffffffffffffffffffffffffffffffffffff021916908373ffffffffffffffffffffffffffffffffffffffff160217905550808273ffffffffffffffffffffffffffffffffffffffff166113bb83610afc565b73ffffffffffffffffffffffffffffffffffffffff167f8c5be1e5ebec7d5bd14f71427d1e84f3dd0314c0f7b2291e5b200ac8c7c3b92560405160405180910390a45050565b60008061140d83610afc565b90508073ffffffffffffffffffffffffffffffffffffffff168473ffffffffffffffffffffffffffffffffffffffff16148061144f575061144e8185611065565b5b8061148d57508373ffffffffffffffffffffffffffffffffffffffff16611475846104bf565b73ffffffffffffffffffffffffffffffffffffffff16145b91505092915050565b8273ffffffffffffffffffffffffffffffffffffffff166114b682610afc565b73ffffffffffffffffffffffffffffffffffffffff161461150c576040517f08c379a000000000000000000000000000000000000000000000000000000000815260040161150390613365565b60405180910390fd5b600073ffffffffffffffffffffffffffffffffffffffff168273ffffffffffffffffffffffffffffffffffffffff160361157b576040517f08c379a0000000000000000000000000000000000000000000000000000000008152600401611572906133f7565b60405180910390fd5b611586838383611d86565b611591600082611348565b6001600360008573ffffffffffffffffffffffffffffffffffffffff1673ffffffffffffffffffffffffffffffffffffffff16815260200190815260200160002060008282546115e19190613446565b925050819055506001600360008473ffffffffffffffffffffffffffffffffffffffff1673ffffffffffffffffffffffffffffffffffffffff1681526020019081526020016000206000828254611638919061347a565b92505081905550816002600083815260200190815260200160002060006101000a81548173ffffffffffffffffffffffffffffffffffffffff021916908373ffffffffffffffffffffffffffffffffffffffff160217905550808273ffffffffffffffffffffffffffffffffffffffff168473ffffffffffffffffffffffffffffffffffffffff167fddf252ad1be2c89b69c2b068fc378daa952ba7f163c4a11628f55a4df523b3ef60405160405180910390a46116f7838383611d96565b505050565b8173ffffffffffffffffffffffffffffffffffffffff168373ffffffffffffffffffffffffffffffffffffffff160361176a576040517f08c379a00000000000000000000000000000000000000000000000000000000081526004016117619061351c565b60405180910390fd5b80600560008573ffffffffffffffffffffffffffffffffffffffff1673ffffffffffffffffffffffffffffffffffffffff16815260200190815260200160002060008473ffffffffffffffffffffffffffffffffffffffff1673ffffffffffffffffffffffffffffffffffffffff16815260200190815260200160002060006101000a81548160ff0219169083151502179055508173ffffffffffffffffffffffffffffffffffffffff168373ffffffffffffffffffffffffffffffffffffffff167f17307eab39ab6107e8899845ad3d59bd9653f200f220920489ca2b5937696c318360405161185b919061257e565b60405180910390a3505050565b611873848484611496565b61187f84848484611d9b565b6118be576040517f08c379a00000000000000000000000000000000000000000000000000000000081526004016118b5906135ae565b60405180910390fd5b50505050565b606060405180602001604052806000815250905090565b606060008203611922576040518060400160405280600181526020017f30000000000000000000000000000000000000000000000000000000000000008152509050611a36565b600082905060005b6000821461195457808061193d906135ce565b915050600a8261194d9190613645565b915061192a565b60008167ffffffffffffffff8111156119705761196f61289f565b5b6040519080825280601f01601f1916602001820160405280156119a25781602001600182028036833780820191505090505b5090505b60008514611a2f576001826119bb9190613446565b9150600a856119ca9190613676565b60306119d6919061347a565b60f81b8183815181106119ec576119eb6130fa565b5b60200101907effffffffffffffffffffffffffffffffffffffffffffffffffffffffffffff1916908160001a905350600a85611a289190613645565b94506119a6565b8093505050505b919050565b600081600001549050919050565b600073ffffffffffffffffffffffffffffffffffffffff168273ffffffffffffffffffffffffffffffffffffffff1603611ab8576040517f08c379a0000000000000000000000000000000000000000000000000000000008152600401611aaf906136f3565b60405180910390fd5b611ac181611d1a565b15611b01576040517f08c379a0000000000000000000000000000000000000000000000000000000008152600401611af89061375f565b60405180910390fd5b611b0d60008383611d86565b6001600360008473ffffffffffffffffffffffffffffffffffffffff1673ffffffffffffffffffffffffffffffffffffffff1681526020019081526020016000206000828254611b5d919061347a565b92505081905550816002600083815260200190815260200160002060006101000a81548173ffffffffffffffffffffffffffffffffffffffff021916908373ffffffffffffffffffffffffffffffffffffffff160217905550808273ffffffffffffffffffffffffffffffffffffffff16600073ffffffffffffffffffffffffffffffffffffffff167fddf252ad1be2c89b69c2b068fc378daa952ba7f163c4a11628f55a4df523b3ef60405160405180910390a4611c1e60008383611d96565b5050565b6001816000016000828254019250508190555050565b60007f80ac58cd000000000000000000000000000000000000000000000000000000007bffffffffffffffffffffffffffffffffffffffffffffffffffffffff1916827bffffffffffffffffffffffffffffffffffffffffffffffffffffffff19161480611d0357507f5b5e139f000000000000000000000000000000000000000000000000000000007bffffffffffffffffffffffffffffffffffffffffffffffffffffffff1916827bffffffffffffffffffffffffffffffffffffffffffffffffffffffff1916145b80611d135750611d1282611f22565b5b9050919050565b60008073ffffffffffffffffffffffffffffffffffffffff166002600084815260200190815260200160002060009054906101000a900473ffffffffffffffffffffffffffffffffffffffff1673ffffffffffffffffffffffffffffffffffffffff1614159050919050565b611d91838383611f8c565b505050565b505050565b6000611dbc8473ffffffffffffffffffffffffffffffffffffffff1661209e565b15611f15578373ffffffffffffffffffffffffffffffffffffffff1663150b7a02611de5611340565b8786866040518563ffffffff1660e01b8152600401611e0794939291906137d4565b6020604051808303816000875af1925050508015611e4357506040513d601f19601f82011682018060405250810190611e409190613835565b60015b611ec5573d8060008114611e73576040519150601f19603f3d011682016040523d82523d6000602084013e611e78565b606091505b506000815103611ebd576040517f08c379a0000000000000000000000000000000000000000000000000000000008152600401611eb4906135ae565b60405180910390fd5b805181602001fd5b63150b7a0260e01b7bffffffffffffffffffffffffffffffffffffffffffffffffffffffff1916817bffffffffffffffffffffffffffffffffffffffffffffffffffffffff191614915050611f1a565b600190505b949350505050565b60007f01ffc9a7000000000000000000000000000000000000000000000000000000007bffffffffffffffffffffffffffffffffffffffffffffffffffffffff1916827bffffffffffffffffffffffffffffffffffffffffffffffffffffffff1916149050919050565b611f978383836120c1565b600073ffffffffffffffffffffffffffffffffffffffff168373ffffffffffffffffffffffffffffffffffffffff1603611fd957611fd4816120c6565b612018565b8173ffffffffffffffffffffffffffffffffffffffff168373ffffffffffffffffffffffffffffffffffffffff161461201757612016838261210f565b5b5b600073ffffffffffffffffffffffffffffffffffffffff168273ffffffffffffffffffffffffffffffffffffffff160361205a576120558161227c565b612099565b8273ffffffffffffffffffffffffffffffffffffffff168273ffffffffffffffffffffffffffffffffffffffff161461209857612097828261234d565b5b5b505050565b6000808273ffffffffffffffffffffffffffffffffffffffff163b119050919050565b505050565b6008805490506009600083815260200190815260200160002081905550600881908060018154018082558091505060019003906000526020600020016000909190919091505550565b6000600161211c84610bad565b6121269190613446565b905060006007600084815260200190815260200160002054905081811461220b576000600660008673ffffffffffffffffffffffffffffffffffffffff1673ffffffffffffffffffffffffffffffffffffffff168152602001908152602001600020600084815260200190815260200160002054905080600660008773ffffffffffffffffffffffffffffffffffffffff1673ffffffffffffffffffffffffffffffffffffffff168152602001908152602001600020600084815260200190815260200160002081905550816007600083815260200190815260200160002081905550505b6007600084815260200190815260200160002060009055600660008573ffffffffffffffffffffffffffffffffffffffff1673ffffffffffffffffffffffffffffffffffffffff16815260200190815260200160002060008381526020019081526020016000206000905550505050565b600060016008805490506122909190613446565b90506000600960008481526020019081526020016000205490506000600883815481106122c0576122bf6130fa565b5b9060005260206000200154905080600883815481106122e2576122e16130fa565b5b90600052602060002001819055508160096000838152602001908152602001600020819055506009600085815260200190815260200160002060009055600880548061233157612330613862565b5b6001900381819060005260206000200160009055905550505050565b600061235883610bad565b905081600660008573ffffffffffffffffffffffffffffffffffffffff1673ffffffffffffffffffffffffffffffffffffffff168152602001908152602001600020600083815260200190815260200160002081905550806007600084815260200190815260200160002081905550505050565b6040518060a001604052806060815260200160608152602001600073ffffffffffffffffffffffffffffffffffffffff168152602001600073ffffffffffffffffffffffffffffffffffffffff168152602001606081525090565b82805461243390612d17565b90600052602060002090601f016020900481019282612455576000855561249c565b82601f1061246e57805160ff191683800117855561249c565b8280016001018555821561249c579182015b8281111561249b578251825591602001919060010190612480565b5b5090506124a991906124ad565b5090565b5b808211156124c65760008160009055506001016124ae565b5090565b6000604051905090565b600080fd5b600080fd5b60007fffffffff0000000000000000000000000000000000000000000000000000000082169050919050565b612513816124de565b811461251e57600080fd5b50565b6000813590506125308161250a565b92915050565b60006020828403121561254c5761254b6124d4565b5b600061255a84828501612521565b91505092915050565b60008115159050919050565b61257881612563565b82525050565b6000602082019050612593600083018461256f565b92915050565b600081519050919050565b600082825260208201905092915050565b60005b838110156125d35780820151818401526020810190506125b8565b838111156125e2576000848401525b50505050565b6000601f19601f8301169050919050565b600061260482612599565b61260e81856125a4565b935061261e8185602086016125b5565b612627816125e8565b840191505092915050565b6000602082019050818103600083015261264c81846125f9565b905092915050565b6000819050919050565b61266781612654565b811461267257600080fd5b50565b6000813590506126848161265e565b92915050565b6000602082840312156126a05761269f6124d4565b5b60006126ae84828501612675565b91505092915050565b600073ffffffffffffffffffffffffffffffffffffffff82169050919050565b60006126e2826126b7565b9050919050565b6126f2816126d7565b82525050565b600060208201905061270d60008301846126e9565b92915050565b61271c816126d7565b811461272757600080fd5b50565b60008135905061273981612713565b92915050565b60008060408385031215612756576127556124d4565b5b60006127648582860161272a565b925050602061277585828601612675565b9150509250929050565b61278881612654565b82525050565b60006020820190506127a3600083018461277f565b92915050565b6000602082840312156127bf576127be6124d4565b5b60006127cd8482850161272a565b91505092915050565b6000806000606084860312156127ef576127ee6124d4565b5b60006127fd8682870161272a565b935050602061280e8682870161272a565b925050604061281f86828701612675565b9150509250925092565b61283281612563565b811461283d57600080fd5b50565b60008135905061284f81612829565b92915050565b6000806040838503121561286c5761286b6124d4565b5b600061287a8582860161272a565b925050602061288b85828601612840565b9150509250929050565b600080fd5b600080fd5b7f4e487b7100000000000000000000000000000000000000000000000000000000600052604160045260246000fd5b6128d7826125e8565b810181811067ffffffffffffffff821117156128f6576128f561289f565b5b80604052505050565b60006129096124ca565b905061291582826128ce565b919050565b600067ffffffffffffffff8211156129355761293461289f565b5b61293e826125e8565b9050602081019050919050565b82818337600083830152505050565b600061296d6129688461291a565b6128ff565b9050828152602081018484840111156129895761298861289a565b5b61299484828561294b565b509392505050565b600082601f8301126129b1576129b0612895565b5b81356129c184826020860161295a565b91505092915050565b600080600080608085870312156129e4576129e36124d4565b5b60006129f28782880161272a565b9450506020612a038782880161272a565b9350506040612a1487828801612675565b925050606085013567ffffffffffffffff811115612a3557612a346124d9565b5b612a418782880161299c565b91505092959194509250565b600082825260208201905092915050565b6000612a6982612599565b612a738185612a4d565b9350612a838185602086016125b5565b612a8c816125e8565b840191505092915050565b612aa0816126d7565b82525050565b600060a0830160008301518482036000860152612ac38282612a5e565b91505060208301518482036020860152612add8282612a5e565b9150506040830151612af26040860182612a97565b506060830151612b056060860182612a97565b5060808301518482036080860152612b1d8282612a5e565b9150508091505092915050565b60006020820190508181036000830152612b448184612aa6565b905092915050565b60008060408385031215612b6357612b626124d4565b5b6000612b718582860161272a565b9250506020612b828582860161272a565b9150509250929050565b600067ffffffffffffffff821115612ba757612ba661289f565b5b612bb0826125e8565b9050602081019050919050565b6000612bd0612bcb84612b8c565b6128ff565b905082815260208101848484011115612bec57612beb61289a565b5b612bf784828561294b565b509392505050565b600082601f830112612c1457612c13612895565b5b8135612c24848260208601612bbd565b91505092915050565b60008060008060808587031215612c4757612c466124d4565b5b6000612c558782880161272a565b945050602085013567ffffffffffffffff811115612c7657612c756124d9565b5b612c8287828801612bff565b935050604085013567ffffffffffffffff811115612ca357612ca26124d9565b5b612caf87828801612bff565b925050606085013567ffffffffffffffff811115612cd057612ccf6124d9565b5b612cdc87828801612bff565b91505092959194509250565b7f4e487b7100000000000000000000000000000000000000000000000000000000600052602260045260246000fd5b60006002820490506001821680612d2f57607f821691505b602082108103612d4257612d41612ce8565b5b50919050565b7f4552433732313a20617070726f76616c20746f2063757272656e74206f776e6560008201527f7200000000000000000000000000000000000000000000000000000000000000602082015250565b6000612da46021836125a4565b9150612daf82612d48565b604082019050919050565b60006020820190508181036000830152612dd381612d97565b9050919050565b7f4552433732313a20617070726f76652063616c6c6572206973206e6f7420746f60008201527f6b656e206f776e6572206e6f7220617070726f76656420666f7220616c6c0000602082015250565b6000612e36603e836125a4565b9150612e4182612dda565b604082019050919050565b60006020820190508181036000830152612e6581612e29565b9050919050565b7f53656e646572206973206e6f7420616e2061646d696e00000000000000000000600082015250565b6000612ea26016836125a4565b9150612ead82612e6c565b602082019050919050565b60006020820190508181036000830152612ed181612e95565b9050919050565b7f4163636f756e74616e7420616c72656164792061646465640000000000000000600082015250565b6000612f0e6018836125a4565b9150612f1982612ed8565b602082019050919050565b60006020820190508181036000830152612f3d81612f01565b9050919050565b7f4552433732313a2063616c6c6572206973206e6f7420746f6b656e206f776e6560008201527f72206e6f7220617070726f766564000000000000000000000000000000000000602082015250565b6000612fa0602e836125a4565b9150612fab82612f44565b604082019050919050565b60006020820190508181036000830152612fcf81612f93565b9050919050565b7f455243373231456e756d657261626c653a206f776e657220696e646578206f7560008201527f74206f6620626f756e6473000000000000000000000000000000000000000000602082015250565b6000613032602b836125a4565b915061303d82612fd6565b604082019050919050565b6000602082019050818103600083015261306181613025565b9050919050565b7f455243373231456e756d657261626c653a20676c6f62616c20696e646578206f60008201527f7574206f6620626f756e64730000000000000000000000000000000000000000602082015250565b60006130c4602c836125a4565b91506130cf82613068565b604082019050919050565b600060208201905081810360008301526130f3816130b7565b9050919050565b7f4e487b7100000000000000000000000000000000000000000000000000000000600052603260045260246000fd5b7f4163636f756e74616e74206e6f74206578697374696e67000000000000000000600082015250565b600061315f6017836125a4565b915061316a82613129565b602082019050919050565b6000602082019050818103600083015261318e81613152565b9050919050565b7f4552433732313a20696e76616c696420746f6b656e2049440000000000000000600082015250565b60006131cb6018836125a4565b91506131d682613195565b602082019050919050565b600060208201905081810360008301526131fa816131be565b9050919050565b7f4552433732313a2061646472657373207a65726f206973206e6f74206120766160008201527f6c6964206f776e65720000000000000000000000000000000000000000000000602082015250565b600061325d6029836125a4565b915061326882613201565b604082019050919050565b6000602082019050818103600083015261328c81613250565b9050919050565b600081905092915050565b60006132a982612599565b6132b38185613293565b93506132c38185602086016125b5565b80840191505092915050565b60006132db828561329e565b91506132e7828461329e565b91508190509392505050565b7f4552433732313a207472616e736665722066726f6d20696e636f72726563742060008201527f6f776e6572000000000000000000000000000000000000000000000000000000602082015250565b600061334f6025836125a4565b915061335a826132f3565b604082019050919050565b6000602082019050818103600083015261337e81613342565b9050919050565b7f4552433732313a207472616e7366657220746f20746865207a65726f2061646460008201527f7265737300000000000000000000000000000000000000000000000000000000602082015250565b60006133e16024836125a4565b91506133ec82613385565b604082019050919050565b60006020820190508181036000830152613410816133d4565b9050919050565b7f4e487b7100000000000000000000000000000000000000000000000000000000600052601160045260246000fd5b600061345182612654565b915061345c83612654565b92508282101561346f5761346e613417565b5b828203905092915050565b600061348582612654565b915061349083612654565b9250827fffffffffffffffffffffffffffffffffffffffffffffffffffffffffffffffff038211156134c5576134c4613417565b5b828201905092915050565b7f4552433732313a20617070726f766520746f2063616c6c657200000000000000600082015250565b60006135066019836125a4565b9150613511826134d0565b602082019050919050565b60006020820190508181036000830152613535816134f9565b9050919050565b7f4552433732313a207472616e7366657220746f206e6f6e20455243373231526560008201527f63656976657220696d706c656d656e7465720000000000000000000000000000602082015250565b60006135986032836125a4565b91506135a38261353c565b604082019050919050565b600060208201905081810360008301526135c78161358b565b9050919050565b60006135d982612654565b91507fffffffffffffffffffffffffffffffffffffffffffffffffffffffffffffffff820361360b5761360a613417565b5b600182019050919050565b7f4e487b7100000000000000000000000000000000000000000000000000000000600052601260045260246000fd5b600061365082612654565b915061365b83612654565b92508261366b5761366a613616565b5b828204905092915050565b600061368182612654565b915061368c83612654565b92508261369c5761369b613616565b5b828206905092915050565b7f4552433732313a206d696e7420746f20746865207a65726f2061646472657373600082015250565b60006136dd6020836125a4565b91506136e8826136a7565b602082019050919050565b6000602082019050818103600083015261370c816136d0565b9050919050565b7f4552433732313a20746f6b656e20616c7265616479206d696e74656400000000600082015250565b6000613749601c836125a4565b915061375482613713565b602082019050919050565b600060208201905081810360008301526137788161373c565b9050919050565b600081519050919050565b600082825260208201905092915050565b60006137a68261377f565b6137b0818561378a565b93506137c08185602086016125b5565b6137c9816125e8565b840191505092915050565b60006080820190506137e960008301876126e9565b6137f660208301866126e9565b613803604083018561277f565b8181036060830152613815818461379b565b905095945050505050565b60008151905061382f8161250a565b92915050565b60006020828403121561384b5761384a6124d4565b5b600061385984828501613820565b91505092915050565b7f4e487b7100000000000000000000000000000000000000000000000000000000600052603160045260246000fdfea26469706673582212207e6b177561931de8db8571472c64ab95064ca24926555619745b31f1474e785564736f6c634300080d0033",
  "immutableReferences": {},
  "source": "// SPDX-License-Identifier: MIT\npragma solidity >=0.4.22 <0.9.0;\n\nimport '@openzeppelin/contracts/token/ERC721/ERC721.sol';\nimport '@openzeppelin/contracts/token/ERC721/extensions/ERC721Enumerable.sol';\nimport '@openzeppelin/contracts/utils/Counters.sol';\n\ncontract DocumentNFT is ERC721, ERC721Enumerable\n{\n  using Counters for Counters.Counter;\n  Counters.Counter documentIds;\n\n  // Document data\n  struct DocumentMetadata\n  {\n    string name;\n    string documentType;\n    address fromOrganization;\n    address owner;\n    string uri;\n  }\n  \n  // Accountant status\n  struct Accountant\n  {\n    bool isActive;\n    bool doesExist;\n  }\n  \n  mapping(uint256 => DocumentMetadata) documents;\n  mapping(address => Accountant) accountants;\n\n  address ADMIN_ADDRESS = address(0);\n\n  constructor() ERC721('DocumentNFT', 'DOC') {}\n\n  function sendDocument(address _receiver, string memory _name, string memory _documentType, string memory _uri) public \n  {\n    // Generate a unique, new document id\n    uint256 newDocumentId = documentIds.current();\n\n    // Create a DocumentMetadata instance and store it to the documents mapping\n    documents[newDocumentId] = DocumentMetadata(_name, _documentType, msg.sender, _receiver, _uri);\n\n    _mint(msg.sender, newDocumentId);                 // mint\n    _transfer(msg.sender, _receiver, newDocumentId);  // transfer\n\n    documentIds.increment();\n  }\n\n  function getDocumentData(uint256 _documentId) public view returns(DocumentMetadata memory)\n  {\n    return documents[_documentId];\n  }\n\n  // Accountant\n  function addAccountant(address _accountant) public\n  {\n    require(msg.sender == ADMIN_ADDRESS, \"Sender is not an admin\");\n    require(!accountants[_accountant].doesExist, \"Accountant already added\");\n\n    accountants[_accountant] = Accountant(true, true);\n  }\n\n  function setInactiveAccountant(address _accountant) public\n  {\n    require(msg.sender == ADMIN_ADDRESS, \"Sender is not an admin\");\n    require(accountants[_accountant].doesExist, \"Accountant not existing\");\n\n    accountants[_accountant].isActive = false;\n  }\n\n  modifier sendingRestriction()\n  {\n    // If the sender is the admin, allow sending\n    if(msg.sender == ADMIN_ADDRESS)\n    {\n      _;\n    }\n    // Else, check if the sender is an accountant. If so, allow sending\n    else\n    {\n      require(accountants[msg.sender].doesExist, \"Sender is not an accountant\");\n      require(accountants[msg.sender].isActive, \"Sender is not an active accountant\");\n      _;\n    }\n  }\n\n  // Overrides\n  function _beforeTokenTransfer(address from, address to, uint256 tokenId) internal override(ERC721, ERC721Enumerable)\n  {\n    super._beforeTokenTransfer(from, to, tokenId);\n  }\n\n  function supportsInterface(bytes4 interfaceId) public view override(ERC721, ERC721Enumerable) returns(bool)\n  {\n    return super.supportsInterface(interfaceId);\n  }\n}\n",
  "sourcePath": "C:\\Users\\admin\\Documents\\GitHub\\iCertify\\server\\contracts\\DocumentNFT.sol",
  "compiler": {
    "name": "solc",
    "version": "0.8.13+commit.abaa5c0e.Emscripten.clang"
  },
  "schemaVersion": "3.4.7",
  "updatedAt": "2022-10-20T17:47:14.947Z",
  "networkType": "ethereum",
  "devdoc": {
    "kind": "dev",
    "methods": {
      "approve(address,uint256)": {
        "details": "See {IERC721-approve}."
      },
      "balanceOf(address)": {
        "details": "See {IERC721-balanceOf}."
      },
      "getApproved(uint256)": {
        "details": "See {IERC721-getApproved}."
      },
      "isApprovedForAll(address,address)": {
        "details": "See {IERC721-isApprovedForAll}."
      },
      "name()": {
        "details": "See {IERC721Metadata-name}."
      },
      "ownerOf(uint256)": {
        "details": "See {IERC721-ownerOf}."
      },
      "safeTransferFrom(address,address,uint256)": {
        "details": "See {IERC721-safeTransferFrom}."
      },
      "safeTransferFrom(address,address,uint256,bytes)": {
        "details": "See {IERC721-safeTransferFrom}."
      },
      "setApprovalForAll(address,bool)": {
        "details": "See {IERC721-setApprovalForAll}."
      },
      "symbol()": {
        "details": "See {IERC721Metadata-symbol}."
      },
      "tokenByIndex(uint256)": {
        "details": "See {IERC721Enumerable-tokenByIndex}."
      },
      "tokenOfOwnerByIndex(address,uint256)": {
        "details": "See {IERC721Enumerable-tokenOfOwnerByIndex}."
      },
      "tokenURI(uint256)": {
        "details": "See {IERC721Metadata-tokenURI}."
      },
      "totalSupply()": {
        "details": "See {IERC721Enumerable-totalSupply}."
      },
      "transferFrom(address,address,uint256)": {
        "details": "See {IERC721-transferFrom}."
      }
    },
    "version": 1
  },
  "userdoc": {
    "kind": "user",
    "methods": {},
    "version": 1
  }
}