{
  "contractName": "CertificateNFT",
  "abi": [
    {
      "inputs": [],
      "stateMutability": "nonpayable",
      "type": "constructor"
    },
    {
      "anonymous": false,
      "inputs": [
        {
          "indexed": true,
          "internalType": "address",
          "name": "owner",
          "type": "address"
        },
        {
          "indexed": true,
          "internalType": "address",
          "name": "approved",
          "type": "address"
        },
        {
          "indexed": true,
          "internalType": "uint256",
          "name": "tokenId",
          "type": "uint256"
        }
      ],
      "name": "Approval",
      "type": "event"
    },
    {
      "anonymous": false,
      "inputs": [
        {
          "indexed": true,
          "internalType": "address",
          "name": "owner",
          "type": "address"
        },
        {
          "indexed": true,
          "internalType": "address",
          "name": "operator",
          "type": "address"
        },
        {
          "indexed": false,
          "internalType": "bool",
          "name": "approved",
          "type": "bool"
        }
      ],
      "name": "ApprovalForAll",
      "type": "event"
    },
    {
      "anonymous": false,
      "inputs": [
        {
          "indexed": true,
          "internalType": "address",
          "name": "previousOwner",
          "type": "address"
        },
        {
          "indexed": true,
          "internalType": "address",
          "name": "newOwner",
          "type": "address"
        }
      ],
      "name": "OwnershipTransferred",
      "type": "event"
    },
    {
      "anonymous": false,
      "inputs": [
        {
          "indexed": true,
          "internalType": "address",
          "name": "from",
          "type": "address"
        },
        {
          "indexed": true,
          "internalType": "address",
          "name": "to",
          "type": "address"
        },
        {
          "indexed": true,
          "internalType": "uint256",
          "name": "tokenId",
          "type": "uint256"
        }
      ],
      "name": "Transfer",
      "type": "event"
    },
    {
      "inputs": [
        {
          "internalType": "address",
          "name": "to",
          "type": "address"
        },
        {
          "internalType": "uint256",
          "name": "tokenId",
          "type": "uint256"
        }
      ],
      "name": "approve",
      "outputs": [],
      "stateMutability": "nonpayable",
      "type": "function"
    },
    {
      "inputs": [
        {
          "internalType": "address",
          "name": "owner",
          "type": "address"
        }
      ],
      "name": "balanceOf",
      "outputs": [
        {
          "internalType": "uint256",
          "name": "",
          "type": "uint256"
        }
      ],
      "stateMutability": "view",
      "type": "function",
      "constant": true
    },
    {
      "inputs": [
        {
          "internalType": "uint256",
          "name": "tokenId",
          "type": "uint256"
        }
      ],
      "name": "getApproved",
      "outputs": [
        {
          "internalType": "address",
          "name": "",
          "type": "address"
        }
      ],
      "stateMutability": "view",
      "type": "function",
      "constant": true
    },
    {
      "inputs": [
        {
          "internalType": "address",
          "name": "owner",
          "type": "address"
        },
        {
          "internalType": "address",
          "name": "operator",
          "type": "address"
        }
      ],
      "name": "isApprovedForAll",
      "outputs": [
        {
          "internalType": "bool",
          "name": "",
          "type": "bool"
        }
      ],
      "stateMutability": "view",
      "type": "function",
      "constant": true
    },
    {
      "inputs": [],
      "name": "name",
      "outputs": [
        {
          "internalType": "string",
          "name": "",
          "type": "string"
        }
      ],
      "stateMutability": "view",
      "type": "function",
      "constant": true
    },
    {
      "inputs": [],
      "name": "owner",
      "outputs": [
        {
          "internalType": "address",
          "name": "",
          "type": "address"
        }
      ],
      "stateMutability": "view",
      "type": "function",
      "constant": true
    },
    {
      "inputs": [
        {
          "internalType": "uint256",
          "name": "tokenId",
          "type": "uint256"
        }
      ],
      "name": "ownerOf",
      "outputs": [
        {
          "internalType": "address",
          "name": "",
          "type": "address"
        }
      ],
      "stateMutability": "view",
      "type": "function",
      "constant": true
    },
    {
      "inputs": [],
      "name": "renounceOwnership",
      "outputs": [],
      "stateMutability": "nonpayable",
      "type": "function"
    },
    {
      "inputs": [
        {
          "internalType": "address",
          "name": "from",
          "type": "address"
        },
        {
          "internalType": "address",
          "name": "to",
          "type": "address"
        },
        {
          "internalType": "uint256",
          "name": "tokenId",
          "type": "uint256"
        }
      ],
      "name": "safeTransferFrom",
      "outputs": [],
      "stateMutability": "nonpayable",
      "type": "function"
    },
    {
      "inputs": [
        {
          "internalType": "address",
          "name": "from",
          "type": "address"
        },
        {
          "internalType": "address",
          "name": "to",
          "type": "address"
        },
        {
          "internalType": "uint256",
          "name": "tokenId",
          "type": "uint256"
        },
        {
          "internalType": "bytes",
          "name": "data",
          "type": "bytes"
        }
      ],
      "name": "safeTransferFrom",
      "outputs": [],
      "stateMutability": "nonpayable",
      "type": "function"
    },
    {
      "inputs": [
        {
          "internalType": "address",
          "name": "operator",
          "type": "address"
        },
        {
          "internalType": "bool",
          "name": "approved",
          "type": "bool"
        }
      ],
      "name": "setApprovalForAll",
      "outputs": [],
      "stateMutability": "nonpayable",
      "type": "function"
    },
    {
      "inputs": [],
      "name": "symbol",
      "outputs": [
        {
          "internalType": "string",
          "name": "",
          "type": "string"
        }
      ],
      "stateMutability": "view",
      "type": "function",
      "constant": true
    },
    {
      "inputs": [
        {
          "internalType": "uint256",
          "name": "index",
          "type": "uint256"
        }
      ],
      "name": "tokenByIndex",
      "outputs": [
        {
          "internalType": "uint256",
          "name": "",
          "type": "uint256"
        }
      ],
      "stateMutability": "view",
      "type": "function",
      "constant": true
    },
    {
      "inputs": [
        {
          "internalType": "address",
          "name": "owner",
          "type": "address"
        },
        {
          "internalType": "uint256",
          "name": "index",
          "type": "uint256"
        }
      ],
      "name": "tokenOfOwnerByIndex",
      "outputs": [
        {
          "internalType": "uint256",
          "name": "",
          "type": "uint256"
        }
      ],
      "stateMutability": "view",
      "type": "function",
      "constant": true
    },
    {
      "inputs": [
        {
          "internalType": "uint256",
          "name": "tokenId",
          "type": "uint256"
        }
      ],
      "name": "tokenURI",
      "outputs": [
        {
          "internalType": "string",
          "name": "",
          "type": "string"
        }
      ],
      "stateMutability": "view",
      "type": "function",
      "constant": true
    },
    {
      "inputs": [],
      "name": "totalSupply",
      "outputs": [
        {
          "internalType": "uint256",
          "name": "",
          "type": "uint256"
        }
      ],
      "stateMutability": "view",
      "type": "function",
      "constant": true
    },
    {
      "inputs": [
        {
          "internalType": "address",
          "name": "from",
          "type": "address"
        },
        {
          "internalType": "address",
          "name": "to",
          "type": "address"
        },
        {
          "internalType": "uint256",
          "name": "tokenId",
          "type": "uint256"
        }
      ],
      "name": "transferFrom",
      "outputs": [],
      "stateMutability": "nonpayable",
      "type": "function"
    },
    {
      "inputs": [
        {
          "internalType": "address",
          "name": "newOwner",
          "type": "address"
        }
      ],
      "name": "transferOwnership",
      "outputs": [],
      "stateMutability": "nonpayable",
      "type": "function"
    },
    {
      "inputs": [
        {
          "internalType": "address",
          "name": "_receiver",
          "type": "address"
        },
        {
          "internalType": "string",
          "name": "_title",
          "type": "string"
        },
        {
          "internalType": "string",
          "name": "_fromEvent",
          "type": "string"
        },
        {
          "internalType": "string",
          "name": "_uri",
          "type": "string"
        }
      ],
      "name": "sendCertificate",
      "outputs": [],
      "stateMutability": "nonpayable",
      "type": "function"
    },
    {
      "inputs": [
        {
          "internalType": "uint256",
          "name": "_certificateId",
          "type": "uint256"
        }
      ],
      "name": "getCertificateData",
      "outputs": [
        {
          "components": [
            {
              "internalType": "string",
              "name": "title",
              "type": "string"
            },
            {
              "internalType": "string",
              "name": "fromEvent",
              "type": "string"
            },
            {
              "internalType": "address",
              "name": "owner",
              "type": "address"
            },
            {
              "internalType": "address",
              "name": "sender",
              "type": "address"
            },
            {
              "internalType": "string",
              "name": "uri",
              "type": "string"
            }
          ],
          "internalType": "struct CertificateNFT.CertificateMetadata",
          "name": "",
          "type": "tuple"
        }
      ],
      "stateMutability": "view",
      "type": "function",
      "constant": true
    },
    {
      "inputs": [
        {
          "internalType": "address",
          "name": "_accountant",
          "type": "address"
        }
      ],
      "name": "addAccountant",
      "outputs": [],
      "stateMutability": "nonpayable",
      "type": "function"
    },
    {
      "inputs": [
        {
          "internalType": "address",
          "name": "_accountant",
          "type": "address"
        }
      ],
      "name": "setInactiveAccountant",
      "outputs": [],
      "stateMutability": "nonpayable",
      "type": "function"
    },
    {
      "inputs": [
        {
          "internalType": "bytes4",
          "name": "interfaceId",
          "type": "bytes4"
        }
      ],
      "name": "supportsInterface",
      "outputs": [
        {
          "internalType": "bool",
          "name": "",
          "type": "bool"
        }
      ],
      "stateMutability": "view",
      "type": "function",
      "constant": true
    }
  ],
  "bytecode": "0x60806040523480156200001157600080fd5b506040518060400160405280600e81526020017f43657274696669636174654e46540000000000000000000000000000000000008152506040518060400160405280600481526020017f4345525400000000000000000000000000000000000000000000000000000000815250816000908051906020019062000096929190620001a6565b508060019080519060200190620000af929190620001a6565b505050620000d2620000c6620000d860201b60201c565b620000e060201b60201c565b620002ba565b600033905090565b6000600a60009054906101000a900473ffffffffffffffffffffffffffffffffffffffff16905081600a60006101000a81548173ffffffffffffffffffffffffffffffffffffffff021916908373ffffffffffffffffffffffffffffffffffffffff1602179055508173ffffffffffffffffffffffffffffffffffffffff168173ffffffffffffffffffffffffffffffffffffffff167f8be0079c531659141344cd1fd0a4f28419497f9722a3daafe3b4186f6b6457e060405160405180910390a35050565b828054620001b49062000285565b90600052602060002090601f016020900481019282620001d8576000855562000224565b82601f10620001f357805160ff191683800117855562000224565b8280016001018555821562000224579182015b828111156200022357825182559160200191906001019062000206565b5b50905062000233919062000237565b5090565b5b808211156200025257600081600090555060010162000238565b5090565b7f4e487b7100000000000000000000000000000000000000000000000000000000600052602260045260246000fd5b600060028204905060018216806200029e57607f821691505b602082108103620002b457620002b362000256565b5b50919050565b613e8b80620002ca6000396000f3fe608060405234801561001057600080fd5b506004361061014d5760003560e01c80634f6ccce7116100c357806395d89b411161007c57806395d89b41146103ae578063a22cb465146103cc578063b88d4fde146103e8578063c87b56dd14610404578063e985e9c514610434578063f2fde38b146104645761014d565b80634f6ccce7146102da5780635dde49c31461030a5780636352211e1461032657806370a0823114610356578063715018a6146103865780638da5cb5b146103905761014d565b8063187c1bb411610115578063187c1bb41461020a5780631fcda2fa1461022657806323b872dd146102425780632f745c591461025e57806331494bbb1461028e57806342842e0e146102be5761014d565b806301ffc9a71461015257806306fdde0314610182578063081812fc146101a0578063095ea7b3146101d057806318160ddd146101ec575b600080fd5b61016c6004803603810190610167919061296a565b610480565b60405161017991906129b2565b60405180910390f35b61018a610492565b6040516101979190612a66565b60405180910390f35b6101ba60048036038101906101b59190612abe565b610524565b6040516101c79190612b2c565b60405180910390f35b6101ea60048036038101906101e59190612b73565b61056a565b005b6101f4610681565b6040516102019190612bc2565b60405180910390f35b610224600480360381019061021f9190612bdd565b61068e565b005b610240600480360381019061023b9190612d3f565b6107c6565b005b61025c60048036038101906102579190612dfa565b610c22565b005b61027860048036038101906102739190612b73565b610c82565b6040516102859190612bc2565b60405180910390f35b6102a860048036038101906102a39190612abe565b610d27565b6040516102b59190612f2a565b60405180910390f35b6102d860048036038101906102d39190612dfa565b610fb6565b005b6102f460048036038101906102ef9190612abe565b610fd6565b6040516103019190612bc2565b60405180910390f35b610324600480360381019061031f9190612bdd565b611047565b005b610340600480360381019061033b9190612abe565b61113c565b60405161034d9190612b2c565b60405180910390f35b610370600480360381019061036b9190612bdd565b6111ed565b60405161037d9190612bc2565b60405180910390f35b61038e6112a4565b005b6103986112b8565b6040516103a59190612b2c565b60405180910390f35b6103b66112e2565b6040516103c39190612a66565b60405180910390f35b6103e660048036038101906103e19190612f78565b611374565b005b61040260048036038101906103fd9190613059565b61138a565b005b61041e60048036038101906104199190612abe565b6113ec565b60405161042b9190612a66565b60405180910390f35b61044e600480360381019061044991906130dc565b611454565b60405161045b91906129b2565b60405180910390f35b61047e60048036038101906104799190612bdd565b6114e8565b005b600061048b8261156b565b9050919050565b6060600080546104a19061314b565b80601f01602080910402602001604051908101604052809291908181526020018280546104cd9061314b565b801561051a5780601f106104ef5761010080835404028352916020019161051a565b820191906000526020600020905b8154815290600101906020018083116104fd57829003601f168201915b5050505050905090565b600061052f826115e5565b6004600083815260200190815260200160002060009054906101000a900473ffffffffffffffffffffffffffffffffffffffff169050919050565b60006105758261113c565b90508073ffffffffffffffffffffffffffffffffffffffff168373ffffffffffffffffffffffffffffffffffffffff16036105e5576040517f08c379a00000000000000000000000000000000000000000000000000000000081526004016105dc906131ee565b60405180910390fd5b8073ffffffffffffffffffffffffffffffffffffffff16610604611630565b73ffffffffffffffffffffffffffffffffffffffff16148061063357506106328161062d611630565b611454565b5b610672576040517f08c379a000000000000000000000000000000000000000000000000000000000815260040161066990613280565b60405180910390fd5b61067c8383611638565b505050565b6000600880549050905090565b6106966116f1565b600d60008273ffffffffffffffffffffffffffffffffffffffff1673ffffffffffffffffffffffffffffffffffffffff16815260200190815260200160002060000160019054906101000a900460ff1615610726576040517f08c379a000000000000000000000000000000000000000000000000000000000815260040161071d906132ec565b60405180910390fd5b604051806040016040528060011515815260200160011515815250600d60008373ffffffffffffffffffffffffffffffffffffffff1673ffffffffffffffffffffffffffffffffffffffff16815260200190815260200160002060008201518160000160006101000a81548160ff02191690831515021790555060208201518160000160016101000a81548160ff02191690831515021790555090505050565b6107ce6112b8565b73ffffffffffffffffffffffffffffffffffffffff163373ffffffffffffffffffffffffffffffffffffffff160361098157600061080c600b61176f565b90506040518060a001604052808581526020018481526020018673ffffffffffffffffffffffffffffffffffffffff1681526020013373ffffffffffffffffffffffffffffffffffffffff16815260200183815250600c60008381526020019081526020016000206000820151816000019080519060200190610890929190612800565b5060208201518160010190805190602001906108ad929190612800565b5060408201518160020160006101000a81548173ffffffffffffffffffffffffffffffffffffffff021916908373ffffffffffffffffffffffffffffffffffffffff16021790555060608201518160030160006101000a81548173ffffffffffffffffffffffffffffffffffffffff021916908373ffffffffffffffffffffffffffffffffffffffff1602179055506080820151816004019080519060200190610958929190612800565b50905050610966338261177d565b610971338683611956565b61097b600b611bbc565b50610c1c565b600d60003373ffffffffffffffffffffffffffffffffffffffff1673ffffffffffffffffffffffffffffffffffffffff16815260200190815260200160002060000160019054906101000a900460ff16610a10576040517f08c379a0000000000000000000000000000000000000000000000000000000008152600401610a0790613358565b60405180910390fd5b600d60003373ffffffffffffffffffffffffffffffffffffffff1673ffffffffffffffffffffffffffffffffffffffff16815260200190815260200160002060000160009054906101000a900460ff16610a9f576040517f08c379a0000000000000000000000000000000000000000000000000000000008152600401610a96906133ea565b60405180910390fd5b6000610aab600b61176f565b90506040518060a001604052808581526020018481526020018673ffffffffffffffffffffffffffffffffffffffff1681526020013373ffffffffffffffffffffffffffffffffffffffff16815260200183815250600c60008381526020019081526020016000206000820151816000019080519060200190610b2f929190612800565b506020820151816001019080519060200190610b4c929190612800565b5060408201518160020160006101000a81548173ffffffffffffffffffffffffffffffffffffffff021916908373ffffffffffffffffffffffffffffffffffffffff16021790555060608201518160030160006101000a81548173ffffffffffffffffffffffffffffffffffffffff021916908373ffffffffffffffffffffffffffffffffffffffff1602179055506080820151816004019080519060200190610bf7929190612800565b50905050610c05338261177d565b610c10338683611956565b610c1a600b611bbc565b505b50505050565b610c33610c2d611630565b82611bd2565b610c72576040517f08c379a0000000000000000000000000000000000000000000000000000000008152600401610c699061347c565b60405180910390fd5b610c7d838383611956565b505050565b6000610c8d836111ed565b8210610cce576040517f08c379a0000000000000000000000000000000000000000000000000000000008152600401610cc59061350e565b60405180910390fd5b600660008473ffffffffffffffffffffffffffffffffffffffff1673ffffffffffffffffffffffffffffffffffffffff168152602001908152602001600020600083815260200190815260200160002054905092915050565b610d2f612886565b600c60008381526020019081526020016000206040518060a0016040529081600082018054610d5d9061314b565b80601f0160208091040260200160405190810160405280929190818152602001828054610d899061314b565b8015610dd65780601f10610dab57610100808354040283529160200191610dd6565b820191906000526020600020905b815481529060010190602001808311610db957829003601f168201915b50505050508152602001600182018054610def9061314b565b80601f0160208091040260200160405190810160405280929190818152602001828054610e1b9061314b565b8015610e685780601f10610e3d57610100808354040283529160200191610e68565b820191906000526020600020905b815481529060010190602001808311610e4b57829003601f168201915b505050505081526020016002820160009054906101000a900473ffffffffffffffffffffffffffffffffffffffff1673ffffffffffffffffffffffffffffffffffffffff1673ffffffffffffffffffffffffffffffffffffffff1681526020016003820160009054906101000a900473ffffffffffffffffffffffffffffffffffffffff1673ffffffffffffffffffffffffffffffffffffffff1673ffffffffffffffffffffffffffffffffffffffff168152602001600482018054610f2d9061314b565b80601f0160208091040260200160405190810160405280929190818152602001828054610f599061314b565b8015610fa65780601f10610f7b57610100808354040283529160200191610fa6565b820191906000526020600020905b815481529060010190602001808311610f8957829003601f168201915b5050505050815250509050919050565b610fd18383836040518060200160405280600081525061138a565b505050565b6000610fe0610681565b8210611021576040517f08c379a0000000000000000000000000000000000000000000000000000000008152600401611018906135a0565b60405180910390fd5b60088281548110611035576110346135c0565b5b90600052602060002001549050919050565b61104f6116f1565b600d60008273ffffffffffffffffffffffffffffffffffffffff1673ffffffffffffffffffffffffffffffffffffffff16815260200190815260200160002060000160019054906101000a900460ff166110de576040517f08c379a00000000000000000000000000000000000000000000000000000000081526004016110d59061363b565b60405180910390fd5b6000600d60008373ffffffffffffffffffffffffffffffffffffffff1673ffffffffffffffffffffffffffffffffffffffff16815260200190815260200160002060000160006101000a81548160ff02191690831515021790555050565b6000806002600084815260200190815260200160002060009054906101000a900473ffffffffffffffffffffffffffffffffffffffff169050600073ffffffffffffffffffffffffffffffffffffffff168173ffffffffffffffffffffffffffffffffffffffff16036111e4576040517f08c379a00000000000000000000000000000000000000000000000000000000081526004016111db906136a7565b60405180910390fd5b80915050919050565b60008073ffffffffffffffffffffffffffffffffffffffff168273ffffffffffffffffffffffffffffffffffffffff160361125d576040517f08c379a000000000000000000000000000000000000000000000000000000000815260040161125490613739565b60405180910390fd5b600360008373ffffffffffffffffffffffffffffffffffffffff1673ffffffffffffffffffffffffffffffffffffffff168152602001908152602001600020549050919050565b6112ac6116f1565b6112b66000611c67565b565b6000600a60009054906101000a900473ffffffffffffffffffffffffffffffffffffffff16905090565b6060600180546112f19061314b565b80601f016020809104026020016040519081016040528092919081815260200182805461131d9061314b565b801561136a5780601f1061133f5761010080835404028352916020019161136a565b820191906000526020600020905b81548152906001019060200180831161134d57829003601f168201915b5050505050905090565b61138661137f611630565b8383611d2d565b5050565b61139b611395611630565b83611bd2565b6113da576040517f08c379a00000000000000000000000000000000000000000000000000000000081526004016113d19061347c565b60405180910390fd5b6113e684848484611e99565b50505050565b60606113f7826115e5565b6000611401611ef5565b90506000815111611421576040518060200160405280600081525061144c565b8061142b84611f0c565b60405160200161143c929190613795565b6040516020818303038152906040525b915050919050565b6000600560008473ffffffffffffffffffffffffffffffffffffffff1673ffffffffffffffffffffffffffffffffffffffff16815260200190815260200160002060008373ffffffffffffffffffffffffffffffffffffffff1673ffffffffffffffffffffffffffffffffffffffff16815260200190815260200160002060009054906101000a900460ff16905092915050565b6114f06116f1565b600073ffffffffffffffffffffffffffffffffffffffff168173ffffffffffffffffffffffffffffffffffffffff160361155f576040517f08c379a00000000000000000000000000000000000000000000000000000000081526004016115569061382b565b60405180910390fd5b61156881611c67565b50565b60007f780e9d63000000000000000000000000000000000000000000000000000000007bffffffffffffffffffffffffffffffffffffffffffffffffffffffff1916827bffffffffffffffffffffffffffffffffffffffffffffffffffffffff191614806115de57506115dd8261206c565b5b9050919050565b6115ee8161214e565b61162d576040517f08c379a0000000000000000000000000000000000000000000000000000000008152600401611624906136a7565b60405180910390fd5b50565b600033905090565b816004600083815260200190815260200160002060006101000a81548173ffffffffffffffffffffffffffffffffffffffff021916908373ffffffffffffffffffffffffffffffffffffffff160217905550808273ffffffffffffffffffffffffffffffffffffffff166116ab8361113c565b73ffffffffffffffffffffffffffffffffffffffff167f8c5be1e5ebec7d5bd14f71427d1e84f3dd0314c0f7b2291e5b200ac8c7c3b92560405160405180910390a45050565b6116f9611630565b73ffffffffffffffffffffffffffffffffffffffff166117176112b8565b73ffffffffffffffffffffffffffffffffffffffff161461176d576040517f08c379a000000000000000000000000000000000000000000000000000000000815260040161176490613897565b60405180910390fd5b565b600081600001549050919050565b600073ffffffffffffffffffffffffffffffffffffffff168273ffffffffffffffffffffffffffffffffffffffff16036117ec576040517f08c379a00000000000000000000000000000000000000000000000000000000081526004016117e390613903565b60405180910390fd5b6117f58161214e565b15611835576040517f08c379a000000000000000000000000000000000000000000000000000000000815260040161182c9061396f565b60405180910390fd5b611841600083836121ba565b6001600360008473ffffffffffffffffffffffffffffffffffffffff1673ffffffffffffffffffffffffffffffffffffffff168152602001908152602001600020600082825461189191906139be565b92505081905550816002600083815260200190815260200160002060006101000a81548173ffffffffffffffffffffffffffffffffffffffff021916908373ffffffffffffffffffffffffffffffffffffffff160217905550808273ffffffffffffffffffffffffffffffffffffffff16600073ffffffffffffffffffffffffffffffffffffffff167fddf252ad1be2c89b69c2b068fc378daa952ba7f163c4a11628f55a4df523b3ef60405160405180910390a4611952600083836121ca565b5050565b8273ffffffffffffffffffffffffffffffffffffffff166119768261113c565b73ffffffffffffffffffffffffffffffffffffffff16146119cc576040517f08c379a00000000000000000000000000000000000000000000000000000000081526004016119c390613a86565b60405180910390fd5b600073ffffffffffffffffffffffffffffffffffffffff168273ffffffffffffffffffffffffffffffffffffffff1603611a3b576040517f08c379a0000000000000000000000000000000000000000000000000000000008152600401611a3290613b18565b60405180910390fd5b611a468383836121ba565b611a51600082611638565b6001600360008573ffffffffffffffffffffffffffffffffffffffff1673ffffffffffffffffffffffffffffffffffffffff1681526020019081526020016000206000828254611aa19190613b38565b925050819055506001600360008473ffffffffffffffffffffffffffffffffffffffff1673ffffffffffffffffffffffffffffffffffffffff1681526020019081526020016000206000828254611af891906139be565b92505081905550816002600083815260200190815260200160002060006101000a81548173ffffffffffffffffffffffffffffffffffffffff021916908373ffffffffffffffffffffffffffffffffffffffff160217905550808273ffffffffffffffffffffffffffffffffffffffff168473ffffffffffffffffffffffffffffffffffffffff167fddf252ad1be2c89b69c2b068fc378daa952ba7f163c4a11628f55a4df523b3ef60405160405180910390a4611bb78383836121ca565b505050565b6001816000016000828254019250508190555050565b600080611bde8361113c565b90508073ffffffffffffffffffffffffffffffffffffffff168473ffffffffffffffffffffffffffffffffffffffff161480611c205750611c1f8185611454565b5b80611c5e57508373ffffffffffffffffffffffffffffffffffffffff16611c4684610524565b73ffffffffffffffffffffffffffffffffffffffff16145b91505092915050565b6000600a60009054906101000a900473ffffffffffffffffffffffffffffffffffffffff16905081600a60006101000a81548173ffffffffffffffffffffffffffffffffffffffff021916908373ffffffffffffffffffffffffffffffffffffffff1602179055508173ffffffffffffffffffffffffffffffffffffffff168173ffffffffffffffffffffffffffffffffffffffff167f8be0079c531659141344cd1fd0a4f28419497f9722a3daafe3b4186f6b6457e060405160405180910390a35050565b8173ffffffffffffffffffffffffffffffffffffffff168373ffffffffffffffffffffffffffffffffffffffff1603611d9b576040517f08c379a0000000000000000000000000000000000000000000000000000000008152600401611d9290613bb8565b60405180910390fd5b80600560008573ffffffffffffffffffffffffffffffffffffffff1673ffffffffffffffffffffffffffffffffffffffff16815260200190815260200160002060008473ffffffffffffffffffffffffffffffffffffffff1673ffffffffffffffffffffffffffffffffffffffff16815260200190815260200160002060006101000a81548160ff0219169083151502179055508173ffffffffffffffffffffffffffffffffffffffff168373ffffffffffffffffffffffffffffffffffffffff167f17307eab39ab6107e8899845ad3d59bd9653f200f220920489ca2b5937696c3183604051611e8c91906129b2565b60405180910390a3505050565b611ea4848484611956565b611eb0848484846121cf565b611eef576040517f08c379a0000000000000000000000000000000000000000000000000000000008152600401611ee690613c4a565b60405180910390fd5b50505050565b606060405180602001604052806000815250905090565b606060008203611f53576040518060400160405280600181526020017f30000000000000000000000000000000000000000000000000000000000000008152509050612067565b600082905060005b60008214611f85578080611f6e90613c6a565b915050600a82611f7e9190613ce1565b9150611f5b565b60008167ffffffffffffffff811115611fa157611fa0612c14565b5b6040519080825280601f01601f191660200182016040528015611fd35781602001600182028036833780820191505090505b5090505b6000851461206057600182611fec9190613b38565b9150600a85611ffb9190613d12565b603061200791906139be565b60f81b81838151811061201d5761201c6135c0565b5b60200101907effffffffffffffffffffffffffffffffffffffffffffffffffffffffffffff1916908160001a905350600a856120599190613ce1565b9450611fd7565b8093505050505b919050565b60007f80ac58cd000000000000000000000000000000000000000000000000000000007bffffffffffffffffffffffffffffffffffffffffffffffffffffffff1916827bffffffffffffffffffffffffffffffffffffffffffffffffffffffff1916148061213757507f5b5e139f000000000000000000000000000000000000000000000000000000007bffffffffffffffffffffffffffffffffffffffffffffffffffffffff1916827bffffffffffffffffffffffffffffffffffffffffffffffffffffffff1916145b80612147575061214682612356565b5b9050919050565b60008073ffffffffffffffffffffffffffffffffffffffff166002600084815260200190815260200160002060009054906101000a900473ffffffffffffffffffffffffffffffffffffffff1673ffffffffffffffffffffffffffffffffffffffff1614159050919050565b6121c58383836123c0565b505050565b505050565b60006121f08473ffffffffffffffffffffffffffffffffffffffff166124d2565b15612349578373ffffffffffffffffffffffffffffffffffffffff1663150b7a02612219611630565b8786866040518563ffffffff1660e01b815260040161223b9493929190613d98565b6020604051808303816000875af192505050801561227757506040513d601f19601f820116820180604052508101906122749190613df9565b60015b6122f9573d80600081146122a7576040519150601f19603f3d011682016040523d82523d6000602084013e6122ac565b606091505b5060008151036122f1576040517f08c379a00000000000000000000000000000000000000000000000000000000081526004016122e890613c4a565b60405180910390fd5b805181602001fd5b63150b7a0260e01b7bffffffffffffffffffffffffffffffffffffffffffffffffffffffff1916817bffffffffffffffffffffffffffffffffffffffffffffffffffffffff19161491505061234e565b600190505b949350505050565b60007f01ffc9a7000000000000000000000000000000000000000000000000000000007bffffffffffffffffffffffffffffffffffffffffffffffffffffffff1916827bffffffffffffffffffffffffffffffffffffffffffffffffffffffff1916149050919050565b6123cb8383836124f5565b600073ffffffffffffffffffffffffffffffffffffffff168373ffffffffffffffffffffffffffffffffffffffff160361240d57612408816124fa565b61244c565b8173ffffffffffffffffffffffffffffffffffffffff168373ffffffffffffffffffffffffffffffffffffffff161461244b5761244a8382612543565b5b5b600073ffffffffffffffffffffffffffffffffffffffff168273ffffffffffffffffffffffffffffffffffffffff160361248e57612489816126b0565b6124cd565b8273ffffffffffffffffffffffffffffffffffffffff168273ffffffffffffffffffffffffffffffffffffffff16146124cc576124cb8282612781565b5b5b505050565b6000808273ffffffffffffffffffffffffffffffffffffffff163b119050919050565b505050565b6008805490506009600083815260200190815260200160002081905550600881908060018154018082558091505060019003906000526020600020016000909190919091505550565b60006001612550846111ed565b61255a9190613b38565b905060006007600084815260200190815260200160002054905081811461263f576000600660008673ffffffffffffffffffffffffffffffffffffffff1673ffffffffffffffffffffffffffffffffffffffff168152602001908152602001600020600084815260200190815260200160002054905080600660008773ffffffffffffffffffffffffffffffffffffffff1673ffffffffffffffffffffffffffffffffffffffff168152602001908152602001600020600084815260200190815260200160002081905550816007600083815260200190815260200160002081905550505b6007600084815260200190815260200160002060009055600660008573ffffffffffffffffffffffffffffffffffffffff1673ffffffffffffffffffffffffffffffffffffffff16815260200190815260200160002060008381526020019081526020016000206000905550505050565b600060016008805490506126c49190613b38565b90506000600960008481526020019081526020016000205490506000600883815481106126f4576126f36135c0565b5b906000526020600020015490508060088381548110612716576127156135c0565b5b90600052602060002001819055508160096000838152602001908152602001600020819055506009600085815260200190815260200160002060009055600880548061276557612764613e26565b5b6001900381819060005260206000200160009055905550505050565b600061278c836111ed565b905081600660008573ffffffffffffffffffffffffffffffffffffffff1673ffffffffffffffffffffffffffffffffffffffff168152602001908152602001600020600083815260200190815260200160002081905550806007600084815260200190815260200160002081905550505050565b82805461280c9061314b565b90600052602060002090601f01602090048101928261282e5760008555612875565b82601f1061284757805160ff1916838001178555612875565b82800160010185558215612875579182015b82811115612874578251825591602001919060010190612859565b5b50905061288291906128e1565b5090565b6040518060a001604052806060815260200160608152602001600073ffffffffffffffffffffffffffffffffffffffff168152602001600073ffffffffffffffffffffffffffffffffffffffff168152602001606081525090565b5b808211156128fa5760008160009055506001016128e2565b5090565b6000604051905090565b600080fd5b600080fd5b60007fffffffff0000000000000000000000000000000000000000000000000000000082169050919050565b61294781612912565b811461295257600080fd5b50565b6000813590506129648161293e565b92915050565b6000602082840312156129805761297f612908565b5b600061298e84828501612955565b91505092915050565b60008115159050919050565b6129ac81612997565b82525050565b60006020820190506129c760008301846129a3565b92915050565b600081519050919050565b600082825260208201905092915050565b60005b83811015612a075780820151818401526020810190506129ec565b83811115612a16576000848401525b50505050565b6000601f19601f8301169050919050565b6000612a38826129cd565b612a4281856129d8565b9350612a528185602086016129e9565b612a5b81612a1c565b840191505092915050565b60006020820190508181036000830152612a808184612a2d565b905092915050565b6000819050919050565b612a9b81612a88565b8114612aa657600080fd5b50565b600081359050612ab881612a92565b92915050565b600060208284031215612ad457612ad3612908565b5b6000612ae284828501612aa9565b91505092915050565b600073ffffffffffffffffffffffffffffffffffffffff82169050919050565b6000612b1682612aeb565b9050919050565b612b2681612b0b565b82525050565b6000602082019050612b416000830184612b1d565b92915050565b612b5081612b0b565b8114612b5b57600080fd5b50565b600081359050612b6d81612b47565b92915050565b60008060408385031215612b8a57612b89612908565b5b6000612b9885828601612b5e565b9250506020612ba985828601612aa9565b9150509250929050565b612bbc81612a88565b82525050565b6000602082019050612bd76000830184612bb3565b92915050565b600060208284031215612bf357612bf2612908565b5b6000612c0184828501612b5e565b91505092915050565b600080fd5b600080fd5b7f4e487b7100000000000000000000000000000000000000000000000000000000600052604160045260246000fd5b612c4c82612a1c565b810181811067ffffffffffffffff82111715612c6b57612c6a612c14565b5b80604052505050565b6000612c7e6128fe565b9050612c8a8282612c43565b919050565b600067ffffffffffffffff821115612caa57612ca9612c14565b5b612cb382612a1c565b9050602081019050919050565b82818337600083830152505050565b6000612ce2612cdd84612c8f565b612c74565b905082815260208101848484011115612cfe57612cfd612c0f565b5b612d09848285612cc0565b509392505050565b600082601f830112612d2657612d25612c0a565b5b8135612d36848260208601612ccf565b91505092915050565b60008060008060808587031215612d5957612d58612908565b5b6000612d6787828801612b5e565b945050602085013567ffffffffffffffff811115612d8857612d8761290d565b5b612d9487828801612d11565b935050604085013567ffffffffffffffff811115612db557612db461290d565b5b612dc187828801612d11565b925050606085013567ffffffffffffffff811115612de257612de161290d565b5b612dee87828801612d11565b91505092959194509250565b600080600060608486031215612e1357612e12612908565b5b6000612e2186828701612b5e565b9350506020612e3286828701612b5e565b9250506040612e4386828701612aa9565b9150509250925092565b600082825260208201905092915050565b6000612e69826129cd565b612e738185612e4d565b9350612e838185602086016129e9565b612e8c81612a1c565b840191505092915050565b612ea081612b0b565b82525050565b600060a0830160008301518482036000860152612ec38282612e5e565b91505060208301518482036020860152612edd8282612e5e565b9150506040830151612ef26040860182612e97565b506060830151612f056060860182612e97565b5060808301518482036080860152612f1d8282612e5e565b9150508091505092915050565b60006020820190508181036000830152612f448184612ea6565b905092915050565b612f5581612997565b8114612f6057600080fd5b50565b600081359050612f7281612f4c565b92915050565b60008060408385031215612f8f57612f8e612908565b5b6000612f9d85828601612b5e565b9250506020612fae85828601612f63565b9150509250929050565b600067ffffffffffffffff821115612fd357612fd2612c14565b5b612fdc82612a1c565b9050602081019050919050565b6000612ffc612ff784612fb8565b612c74565b90508281526020810184848401111561301857613017612c0f565b5b613023848285612cc0565b509392505050565b600082601f8301126130405761303f612c0a565b5b8135613050848260208601612fe9565b91505092915050565b6000806000806080858703121561307357613072612908565b5b600061308187828801612b5e565b945050602061309287828801612b5e565b93505060406130a387828801612aa9565b925050606085013567ffffffffffffffff8111156130c4576130c361290d565b5b6130d08782880161302b565b91505092959194509250565b600080604083850312156130f3576130f2612908565b5b600061310185828601612b5e565b925050602061311285828601612b5e565b9150509250929050565b7f4e487b7100000000000000000000000000000000000000000000000000000000600052602260045260246000fd5b6000600282049050600182168061316357607f821691505b6020821081036131765761317561311c565b5b50919050565b7f4552433732313a20617070726f76616c20746f2063757272656e74206f776e6560008201527f7200000000000000000000000000000000000000000000000000000000000000602082015250565b60006131d86021836129d8565b91506131e38261317c565b604082019050919050565b60006020820190508181036000830152613207816131cb565b9050919050565b7f4552433732313a20617070726f76652063616c6c6572206973206e6f7420746f60008201527f6b656e206f776e6572206e6f7220617070726f76656420666f7220616c6c0000602082015250565b600061326a603e836129d8565b91506132758261320e565b604082019050919050565b600060208201905081810360008301526132998161325d565b9050919050565b7f4163636f756e74616e7420616c72656164792061646465640000000000000000600082015250565b60006132d66018836129d8565b91506132e1826132a0565b602082019050919050565b60006020820190508181036000830152613305816132c9565b9050919050565b7f53656e646572206973206e6f7420616e206163636f756e74616e740000000000600082015250565b6000613342601b836129d8565b915061334d8261330c565b602082019050919050565b6000602082019050818103600083015261337181613335565b9050919050565b7f53656e646572206973206e6f7420616e20616374697665206163636f756e746160008201527f6e74000000000000000000000000000000000000000000000000000000000000602082015250565b60006133d46022836129d8565b91506133df82613378565b604082019050919050565b60006020820190508181036000830152613403816133c7565b9050919050565b7f4552433732313a2063616c6c6572206973206e6f7420746f6b656e206f776e6560008201527f72206e6f7220617070726f766564000000000000000000000000000000000000602082015250565b6000613466602e836129d8565b91506134718261340a565b604082019050919050565b6000602082019050818103600083015261349581613459565b9050919050565b7f455243373231456e756d657261626c653a206f776e657220696e646578206f7560008201527f74206f6620626f756e6473000000000000000000000000000000000000000000602082015250565b60006134f8602b836129d8565b91506135038261349c565b604082019050919050565b60006020820190508181036000830152613527816134eb565b9050919050565b7f455243373231456e756d657261626c653a20676c6f62616c20696e646578206f60008201527f7574206f6620626f756e64730000000000000000000000000000000000000000602082015250565b600061358a602c836129d8565b91506135958261352e565b604082019050919050565b600060208201905081810360008301526135b98161357d565b9050919050565b7f4e487b7100000000000000000000000000000000000000000000000000000000600052603260045260246000fd5b7f4163636f756e74616e74206e6f74206578697374696e67000000000000000000600082015250565b60006136256017836129d8565b9150613630826135ef565b602082019050919050565b6000602082019050818103600083015261365481613618565b9050919050565b7f4552433732313a20696e76616c696420746f6b656e2049440000000000000000600082015250565b60006136916018836129d8565b915061369c8261365b565b602082019050919050565b600060208201905081810360008301526136c081613684565b9050919050565b7f4552433732313a2061646472657373207a65726f206973206e6f74206120766160008201527f6c6964206f776e65720000000000000000000000000000000000000000000000602082015250565b60006137236029836129d8565b915061372e826136c7565b604082019050919050565b6000602082019050818103600083015261375281613716565b9050919050565b600081905092915050565b600061376f826129cd565b6137798185613759565b93506137898185602086016129e9565b80840191505092915050565b60006137a18285613764565b91506137ad8284613764565b91508190509392505050565b7f4f776e61626c653a206e6577206f776e657220697320746865207a65726f206160008201527f6464726573730000000000000000000000000000000000000000000000000000602082015250565b60006138156026836129d8565b9150613820826137b9565b604082019050919050565b6000602082019050818103600083015261384481613808565b9050919050565b7f4f776e61626c653a2063616c6c6572206973206e6f7420746865206f776e6572600082015250565b60006138816020836129d8565b915061388c8261384b565b602082019050919050565b600060208201905081810360008301526138b081613874565b9050919050565b7f4552433732313a206d696e7420746f20746865207a65726f2061646472657373600082015250565b60006138ed6020836129d8565b91506138f8826138b7565b602082019050919050565b6000602082019050818103600083015261391c816138e0565b9050919050565b7f4552433732313a20746f6b656e20616c7265616479206d696e74656400000000600082015250565b6000613959601c836129d8565b915061396482613923565b602082019050919050565b600060208201905081810360008301526139888161394c565b9050919050565b7f4e487b7100000000000000000000000000000000000000000000000000000000600052601160045260246000fd5b60006139c982612a88565b91506139d483612a88565b9250827fffffffffffffffffffffffffffffffffffffffffffffffffffffffffffffffff03821115613a0957613a0861398f565b5b828201905092915050565b7f4552433732313a207472616e736665722066726f6d20696e636f72726563742060008201527f6f776e6572000000000000000000000000000000000000000000000000000000602082015250565b6000613a706025836129d8565b9150613a7b82613a14565b604082019050919050565b60006020820190508181036000830152613a9f81613a63565b9050919050565b7f4552433732313a207472616e7366657220746f20746865207a65726f2061646460008201527f7265737300000000000000000000000000000000000000000000000000000000602082015250565b6000613b026024836129d8565b9150613b0d82613aa6565b604082019050919050565b60006020820190508181036000830152613b3181613af5565b9050919050565b6000613b4382612a88565b9150613b4e83612a88565b925082821015613b6157613b6061398f565b5b828203905092915050565b7f4552433732313a20617070726f766520746f2063616c6c657200000000000000600082015250565b6000613ba26019836129d8565b9150613bad82613b6c565b602082019050919050565b60006020820190508181036000830152613bd181613b95565b9050919050565b7f4552433732313a207472616e7366657220746f206e6f6e20455243373231526560008201527f63656976657220696d706c656d656e7465720000000000000000000000000000602082015250565b6000613c346032836129d8565b9150613c3f82613bd8565b604082019050919050565b60006020820190508181036000830152613c6381613c27565b9050919050565b6000613c7582612a88565b91507fffffffffffffffffffffffffffffffffffffffffffffffffffffffffffffffff8203613ca757613ca661398f565b5b600182019050919050565b7f4e487b7100000000000000000000000000000000000000000000000000000000600052601260045260246000fd5b6000613cec82612a88565b9150613cf783612a88565b925082613d0757613d06613cb2565b5b828204905092915050565b6000613d1d82612a88565b9150613d2883612a88565b925082613d3857613d37613cb2565b5b828206905092915050565b600081519050919050565b600082825260208201905092915050565b6000613d6a82613d43565b613d748185613d4e565b9350613d848185602086016129e9565b613d8d81612a1c565b840191505092915050565b6000608082019050613dad6000830187612b1d565b613dba6020830186612b1d565b613dc76040830185612bb3565b8181036060830152613dd98184613d5f565b905095945050505050565b600081519050613df38161293e565b92915050565b600060208284031215613e0f57613e0e612908565b5b6000613e1d84828501613de4565b91505092915050565b7f4e487b7100000000000000000000000000000000000000000000000000000000600052603160045260246000fdfea2646970667358221220a95aba4135ff9297976ebddd2297d149a8f6b18f82f4cf26252401e25fa9c85264736f6c634300080d0033",
  "immutableReferences": {},
  "source": "// SPDX-License-Identifier: MIT\r\npragma solidity >=0.4.22 <0.9.0;\r\n\r\nimport \"@openzeppelin/contracts/access/Ownable.sol\";\r\nimport \"@openzeppelin/contracts/token/ERC721/ERC721.sol\";\r\nimport \"@openzeppelin/contracts/token/ERC721/extensions/ERC721Enumerable.sol\";\r\nimport \"@openzeppelin/contracts/utils/Counters.sol\";\r\n\r\ncontract CertificateNFT is ERC721, ERC721Enumerable, Ownable\r\n{\r\n\tusing Counters for Counters.Counter;\r\n\tCounters.Counter certificateIds;\r\n\r\n\t// Certificate data\r\n\tstruct CertificateMetadata\r\n\t{\r\n\t\tstring title;\r\n\t\tstring fromEvent;\r\n\t\taddress owner;\r\n\t\taddress sender;\r\n\t\tstring uri;\r\n\t}\r\n\r\n\t// Accountants\r\n\tstruct Accountant\r\n\t{\r\n\t\tbool isActive;\r\n\t\tbool doesExist;\r\n\t}\r\n\r\n\tmapping(uint256 => CertificateMetadata) certificates;\r\n\tmapping(address => Accountant) accountants;\r\n\r\n\tconstructor() ERC721(\"CertificateNFT\", \"CERT\") {}\r\n\r\n\t// Handles the minting and transferring of the certificate to its owner\r\n\tfunction sendCertificate(\r\n\t\taddress _receiver,\r\n\t\tstring memory _title,\r\n\t\tstring memory _fromEvent,\r\n\t\tstring memory _uri\r\n\t) public sendingRestriction\r\n\t{\r\n\t\t// Generate a unique, new certificate id\r\n\t\tuint256 newCertificateId = certificateIds.current();\r\n\r\n\t\t// Create a CertificateMetadata instance and store it to the certificates mapping\r\n\t\tcertificates[newCertificateId] = CertificateMetadata(_title, _fromEvent, _receiver, msg.sender, _uri);\r\n\r\n\t\t_mint(msg.sender, newCertificateId);                 // mint\r\n\t\t_transfer(msg.sender, _receiver, newCertificateId);  // transfer\r\n\r\n\t\tcertificateIds.increment();\r\n\t}\r\n\r\n\t// Returns the metadata of a certificate\r\n\tfunction getCertificateData(uint256 _certificateId) public view returns(CertificateMetadata memory)\r\n\t{\r\n\t\treturn certificates[_certificateId];\r\n\t}\r\n\r\n\t/* Accountant-handling Functions */\r\n\r\n\t// Handles the adding of an accountant\r\n\tfunction addAccountant(address _accountant) public onlyOwner\r\n\t{\r\n\t\trequire(!accountants[_accountant].doesExist, \"Accountant already added\");\r\n\r\n\t\taccountants[_accountant] = Accountant(true, true);\r\n\t}\r\n\r\n\t// Handles the flagging of an accountant as inactive\r\n\tfunction setInactiveAccountant(address _accountant) public onlyOwner\r\n\t{\r\n\t\trequire(accountants[_accountant].doesExist, \"Accountant not existing\");\r\n\r\n\t\taccountants[_accountant].isActive = false;\r\n\t}\r\n\r\n    /* Modifiers */\r\n\r\n\tmodifier sendingRestriction()\r\n\t{\r\n\t\t// If the sender is the admin, allow sending\r\n\t\tif(msg.sender == owner())\r\n\t\t{\r\n\t\t\t_;\r\n\t\t}\r\n\t\t// If the sender is not the admin,\r\n\t\t//\t\tcheck if the sender is an accountant.\r\n\t\t// \t\tIf so allow sending\r\n\t\telse\r\n\t\t{\r\n\t\t\trequire(accountants[msg.sender].doesExist, \"Sender is not an accountant\");\r\n\t\t\trequire(accountants[msg.sender].isActive, \"Sender is not an active accountant\");\r\n\r\n\t\t\t_;\r\n\t\t}\r\n\t}\r\n\r\n\t// Overrides - MUST BE INCLUDED\r\n\tfunction _beforeTokenTransfer(address from, address to, uint256 tokenId) internal override(ERC721, ERC721Enumerable)\r\n\t{\r\n\t\tsuper._beforeTokenTransfer(from, to, tokenId);\r\n\t}\r\n\r\n\tfunction supportsInterface(bytes4 interfaceId) public view override(ERC721, ERC721Enumerable) returns(bool)\r\n\t{\r\n\t\treturn super.supportsInterface(interfaceId);\r\n\t}\r\n}",
  "sourcePath": "C:\\Users\\nicol\\Documents\\GitHub\\iCertify\\api\\contracts\\CertificateNFT.sol",
  "compiler": {
    "name": "solc",
    "version": "0.8.13+commit.abaa5c0e.Emscripten.clang"
  },
  "schemaVersion": "3.4.11",
  "updatedAt": "2023-01-06T15:54:37.711Z",
  "networkType": "ethereum",
  "devdoc": {
    "kind": "dev",
    "methods": {
      "approve(address,uint256)": {
        "details": "See {IERC721-approve}."
      },
      "balanceOf(address)": {
        "details": "See {IERC721-balanceOf}."
      },
      "getApproved(uint256)": {
        "details": "See {IERC721-getApproved}."
      },
      "isApprovedForAll(address,address)": {
        "details": "See {IERC721-isApprovedForAll}."
      },
      "name()": {
        "details": "See {IERC721Metadata-name}."
      },
      "owner()": {
        "details": "Returns the address of the current owner."
      },
      "ownerOf(uint256)": {
        "details": "See {IERC721-ownerOf}."
      },
      "renounceOwnership()": {
        "details": "Leaves the contract without owner. It will not be possible to call `onlyOwner` functions anymore. Can only be called by the current owner. NOTE: Renouncing ownership will leave the contract without an owner, thereby removing any functionality that is only available to the owner."
      },
      "safeTransferFrom(address,address,uint256)": {
        "details": "See {IERC721-safeTransferFrom}."
      },
      "safeTransferFrom(address,address,uint256,bytes)": {
        "details": "See {IERC721-safeTransferFrom}."
      },
      "setApprovalForAll(address,bool)": {
        "details": "See {IERC721-setApprovalForAll}."
      },
      "symbol()": {
        "details": "See {IERC721Metadata-symbol}."
      },
      "tokenByIndex(uint256)": {
        "details": "See {IERC721Enumerable-tokenByIndex}."
      },
      "tokenOfOwnerByIndex(address,uint256)": {
        "details": "See {IERC721Enumerable-tokenOfOwnerByIndex}."
      },
      "tokenURI(uint256)": {
        "details": "See {IERC721Metadata-tokenURI}."
      },
      "totalSupply()": {
        "details": "See {IERC721Enumerable-totalSupply}."
      },
      "transferFrom(address,address,uint256)": {
        "details": "See {IERC721-transferFrom}."
      },
      "transferOwnership(address)": {
        "details": "Transfers ownership of the contract to a new account (`newOwner`). Can only be called by the current owner."
      }
    },
    "version": 1
  },
  "userdoc": {
    "kind": "user",
    "methods": {},
    "version": 1
  }
}