{
  "contractName": "CertificateNFT",
  "abi": [
    {
      "inputs": [],
      "stateMutability": "nonpayable",
      "type": "constructor"
    },
    {
      "anonymous": false,
      "inputs": [
        {
          "indexed": true,
          "internalType": "address",
          "name": "owner",
          "type": "address"
        },
        {
          "indexed": true,
          "internalType": "address",
          "name": "approved",
          "type": "address"
        },
        {
          "indexed": true,
          "internalType": "uint256",
          "name": "tokenId",
          "type": "uint256"
        }
      ],
      "name": "Approval",
      "type": "event"
    },
    {
      "anonymous": false,
      "inputs": [
        {
          "indexed": true,
          "internalType": "address",
          "name": "owner",
          "type": "address"
        },
        {
          "indexed": true,
          "internalType": "address",
          "name": "operator",
          "type": "address"
        },
        {
          "indexed": false,
          "internalType": "bool",
          "name": "approved",
          "type": "bool"
        }
      ],
      "name": "ApprovalForAll",
      "type": "event"
    },
    {
      "anonymous": false,
      "inputs": [
        {
          "indexed": true,
          "internalType": "address",
          "name": "previousOwner",
          "type": "address"
        },
        {
          "indexed": true,
          "internalType": "address",
          "name": "newOwner",
          "type": "address"
        }
      ],
      "name": "OwnershipTransferred",
      "type": "event"
    },
    {
      "anonymous": false,
      "inputs": [
        {
          "indexed": true,
          "internalType": "address",
          "name": "from",
          "type": "address"
        },
        {
          "indexed": true,
          "internalType": "address",
          "name": "to",
          "type": "address"
        },
        {
          "indexed": true,
          "internalType": "uint256",
          "name": "tokenId",
          "type": "uint256"
        }
      ],
      "name": "Transfer",
      "type": "event"
    },
    {
      "inputs": [
        {
          "internalType": "address",
          "name": "to",
          "type": "address"
        },
        {
          "internalType": "uint256",
          "name": "tokenId",
          "type": "uint256"
        }
      ],
      "name": "approve",
      "outputs": [],
      "stateMutability": "nonpayable",
      "type": "function"
    },
    {
      "inputs": [
        {
          "internalType": "address",
          "name": "owner",
          "type": "address"
        }
      ],
      "name": "balanceOf",
      "outputs": [
        {
          "internalType": "uint256",
          "name": "",
          "type": "uint256"
        }
      ],
      "stateMutability": "view",
      "type": "function",
      "constant": true
    },
    {
      "inputs": [
        {
          "internalType": "uint256",
          "name": "tokenId",
          "type": "uint256"
        }
      ],
      "name": "getApproved",
      "outputs": [
        {
          "internalType": "address",
          "name": "",
          "type": "address"
        }
      ],
      "stateMutability": "view",
      "type": "function",
      "constant": true
    },
    {
      "inputs": [
        {
          "internalType": "address",
          "name": "owner",
          "type": "address"
        },
        {
          "internalType": "address",
          "name": "operator",
          "type": "address"
        }
      ],
      "name": "isApprovedForAll",
      "outputs": [
        {
          "internalType": "bool",
          "name": "",
          "type": "bool"
        }
      ],
      "stateMutability": "view",
      "type": "function",
      "constant": true
    },
    {
      "inputs": [],
      "name": "name",
      "outputs": [
        {
          "internalType": "string",
          "name": "",
          "type": "string"
        }
      ],
      "stateMutability": "view",
      "type": "function",
      "constant": true
    },
    {
      "inputs": [],
      "name": "owner",
      "outputs": [
        {
          "internalType": "address",
          "name": "",
          "type": "address"
        }
      ],
      "stateMutability": "view",
      "type": "function",
      "constant": true
    },
    {
      "inputs": [
        {
          "internalType": "uint256",
          "name": "tokenId",
          "type": "uint256"
        }
      ],
      "name": "ownerOf",
      "outputs": [
        {
          "internalType": "address",
          "name": "",
          "type": "address"
        }
      ],
      "stateMutability": "view",
      "type": "function",
      "constant": true
    },
    {
      "inputs": [],
      "name": "renounceOwnership",
      "outputs": [],
      "stateMutability": "nonpayable",
      "type": "function"
    },
    {
      "inputs": [
        {
          "internalType": "address",
          "name": "from",
          "type": "address"
        },
        {
          "internalType": "address",
          "name": "to",
          "type": "address"
        },
        {
          "internalType": "uint256",
          "name": "tokenId",
          "type": "uint256"
        }
      ],
      "name": "safeTransferFrom",
      "outputs": [],
      "stateMutability": "nonpayable",
      "type": "function"
    },
    {
      "inputs": [
        {
          "internalType": "address",
          "name": "from",
          "type": "address"
        },
        {
          "internalType": "address",
          "name": "to",
          "type": "address"
        },
        {
          "internalType": "uint256",
          "name": "tokenId",
          "type": "uint256"
        },
        {
          "internalType": "bytes",
          "name": "data",
          "type": "bytes"
        }
      ],
      "name": "safeTransferFrom",
      "outputs": [],
      "stateMutability": "nonpayable",
      "type": "function"
    },
    {
      "inputs": [
        {
          "internalType": "address",
          "name": "operator",
          "type": "address"
        },
        {
          "internalType": "bool",
          "name": "approved",
          "type": "bool"
        }
      ],
      "name": "setApprovalForAll",
      "outputs": [],
      "stateMutability": "nonpayable",
      "type": "function"
    },
    {
      "inputs": [],
      "name": "symbol",
      "outputs": [
        {
          "internalType": "string",
          "name": "",
          "type": "string"
        }
      ],
      "stateMutability": "view",
      "type": "function",
      "constant": true
    },
    {
      "inputs": [
        {
          "internalType": "uint256",
          "name": "index",
          "type": "uint256"
        }
      ],
      "name": "tokenByIndex",
      "outputs": [
        {
          "internalType": "uint256",
          "name": "",
          "type": "uint256"
        }
      ],
      "stateMutability": "view",
      "type": "function",
      "constant": true
    },
    {
      "inputs": [
        {
          "internalType": "address",
          "name": "owner",
          "type": "address"
        },
        {
          "internalType": "uint256",
          "name": "index",
          "type": "uint256"
        }
      ],
      "name": "tokenOfOwnerByIndex",
      "outputs": [
        {
          "internalType": "uint256",
          "name": "",
          "type": "uint256"
        }
      ],
      "stateMutability": "view",
      "type": "function",
      "constant": true
    },
    {
      "inputs": [],
      "name": "totalSupply",
      "outputs": [
        {
          "internalType": "uint256",
          "name": "",
          "type": "uint256"
        }
      ],
      "stateMutability": "view",
      "type": "function",
      "constant": true
    },
    {
      "inputs": [
        {
          "internalType": "address",
          "name": "from",
          "type": "address"
        },
        {
          "internalType": "address",
          "name": "to",
          "type": "address"
        },
        {
          "internalType": "uint256",
          "name": "tokenId",
          "type": "uint256"
        }
      ],
      "name": "transferFrom",
      "outputs": [],
      "stateMutability": "nonpayable",
      "type": "function"
    },
    {
      "inputs": [
        {
          "internalType": "address",
          "name": "newOwner",
          "type": "address"
        }
      ],
      "name": "transferOwnership",
      "outputs": [],
      "stateMutability": "nonpayable",
      "type": "function"
    },
    {
      "inputs": [
        {
          "internalType": "address",
          "name": "receiver",
          "type": "address"
        },
        {
          "internalType": "string",
          "name": "eventId",
          "type": "string"
        },
        {
          "internalType": "string",
          "name": "uri",
          "type": "string"
        }
      ],
      "name": "sendCertificate",
      "outputs": [],
      "stateMutability": "nonpayable",
      "type": "function"
    },
    {
      "inputs": [
        {
          "internalType": "uint256",
          "name": "_certificateId",
          "type": "uint256"
        }
      ],
      "name": "getCertificateData",
      "outputs": [
        {
          "components": [
            {
              "internalType": "string",
              "name": "eventId",
              "type": "string"
            },
            {
              "internalType": "address",
              "name": "owner",
              "type": "address"
            },
            {
              "internalType": "address",
              "name": "sender",
              "type": "address"
            },
            {
              "internalType": "string",
              "name": "uri",
              "type": "string"
            }
          ],
          "internalType": "struct CertificateNFT.CertificateMetadata",
          "name": "",
          "type": "tuple"
        }
      ],
      "stateMutability": "view",
      "type": "function",
      "constant": true
    },
    {
      "inputs": [
        {
          "internalType": "address",
          "name": "_accountant",
          "type": "address"
        }
      ],
      "name": "addAccountant",
      "outputs": [],
      "stateMutability": "nonpayable",
      "type": "function"
    },
    {
      "inputs": [
        {
          "internalType": "address",
          "name": "_accountant",
          "type": "address"
        }
      ],
      "name": "setInactiveAccountant",
      "outputs": [],
      "stateMutability": "nonpayable",
      "type": "function"
    },
    {
      "inputs": [
        {
          "internalType": "bytes4",
          "name": "interfaceId",
          "type": "bytes4"
        }
      ],
      "name": "supportsInterface",
      "outputs": [
        {
          "internalType": "bool",
          "name": "",
          "type": "bool"
        }
      ],
      "stateMutability": "view",
      "type": "function",
      "constant": true
    },
    {
      "inputs": [
        {
          "internalType": "uint256",
          "name": "tokenId",
          "type": "uint256"
        }
      ],
      "name": "tokenURI",
      "outputs": [
        {
          "internalType": "string",
          "name": "",
          "type": "string"
        }
      ],
      "stateMutability": "view",
      "type": "function",
      "constant": true
    }
  ],
  "bytecode": "0x60806040523480156200001157600080fd5b506040518060400160405280600e81526020017f43657274696669636174654e46540000000000000000000000000000000000008152506040518060400160405280600481526020017f4345525400000000000000000000000000000000000000000000000000000000815250816000908051906020019062000096929190620001a6565b508060019080519060200190620000af929190620001a6565b505050620000d2620000c6620000d860201b60201c565b620000e060201b60201c565b620002ba565b600033905090565b6000600b60009054906101000a900473ffffffffffffffffffffffffffffffffffffffff16905081600b60006101000a81548173ffffffffffffffffffffffffffffffffffffffff021916908373ffffffffffffffffffffffffffffffffffffffff1602179055508173ffffffffffffffffffffffffffffffffffffffff168173ffffffffffffffffffffffffffffffffffffffff167f8be0079c531659141344cd1fd0a4f28419497f9722a3daafe3b4186f6b6457e060405160405180910390a35050565b828054620001b49062000285565b90600052602060002090601f016020900481019282620001d8576000855562000224565b82601f10620001f357805160ff191683800117855562000224565b8280016001018555821562000224579182015b828111156200022357825182559160200191906001019062000206565b5b50905062000233919062000237565b5090565b5b808211156200025257600081600090555060010162000238565b5090565b7f4e487b7100000000000000000000000000000000000000000000000000000000600052602260045260246000fd5b600060028204905060018216806200029e57607f821691505b602082108103620002b457620002b362000256565b5b50919050565b61427680620002ca6000396000f3fe608060405234801561001057600080fd5b506004361061014d5760003560e01c80634f6ccce7116100c357806395d89b411161007c57806395d89b41146103ae578063a22cb465146103cc578063b88d4fde146103e8578063c87b56dd14610404578063e985e9c514610434578063f2fde38b146104645761014d565b80634f6ccce7146102da5780635dde49c31461030a5780636352211e1461032657806370a0823114610356578063715018a6146103865780638da5cb5b146103905761014d565b8063187c1bb411610115578063187c1bb41461020a57806323b872dd146102265780632b740488146102425780632f745c591461025e57806331494bbb1461028e57806342842e0e146102be5761014d565b806301ffc9a71461015257806306fdde0314610182578063081812fc146101a0578063095ea7b3146101d057806318160ddd146101ec575b600080fd5b61016c60048036038101906101679190612d25565b610480565b6040516101799190612d6d565b60405180910390f35b61018a610492565b6040516101979190612e21565b60405180910390f35b6101ba60048036038101906101b59190612e79565b610524565b6040516101c79190612ee7565b60405180910390f35b6101ea60048036038101906101e59190612f2e565b61056a565b005b6101f4610681565b6040516102019190612f7d565b60405180910390f35b610224600480360381019061021f9190612f98565b61068e565b005b610240600480360381019061023b9190612fc5565b6107c6565b005b61025c6004803603810190610257919061314d565b610826565b005b61027860048036038101906102739190612f2e565b610c4f565b6040516102859190612f7d565b60405180910390f35b6102a860048036038101906102a39190612e79565b610cf4565b6040516102b5919061329b565b60405180910390f35b6102d860048036038101906102d39190612fc5565b610ef1565b005b6102f460048036038101906102ef9190612e79565b610f11565b6040516103019190612f7d565b60405180910390f35b610324600480360381019061031f9190612f98565b610f82565b005b610340600480360381019061033b9190612e79565b611077565b60405161034d9190612ee7565b60405180910390f35b610370600480360381019061036b9190612f98565b6110fd565b60405161037d9190612f7d565b60405180910390f35b61038e6111b4565b005b6103986111c8565b6040516103a59190612ee7565b60405180910390f35b6103b66111f2565b6040516103c39190612e21565b60405180910390f35b6103e660048036038101906103e191906132e9565b611284565b005b61040260048036038101906103fd91906133ca565b61129a565b005b61041e60048036038101906104199190612e79565b6112fc565b60405161042b9190612e21565b60405180910390f35b61044e6004803603810190610449919061344d565b61130e565b60405161045b9190612d6d565b60405180910390f35b61047e60048036038101906104799190612f98565b6113a2565b005b600061048b82611425565b9050919050565b6060600080546104a1906134bc565b80601f01602080910402602001604051908101604052809291908181526020018280546104cd906134bc565b801561051a5780601f106104ef5761010080835404028352916020019161051a565b820191906000526020600020905b8154815290600101906020018083116104fd57829003601f168201915b5050505050905090565b600061052f8261149f565b6004600083815260200190815260200160002060009054906101000a900473ffffffffffffffffffffffffffffffffffffffff169050919050565b600061057582611077565b90508073ffffffffffffffffffffffffffffffffffffffff168373ffffffffffffffffffffffffffffffffffffffff16036105e5576040517f08c379a00000000000000000000000000000000000000000000000000000000081526004016105dc9061355f565b60405180910390fd5b8073ffffffffffffffffffffffffffffffffffffffff166106046114ea565b73ffffffffffffffffffffffffffffffffffffffff16148061063357506106328161062d6114ea565b61130e565b5b610672576040517f08c379a0000000000000000000000000000000000000000000000000000000008152600401610669906135f1565b60405180910390fd5b61067c83836114f2565b505050565b6000600880549050905090565b6106966115ab565b600e60008273ffffffffffffffffffffffffffffffffffffffff1673ffffffffffffffffffffffffffffffffffffffff16815260200190815260200160002060000160019054906101000a900460ff1615610726576040517f08c379a000000000000000000000000000000000000000000000000000000000815260040161071d9061365d565b60405180910390fd5b604051806040016040528060011515815260200160011515815250600e60008373ffffffffffffffffffffffffffffffffffffffff1673ffffffffffffffffffffffffffffffffffffffff16815260200190815260200160002060008201518160000160006101000a81548160ff02191690831515021790555060208201518160000160016101000a81548160ff02191690831515021790555090505050565b6107d76107d16114ea565b82611629565b610816576040517f08c379a000000000000000000000000000000000000000000000000000000000815260040161080d906136ef565b60405180910390fd5b6108218383836116be565b505050565b61082e6111c8565b73ffffffffffffffffffffffffffffffffffffffff163373ffffffffffffffffffffffffffffffffffffffff16036109c857600061086c600c6119b7565b905060405180608001604052808481526020018573ffffffffffffffffffffffffffffffffffffffff1681526020013373ffffffffffffffffffffffffffffffffffffffff16815260200183815250600d600083815260200190815260200160002060008201518160000190805190602001906108ea929190612bc2565b5060208201518160010160006101000a81548173ffffffffffffffffffffffffffffffffffffffff021916908373ffffffffffffffffffffffffffffffffffffffff16021790555060408201518160020160006101000a81548173ffffffffffffffffffffffffffffffffffffffff021916908373ffffffffffffffffffffffffffffffffffffffff1602179055506060820151816003019080519060200190610995929190612bc2565b509050506109a333826119c5565b6109ad8183611be2565b6109b83385836116be565b6109c2600c611c56565b50610c4a565b600e60003373ffffffffffffffffffffffffffffffffffffffff1673ffffffffffffffffffffffffffffffffffffffff16815260200190815260200160002060000160019054906101000a900460ff16610a57576040517f08c379a0000000000000000000000000000000000000000000000000000000008152600401610a4e9061375b565b60405180910390fd5b600e60003373ffffffffffffffffffffffffffffffffffffffff1673ffffffffffffffffffffffffffffffffffffffff16815260200190815260200160002060000160009054906101000a900460ff16610ae6576040517f08c379a0000000000000000000000000000000000000000000000000000000008152600401610add906137ed565b60405180910390fd5b6000610af2600c6119b7565b905060405180608001604052808481526020018573ffffffffffffffffffffffffffffffffffffffff1681526020013373ffffffffffffffffffffffffffffffffffffffff16815260200183815250600d60008381526020019081526020016000206000820151816000019080519060200190610b70929190612bc2565b5060208201518160010160006101000a81548173ffffffffffffffffffffffffffffffffffffffff021916908373ffffffffffffffffffffffffffffffffffffffff16021790555060408201518160020160006101000a81548173ffffffffffffffffffffffffffffffffffffffff021916908373ffffffffffffffffffffffffffffffffffffffff1602179055506060820151816003019080519060200190610c1b929190612bc2565b50905050610c2933826119c5565b610c338183611be2565b610c3e3385836116be565b610c48600c611c56565b505b505050565b6000610c5a836110fd565b8210610c9b576040517f08c379a0000000000000000000000000000000000000000000000000000000008152600401610c929061387f565b60405180910390fd5b600660008473ffffffffffffffffffffffffffffffffffffffff1673ffffffffffffffffffffffffffffffffffffffff168152602001908152602001600020600083815260200190815260200160002054905092915050565b610cfc612c48565b600d6000838152602001908152602001600020604051806080016040529081600082018054610d2a906134bc565b80601f0160208091040260200160405190810160405280929190818152602001828054610d56906134bc565b8015610da35780601f10610d7857610100808354040283529160200191610da3565b820191906000526020600020905b815481529060010190602001808311610d8657829003601f168201915b505050505081526020016001820160009054906101000a900473ffffffffffffffffffffffffffffffffffffffff1673ffffffffffffffffffffffffffffffffffffffff1673ffffffffffffffffffffffffffffffffffffffff1681526020016002820160009054906101000a900473ffffffffffffffffffffffffffffffffffffffff1673ffffffffffffffffffffffffffffffffffffffff1673ffffffffffffffffffffffffffffffffffffffff168152602001600382018054610e68906134bc565b80601f0160208091040260200160405190810160405280929190818152602001828054610e94906134bc565b8015610ee15780601f10610eb657610100808354040283529160200191610ee1565b820191906000526020600020905b815481529060010190602001808311610ec457829003601f168201915b5050505050815250509050919050565b610f0c8383836040518060200160405280600081525061129a565b505050565b6000610f1b610681565b8210610f5c576040517f08c379a0000000000000000000000000000000000000000000000000000000008152600401610f5390613911565b60405180910390fd5b60088281548110610f7057610f6f613931565b5b90600052602060002001549050919050565b610f8a6115ab565b600e60008273ffffffffffffffffffffffffffffffffffffffff1673ffffffffffffffffffffffffffffffffffffffff16815260200190815260200160002060000160019054906101000a900460ff16611019576040517f08c379a0000000000000000000000000000000000000000000000000000000008152600401611010906139ac565b60405180910390fd5b6000600e60008373ffffffffffffffffffffffffffffffffffffffff1673ffffffffffffffffffffffffffffffffffffffff16815260200190815260200160002060000160006101000a81548160ff02191690831515021790555050565b60008061108383611c6c565b9050600073ffffffffffffffffffffffffffffffffffffffff168173ffffffffffffffffffffffffffffffffffffffff16036110f4576040517f08c379a00000000000000000000000000000000000000000000000000000000081526004016110eb90613a18565b60405180910390fd5b80915050919050565b60008073ffffffffffffffffffffffffffffffffffffffff168273ffffffffffffffffffffffffffffffffffffffff160361116d576040517f08c379a000000000000000000000000000000000000000000000000000000000815260040161116490613aaa565b60405180910390fd5b600360008373ffffffffffffffffffffffffffffffffffffffff1673ffffffffffffffffffffffffffffffffffffffff168152602001908152602001600020549050919050565b6111bc6115ab565b6111c66000611ca9565b565b6000600b60009054906101000a900473ffffffffffffffffffffffffffffffffffffffff16905090565b606060018054611201906134bc565b80601f016020809104026020016040519081016040528092919081815260200182805461122d906134bc565b801561127a5780601f1061124f5761010080835404028352916020019161127a565b820191906000526020600020905b81548152906001019060200180831161125d57829003601f168201915b5050505050905090565b61129661128f6114ea565b8383611d6f565b5050565b6112ab6112a56114ea565b83611629565b6112ea576040517f08c379a00000000000000000000000000000000000000000000000000000000081526004016112e1906136ef565b60405180910390fd5b6112f684848484611edb565b50505050565b606061130782611f37565b9050919050565b6000600560008473ffffffffffffffffffffffffffffffffffffffff1673ffffffffffffffffffffffffffffffffffffffff16815260200190815260200160002060008373ffffffffffffffffffffffffffffffffffffffff1673ffffffffffffffffffffffffffffffffffffffff16815260200190815260200160002060009054906101000a900460ff16905092915050565b6113aa6115ab565b600073ffffffffffffffffffffffffffffffffffffffff168173ffffffffffffffffffffffffffffffffffffffff1603611419576040517f08c379a000000000000000000000000000000000000000000000000000000000815260040161141090613b3c565b60405180910390fd5b61142281611ca9565b50565b60007f780e9d63000000000000000000000000000000000000000000000000000000007bffffffffffffffffffffffffffffffffffffffffffffffffffffffff1916827bffffffffffffffffffffffffffffffffffffffffffffffffffffffff19161480611498575061149782612049565b5b9050919050565b6114a88161212b565b6114e7576040517f08c379a00000000000000000000000000000000000000000000000000000000081526004016114de90613a18565b60405180910390fd5b50565b600033905090565b816004600083815260200190815260200160002060006101000a81548173ffffffffffffffffffffffffffffffffffffffff021916908373ffffffffffffffffffffffffffffffffffffffff160217905550808273ffffffffffffffffffffffffffffffffffffffff1661156583611077565b73ffffffffffffffffffffffffffffffffffffffff167f8c5be1e5ebec7d5bd14f71427d1e84f3dd0314c0f7b2291e5b200ac8c7c3b92560405160405180910390a45050565b6115b36114ea565b73ffffffffffffffffffffffffffffffffffffffff166115d16111c8565b73ffffffffffffffffffffffffffffffffffffffff1614611627576040517f08c379a000000000000000000000000000000000000000000000000000000000815260040161161e90613ba8565b60405180910390fd5b565b60008061163583611077565b90508073ffffffffffffffffffffffffffffffffffffffff168473ffffffffffffffffffffffffffffffffffffffff1614806116775750611676818561130e565b5b806116b557508373ffffffffffffffffffffffffffffffffffffffff1661169d84610524565b73ffffffffffffffffffffffffffffffffffffffff16145b91505092915050565b8273ffffffffffffffffffffffffffffffffffffffff166116de82611077565b73ffffffffffffffffffffffffffffffffffffffff1614611734576040517f08c379a000000000000000000000000000000000000000000000000000000000815260040161172b90613c3a565b60405180910390fd5b600073ffffffffffffffffffffffffffffffffffffffff168273ffffffffffffffffffffffffffffffffffffffff16036117a3576040517f08c379a000000000000000000000000000000000000000000000000000000000815260040161179a90613ccc565b60405180910390fd5b6117b0838383600161216c565b8273ffffffffffffffffffffffffffffffffffffffff166117d082611077565b73ffffffffffffffffffffffffffffffffffffffff1614611826576040517f08c379a000000000000000000000000000000000000000000000000000000000815260040161181d90613c3a565b60405180910390fd5b6004600082815260200190815260200160002060006101000a81549073ffffffffffffffffffffffffffffffffffffffff02191690556001600360008573ffffffffffffffffffffffffffffffffffffffff1673ffffffffffffffffffffffffffffffffffffffff168152602001908152602001600020600082825403925050819055506001600360008473ffffffffffffffffffffffffffffffffffffffff1673ffffffffffffffffffffffffffffffffffffffff16815260200190815260200160002060008282540192505081905550816002600083815260200190815260200160002060006101000a81548173ffffffffffffffffffffffffffffffffffffffff021916908373ffffffffffffffffffffffffffffffffffffffff160217905550808273ffffffffffffffffffffffffffffffffffffffff168473ffffffffffffffffffffffffffffffffffffffff167fddf252ad1be2c89b69c2b068fc378daa952ba7f163c4a11628f55a4df523b3ef60405160405180910390a46119b2838383600161217e565b505050565b600081600001549050919050565b600073ffffffffffffffffffffffffffffffffffffffff168273ffffffffffffffffffffffffffffffffffffffff1603611a34576040517f08c379a0000000000000000000000000000000000000000000000000000000008152600401611a2b90613d38565b60405180910390fd5b611a3d8161212b565b15611a7d576040517f08c379a0000000000000000000000000000000000000000000000000000000008152600401611a7490613da4565b60405180910390fd5b611a8b60008383600161216c565b611a948161212b565b15611ad4576040517f08c379a0000000000000000000000000000000000000000000000000000000008152600401611acb90613da4565b60405180910390fd5b6001600360008473ffffffffffffffffffffffffffffffffffffffff1673ffffffffffffffffffffffffffffffffffffffff16815260200190815260200160002060008282540192505081905550816002600083815260200190815260200160002060006101000a81548173ffffffffffffffffffffffffffffffffffffffff021916908373ffffffffffffffffffffffffffffffffffffffff160217905550808273ffffffffffffffffffffffffffffffffffffffff16600073ffffffffffffffffffffffffffffffffffffffff167fddf252ad1be2c89b69c2b068fc378daa952ba7f163c4a11628f55a4df523b3ef60405160405180910390a4611bde60008383600161217e565b5050565b611beb8261212b565b611c2a576040517f08c379a0000000000000000000000000000000000000000000000000000000008152600401611c2190613e36565b60405180910390fd5b80600a60008481526020019081526020016000209080519060200190611c51929190612bc2565b505050565b6001816000016000828254019250508190555050565b60006002600083815260200190815260200160002060009054906101000a900473ffffffffffffffffffffffffffffffffffffffff169050919050565b6000600b60009054906101000a900473ffffffffffffffffffffffffffffffffffffffff16905081600b60006101000a81548173ffffffffffffffffffffffffffffffffffffffff021916908373ffffffffffffffffffffffffffffffffffffffff1602179055508173ffffffffffffffffffffffffffffffffffffffff168173ffffffffffffffffffffffffffffffffffffffff167f8be0079c531659141344cd1fd0a4f28419497f9722a3daafe3b4186f6b6457e060405160405180910390a35050565b8173ffffffffffffffffffffffffffffffffffffffff168373ffffffffffffffffffffffffffffffffffffffff1603611ddd576040517f08c379a0000000000000000000000000000000000000000000000000000000008152600401611dd490613ea2565b60405180910390fd5b80600560008573ffffffffffffffffffffffffffffffffffffffff1673ffffffffffffffffffffffffffffffffffffffff16815260200190815260200160002060008473ffffffffffffffffffffffffffffffffffffffff1673ffffffffffffffffffffffffffffffffffffffff16815260200190815260200160002060006101000a81548160ff0219169083151502179055508173ffffffffffffffffffffffffffffffffffffffff168373ffffffffffffffffffffffffffffffffffffffff167f17307eab39ab6107e8899845ad3d59bd9653f200f220920489ca2b5937696c3183604051611ece9190612d6d565b60405180910390a3505050565b611ee68484846116be565b611ef284848484612184565b611f31576040517f08c379a0000000000000000000000000000000000000000000000000000000008152600401611f2890613f34565b60405180910390fd5b50505050565b6060611f428261149f565b6000600a60008481526020019081526020016000208054611f62906134bc565b80601f0160208091040260200160405190810160405280929190818152602001828054611f8e906134bc565b8015611fdb5780601f10611fb057610100808354040283529160200191611fdb565b820191906000526020600020905b815481529060010190602001808311611fbe57829003601f168201915b505050505090506000611fec61230b565b90506000815103612001578192505050612044565b60008251111561203657808260405160200161201e929190613f90565b60405160208183030381529060405292505050612044565b61203f84612322565b925050505b919050565b60007f80ac58cd000000000000000000000000000000000000000000000000000000007bffffffffffffffffffffffffffffffffffffffffffffffffffffffff1916827bffffffffffffffffffffffffffffffffffffffffffffffffffffffff1916148061211457507f5b5e139f000000000000000000000000000000000000000000000000000000007bffffffffffffffffffffffffffffffffffffffffffffffffffffffff1916827bffffffffffffffffffffffffffffffffffffffffffffffffffffffff1916145b8061212457506121238261238a565b5b9050919050565b60008073ffffffffffffffffffffffffffffffffffffffff1661214d83611c6c565b73ffffffffffffffffffffffffffffffffffffffff1614159050919050565b612178848484846123f4565b50505050565b50505050565b60006121a58473ffffffffffffffffffffffffffffffffffffffff16612552565b156122fe578373ffffffffffffffffffffffffffffffffffffffff1663150b7a026121ce6114ea565b8786866040518563ffffffff1660e01b81526004016121f09493929190614009565b6020604051808303816000875af192505050801561222c57506040513d601f19601f82011682018060405250810190612229919061406a565b60015b6122ae573d806000811461225c576040519150601f19603f3d011682016040523d82523d6000602084013e612261565b606091505b5060008151036122a6576040517f08c379a000000000000000000000000000000000000000000000000000000000815260040161229d90613f34565b60405180910390fd5b805181602001fd5b63150b7a0260e01b7bffffffffffffffffffffffffffffffffffffffffffffffffffffffff1916817bffffffffffffffffffffffffffffffffffffffffffffffffffffffff191614915050612303565b600190505b949350505050565b606060405180602001604052806000815250905090565b606061232d8261149f565b600061233761230b565b905060008151116123575760405180602001604052806000815250612382565b8061236184612575565b604051602001612372929190613f90565b6040516020818303038152906040525b915050919050565b60007f01ffc9a7000000000000000000000000000000000000000000000000000000007bffffffffffffffffffffffffffffffffffffffffffffffffffffffff1916827bffffffffffffffffffffffffffffffffffffffffffffffffffffffff1916149050919050565b61240084848484612643565b6001811115612444576040517f08c379a000000000000000000000000000000000000000000000000000000000815260040161243b90614109565b60405180910390fd5b6000829050600073ffffffffffffffffffffffffffffffffffffffff168573ffffffffffffffffffffffffffffffffffffffff160361248b5761248681612769565b6124ca565b8373ffffffffffffffffffffffffffffffffffffffff168573ffffffffffffffffffffffffffffffffffffffff16146124c9576124c885826127b2565b5b5b600073ffffffffffffffffffffffffffffffffffffffff168473ffffffffffffffffffffffffffffffffffffffff160361250c576125078161291f565b61254b565b8473ffffffffffffffffffffffffffffffffffffffff168473ffffffffffffffffffffffffffffffffffffffff161461254a5761254984826129f0565b5b5b5050505050565b6000808273ffffffffffffffffffffffffffffffffffffffff163b119050919050565b60606000600161258484612a6f565b01905060008167ffffffffffffffff8111156125a3576125a2613022565b5b6040519080825280601f01601f1916602001820160405280156125d55781602001600182028036833780820191505090505b509050600082602001820190505b600115612638578080600190039150507f3031323334353637383961626364656600000000000000000000000000000000600a86061a8153600a858161262c5761262b614129565b5b049450600085036125e3575b819350505050919050565b600181111561276357600073ffffffffffffffffffffffffffffffffffffffff168473ffffffffffffffffffffffffffffffffffffffff16146126d75780600360008673ffffffffffffffffffffffffffffffffffffffff1673ffffffffffffffffffffffffffffffffffffffff16815260200190815260200160002060008282546126cf9190614187565b925050819055505b600073ffffffffffffffffffffffffffffffffffffffff168373ffffffffffffffffffffffffffffffffffffffff16146127625780600360008573ffffffffffffffffffffffffffffffffffffffff1673ffffffffffffffffffffffffffffffffffffffff168152602001908152602001600020600082825461275a91906141bb565b925050819055505b5b50505050565b6008805490506009600083815260200190815260200160002081905550600881908060018154018082558091505060019003906000526020600020016000909190919091505550565b600060016127bf846110fd565b6127c99190614187565b90506000600760008481526020019081526020016000205490508181146128ae576000600660008673ffffffffffffffffffffffffffffffffffffffff1673ffffffffffffffffffffffffffffffffffffffff168152602001908152602001600020600084815260200190815260200160002054905080600660008773ffffffffffffffffffffffffffffffffffffffff1673ffffffffffffffffffffffffffffffffffffffff168152602001908152602001600020600084815260200190815260200160002081905550816007600083815260200190815260200160002081905550505b6007600084815260200190815260200160002060009055600660008573ffffffffffffffffffffffffffffffffffffffff1673ffffffffffffffffffffffffffffffffffffffff16815260200190815260200160002060008381526020019081526020016000206000905550505050565b600060016008805490506129339190614187565b905060006009600084815260200190815260200160002054905060006008838154811061296357612962613931565b5b90600052602060002001549050806008838154811061298557612984613931565b5b9060005260206000200181905550816009600083815260200190815260200160002081905550600960008581526020019081526020016000206000905560088054806129d4576129d3614211565b5b6001900381819060005260206000200160009055905550505050565b60006129fb836110fd565b905081600660008573ffffffffffffffffffffffffffffffffffffffff1673ffffffffffffffffffffffffffffffffffffffff168152602001908152602001600020600083815260200190815260200160002081905550806007600084815260200190815260200160002081905550505050565b600080600090507a184f03e93ff9f4daa797ed6e38ed64bf6a1f0100000000000000008310612acd577a184f03e93ff9f4daa797ed6e38ed64bf6a1f0100000000000000008381612ac357612ac2614129565b5b0492506040810190505b6d04ee2d6d415b85acef81000000008310612b0a576d04ee2d6d415b85acef81000000008381612b0057612aff614129565b5b0492506020810190505b662386f26fc100008310612b3957662386f26fc100008381612b2f57612b2e614129565b5b0492506010810190505b6305f5e1008310612b62576305f5e1008381612b5857612b57614129565b5b0492506008810190505b6127108310612b87576127108381612b7d57612b7c614129565b5b0492506004810190505b60648310612baa5760648381612ba057612b9f614129565b5b0492506002810190505b600a8310612bb9576001810190505b80915050919050565b828054612bce906134bc565b90600052602060002090601f016020900481019282612bf05760008555612c37565b82601f10612c0957805160ff1916838001178555612c37565b82800160010185558215612c37579182015b82811115612c36578251825591602001919060010190612c1b565b5b509050612c449190612c9c565b5090565b604051806080016040528060608152602001600073ffffffffffffffffffffffffffffffffffffffff168152602001600073ffffffffffffffffffffffffffffffffffffffff168152602001606081525090565b5b80821115612cb5576000816000905550600101612c9d565b5090565b6000604051905090565b600080fd5b600080fd5b60007fffffffff0000000000000000000000000000000000000000000000000000000082169050919050565b612d0281612ccd565b8114612d0d57600080fd5b50565b600081359050612d1f81612cf9565b92915050565b600060208284031215612d3b57612d3a612cc3565b5b6000612d4984828501612d10565b91505092915050565b60008115159050919050565b612d6781612d52565b82525050565b6000602082019050612d826000830184612d5e565b92915050565b600081519050919050565b600082825260208201905092915050565b60005b83811015612dc2578082015181840152602081019050612da7565b83811115612dd1576000848401525b50505050565b6000601f19601f8301169050919050565b6000612df382612d88565b612dfd8185612d93565b9350612e0d818560208601612da4565b612e1681612dd7565b840191505092915050565b60006020820190508181036000830152612e3b8184612de8565b905092915050565b6000819050919050565b612e5681612e43565b8114612e6157600080fd5b50565b600081359050612e7381612e4d565b92915050565b600060208284031215612e8f57612e8e612cc3565b5b6000612e9d84828501612e64565b91505092915050565b600073ffffffffffffffffffffffffffffffffffffffff82169050919050565b6000612ed182612ea6565b9050919050565b612ee181612ec6565b82525050565b6000602082019050612efc6000830184612ed8565b92915050565b612f0b81612ec6565b8114612f1657600080fd5b50565b600081359050612f2881612f02565b92915050565b60008060408385031215612f4557612f44612cc3565b5b6000612f5385828601612f19565b9250506020612f6485828601612e64565b9150509250929050565b612f7781612e43565b82525050565b6000602082019050612f926000830184612f6e565b92915050565b600060208284031215612fae57612fad612cc3565b5b6000612fbc84828501612f19565b91505092915050565b600080600060608486031215612fde57612fdd612cc3565b5b6000612fec86828701612f19565b9350506020612ffd86828701612f19565b925050604061300e86828701612e64565b9150509250925092565b600080fd5b600080fd5b7f4e487b7100000000000000000000000000000000000000000000000000000000600052604160045260246000fd5b61305a82612dd7565b810181811067ffffffffffffffff8211171561307957613078613022565b5b80604052505050565b600061308c612cb9565b90506130988282613051565b919050565b600067ffffffffffffffff8211156130b8576130b7613022565b5b6130c182612dd7565b9050602081019050919050565b82818337600083830152505050565b60006130f06130eb8461309d565b613082565b90508281526020810184848401111561310c5761310b61301d565b5b6131178482856130ce565b509392505050565b600082601f83011261313457613133613018565b5b81356131448482602086016130dd565b91505092915050565b60008060006060848603121561316657613165612cc3565b5b600061317486828701612f19565b935050602084013567ffffffffffffffff81111561319557613194612cc8565b5b6131a18682870161311f565b925050604084013567ffffffffffffffff8111156131c2576131c1612cc8565b5b6131ce8682870161311f565b9150509250925092565b600082825260208201905092915050565b60006131f482612d88565b6131fe81856131d8565b935061320e818560208601612da4565b61321781612dd7565b840191505092915050565b61322b81612ec6565b82525050565b6000608083016000830151848203600086015261324e82826131e9565b91505060208301516132636020860182613222565b5060408301516132766040860182613222565b506060830151848203606086015261328e82826131e9565b9150508091505092915050565b600060208201905081810360008301526132b58184613231565b905092915050565b6132c681612d52565b81146132d157600080fd5b50565b6000813590506132e3816132bd565b92915050565b60008060408385031215613300576132ff612cc3565b5b600061330e85828601612f19565b925050602061331f858286016132d4565b9150509250929050565b600067ffffffffffffffff82111561334457613343613022565b5b61334d82612dd7565b9050602081019050919050565b600061336d61336884613329565b613082565b9050828152602081018484840111156133895761338861301d565b5b6133948482856130ce565b509392505050565b600082601f8301126133b1576133b0613018565b5b81356133c184826020860161335a565b91505092915050565b600080600080608085870312156133e4576133e3612cc3565b5b60006133f287828801612f19565b945050602061340387828801612f19565b935050604061341487828801612e64565b925050606085013567ffffffffffffffff81111561343557613434612cc8565b5b6134418782880161339c565b91505092959194509250565b6000806040838503121561346457613463612cc3565b5b600061347285828601612f19565b925050602061348385828601612f19565b9150509250929050565b7f4e487b7100000000000000000000000000000000000000000000000000000000600052602260045260246000fd5b600060028204905060018216806134d457607f821691505b6020821081036134e7576134e661348d565b5b50919050565b7f4552433732313a20617070726f76616c20746f2063757272656e74206f776e6560008201527f7200000000000000000000000000000000000000000000000000000000000000602082015250565b6000613549602183612d93565b9150613554826134ed565b604082019050919050565b600060208201905081810360008301526135788161353c565b9050919050565b7f4552433732313a20617070726f76652063616c6c6572206973206e6f7420746f60008201527f6b656e206f776e6572206f7220617070726f76656420666f7220616c6c000000602082015250565b60006135db603d83612d93565b91506135e68261357f565b604082019050919050565b6000602082019050818103600083015261360a816135ce565b9050919050565b7f4163636f756e74616e7420616c72656164792061646465640000000000000000600082015250565b6000613647601883612d93565b915061365282613611565b602082019050919050565b600060208201905081810360008301526136768161363a565b9050919050565b7f4552433732313a2063616c6c6572206973206e6f7420746f6b656e206f776e6560008201527f72206f7220617070726f76656400000000000000000000000000000000000000602082015250565b60006136d9602d83612d93565b91506136e48261367d565b604082019050919050565b60006020820190508181036000830152613708816136cc565b9050919050565b7f53656e646572206973206e6f7420616e206163636f756e74616e740000000000600082015250565b6000613745601b83612d93565b91506137508261370f565b602082019050919050565b6000602082019050818103600083015261377481613738565b9050919050565b7f53656e646572206973206e6f7420616e20616374697665206163636f756e746160008201527f6e74000000000000000000000000000000000000000000000000000000000000602082015250565b60006137d7602283612d93565b91506137e28261377b565b604082019050919050565b60006020820190508181036000830152613806816137ca565b9050919050565b7f455243373231456e756d657261626c653a206f776e657220696e646578206f7560008201527f74206f6620626f756e6473000000000000000000000000000000000000000000602082015250565b6000613869602b83612d93565b91506138748261380d565b604082019050919050565b600060208201905081810360008301526138988161385c565b9050919050565b7f455243373231456e756d657261626c653a20676c6f62616c20696e646578206f60008201527f7574206f6620626f756e64730000000000000000000000000000000000000000602082015250565b60006138fb602c83612d93565b91506139068261389f565b604082019050919050565b6000602082019050818103600083015261392a816138ee565b9050919050565b7f4e487b7100000000000000000000000000000000000000000000000000000000600052603260045260246000fd5b7f4163636f756e74616e74206e6f74206578697374696e67000000000000000000600082015250565b6000613996601783612d93565b91506139a182613960565b602082019050919050565b600060208201905081810360008301526139c581613989565b9050919050565b7f4552433732313a20696e76616c696420746f6b656e2049440000000000000000600082015250565b6000613a02601883612d93565b9150613a0d826139cc565b602082019050919050565b60006020820190508181036000830152613a31816139f5565b9050919050565b7f4552433732313a2061646472657373207a65726f206973206e6f74206120766160008201527f6c6964206f776e65720000000000000000000000000000000000000000000000602082015250565b6000613a94602983612d93565b9150613a9f82613a38565b604082019050919050565b60006020820190508181036000830152613ac381613a87565b9050919050565b7f4f776e61626c653a206e6577206f776e657220697320746865207a65726f206160008201527f6464726573730000000000000000000000000000000000000000000000000000602082015250565b6000613b26602683612d93565b9150613b3182613aca565b604082019050919050565b60006020820190508181036000830152613b5581613b19565b9050919050565b7f4f776e61626c653a2063616c6c6572206973206e6f7420746865206f776e6572600082015250565b6000613b92602083612d93565b9150613b9d82613b5c565b602082019050919050565b60006020820190508181036000830152613bc181613b85565b9050919050565b7f4552433732313a207472616e736665722066726f6d20696e636f72726563742060008201527f6f776e6572000000000000000000000000000000000000000000000000000000602082015250565b6000613c24602583612d93565b9150613c2f82613bc8565b604082019050919050565b60006020820190508181036000830152613c5381613c17565b9050919050565b7f4552433732313a207472616e7366657220746f20746865207a65726f2061646460008201527f7265737300000000000000000000000000000000000000000000000000000000602082015250565b6000613cb6602483612d93565b9150613cc182613c5a565b604082019050919050565b60006020820190508181036000830152613ce581613ca9565b9050919050565b7f4552433732313a206d696e7420746f20746865207a65726f2061646472657373600082015250565b6000613d22602083612d93565b9150613d2d82613cec565b602082019050919050565b60006020820190508181036000830152613d5181613d15565b9050919050565b7f4552433732313a20746f6b656e20616c7265616479206d696e74656400000000600082015250565b6000613d8e601c83612d93565b9150613d9982613d58565b602082019050919050565b60006020820190508181036000830152613dbd81613d81565b9050919050565b7f45524337323155524953746f726167653a2055524920736574206f66206e6f6e60008201527f6578697374656e7420746f6b656e000000000000000000000000000000000000602082015250565b6000613e20602e83612d93565b9150613e2b82613dc4565b604082019050919050565b60006020820190508181036000830152613e4f81613e13565b9050919050565b7f4552433732313a20617070726f766520746f2063616c6c657200000000000000600082015250565b6000613e8c601983612d93565b9150613e9782613e56565b602082019050919050565b60006020820190508181036000830152613ebb81613e7f565b9050919050565b7f4552433732313a207472616e7366657220746f206e6f6e20455243373231526560008201527f63656976657220696d706c656d656e7465720000000000000000000000000000602082015250565b6000613f1e603283612d93565b9150613f2982613ec2565b604082019050919050565b60006020820190508181036000830152613f4d81613f11565b9050919050565b600081905092915050565b6000613f6a82612d88565b613f748185613f54565b9350613f84818560208601612da4565b80840191505092915050565b6000613f9c8285613f5f565b9150613fa88284613f5f565b91508190509392505050565b600081519050919050565b600082825260208201905092915050565b6000613fdb82613fb4565b613fe58185613fbf565b9350613ff5818560208601612da4565b613ffe81612dd7565b840191505092915050565b600060808201905061401e6000830187612ed8565b61402b6020830186612ed8565b6140386040830185612f6e565b818103606083015261404a8184613fd0565b905095945050505050565b60008151905061406481612cf9565b92915050565b6000602082840312156140805761407f612cc3565b5b600061408e84828501614055565b91505092915050565b7f455243373231456e756d657261626c653a20636f6e736563757469766520747260008201527f616e7366657273206e6f7420737570706f727465640000000000000000000000602082015250565b60006140f3603583612d93565b91506140fe82614097565b604082019050919050565b60006020820190508181036000830152614122816140e6565b9050919050565b7f4e487b7100000000000000000000000000000000000000000000000000000000600052601260045260246000fd5b7f4e487b7100000000000000000000000000000000000000000000000000000000600052601160045260246000fd5b600061419282612e43565b915061419d83612e43565b9250828210156141b0576141af614158565b5b828203905092915050565b60006141c682612e43565b91506141d183612e43565b9250827fffffffffffffffffffffffffffffffffffffffffffffffffffffffffffffffff0382111561420657614205614158565b5b828201905092915050565b7f4e487b7100000000000000000000000000000000000000000000000000000000600052603160045260246000fdfea264697066735822122087dd027d5ddf726068b224bcd67cee43ddbfd13fc9e68e721f354c205cafab3a64736f6c634300080d0033",
  "immutableReferences": {},
  "source": "// SPDX-License-Identifier: MIT\r\npragma solidity >=0.4.22 <0.9.0;\r\n\r\nimport \"@openzeppelin/contracts/token/ERC721/ERC721.sol\";\r\nimport \"@openzeppelin/contracts/token/ERC721/extensions/ERC721Enumerable.sol\";\r\nimport \"@openzeppelin/contracts/token/ERC721/extensions/ERC721URIStorage.sol\";\r\nimport \"@openzeppelin/contracts/access/Ownable.sol\";\r\nimport \"@openzeppelin/contracts/utils/Counters.sol\";\r\n\r\ncontract CertificateNFT is ERC721, ERC721Enumerable, ERC721URIStorage, Ownable\r\n{\r\n    using Counters for Counters.Counter;\r\n\tCounters.Counter certificateIds;\r\n\r\n\t// Certificate data\r\n\tstruct CertificateMetadata\r\n\t{\r\n\t\tstring eventId;\r\n\t\taddress owner;\r\n\t\taddress sender;\r\n\t\tstring uri;\r\n\t}\r\n\r\n\t// Accountants\r\n\tstruct Accountant\r\n\t{\r\n\t\tbool isActive;\r\n\t\tbool doesExist;\r\n\t}\r\n\r\n\tmapping(uint256 => CertificateMetadata) certificates;\r\n\tmapping(address => Accountant) accountants;\r\n\r\n\tconstructor() ERC721(\"CertificateNFT\", \"CERT\") {}\r\n\r\n\t// Handles the minting and transferring of the certificate to its owner\r\n\tfunction sendCertificate(\r\n\t\taddress receiver,\r\n\t\tstring memory eventId,\r\n\t\tstring memory uri\r\n\t) public sendingRestriction\r\n\t{\r\n\t\t// Generate a unique, new certificate id\r\n\t\tuint256 newCertificateId = certificateIds.current();\r\n\r\n\t\t// Create a CertificateMetadata instance and store it to the certificates mapping\r\n\t\tcertificates[newCertificateId] = CertificateMetadata(eventId, receiver, msg.sender, uri);\r\n\r\n\t\t_mint(msg.sender, newCertificateId);                 // mint\r\n        _setTokenURI(newCertificateId, uri);\r\n\r\n\t\t_transfer(msg.sender, receiver, newCertificateId);  // transfer\r\n\r\n\t\tcertificateIds.increment();\r\n\t}\r\n\r\n\t// Returns the metadata of a certificate\r\n\tfunction getCertificateData(uint256 _certificateId) public view returns(CertificateMetadata memory)\r\n\t{\r\n\t\treturn certificates[_certificateId];\r\n\t}\r\n\r\n\t/* Accountant-handling Functions */\r\n\r\n\t// Handles the adding of an accountant\r\n\tfunction addAccountant(address _accountant) public onlyOwner\r\n\t{\r\n\t\trequire(!accountants[_accountant].doesExist, \"Accountant already added\");\r\n\r\n\t\taccountants[_accountant] = Accountant(true, true);\r\n\t}\r\n\r\n\t// Handles the flagging of an accountant as inactive\r\n\tfunction setInactiveAccountant(address _accountant) public onlyOwner\r\n\t{\r\n\t\trequire(accountants[_accountant].doesExist, \"Accountant not existing\");\r\n\r\n\t\taccountants[_accountant].isActive = false;\r\n\t}\r\n\r\n    /* Modifiers */\r\n\r\n\tmodifier sendingRestriction()\r\n\t{\r\n\t\t// If the sender is the admin, allow sending\r\n\t\tif(msg.sender == owner())\r\n\t\t{\r\n\t\t\t_;\r\n\t\t}\r\n\t\t// If the sender is not the admin,\r\n\t\t//\t\tcheck if the sender is an accountant.\r\n\t\t// \t\tIf so allow sending\r\n\t\telse\r\n\t\t{\r\n\t\t\trequire(accountants[msg.sender].doesExist, \"Sender is not an accountant\");\r\n\t\t\trequire(accountants[msg.sender].isActive, \"Sender is not an active accountant\");\r\n\r\n\t\t\t_;\r\n\t\t}\r\n\t}\r\n\r\n    // Overrides - MUST BE INCLUDED\r\n\tfunction _beforeTokenTransfer(address from, address to, uint256 batchSize, uint256 tokenId) internal override(ERC721, ERC721Enumerable)\r\n\t{\r\n\t\tsuper._beforeTokenTransfer(from, to, batchSize, tokenId);\r\n\t}\r\n\r\n\tfunction supportsInterface(bytes4 interfaceId) public view override(ERC721, ERC721Enumerable) returns(bool)\r\n\t{\r\n\t\treturn super.supportsInterface(interfaceId);\r\n\t}\r\n\r\n    function _burn(uint256 tokenId) internal override(ERC721, ERC721URIStorage)\r\n\t{\r\n        super._burn(tokenId);\r\n    }\r\n\r\n\tfunction tokenURI(uint256 tokenId) public view override(ERC721, ERC721URIStorage) returns (string memory)\r\n    {\r\n        return super.tokenURI(tokenId);\r\n    }\r\n}",
  "sourcePath": "C:\\Users\\admin\\Documents\\GitHub\\iCertify\\api\\contracts\\CertificateNFT.sol",
  "compiler": {
    "name": "solc",
    "version": "0.8.13+commit.abaa5c0e.Emscripten.clang"
  },
  "schemaVersion": "3.4.7",
  "updatedAt": "2023-01-16T01:39:09.642Z",
  "networkType": "ethereum",
  "devdoc": {
    "kind": "dev",
    "methods": {
      "approve(address,uint256)": {
        "details": "See {IERC721-approve}."
      },
      "balanceOf(address)": {
        "details": "See {IERC721-balanceOf}."
      },
      "getApproved(uint256)": {
        "details": "See {IERC721-getApproved}."
      },
      "isApprovedForAll(address,address)": {
        "details": "See {IERC721-isApprovedForAll}."
      },
      "name()": {
        "details": "See {IERC721Metadata-name}."
      },
      "owner()": {
        "details": "Returns the address of the current owner."
      },
      "ownerOf(uint256)": {
        "details": "See {IERC721-ownerOf}."
      },
      "renounceOwnership()": {
        "details": "Leaves the contract without owner. It will not be possible to call `onlyOwner` functions anymore. Can only be called by the current owner. NOTE: Renouncing ownership will leave the contract without an owner, thereby removing any functionality that is only available to the owner."
      },
      "safeTransferFrom(address,address,uint256)": {
        "details": "See {IERC721-safeTransferFrom}."
      },
      "safeTransferFrom(address,address,uint256,bytes)": {
        "details": "See {IERC721-safeTransferFrom}."
      },
      "setApprovalForAll(address,bool)": {
        "details": "See {IERC721-setApprovalForAll}."
      },
      "symbol()": {
        "details": "See {IERC721Metadata-symbol}."
      },
      "tokenByIndex(uint256)": {
        "details": "See {IERC721Enumerable-tokenByIndex}."
      },
      "tokenOfOwnerByIndex(address,uint256)": {
        "details": "See {IERC721Enumerable-tokenOfOwnerByIndex}."
      },
      "totalSupply()": {
        "details": "See {IERC721Enumerable-totalSupply}."
      },
      "transferFrom(address,address,uint256)": {
        "details": "See {IERC721-transferFrom}."
      },
      "transferOwnership(address)": {
        "details": "Transfers ownership of the contract to a new account (`newOwner`). Can only be called by the current owner."
      }
    },
    "version": 1
  },
  "userdoc": {
    "kind": "user",
    "methods": {},
    "version": 1
  }
}