{
  "contractName": "CertificateNFT",
  "abi": [
    {
      "inputs": [],
      "stateMutability": "nonpayable",
      "type": "constructor"
    },
    {
      "anonymous": false,
      "inputs": [
        {
          "indexed": true,
          "internalType": "address",
          "name": "owner",
          "type": "address"
        },
        {
          "indexed": true,
          "internalType": "address",
          "name": "approved",
          "type": "address"
        },
        {
          "indexed": true,
          "internalType": "uint256",
          "name": "tokenId",
          "type": "uint256"
        }
      ],
      "name": "Approval",
      "type": "event"
    },
    {
      "anonymous": false,
      "inputs": [
        {
          "indexed": true,
          "internalType": "address",
          "name": "owner",
          "type": "address"
        },
        {
          "indexed": true,
          "internalType": "address",
          "name": "operator",
          "type": "address"
        },
        {
          "indexed": false,
          "internalType": "bool",
          "name": "approved",
          "type": "bool"
        }
      ],
      "name": "ApprovalForAll",
      "type": "event"
    },
    {
      "anonymous": false,
      "inputs": [
        {
          "indexed": true,
          "internalType": "address",
          "name": "previousOwner",
          "type": "address"
        },
        {
          "indexed": true,
          "internalType": "address",
          "name": "newOwner",
          "type": "address"
        }
      ],
      "name": "OwnershipTransferred",
      "type": "event"
    },
    {
      "anonymous": false,
      "inputs": [
        {
          "indexed": true,
          "internalType": "address",
          "name": "from",
          "type": "address"
        },
        {
          "indexed": true,
          "internalType": "address",
          "name": "to",
          "type": "address"
        },
        {
          "indexed": true,
          "internalType": "uint256",
          "name": "tokenId",
          "type": "uint256"
        }
      ],
      "name": "Transfer",
      "type": "event"
    },
    {
      "inputs": [
        {
          "internalType": "address",
          "name": "to",
          "type": "address"
        },
        {
          "internalType": "uint256",
          "name": "tokenId",
          "type": "uint256"
        }
      ],
      "name": "approve",
      "outputs": [],
      "stateMutability": "nonpayable",
      "type": "function"
    },
    {
      "inputs": [
        {
          "internalType": "address",
          "name": "owner",
          "type": "address"
        }
      ],
      "name": "balanceOf",
      "outputs": [
        {
          "internalType": "uint256",
          "name": "",
          "type": "uint256"
        }
      ],
      "stateMutability": "view",
      "type": "function",
      "constant": true
    },
    {
      "inputs": [
        {
          "internalType": "uint256",
          "name": "tokenId",
          "type": "uint256"
        }
      ],
      "name": "getApproved",
      "outputs": [
        {
          "internalType": "address",
          "name": "",
          "type": "address"
        }
      ],
      "stateMutability": "view",
      "type": "function",
      "constant": true
    },
    {
      "inputs": [
        {
          "internalType": "address",
          "name": "owner",
          "type": "address"
        },
        {
          "internalType": "address",
          "name": "operator",
          "type": "address"
        }
      ],
      "name": "isApprovedForAll",
      "outputs": [
        {
          "internalType": "bool",
          "name": "",
          "type": "bool"
        }
      ],
      "stateMutability": "view",
      "type": "function",
      "constant": true
    },
    {
      "inputs": [],
      "name": "name",
      "outputs": [
        {
          "internalType": "string",
          "name": "",
          "type": "string"
        }
      ],
      "stateMutability": "view",
      "type": "function",
      "constant": true
    },
    {
      "inputs": [],
      "name": "owner",
      "outputs": [
        {
          "internalType": "address",
          "name": "",
          "type": "address"
        }
      ],
      "stateMutability": "view",
      "type": "function",
      "constant": true
    },
    {
      "inputs": [
        {
          "internalType": "uint256",
          "name": "tokenId",
          "type": "uint256"
        }
      ],
      "name": "ownerOf",
      "outputs": [
        {
          "internalType": "address",
          "name": "",
          "type": "address"
        }
      ],
      "stateMutability": "view",
      "type": "function",
      "constant": true
    },
    {
      "inputs": [],
      "name": "renounceOwnership",
      "outputs": [],
      "stateMutability": "nonpayable",
      "type": "function"
    },
    {
      "inputs": [
        {
          "internalType": "address",
          "name": "from",
          "type": "address"
        },
        {
          "internalType": "address",
          "name": "to",
          "type": "address"
        },
        {
          "internalType": "uint256",
          "name": "tokenId",
          "type": "uint256"
        }
      ],
      "name": "safeTransferFrom",
      "outputs": [],
      "stateMutability": "nonpayable",
      "type": "function"
    },
    {
      "inputs": [
        {
          "internalType": "address",
          "name": "from",
          "type": "address"
        },
        {
          "internalType": "address",
          "name": "to",
          "type": "address"
        },
        {
          "internalType": "uint256",
          "name": "tokenId",
          "type": "uint256"
        },
        {
          "internalType": "bytes",
          "name": "data",
          "type": "bytes"
        }
      ],
      "name": "safeTransferFrom",
      "outputs": [],
      "stateMutability": "nonpayable",
      "type": "function"
    },
    {
      "inputs": [
        {
          "internalType": "address",
          "name": "operator",
          "type": "address"
        },
        {
          "internalType": "bool",
          "name": "approved",
          "type": "bool"
        }
      ],
      "name": "setApprovalForAll",
      "outputs": [],
      "stateMutability": "nonpayable",
      "type": "function"
    },
    {
      "inputs": [],
      "name": "symbol",
      "outputs": [
        {
          "internalType": "string",
          "name": "",
          "type": "string"
        }
      ],
      "stateMutability": "view",
      "type": "function",
      "constant": true
    },
    {
      "inputs": [
        {
          "internalType": "uint256",
          "name": "index",
          "type": "uint256"
        }
      ],
      "name": "tokenByIndex",
      "outputs": [
        {
          "internalType": "uint256",
          "name": "",
          "type": "uint256"
        }
      ],
      "stateMutability": "view",
      "type": "function",
      "constant": true
    },
    {
      "inputs": [
        {
          "internalType": "address",
          "name": "owner",
          "type": "address"
        },
        {
          "internalType": "uint256",
          "name": "index",
          "type": "uint256"
        }
      ],
      "name": "tokenOfOwnerByIndex",
      "outputs": [
        {
          "internalType": "uint256",
          "name": "",
          "type": "uint256"
        }
      ],
      "stateMutability": "view",
      "type": "function",
      "constant": true
    },
    {
      "inputs": [],
      "name": "totalSupply",
      "outputs": [
        {
          "internalType": "uint256",
          "name": "",
          "type": "uint256"
        }
      ],
      "stateMutability": "view",
      "type": "function",
      "constant": true
    },
    {
      "inputs": [
        {
          "internalType": "address",
          "name": "from",
          "type": "address"
        },
        {
          "internalType": "address",
          "name": "to",
          "type": "address"
        },
        {
          "internalType": "uint256",
          "name": "tokenId",
          "type": "uint256"
        }
      ],
      "name": "transferFrom",
      "outputs": [],
      "stateMutability": "nonpayable",
      "type": "function"
    },
    {
      "inputs": [
        {
          "internalType": "address",
          "name": "newOwner",
          "type": "address"
        }
      ],
      "name": "transferOwnership",
      "outputs": [],
      "stateMutability": "nonpayable",
      "type": "function"
    },
    {
      "inputs": [
        {
          "internalType": "address",
          "name": "_receiver",
          "type": "address"
        },
        {
          "internalType": "string",
          "name": "_title",
          "type": "string"
        },
        {
          "internalType": "string",
          "name": "_fromEvent",
          "type": "string"
        },
        {
          "internalType": "string",
          "name": "_uri",
          "type": "string"
        }
      ],
      "name": "sendCertificate",
      "outputs": [],
      "stateMutability": "nonpayable",
      "type": "function"
    },
    {
      "inputs": [
        {
          "internalType": "uint256",
          "name": "_certificateId",
          "type": "uint256"
        }
      ],
      "name": "getCertificateData",
      "outputs": [
        {
          "components": [
            {
              "internalType": "string",
              "name": "title",
              "type": "string"
            },
            {
              "internalType": "string",
              "name": "fromEvent",
              "type": "string"
            },
            {
              "internalType": "address",
              "name": "owner",
              "type": "address"
            },
            {
              "internalType": "address",
              "name": "sender",
              "type": "address"
            },
            {
              "internalType": "string",
              "name": "uri",
              "type": "string"
            }
          ],
          "internalType": "struct CertificateNFT.CertificateMetadata",
          "name": "",
          "type": "tuple"
        }
      ],
      "stateMutability": "view",
      "type": "function",
      "constant": true
    },
    {
      "inputs": [
        {
          "internalType": "address",
          "name": "_accountant",
          "type": "address"
        }
      ],
      "name": "addAccountant",
      "outputs": [],
      "stateMutability": "nonpayable",
      "type": "function"
    },
    {
      "inputs": [
        {
          "internalType": "address",
          "name": "_accountant",
          "type": "address"
        }
      ],
      "name": "setInactiveAccountant",
      "outputs": [],
      "stateMutability": "nonpayable",
      "type": "function"
    },
    {
      "inputs": [
        {
          "internalType": "bytes4",
          "name": "interfaceId",
          "type": "bytes4"
        }
      ],
      "name": "supportsInterface",
      "outputs": [
        {
          "internalType": "bool",
          "name": "",
          "type": "bool"
        }
      ],
      "stateMutability": "view",
      "type": "function",
      "constant": true
    },
    {
      "inputs": [
        {
          "internalType": "uint256",
          "name": "tokenId",
          "type": "uint256"
        }
      ],
      "name": "tokenURI",
      "outputs": [
        {
          "internalType": "string",
          "name": "",
          "type": "string"
        }
      ],
      "stateMutability": "view",
      "type": "function",
      "constant": true
    }
  ],
  "bytecode": "0x60806040523480156200001157600080fd5b506040518060400160405280600e81526020017f43657274696669636174654e46540000000000000000000000000000000000008152506040518060400160405280600481526020017f4345525400000000000000000000000000000000000000000000000000000000815250816000908051906020019062000096929190620001a6565b508060019080519060200190620000af929190620001a6565b505050620000d2620000c6620000d860201b60201c565b620000e060201b60201c565b620002ba565b600033905090565b6000600b60009054906101000a900473ffffffffffffffffffffffffffffffffffffffff16905081600b60006101000a81548173ffffffffffffffffffffffffffffffffffffffff021916908373ffffffffffffffffffffffffffffffffffffffff1602179055508173ffffffffffffffffffffffffffffffffffffffff168173ffffffffffffffffffffffffffffffffffffffff167f8be0079c531659141344cd1fd0a4f28419497f9722a3daafe3b4186f6b6457e060405160405180910390a35050565b828054620001b49062000285565b90600052602060002090601f016020900481019282620001d8576000855562000224565b82601f10620001f357805160ff191683800117855562000224565b8280016001018555821562000224579182015b828111156200022357825182559160200191906001019062000206565b5b50905062000233919062000237565b5090565b5b808211156200025257600081600090555060010162000238565b5090565b7f4e487b7100000000000000000000000000000000000000000000000000000000600052602260045260246000fd5b600060028204905060018216806200029e57607f821691505b602082108103620002b457620002b362000256565b5b50919050565b6143a080620002ca6000396000f3fe608060405234801561001057600080fd5b506004361061014d5760003560e01c80634f6ccce7116100c357806395d89b411161007c57806395d89b41146103ae578063a22cb465146103cc578063b88d4fde146103e8578063c87b56dd14610404578063e985e9c514610434578063f2fde38b146104645761014d565b80634f6ccce7146102da5780635dde49c31461030a5780636352211e1461032657806370a0823114610356578063715018a6146103865780638da5cb5b146103905761014d565b8063187c1bb411610115578063187c1bb41461020a5780631fcda2fa1461022657806323b872dd146102425780632f745c591461025e57806331494bbb1461028e57806342842e0e146102be5761014d565b806301ffc9a71461015257806306fdde0314610182578063081812fc146101a0578063095ea7b3146101d057806318160ddd146101ec575b600080fd5b61016c60048036038101906101679190612e05565b610480565b6040516101799190612e4d565b60405180910390f35b61018a610492565b6040516101979190612f01565b60405180910390f35b6101ba60048036038101906101b59190612f59565b610524565b6040516101c79190612fc7565b60405180910390f35b6101ea60048036038101906101e5919061300e565b61056a565b005b6101f4610681565b604051610201919061305d565b60405180910390f35b610224600480360381019061021f9190613078565b61068e565b005b610240600480360381019061023b91906131da565b6107c6565b005b61025c60048036038101906102579190613295565b610c36565b005b6102786004803603810190610273919061300e565b610c96565b604051610285919061305d565b60405180910390f35b6102a860048036038101906102a39190612f59565b610d3b565b6040516102b591906133c5565b60405180910390f35b6102d860048036038101906102d39190613295565b610fca565b005b6102f460048036038101906102ef9190612f59565b610fea565b604051610301919061305d565b60405180910390f35b610324600480360381019061031f9190613078565b61105b565b005b610340600480360381019061033b9190612f59565b611150565b60405161034d9190612fc7565b60405180910390f35b610370600480360381019061036b9190613078565b6111d6565b60405161037d919061305d565b60405180910390f35b61038e61128d565b005b6103986112a1565b6040516103a59190612fc7565b60405180910390f35b6103b66112cb565b6040516103c39190612f01565b60405180910390f35b6103e660048036038101906103e19190613413565b61135d565b005b61040260048036038101906103fd91906134f4565b611373565b005b61041e60048036038101906104199190612f59565b6113d5565b60405161042b9190612f01565b60405180910390f35b61044e60048036038101906104499190613577565b6113e7565b60405161045b9190612e4d565b60405180910390f35b61047e60048036038101906104799190613078565b61147b565b005b600061048b826114fe565b9050919050565b6060600080546104a1906135e6565b80601f01602080910402602001604051908101604052809291908181526020018280546104cd906135e6565b801561051a5780601f106104ef5761010080835404028352916020019161051a565b820191906000526020600020905b8154815290600101906020018083116104fd57829003601f168201915b5050505050905090565b600061052f82611578565b6004600083815260200190815260200160002060009054906101000a900473ffffffffffffffffffffffffffffffffffffffff169050919050565b600061057582611150565b90508073ffffffffffffffffffffffffffffffffffffffff168373ffffffffffffffffffffffffffffffffffffffff16036105e5576040517f08c379a00000000000000000000000000000000000000000000000000000000081526004016105dc90613689565b60405180910390fd5b8073ffffffffffffffffffffffffffffffffffffffff166106046115c3565b73ffffffffffffffffffffffffffffffffffffffff16148061063357506106328161062d6115c3565b6113e7565b5b610672576040517f08c379a00000000000000000000000000000000000000000000000000000000081526004016106699061371b565b60405180910390fd5b61067c83836115cb565b505050565b6000600880549050905090565b610696611684565b600e60008273ffffffffffffffffffffffffffffffffffffffff1673ffffffffffffffffffffffffffffffffffffffff16815260200190815260200160002060000160019054906101000a900460ff1615610726576040517f08c379a000000000000000000000000000000000000000000000000000000000815260040161071d90613787565b60405180910390fd5b604051806040016040528060011515815260200160011515815250600e60008373ffffffffffffffffffffffffffffffffffffffff1673ffffffffffffffffffffffffffffffffffffffff16815260200190815260200160002060008201518160000160006101000a81548160ff02191690831515021790555060208201518160000160016101000a81548160ff02191690831515021790555090505050565b6107ce6112a1565b73ffffffffffffffffffffffffffffffffffffffff163373ffffffffffffffffffffffffffffffffffffffff160361098b57600061080c600c611702565b90506040518060a001604052808581526020018481526020018673ffffffffffffffffffffffffffffffffffffffff1681526020013373ffffffffffffffffffffffffffffffffffffffff16815260200183815250600d60008381526020019081526020016000206000820151816000019080519060200190610890929190612c9b565b5060208201518160010190805190602001906108ad929190612c9b565b5060408201518160020160006101000a81548173ffffffffffffffffffffffffffffffffffffffff021916908373ffffffffffffffffffffffffffffffffffffffff16021790555060608201518160030160006101000a81548173ffffffffffffffffffffffffffffffffffffffff021916908373ffffffffffffffffffffffffffffffffffffffff1602179055506080820151816004019080519060200190610958929190612c9b565b509050506109663382611710565b610970818361192d565b61097b3386836119a1565b610985600c611c9a565b50610c30565b600e60003373ffffffffffffffffffffffffffffffffffffffff1673ffffffffffffffffffffffffffffffffffffffff16815260200190815260200160002060000160019054906101000a900460ff16610a1a576040517f08c379a0000000000000000000000000000000000000000000000000000000008152600401610a11906137f3565b60405180910390fd5b600e60003373ffffffffffffffffffffffffffffffffffffffff1673ffffffffffffffffffffffffffffffffffffffff16815260200190815260200160002060000160009054906101000a900460ff16610aa9576040517f08c379a0000000000000000000000000000000000000000000000000000000008152600401610aa090613885565b60405180910390fd5b6000610ab5600c611702565b90506040518060a001604052808581526020018481526020018673ffffffffffffffffffffffffffffffffffffffff1681526020013373ffffffffffffffffffffffffffffffffffffffff16815260200183815250600d60008381526020019081526020016000206000820151816000019080519060200190610b39929190612c9b565b506020820151816001019080519060200190610b56929190612c9b565b5060408201518160020160006101000a81548173ffffffffffffffffffffffffffffffffffffffff021916908373ffffffffffffffffffffffffffffffffffffffff16021790555060608201518160030160006101000a81548173ffffffffffffffffffffffffffffffffffffffff021916908373ffffffffffffffffffffffffffffffffffffffff1602179055506080820151816004019080519060200190610c01929190612c9b565b50905050610c0f3382611710565b610c19818361192d565b610c243386836119a1565b610c2e600c611c9a565b505b50505050565b610c47610c416115c3565b82611cb0565b610c86576040517f08c379a0000000000000000000000000000000000000000000000000000000008152600401610c7d90613917565b60405180910390fd5b610c918383836119a1565b505050565b6000610ca1836111d6565b8210610ce2576040517f08c379a0000000000000000000000000000000000000000000000000000000008152600401610cd9906139a9565b60405180910390fd5b600660008473ffffffffffffffffffffffffffffffffffffffff1673ffffffffffffffffffffffffffffffffffffffff168152602001908152602001600020600083815260200190815260200160002054905092915050565b610d43612d21565b600d60008381526020019081526020016000206040518060a0016040529081600082018054610d71906135e6565b80601f0160208091040260200160405190810160405280929190818152602001828054610d9d906135e6565b8015610dea5780601f10610dbf57610100808354040283529160200191610dea565b820191906000526020600020905b815481529060010190602001808311610dcd57829003601f168201915b50505050508152602001600182018054610e03906135e6565b80601f0160208091040260200160405190810160405280929190818152602001828054610e2f906135e6565b8015610e7c5780601f10610e5157610100808354040283529160200191610e7c565b820191906000526020600020905b815481529060010190602001808311610e5f57829003601f168201915b505050505081526020016002820160009054906101000a900473ffffffffffffffffffffffffffffffffffffffff1673ffffffffffffffffffffffffffffffffffffffff1673ffffffffffffffffffffffffffffffffffffffff1681526020016003820160009054906101000a900473ffffffffffffffffffffffffffffffffffffffff1673ffffffffffffffffffffffffffffffffffffffff1673ffffffffffffffffffffffffffffffffffffffff168152602001600482018054610f41906135e6565b80601f0160208091040260200160405190810160405280929190818152602001828054610f6d906135e6565b8015610fba5780601f10610f8f57610100808354040283529160200191610fba565b820191906000526020600020905b815481529060010190602001808311610f9d57829003601f168201915b5050505050815250509050919050565b610fe583838360405180602001604052806000815250611373565b505050565b6000610ff4610681565b8210611035576040517f08c379a000000000000000000000000000000000000000000000000000000000815260040161102c90613a3b565b60405180910390fd5b6008828154811061104957611048613a5b565b5b90600052602060002001549050919050565b611063611684565b600e60008273ffffffffffffffffffffffffffffffffffffffff1673ffffffffffffffffffffffffffffffffffffffff16815260200190815260200160002060000160019054906101000a900460ff166110f2576040517f08c379a00000000000000000000000000000000000000000000000000000000081526004016110e990613ad6565b60405180910390fd5b6000600e60008373ffffffffffffffffffffffffffffffffffffffff1673ffffffffffffffffffffffffffffffffffffffff16815260200190815260200160002060000160006101000a81548160ff02191690831515021790555050565b60008061115c83611d45565b9050600073ffffffffffffffffffffffffffffffffffffffff168173ffffffffffffffffffffffffffffffffffffffff16036111cd576040517f08c379a00000000000000000000000000000000000000000000000000000000081526004016111c490613b42565b60405180910390fd5b80915050919050565b60008073ffffffffffffffffffffffffffffffffffffffff168273ffffffffffffffffffffffffffffffffffffffff1603611246576040517f08c379a000000000000000000000000000000000000000000000000000000000815260040161123d90613bd4565b60405180910390fd5b600360008373ffffffffffffffffffffffffffffffffffffffff1673ffffffffffffffffffffffffffffffffffffffff168152602001908152602001600020549050919050565b611295611684565b61129f6000611d82565b565b6000600b60009054906101000a900473ffffffffffffffffffffffffffffffffffffffff16905090565b6060600180546112da906135e6565b80601f0160208091040260200160405190810160405280929190818152602001828054611306906135e6565b80156113535780601f1061132857610100808354040283529160200191611353565b820191906000526020600020905b81548152906001019060200180831161133657829003601f168201915b5050505050905090565b61136f6113686115c3565b8383611e48565b5050565b61138461137e6115c3565b83611cb0565b6113c3576040517f08c379a00000000000000000000000000000000000000000000000000000000081526004016113ba90613917565b60405180910390fd5b6113cf84848484611fb4565b50505050565b60606113e082612010565b9050919050565b6000600560008473ffffffffffffffffffffffffffffffffffffffff1673ffffffffffffffffffffffffffffffffffffffff16815260200190815260200160002060008373ffffffffffffffffffffffffffffffffffffffff1673ffffffffffffffffffffffffffffffffffffffff16815260200190815260200160002060009054906101000a900460ff16905092915050565b611483611684565b600073ffffffffffffffffffffffffffffffffffffffff168173ffffffffffffffffffffffffffffffffffffffff16036114f2576040517f08c379a00000000000000000000000000000000000000000000000000000000081526004016114e990613c66565b60405180910390fd5b6114fb81611d82565b50565b60007f780e9d63000000000000000000000000000000000000000000000000000000007bffffffffffffffffffffffffffffffffffffffffffffffffffffffff1916827bffffffffffffffffffffffffffffffffffffffffffffffffffffffff19161480611571575061157082612122565b5b9050919050565b61158181612204565b6115c0576040517f08c379a00000000000000000000000000000000000000000000000000000000081526004016115b790613b42565b60405180910390fd5b50565b600033905090565b816004600083815260200190815260200160002060006101000a81548173ffffffffffffffffffffffffffffffffffffffff021916908373ffffffffffffffffffffffffffffffffffffffff160217905550808273ffffffffffffffffffffffffffffffffffffffff1661163e83611150565b73ffffffffffffffffffffffffffffffffffffffff167f8c5be1e5ebec7d5bd14f71427d1e84f3dd0314c0f7b2291e5b200ac8c7c3b92560405160405180910390a45050565b61168c6115c3565b73ffffffffffffffffffffffffffffffffffffffff166116aa6112a1565b73ffffffffffffffffffffffffffffffffffffffff1614611700576040517f08c379a00000000000000000000000000000000000000000000000000000000081526004016116f790613cd2565b60405180910390fd5b565b600081600001549050919050565b600073ffffffffffffffffffffffffffffffffffffffff168273ffffffffffffffffffffffffffffffffffffffff160361177f576040517f08c379a000000000000000000000000000000000000000000000000000000000815260040161177690613d3e565b60405180910390fd5b61178881612204565b156117c8576040517f08c379a00000000000000000000000000000000000000000000000000000000081526004016117bf90613daa565b60405180910390fd5b6117d6600083836001612245565b6117df81612204565b1561181f576040517f08c379a000000000000000000000000000000000000000000000000000000000815260040161181690613daa565b60405180910390fd5b6001600360008473ffffffffffffffffffffffffffffffffffffffff1673ffffffffffffffffffffffffffffffffffffffff16815260200190815260200160002060008282540192505081905550816002600083815260200190815260200160002060006101000a81548173ffffffffffffffffffffffffffffffffffffffff021916908373ffffffffffffffffffffffffffffffffffffffff160217905550808273ffffffffffffffffffffffffffffffffffffffff16600073ffffffffffffffffffffffffffffffffffffffff167fddf252ad1be2c89b69c2b068fc378daa952ba7f163c4a11628f55a4df523b3ef60405160405180910390a4611929600083836001612257565b5050565b61193682612204565b611975576040517f08c379a000000000000000000000000000000000000000000000000000000000815260040161196c90613e3c565b60405180910390fd5b80600a6000848152602001908152602001600020908051906020019061199c929190612c9b565b505050565b8273ffffffffffffffffffffffffffffffffffffffff166119c182611150565b73ffffffffffffffffffffffffffffffffffffffff1614611a17576040517f08c379a0000000000000000000000000000000000000000000000000000000008152600401611a0e90613ece565b60405180910390fd5b600073ffffffffffffffffffffffffffffffffffffffff168273ffffffffffffffffffffffffffffffffffffffff1603611a86576040517f08c379a0000000000000000000000000000000000000000000000000000000008152600401611a7d90613f60565b60405180910390fd5b611a938383836001612245565b8273ffffffffffffffffffffffffffffffffffffffff16611ab382611150565b73ffffffffffffffffffffffffffffffffffffffff1614611b09576040517f08c379a0000000000000000000000000000000000000000000000000000000008152600401611b0090613ece565b60405180910390fd5b6004600082815260200190815260200160002060006101000a81549073ffffffffffffffffffffffffffffffffffffffff02191690556001600360008573ffffffffffffffffffffffffffffffffffffffff1673ffffffffffffffffffffffffffffffffffffffff168152602001908152602001600020600082825403925050819055506001600360008473ffffffffffffffffffffffffffffffffffffffff1673ffffffffffffffffffffffffffffffffffffffff16815260200190815260200160002060008282540192505081905550816002600083815260200190815260200160002060006101000a81548173ffffffffffffffffffffffffffffffffffffffff021916908373ffffffffffffffffffffffffffffffffffffffff160217905550808273ffffffffffffffffffffffffffffffffffffffff168473ffffffffffffffffffffffffffffffffffffffff167fddf252ad1be2c89b69c2b068fc378daa952ba7f163c4a11628f55a4df523b3ef60405160405180910390a4611c958383836001612257565b505050565b6001816000016000828254019250508190555050565b600080611cbc83611150565b90508073ffffffffffffffffffffffffffffffffffffffff168473ffffffffffffffffffffffffffffffffffffffff161480611cfe5750611cfd81856113e7565b5b80611d3c57508373ffffffffffffffffffffffffffffffffffffffff16611d2484610524565b73ffffffffffffffffffffffffffffffffffffffff16145b91505092915050565b60006002600083815260200190815260200160002060009054906101000a900473ffffffffffffffffffffffffffffffffffffffff169050919050565b6000600b60009054906101000a900473ffffffffffffffffffffffffffffffffffffffff16905081600b60006101000a81548173ffffffffffffffffffffffffffffffffffffffff021916908373ffffffffffffffffffffffffffffffffffffffff1602179055508173ffffffffffffffffffffffffffffffffffffffff168173ffffffffffffffffffffffffffffffffffffffff167f8be0079c531659141344cd1fd0a4f28419497f9722a3daafe3b4186f6b6457e060405160405180910390a35050565b8173ffffffffffffffffffffffffffffffffffffffff168373ffffffffffffffffffffffffffffffffffffffff1603611eb6576040517f08c379a0000000000000000000000000000000000000000000000000000000008152600401611ead90613fcc565b60405180910390fd5b80600560008573ffffffffffffffffffffffffffffffffffffffff1673ffffffffffffffffffffffffffffffffffffffff16815260200190815260200160002060008473ffffffffffffffffffffffffffffffffffffffff1673ffffffffffffffffffffffffffffffffffffffff16815260200190815260200160002060006101000a81548160ff0219169083151502179055508173ffffffffffffffffffffffffffffffffffffffff168373ffffffffffffffffffffffffffffffffffffffff167f17307eab39ab6107e8899845ad3d59bd9653f200f220920489ca2b5937696c3183604051611fa79190612e4d565b60405180910390a3505050565b611fbf8484846119a1565b611fcb8484848461225d565b61200a576040517f08c379a00000000000000000000000000000000000000000000000000000000081526004016120019061405e565b60405180910390fd5b50505050565b606061201b82611578565b6000600a6000848152602001908152602001600020805461203b906135e6565b80601f0160208091040260200160405190810160405280929190818152602001828054612067906135e6565b80156120b45780601f10612089576101008083540402835291602001916120b4565b820191906000526020600020905b81548152906001019060200180831161209757829003601f168201915b5050505050905060006120c56123e4565b905060008151036120da57819250505061211d565b60008251111561210f5780826040516020016120f79291906140ba565b6040516020818303038152906040529250505061211d565b612118846123fb565b925050505b919050565b60007f80ac58cd000000000000000000000000000000000000000000000000000000007bffffffffffffffffffffffffffffffffffffffffffffffffffffffff1916827bffffffffffffffffffffffffffffffffffffffffffffffffffffffff191614806121ed57507f5b5e139f000000000000000000000000000000000000000000000000000000007bffffffffffffffffffffffffffffffffffffffffffffffffffffffff1916827bffffffffffffffffffffffffffffffffffffffffffffffffffffffff1916145b806121fd57506121fc82612463565b5b9050919050565b60008073ffffffffffffffffffffffffffffffffffffffff1661222683611d45565b73ffffffffffffffffffffffffffffffffffffffff1614159050919050565b612251848484846124cd565b50505050565b50505050565b600061227e8473ffffffffffffffffffffffffffffffffffffffff1661262b565b156123d7578373ffffffffffffffffffffffffffffffffffffffff1663150b7a026122a76115c3565b8786866040518563ffffffff1660e01b81526004016122c99493929190614133565b6020604051808303816000875af192505050801561230557506040513d601f19601f820116820180604052508101906123029190614194565b60015b612387573d8060008114612335576040519150601f19603f3d011682016040523d82523d6000602084013e61233a565b606091505b50600081510361237f576040517f08c379a00000000000000000000000000000000000000000000000000000000081526004016123769061405e565b60405180910390fd5b805181602001fd5b63150b7a0260e01b7bffffffffffffffffffffffffffffffffffffffffffffffffffffffff1916817bffffffffffffffffffffffffffffffffffffffffffffffffffffffff1916149150506123dc565b600190505b949350505050565b606060405180602001604052806000815250905090565b606061240682611578565b60006124106123e4565b90506000815111612430576040518060200160405280600081525061245b565b8061243a8461264e565b60405160200161244b9291906140ba565b6040516020818303038152906040525b915050919050565b60007f01ffc9a7000000000000000000000000000000000000000000000000000000007bffffffffffffffffffffffffffffffffffffffffffffffffffffffff1916827bffffffffffffffffffffffffffffffffffffffffffffffffffffffff1916149050919050565b6124d98484848461271c565b600181111561251d576040517f08c379a000000000000000000000000000000000000000000000000000000000815260040161251490614233565b60405180910390fd5b6000829050600073ffffffffffffffffffffffffffffffffffffffff168573ffffffffffffffffffffffffffffffffffffffff16036125645761255f81612842565b6125a3565b8373ffffffffffffffffffffffffffffffffffffffff168573ffffffffffffffffffffffffffffffffffffffff16146125a2576125a1858261288b565b5b5b600073ffffffffffffffffffffffffffffffffffffffff168473ffffffffffffffffffffffffffffffffffffffff16036125e5576125e0816129f8565b612624565b8473ffffffffffffffffffffffffffffffffffffffff168473ffffffffffffffffffffffffffffffffffffffff1614612623576126228482612ac9565b5b5b5050505050565b6000808273ffffffffffffffffffffffffffffffffffffffff163b119050919050565b60606000600161265d84612b48565b01905060008167ffffffffffffffff81111561267c5761267b6130af565b5b6040519080825280601f01601f1916602001820160405280156126ae5781602001600182028036833780820191505090505b509050600082602001820190505b600115612711578080600190039150507f3031323334353637383961626364656600000000000000000000000000000000600a86061a8153600a858161270557612704614253565b5b049450600085036126bc575b819350505050919050565b600181111561283c57600073ffffffffffffffffffffffffffffffffffffffff168473ffffffffffffffffffffffffffffffffffffffff16146127b05780600360008673ffffffffffffffffffffffffffffffffffffffff1673ffffffffffffffffffffffffffffffffffffffff16815260200190815260200160002060008282546127a891906142b1565b925050819055505b600073ffffffffffffffffffffffffffffffffffffffff168373ffffffffffffffffffffffffffffffffffffffff161461283b5780600360008573ffffffffffffffffffffffffffffffffffffffff1673ffffffffffffffffffffffffffffffffffffffff168152602001908152602001600020600082825461283391906142e5565b925050819055505b5b50505050565b6008805490506009600083815260200190815260200160002081905550600881908060018154018082558091505060019003906000526020600020016000909190919091505550565b60006001612898846111d6565b6128a291906142b1565b9050600060076000848152602001908152602001600020549050818114612987576000600660008673ffffffffffffffffffffffffffffffffffffffff1673ffffffffffffffffffffffffffffffffffffffff168152602001908152602001600020600084815260200190815260200160002054905080600660008773ffffffffffffffffffffffffffffffffffffffff1673ffffffffffffffffffffffffffffffffffffffff168152602001908152602001600020600084815260200190815260200160002081905550816007600083815260200190815260200160002081905550505b6007600084815260200190815260200160002060009055600660008573ffffffffffffffffffffffffffffffffffffffff1673ffffffffffffffffffffffffffffffffffffffff16815260200190815260200160002060008381526020019081526020016000206000905550505050565b60006001600880549050612a0c91906142b1565b9050600060096000848152602001908152602001600020549050600060088381548110612a3c57612a3b613a5b565b5b906000526020600020015490508060088381548110612a5e57612a5d613a5b565b5b906000526020600020018190555081600960008381526020019081526020016000208190555060096000858152602001908152602001600020600090556008805480612aad57612aac61433b565b5b6001900381819060005260206000200160009055905550505050565b6000612ad4836111d6565b905081600660008573ffffffffffffffffffffffffffffffffffffffff1673ffffffffffffffffffffffffffffffffffffffff168152602001908152602001600020600083815260200190815260200160002081905550806007600084815260200190815260200160002081905550505050565b600080600090507a184f03e93ff9f4daa797ed6e38ed64bf6a1f0100000000000000008310612ba6577a184f03e93ff9f4daa797ed6e38ed64bf6a1f0100000000000000008381612b9c57612b9b614253565b5b0492506040810190505b6d04ee2d6d415b85acef81000000008310612be3576d04ee2d6d415b85acef81000000008381612bd957612bd8614253565b5b0492506020810190505b662386f26fc100008310612c1257662386f26fc100008381612c0857612c07614253565b5b0492506010810190505b6305f5e1008310612c3b576305f5e1008381612c3157612c30614253565b5b0492506008810190505b6127108310612c60576127108381612c5657612c55614253565b5b0492506004810190505b60648310612c835760648381612c7957612c78614253565b5b0492506002810190505b600a8310612c92576001810190505b80915050919050565b828054612ca7906135e6565b90600052602060002090601f016020900481019282612cc95760008555612d10565b82601f10612ce257805160ff1916838001178555612d10565b82800160010185558215612d10579182015b82811115612d0f578251825591602001919060010190612cf4565b5b509050612d1d9190612d7c565b5090565b6040518060a001604052806060815260200160608152602001600073ffffffffffffffffffffffffffffffffffffffff168152602001600073ffffffffffffffffffffffffffffffffffffffff168152602001606081525090565b5b80821115612d95576000816000905550600101612d7d565b5090565b6000604051905090565b600080fd5b600080fd5b60007fffffffff0000000000000000000000000000000000000000000000000000000082169050919050565b612de281612dad565b8114612ded57600080fd5b50565b600081359050612dff81612dd9565b92915050565b600060208284031215612e1b57612e1a612da3565b5b6000612e2984828501612df0565b91505092915050565b60008115159050919050565b612e4781612e32565b82525050565b6000602082019050612e626000830184612e3e565b92915050565b600081519050919050565b600082825260208201905092915050565b60005b83811015612ea2578082015181840152602081019050612e87565b83811115612eb1576000848401525b50505050565b6000601f19601f8301169050919050565b6000612ed382612e68565b612edd8185612e73565b9350612eed818560208601612e84565b612ef681612eb7565b840191505092915050565b60006020820190508181036000830152612f1b8184612ec8565b905092915050565b6000819050919050565b612f3681612f23565b8114612f4157600080fd5b50565b600081359050612f5381612f2d565b92915050565b600060208284031215612f6f57612f6e612da3565b5b6000612f7d84828501612f44565b91505092915050565b600073ffffffffffffffffffffffffffffffffffffffff82169050919050565b6000612fb182612f86565b9050919050565b612fc181612fa6565b82525050565b6000602082019050612fdc6000830184612fb8565b92915050565b612feb81612fa6565b8114612ff657600080fd5b50565b60008135905061300881612fe2565b92915050565b6000806040838503121561302557613024612da3565b5b600061303385828601612ff9565b925050602061304485828601612f44565b9150509250929050565b61305781612f23565b82525050565b6000602082019050613072600083018461304e565b92915050565b60006020828403121561308e5761308d612da3565b5b600061309c84828501612ff9565b91505092915050565b600080fd5b600080fd5b7f4e487b7100000000000000000000000000000000000000000000000000000000600052604160045260246000fd5b6130e782612eb7565b810181811067ffffffffffffffff82111715613106576131056130af565b5b80604052505050565b6000613119612d99565b905061312582826130de565b919050565b600067ffffffffffffffff821115613145576131446130af565b5b61314e82612eb7565b9050602081019050919050565b82818337600083830152505050565b600061317d6131788461312a565b61310f565b905082815260208101848484011115613199576131986130aa565b5b6131a484828561315b565b509392505050565b600082601f8301126131c1576131c06130a5565b5b81356131d184826020860161316a565b91505092915050565b600080600080608085870312156131f4576131f3612da3565b5b600061320287828801612ff9565b945050602085013567ffffffffffffffff81111561322357613222612da8565b5b61322f878288016131ac565b935050604085013567ffffffffffffffff8111156132505761324f612da8565b5b61325c878288016131ac565b925050606085013567ffffffffffffffff81111561327d5761327c612da8565b5b613289878288016131ac565b91505092959194509250565b6000806000606084860312156132ae576132ad612da3565b5b60006132bc86828701612ff9565b93505060206132cd86828701612ff9565b92505060406132de86828701612f44565b9150509250925092565b600082825260208201905092915050565b600061330482612e68565b61330e81856132e8565b935061331e818560208601612e84565b61332781612eb7565b840191505092915050565b61333b81612fa6565b82525050565b600060a083016000830151848203600086015261335e82826132f9565b9150506020830151848203602086015261337882826132f9565b915050604083015161338d6040860182613332565b5060608301516133a06060860182613332565b50608083015184820360808601526133b882826132f9565b9150508091505092915050565b600060208201905081810360008301526133df8184613341565b905092915050565b6133f081612e32565b81146133fb57600080fd5b50565b60008135905061340d816133e7565b92915050565b6000806040838503121561342a57613429612da3565b5b600061343885828601612ff9565b9250506020613449858286016133fe565b9150509250929050565b600067ffffffffffffffff82111561346e5761346d6130af565b5b61347782612eb7565b9050602081019050919050565b600061349761349284613453565b61310f565b9050828152602081018484840111156134b3576134b26130aa565b5b6134be84828561315b565b509392505050565b600082601f8301126134db576134da6130a5565b5b81356134eb848260208601613484565b91505092915050565b6000806000806080858703121561350e5761350d612da3565b5b600061351c87828801612ff9565b945050602061352d87828801612ff9565b935050604061353e87828801612f44565b925050606085013567ffffffffffffffff81111561355f5761355e612da8565b5b61356b878288016134c6565b91505092959194509250565b6000806040838503121561358e5761358d612da3565b5b600061359c85828601612ff9565b92505060206135ad85828601612ff9565b9150509250929050565b7f4e487b7100000000000000000000000000000000000000000000000000000000600052602260045260246000fd5b600060028204905060018216806135fe57607f821691505b602082108103613611576136106135b7565b5b50919050565b7f4552433732313a20617070726f76616c20746f2063757272656e74206f776e6560008201527f7200000000000000000000000000000000000000000000000000000000000000602082015250565b6000613673602183612e73565b915061367e82613617565b604082019050919050565b600060208201905081810360008301526136a281613666565b9050919050565b7f4552433732313a20617070726f76652063616c6c6572206973206e6f7420746f60008201527f6b656e206f776e6572206f7220617070726f76656420666f7220616c6c000000602082015250565b6000613705603d83612e73565b9150613710826136a9565b604082019050919050565b60006020820190508181036000830152613734816136f8565b9050919050565b7f4163636f756e74616e7420616c72656164792061646465640000000000000000600082015250565b6000613771601883612e73565b915061377c8261373b565b602082019050919050565b600060208201905081810360008301526137a081613764565b9050919050565b7f53656e646572206973206e6f7420616e206163636f756e74616e740000000000600082015250565b60006137dd601b83612e73565b91506137e8826137a7565b602082019050919050565b6000602082019050818103600083015261380c816137d0565b9050919050565b7f53656e646572206973206e6f7420616e20616374697665206163636f756e746160008201527f6e74000000000000000000000000000000000000000000000000000000000000602082015250565b600061386f602283612e73565b915061387a82613813565b604082019050919050565b6000602082019050818103600083015261389e81613862565b9050919050565b7f4552433732313a2063616c6c6572206973206e6f7420746f6b656e206f776e6560008201527f72206f7220617070726f76656400000000000000000000000000000000000000602082015250565b6000613901602d83612e73565b915061390c826138a5565b604082019050919050565b60006020820190508181036000830152613930816138f4565b9050919050565b7f455243373231456e756d657261626c653a206f776e657220696e646578206f7560008201527f74206f6620626f756e6473000000000000000000000000000000000000000000602082015250565b6000613993602b83612e73565b915061399e82613937565b604082019050919050565b600060208201905081810360008301526139c281613986565b9050919050565b7f455243373231456e756d657261626c653a20676c6f62616c20696e646578206f60008201527f7574206f6620626f756e64730000000000000000000000000000000000000000602082015250565b6000613a25602c83612e73565b9150613a30826139c9565b604082019050919050565b60006020820190508181036000830152613a5481613a18565b9050919050565b7f4e487b7100000000000000000000000000000000000000000000000000000000600052603260045260246000fd5b7f4163636f756e74616e74206e6f74206578697374696e67000000000000000000600082015250565b6000613ac0601783612e73565b9150613acb82613a8a565b602082019050919050565b60006020820190508181036000830152613aef81613ab3565b9050919050565b7f4552433732313a20696e76616c696420746f6b656e2049440000000000000000600082015250565b6000613b2c601883612e73565b9150613b3782613af6565b602082019050919050565b60006020820190508181036000830152613b5b81613b1f565b9050919050565b7f4552433732313a2061646472657373207a65726f206973206e6f74206120766160008201527f6c6964206f776e65720000000000000000000000000000000000000000000000602082015250565b6000613bbe602983612e73565b9150613bc982613b62565b604082019050919050565b60006020820190508181036000830152613bed81613bb1565b9050919050565b7f4f776e61626c653a206e6577206f776e657220697320746865207a65726f206160008201527f6464726573730000000000000000000000000000000000000000000000000000602082015250565b6000613c50602683612e73565b9150613c5b82613bf4565b604082019050919050565b60006020820190508181036000830152613c7f81613c43565b9050919050565b7f4f776e61626c653a2063616c6c6572206973206e6f7420746865206f776e6572600082015250565b6000613cbc602083612e73565b9150613cc782613c86565b602082019050919050565b60006020820190508181036000830152613ceb81613caf565b9050919050565b7f4552433732313a206d696e7420746f20746865207a65726f2061646472657373600082015250565b6000613d28602083612e73565b9150613d3382613cf2565b602082019050919050565b60006020820190508181036000830152613d5781613d1b565b9050919050565b7f4552433732313a20746f6b656e20616c7265616479206d696e74656400000000600082015250565b6000613d94601c83612e73565b9150613d9f82613d5e565b602082019050919050565b60006020820190508181036000830152613dc381613d87565b9050919050565b7f45524337323155524953746f726167653a2055524920736574206f66206e6f6e60008201527f6578697374656e7420746f6b656e000000000000000000000000000000000000602082015250565b6000613e26602e83612e73565b9150613e3182613dca565b604082019050919050565b60006020820190508181036000830152613e5581613e19565b9050919050565b7f4552433732313a207472616e736665722066726f6d20696e636f72726563742060008201527f6f776e6572000000000000000000000000000000000000000000000000000000602082015250565b6000613eb8602583612e73565b9150613ec382613e5c565b604082019050919050565b60006020820190508181036000830152613ee781613eab565b9050919050565b7f4552433732313a207472616e7366657220746f20746865207a65726f2061646460008201527f7265737300000000000000000000000000000000000000000000000000000000602082015250565b6000613f4a602483612e73565b9150613f5582613eee565b604082019050919050565b60006020820190508181036000830152613f7981613f3d565b9050919050565b7f4552433732313a20617070726f766520746f2063616c6c657200000000000000600082015250565b6000613fb6601983612e73565b9150613fc182613f80565b602082019050919050565b60006020820190508181036000830152613fe581613fa9565b9050919050565b7f4552433732313a207472616e7366657220746f206e6f6e20455243373231526560008201527f63656976657220696d706c656d656e7465720000000000000000000000000000602082015250565b6000614048603283612e73565b915061405382613fec565b604082019050919050565b600060208201905081810360008301526140778161403b565b9050919050565b600081905092915050565b600061409482612e68565b61409e818561407e565b93506140ae818560208601612e84565b80840191505092915050565b60006140c68285614089565b91506140d28284614089565b91508190509392505050565b600081519050919050565b600082825260208201905092915050565b6000614105826140de565b61410f81856140e9565b935061411f818560208601612e84565b61412881612eb7565b840191505092915050565b60006080820190506141486000830187612fb8565b6141556020830186612fb8565b614162604083018561304e565b818103606083015261417481846140fa565b905095945050505050565b60008151905061418e81612dd9565b92915050565b6000602082840312156141aa576141a9612da3565b5b60006141b88482850161417f565b91505092915050565b7f455243373231456e756d657261626c653a20636f6e736563757469766520747260008201527f616e7366657273206e6f7420737570706f727465640000000000000000000000602082015250565b600061421d603583612e73565b9150614228826141c1565b604082019050919050565b6000602082019050818103600083015261424c81614210565b9050919050565b7f4e487b7100000000000000000000000000000000000000000000000000000000600052601260045260246000fd5b7f4e487b7100000000000000000000000000000000000000000000000000000000600052601160045260246000fd5b60006142bc82612f23565b91506142c783612f23565b9250828210156142da576142d9614282565b5b828203905092915050565b60006142f082612f23565b91506142fb83612f23565b9250827fffffffffffffffffffffffffffffffffffffffffffffffffffffffffffffffff038211156143305761432f614282565b5b828201905092915050565b7f4e487b7100000000000000000000000000000000000000000000000000000000600052603160045260246000fdfea2646970667358221220fd9ca66604f7a3126e1e797ef3a97dab8c72397f8c54f80162134d718d50f1de64736f6c634300080d0033",
  "immutableReferences": {},
  "source": "// SPDX-License-Identifier: MIT\r\npragma solidity >=0.4.22 <0.9.0;\r\n\r\nimport \"@openzeppelin/contracts/token/ERC721/ERC721.sol\";\r\nimport \"@openzeppelin/contracts/token/ERC721/extensions/ERC721Enumerable.sol\";\r\nimport \"@openzeppelin/contracts/token/ERC721/extensions/ERC721URIStorage.sol\";\r\nimport \"@openzeppelin/contracts/access/Ownable.sol\";\r\nimport \"@openzeppelin/contracts/utils/Counters.sol\";\r\n\r\ncontract CertificateNFT is ERC721, ERC721Enumerable, ERC721URIStorage, Ownable\r\n{\r\n    using Counters for Counters.Counter;\r\n\tCounters.Counter certificateIds;\r\n\r\n\t// Certificate data\r\n\tstruct CertificateMetadata\r\n\t{\r\n\t\tstring title;\r\n\t\tstring fromEvent;\r\n\t\taddress owner;\r\n\t\taddress sender;\r\n\t\tstring uri;\r\n\t}\r\n\r\n\t// Accountants\r\n\tstruct Accountant\r\n\t{\r\n\t\tbool isActive;\r\n\t\tbool doesExist;\r\n\t}\r\n\r\n\tmapping(uint256 => CertificateMetadata) certificates;\r\n\tmapping(address => Accountant) accountants;\r\n\r\n\tconstructor() ERC721(\"CertificateNFT\", \"CERT\") {}\r\n\r\n\t// Handles the minting and transferring of the certificate to its owner\r\n\tfunction sendCertificate(\r\n\t\taddress _receiver,\r\n\t\tstring memory _title,\r\n\t\tstring memory _fromEvent,\r\n\t\tstring memory _uri\r\n\t) public sendingRestriction\r\n\t{\r\n\t\t// Generate a unique, new certificate id\r\n\t\tuint256 newCertificateId = certificateIds.current();\r\n\r\n\t\t// Create a CertificateMetadata instance and store it to the certificates mapping\r\n\t\tcertificates[newCertificateId] = CertificateMetadata(_title, _fromEvent, _receiver, msg.sender, _uri);\r\n\r\n\t\t_mint(msg.sender, newCertificateId);                 // mint\r\n        _setTokenURI(newCertificateId, _uri);\r\n\r\n\t\t_transfer(msg.sender, _receiver, newCertificateId);  // transfer\r\n\r\n\t\tcertificateIds.increment();\r\n\t}\r\n\r\n\t// Returns the metadata of a certificate\r\n\tfunction getCertificateData(uint256 _certificateId) public view returns(CertificateMetadata memory)\r\n\t{\r\n\t\treturn certificates[_certificateId];\r\n\t}\r\n\r\n\t/* Accountant-handling Functions */\r\n\r\n\t// Handles the adding of an accountant\r\n\tfunction addAccountant(address _accountant) public onlyOwner\r\n\t{\r\n\t\trequire(!accountants[_accountant].doesExist, \"Accountant already added\");\r\n\r\n\t\taccountants[_accountant] = Accountant(true, true);\r\n\t}\r\n\r\n\t// Handles the flagging of an accountant as inactive\r\n\tfunction setInactiveAccountant(address _accountant) public onlyOwner\r\n\t{\r\n\t\trequire(accountants[_accountant].doesExist, \"Accountant not existing\");\r\n\r\n\t\taccountants[_accountant].isActive = false;\r\n\t}\r\n\r\n    /* Modifiers */\r\n\r\n\tmodifier sendingRestriction()\r\n\t{\r\n\t\t// If the sender is the admin, allow sending\r\n\t\tif(msg.sender == owner())\r\n\t\t{\r\n\t\t\t_;\r\n\t\t}\r\n\t\t// If the sender is not the admin,\r\n\t\t//\t\tcheck if the sender is an accountant.\r\n\t\t// \t\tIf so allow sending\r\n\t\telse\r\n\t\t{\r\n\t\t\trequire(accountants[msg.sender].doesExist, \"Sender is not an accountant\");\r\n\t\t\trequire(accountants[msg.sender].isActive, \"Sender is not an active accountant\");\r\n\r\n\t\t\t_;\r\n\t\t}\r\n\t}\r\n\r\n    // Overrides - MUST BE INCLUDED\r\n\tfunction _beforeTokenTransfer(address from, address to, uint256 batchSize, uint256 tokenId) internal override(ERC721, ERC721Enumerable)\r\n\t{\r\n\t\tsuper._beforeTokenTransfer(from, to, batchSize, tokenId);\r\n\t}\r\n\r\n\tfunction supportsInterface(bytes4 interfaceId) public view override(ERC721, ERC721Enumerable) returns(bool)\r\n\t{\r\n\t\treturn super.supportsInterface(interfaceId);\r\n\t}\r\n\r\n    function _burn(uint256 tokenId) internal override(ERC721, ERC721URIStorage)\r\n\t{\r\n        super._burn(tokenId);\r\n    }\r\n\r\n\tfunction tokenURI(uint256 tokenId) public view override(ERC721, ERC721URIStorage) returns (string memory)\r\n    {\r\n        return super.tokenURI(tokenId);\r\n    }\r\n}",
  "sourcePath": "C:\\Users\\Llagas\\Documents\\GitHub\\iCertify\\api\\contracts\\CertificateNFT.sol",
  "compiler": {
    "name": "solc",
    "version": "0.8.13+commit.abaa5c0e.Emscripten.clang"
  },
  "schemaVersion": "3.4.11",
  "updatedAt": "2023-01-10T20:00:39.446Z",
  "networkType": "ethereum",
  "devdoc": {
    "kind": "dev",
    "methods": {
      "approve(address,uint256)": {
        "details": "See {IERC721-approve}."
      },
      "balanceOf(address)": {
        "details": "See {IERC721-balanceOf}."
      },
      "getApproved(uint256)": {
        "details": "See {IERC721-getApproved}."
      },
      "isApprovedForAll(address,address)": {
        "details": "See {IERC721-isApprovedForAll}."
      },
      "name()": {
        "details": "See {IERC721Metadata-name}."
      },
      "owner()": {
        "details": "Returns the address of the current owner."
      },
      "ownerOf(uint256)": {
        "details": "See {IERC721-ownerOf}."
      },
      "renounceOwnership()": {
        "details": "Leaves the contract without owner. It will not be possible to call `onlyOwner` functions anymore. Can only be called by the current owner. NOTE: Renouncing ownership will leave the contract without an owner, thereby removing any functionality that is only available to the owner."
      },
      "safeTransferFrom(address,address,uint256)": {
        "details": "See {IERC721-safeTransferFrom}."
      },
      "safeTransferFrom(address,address,uint256,bytes)": {
        "details": "See {IERC721-safeTransferFrom}."
      },
      "setApprovalForAll(address,bool)": {
        "details": "See {IERC721-setApprovalForAll}."
      },
      "symbol()": {
        "details": "See {IERC721Metadata-symbol}."
      },
      "tokenByIndex(uint256)": {
        "details": "See {IERC721Enumerable-tokenByIndex}."
      },
      "tokenOfOwnerByIndex(address,uint256)": {
        "details": "See {IERC721Enumerable-tokenOfOwnerByIndex}."
      },
      "totalSupply()": {
        "details": "See {IERC721Enumerable-totalSupply}."
      },
      "transferFrom(address,address,uint256)": {
        "details": "See {IERC721-transferFrom}."
      },
      "transferOwnership(address)": {
        "details": "Transfers ownership of the contract to a new account (`newOwner`). Can only be called by the current owner."
      }
    },
    "version": 1
  },
  "userdoc": {
    "kind": "user",
    "methods": {},
    "version": 1
  }
}