{
  "contractName": "DocumentNFT",
  "abi": [
    {
      "inputs": [],
      "stateMutability": "nonpayable",
      "type": "constructor"
    },
    {
      "anonymous": false,
      "inputs": [
        {
          "indexed": true,
          "internalType": "address",
          "name": "owner",
          "type": "address"
        },
        {
          "indexed": true,
          "internalType": "address",
          "name": "approved",
          "type": "address"
        },
        {
          "indexed": true,
          "internalType": "uint256",
          "name": "tokenId",
          "type": "uint256"
        }
      ],
      "name": "Approval",
      "type": "event"
    },
    {
      "anonymous": false,
      "inputs": [
        {
          "indexed": true,
          "internalType": "address",
          "name": "owner",
          "type": "address"
        },
        {
          "indexed": true,
          "internalType": "address",
          "name": "operator",
          "type": "address"
        },
        {
          "indexed": false,
          "internalType": "bool",
          "name": "approved",
          "type": "bool"
        }
      ],
      "name": "ApprovalForAll",
      "type": "event"
    },
    {
      "anonymous": false,
      "inputs": [
        {
          "indexed": true,
          "internalType": "address",
          "name": "from",
          "type": "address"
        },
        {
          "indexed": true,
          "internalType": "address",
          "name": "to",
          "type": "address"
        },
        {
          "indexed": true,
          "internalType": "uint256",
          "name": "tokenId",
          "type": "uint256"
        }
      ],
      "name": "Transfer",
      "type": "event"
    },
    {
      "inputs": [
        {
          "internalType": "address",
          "name": "to",
          "type": "address"
        },
        {
          "internalType": "uint256",
          "name": "tokenId",
          "type": "uint256"
        }
      ],
      "name": "approve",
      "outputs": [],
      "stateMutability": "nonpayable",
      "type": "function"
    },
    {
      "inputs": [
        {
          "internalType": "address",
          "name": "owner",
          "type": "address"
        }
      ],
      "name": "balanceOf",
      "outputs": [
        {
          "internalType": "uint256",
          "name": "",
          "type": "uint256"
        }
      ],
      "stateMutability": "view",
      "type": "function",
      "constant": true
    },
    {
      "inputs": [
        {
          "internalType": "uint256",
          "name": "tokenId",
          "type": "uint256"
        }
      ],
      "name": "getApproved",
      "outputs": [
        {
          "internalType": "address",
          "name": "",
          "type": "address"
        }
      ],
      "stateMutability": "view",
      "type": "function",
      "constant": true
    },
    {
      "inputs": [
        {
          "internalType": "address",
          "name": "owner",
          "type": "address"
        },
        {
          "internalType": "address",
          "name": "operator",
          "type": "address"
        }
      ],
      "name": "isApprovedForAll",
      "outputs": [
        {
          "internalType": "bool",
          "name": "",
          "type": "bool"
        }
      ],
      "stateMutability": "view",
      "type": "function",
      "constant": true
    },
    {
      "inputs": [],
      "name": "name",
      "outputs": [
        {
          "internalType": "string",
          "name": "",
          "type": "string"
        }
      ],
      "stateMutability": "view",
      "type": "function",
      "constant": true
    },
    {
      "inputs": [
        {
          "internalType": "uint256",
          "name": "tokenId",
          "type": "uint256"
        }
      ],
      "name": "ownerOf",
      "outputs": [
        {
          "internalType": "address",
          "name": "",
          "type": "address"
        }
      ],
      "stateMutability": "view",
      "type": "function",
      "constant": true
    },
    {
      "inputs": [
        {
          "internalType": "address",
          "name": "from",
          "type": "address"
        },
        {
          "internalType": "address",
          "name": "to",
          "type": "address"
        },
        {
          "internalType": "uint256",
          "name": "tokenId",
          "type": "uint256"
        }
      ],
      "name": "safeTransferFrom",
      "outputs": [],
      "stateMutability": "nonpayable",
      "type": "function"
    },
    {
      "inputs": [
        {
          "internalType": "address",
          "name": "from",
          "type": "address"
        },
        {
          "internalType": "address",
          "name": "to",
          "type": "address"
        },
        {
          "internalType": "uint256",
          "name": "tokenId",
          "type": "uint256"
        },
        {
          "internalType": "bytes",
          "name": "data",
          "type": "bytes"
        }
      ],
      "name": "safeTransferFrom",
      "outputs": [],
      "stateMutability": "nonpayable",
      "type": "function"
    },
    {
      "inputs": [
        {
          "internalType": "address",
          "name": "operator",
          "type": "address"
        },
        {
          "internalType": "bool",
          "name": "approved",
          "type": "bool"
        }
      ],
      "name": "setApprovalForAll",
      "outputs": [],
      "stateMutability": "nonpayable",
      "type": "function"
    },
    {
      "inputs": [],
      "name": "symbol",
      "outputs": [
        {
          "internalType": "string",
          "name": "",
          "type": "string"
        }
      ],
      "stateMutability": "view",
      "type": "function",
      "constant": true
    },
    {
      "inputs": [
        {
          "internalType": "uint256",
          "name": "index",
          "type": "uint256"
        }
      ],
      "name": "tokenByIndex",
      "outputs": [
        {
          "internalType": "uint256",
          "name": "",
          "type": "uint256"
        }
      ],
      "stateMutability": "view",
      "type": "function",
      "constant": true
    },
    {
      "inputs": [
        {
          "internalType": "address",
          "name": "owner",
          "type": "address"
        },
        {
          "internalType": "uint256",
          "name": "index",
          "type": "uint256"
        }
      ],
      "name": "tokenOfOwnerByIndex",
      "outputs": [
        {
          "internalType": "uint256",
          "name": "",
          "type": "uint256"
        }
      ],
      "stateMutability": "view",
      "type": "function",
      "constant": true
    },
    {
      "inputs": [],
      "name": "totalSupply",
      "outputs": [
        {
          "internalType": "uint256",
          "name": "",
          "type": "uint256"
        }
      ],
      "stateMutability": "view",
      "type": "function",
      "constant": true
    },
    {
      "inputs": [
        {
          "internalType": "address",
          "name": "from",
          "type": "address"
        },
        {
          "internalType": "address",
          "name": "to",
          "type": "address"
        },
        {
          "internalType": "uint256",
          "name": "tokenId",
          "type": "uint256"
        }
      ],
      "name": "transferFrom",
      "outputs": [],
      "stateMutability": "nonpayable",
      "type": "function"
    },
    {
      "inputs": [
        {
          "internalType": "address",
          "name": "receiver",
          "type": "address"
        },
        {
          "internalType": "string",
          "name": "type_",
          "type": "string"
        },
        {
          "internalType": "string",
          "name": "uri",
          "type": "string"
        },
        {
          "internalType": "string",
          "name": "docId",
          "type": "string"
        }
      ],
      "name": "sendDocument",
      "outputs": [],
      "stateMutability": "nonpayable",
      "type": "function"
    },
    {
      "inputs": [
        {
          "internalType": "uint256",
          "name": "documentId",
          "type": "uint256"
        }
      ],
      "name": "getDocumentData",
      "outputs": [
        {
          "components": [
            {
              "internalType": "address",
              "name": "owner",
              "type": "address"
            },
            {
              "internalType": "address",
              "name": "issuer",
              "type": "address"
            },
            {
              "internalType": "string",
              "name": "_type",
              "type": "string"
            },
            {
              "internalType": "string",
              "name": "docId",
              "type": "string"
            }
          ],
          "internalType": "struct DocumentNFT.Document",
          "name": "",
          "type": "tuple"
        }
      ],
      "stateMutability": "view",
      "type": "function",
      "constant": true
    },
    {
      "inputs": [],
      "name": "registerInstitution",
      "outputs": [],
      "stateMutability": "nonpayable",
      "type": "function"
    },
    {
      "inputs": [
        {
          "internalType": "bytes4",
          "name": "interfaceId",
          "type": "bytes4"
        }
      ],
      "name": "supportsInterface",
      "outputs": [
        {
          "internalType": "bool",
          "name": "",
          "type": "bool"
        }
      ],
      "stateMutability": "view",
      "type": "function",
      "constant": true
    },
    {
      "inputs": [
        {
          "internalType": "uint256",
          "name": "tokenId",
          "type": "uint256"
        }
      ],
      "name": "tokenURI",
      "outputs": [
        {
          "internalType": "string",
          "name": "",
          "type": "string"
        }
      ],
      "stateMutability": "view",
      "type": "function",
      "constant": true
    }
  ],
  "bytecode": "0x60806040523480156200001157600080fd5b506040518060400160405280600b81526020017f446f63756d656e744e46540000000000000000000000000000000000000000008152506040518060400160405280600381526020017f444f430000000000000000000000000000000000000000000000000000000000815250816000908051906020019062000096929190620000b8565b508060019080519060200190620000af929190620000b8565b505050620001cc565b828054620000c69062000197565b90600052602060002090601f016020900481019282620000ea576000855562000136565b82601f106200010557805160ff191683800117855562000136565b8280016001018555821562000136579182015b828111156200013557825182559160200191906001019062000118565b5b50905062000145919062000149565b5090565b5b80821115620001645760008160009055506001016200014a565b5090565b7f4e487b7100000000000000000000000000000000000000000000000000000000600052602260045260246000fd5b60006002820490506001821680620001b057607f821691505b602082108103620001c657620001c562000168565b5b50919050565b613ad580620001dc6000396000f3fe608060405234801561001057600080fd5b50600436106101215760003560e01c806361853764116100ad578063b88d4fde11610071578063b88d4fde1461031a578063c87b56dd14610336578063d105cdde14610366578063e985e9c514610396578063fa6d6f8e146103c657610121565b806361853764146102765780636352211e1461028057806370a08231146102b057806395d89b41146102e0578063a22cb465146102fe57610121565b806318160ddd116100f457806318160ddd146101c057806323b872dd146101de5780632f745c59146101fa57806342842e0e1461022a5780634f6ccce71461024657610121565b806301ffc9a71461012657806306fdde0314610156578063081812fc14610174578063095ea7b3146101a4575b600080fd5b610140600480360381019061013b919061272a565b6103e2565b60405161014d9190612772565b60405180910390f35b61015e6103f4565b60405161016b9190612826565b60405180910390f35b61018e6004803603810190610189919061287e565b610486565b60405161019b91906128ec565b60405180910390f35b6101be60048036038101906101b99190612933565b6104cc565b005b6101c86105e3565b6040516101d59190612982565b60405180910390f35b6101f860048036038101906101f3919061299d565b6105f0565b005b610214600480360381019061020f9190612933565b610650565b6040516102219190612982565b60405180910390f35b610244600480360381019061023f919061299d565b6106f5565b005b610260600480360381019061025b919061287e565b610715565b60405161026d9190612982565b60405180910390f35b61027e610786565b005b61029a6004803603810190610295919061287e565b61088c565b6040516102a791906128ec565b60405180910390f35b6102ca60048036038101906102c591906129f0565b610912565b6040516102d79190612982565b60405180910390f35b6102e86109c9565b6040516102f59190612826565b60405180910390f35b61031860048036038101906103139190612a49565b610a5b565b005b610334600480360381019061032f9190612bbe565b610a71565b005b610350600480360381019061034b919061287e565b610ad3565b60405161035d9190612826565b60405180910390f35b610380600480360381019061037b919061287e565b610ae5565b60405161038d9190612d04565b60405180910390f35b6103b060048036038101906103ab9190612d26565b610ce2565b6040516103bd9190612772565b60405180910390f35b6103e060048036038101906103db9190612e07565b610d76565b005b60006103ed82610f6e565b9050919050565b60606000805461040390612ef1565b80601f016020809104026020016040519081016040528092919081815260200182805461042f90612ef1565b801561047c5780601f106104515761010080835404028352916020019161047c565b820191906000526020600020905b81548152906001019060200180831161045f57829003601f168201915b5050505050905090565b600061049182610fe8565b6004600083815260200190815260200160002060009054906101000a900473ffffffffffffffffffffffffffffffffffffffff169050919050565b60006104d78261088c565b90508073ffffffffffffffffffffffffffffffffffffffff168373ffffffffffffffffffffffffffffffffffffffff1603610547576040517f08c379a000000000000000000000000000000000000000000000000000000000815260040161053e90612f94565b60405180910390fd5b8073ffffffffffffffffffffffffffffffffffffffff16610566611033565b73ffffffffffffffffffffffffffffffffffffffff16148061059557506105948161058f611033565b610ce2565b5b6105d4576040517f08c379a00000000000000000000000000000000000000000000000000000000081526004016105cb90613026565b60405180910390fd5b6105de838361103b565b505050565b6000600880549050905090565b6106016105fb611033565b826110f4565b610640576040517f08c379a0000000000000000000000000000000000000000000000000000000008152600401610637906130b8565b60405180910390fd5b61064b838383611189565b505050565b600061065b83610912565b821061069c576040517f08c379a00000000000000000000000000000000000000000000000000000000081526004016106939061314a565b60405180910390fd5b600660008473ffffffffffffffffffffffffffffffffffffffff1673ffffffffffffffffffffffffffffffffffffffff168152602001908152602001600020600083815260200190815260200160002054905092915050565b61071083838360405180602001604052806000815250610a71565b505050565b600061071f6105e3565b8210610760576040517f08c379a0000000000000000000000000000000000000000000000000000000008152600401610757906131dc565b60405180910390fd5b60088281548110610774576107736131fc565b5b90600052602060002001549050919050565b600d60003373ffffffffffffffffffffffffffffffffffffffff1673ffffffffffffffffffffffffffffffffffffffff16815260200190815260200160002060000160009054906101000a900460ff1615610816576040517f08c379a000000000000000000000000000000000000000000000000000000000815260040161080d90613277565b60405180910390fd5b604051806020016040528060011515815250600d60003373ffffffffffffffffffffffffffffffffffffffff1673ffffffffffffffffffffffffffffffffffffffff16815260200190815260200160002060008201518160000160006101000a81548160ff021916908315150217905550905050565b60008061089883611482565b9050600073ffffffffffffffffffffffffffffffffffffffff168173ffffffffffffffffffffffffffffffffffffffff1603610909576040517f08c379a0000000000000000000000000000000000000000000000000000000008152600401610900906132e3565b60405180910390fd5b80915050919050565b60008073ffffffffffffffffffffffffffffffffffffffff168273ffffffffffffffffffffffffffffffffffffffff1603610982576040517f08c379a000000000000000000000000000000000000000000000000000000000815260040161097990613375565b60405180910390fd5b600360008373ffffffffffffffffffffffffffffffffffffffff1673ffffffffffffffffffffffffffffffffffffffff168152602001908152602001600020549050919050565b6060600180546109d890612ef1565b80601f0160208091040260200160405190810160405280929190818152602001828054610a0490612ef1565b8015610a515780601f10610a2657610100808354040283529160200191610a51565b820191906000526020600020905b815481529060010190602001808311610a3457829003601f168201915b5050505050905090565b610a6d610a66611033565b83836114bf565b5050565b610a82610a7c611033565b836110f4565b610ac1576040517f08c379a0000000000000000000000000000000000000000000000000000000008152600401610ab8906130b8565b60405180910390fd5b610acd8484848461162b565b50505050565b6060610ade82611687565b9050919050565b610aed6125c7565b600c60008381526020019081526020016000206040518060800160405290816000820160009054906101000a900473ffffffffffffffffffffffffffffffffffffffff1673ffffffffffffffffffffffffffffffffffffffff1673ffffffffffffffffffffffffffffffffffffffff1681526020016001820160009054906101000a900473ffffffffffffffffffffffffffffffffffffffff1673ffffffffffffffffffffffffffffffffffffffff1673ffffffffffffffffffffffffffffffffffffffff168152602001600282018054610bc790612ef1565b80601f0160208091040260200160405190810160405280929190818152602001828054610bf390612ef1565b8015610c405780601f10610c1557610100808354040283529160200191610c40565b820191906000526020600020905b815481529060010190602001808311610c2357829003601f168201915b50505050508152602001600382018054610c5990612ef1565b80601f0160208091040260200160405190810160405280929190818152602001828054610c8590612ef1565b8015610cd25780601f10610ca757610100808354040283529160200191610cd2565b820191906000526020600020905b815481529060010190602001808311610cb557829003601f168201915b5050505050815250509050919050565b6000600560008473ffffffffffffffffffffffffffffffffffffffff1673ffffffffffffffffffffffffffffffffffffffff16815260200190815260200160002060008373ffffffffffffffffffffffffffffffffffffffff1673ffffffffffffffffffffffffffffffffffffffff16815260200190815260200160002060009054906101000a900460ff16905092915050565b600d60003373ffffffffffffffffffffffffffffffffffffffff1673ffffffffffffffffffffffffffffffffffffffff16815260200190815260200160002060000160009054906101000a900460ff16610e05576040517f08c379a0000000000000000000000000000000000000000000000000000000008152600401610dfc90613407565b60405180910390fd5b6000610e11600b611799565b905060405180608001604052808673ffffffffffffffffffffffffffffffffffffffff1681526020013373ffffffffffffffffffffffffffffffffffffffff16815260200185815260200183815250600c600083815260200190815260200160002060008201518160000160006101000a81548173ffffffffffffffffffffffffffffffffffffffff021916908373ffffffffffffffffffffffffffffffffffffffff16021790555060208201518160010160006101000a81548173ffffffffffffffffffffffffffffffffffffffff021916908373ffffffffffffffffffffffffffffffffffffffff1602179055506040820151816002019080519060200190610f1d92919061261b565b506060820151816003019080519060200190610f3a92919061261b565b50905050610f4833826117a7565b610f5281846119c4565b610f5d338683611189565b610f67600b611a38565b5050505050565b60007f780e9d63000000000000000000000000000000000000000000000000000000007bffffffffffffffffffffffffffffffffffffffffffffffffffffffff1916827bffffffffffffffffffffffffffffffffffffffffffffffffffffffff19161480610fe15750610fe082611a4e565b5b9050919050565b610ff181611b30565b611030576040517f08c379a0000000000000000000000000000000000000000000000000000000008152600401611027906132e3565b60405180910390fd5b50565b600033905090565b816004600083815260200190815260200160002060006101000a81548173ffffffffffffffffffffffffffffffffffffffff021916908373ffffffffffffffffffffffffffffffffffffffff160217905550808273ffffffffffffffffffffffffffffffffffffffff166110ae8361088c565b73ffffffffffffffffffffffffffffffffffffffff167f8c5be1e5ebec7d5bd14f71427d1e84f3dd0314c0f7b2291e5b200ac8c7c3b92560405160405180910390a45050565b6000806111008361088c565b90508073ffffffffffffffffffffffffffffffffffffffff168473ffffffffffffffffffffffffffffffffffffffff16148061114257506111418185610ce2565b5b8061118057508373ffffffffffffffffffffffffffffffffffffffff1661116884610486565b73ffffffffffffffffffffffffffffffffffffffff16145b91505092915050565b8273ffffffffffffffffffffffffffffffffffffffff166111a98261088c565b73ffffffffffffffffffffffffffffffffffffffff16146111ff576040517f08c379a00000000000000000000000000000000000000000000000000000000081526004016111f690613499565b60405180910390fd5b600073ffffffffffffffffffffffffffffffffffffffff168273ffffffffffffffffffffffffffffffffffffffff160361126e576040517f08c379a00000000000000000000000000000000000000000000000000000000081526004016112659061352b565b60405180910390fd5b61127b8383836001611b71565b8273ffffffffffffffffffffffffffffffffffffffff1661129b8261088c565b73ffffffffffffffffffffffffffffffffffffffff16146112f1576040517f08c379a00000000000000000000000000000000000000000000000000000000081526004016112e890613499565b60405180910390fd5b6004600082815260200190815260200160002060006101000a81549073ffffffffffffffffffffffffffffffffffffffff02191690556001600360008573ffffffffffffffffffffffffffffffffffffffff1673ffffffffffffffffffffffffffffffffffffffff168152602001908152602001600020600082825403925050819055506001600360008473ffffffffffffffffffffffffffffffffffffffff1673ffffffffffffffffffffffffffffffffffffffff16815260200190815260200160002060008282540192505081905550816002600083815260200190815260200160002060006101000a81548173ffffffffffffffffffffffffffffffffffffffff021916908373ffffffffffffffffffffffffffffffffffffffff160217905550808273ffffffffffffffffffffffffffffffffffffffff168473ffffffffffffffffffffffffffffffffffffffff167fddf252ad1be2c89b69c2b068fc378daa952ba7f163c4a11628f55a4df523b3ef60405160405180910390a461147d8383836001611b83565b505050565b60006002600083815260200190815260200160002060009054906101000a900473ffffffffffffffffffffffffffffffffffffffff169050919050565b8173ffffffffffffffffffffffffffffffffffffffff168373ffffffffffffffffffffffffffffffffffffffff160361152d576040517f08c379a000000000000000000000000000000000000000000000000000000000815260040161152490613597565b60405180910390fd5b80600560008573ffffffffffffffffffffffffffffffffffffffff1673ffffffffffffffffffffffffffffffffffffffff16815260200190815260200160002060008473ffffffffffffffffffffffffffffffffffffffff1673ffffffffffffffffffffffffffffffffffffffff16815260200190815260200160002060006101000a81548160ff0219169083151502179055508173ffffffffffffffffffffffffffffffffffffffff168373ffffffffffffffffffffffffffffffffffffffff167f17307eab39ab6107e8899845ad3d59bd9653f200f220920489ca2b5937696c318360405161161e9190612772565b60405180910390a3505050565b611636848484611189565b61164284848484611b89565b611681576040517f08c379a000000000000000000000000000000000000000000000000000000000815260040161167890613629565b60405180910390fd5b50505050565b606061169282610fe8565b6000600a600084815260200190815260200160002080546116b290612ef1565b80601f01602080910402602001604051908101604052809291908181526020018280546116de90612ef1565b801561172b5780601f106117005761010080835404028352916020019161172b565b820191906000526020600020905b81548152906001019060200180831161170e57829003601f168201915b50505050509050600061173c611d10565b90506000815103611751578192505050611794565b60008251111561178657808260405160200161176e929190613685565b60405160208183030381529060405292505050611794565b61178f84611d27565b925050505b919050565b600081600001549050919050565b600073ffffffffffffffffffffffffffffffffffffffff168273ffffffffffffffffffffffffffffffffffffffff1603611816576040517f08c379a000000000000000000000000000000000000000000000000000000000815260040161180d906136f5565b60405180910390fd5b61181f81611b30565b1561185f576040517f08c379a000000000000000000000000000000000000000000000000000000000815260040161185690613761565b60405180910390fd5b61186d600083836001611b71565b61187681611b30565b156118b6576040517f08c379a00000000000000000000000000000000000000000000000000000000081526004016118ad90613761565b60405180910390fd5b6001600360008473ffffffffffffffffffffffffffffffffffffffff1673ffffffffffffffffffffffffffffffffffffffff16815260200190815260200160002060008282540192505081905550816002600083815260200190815260200160002060006101000a81548173ffffffffffffffffffffffffffffffffffffffff021916908373ffffffffffffffffffffffffffffffffffffffff160217905550808273ffffffffffffffffffffffffffffffffffffffff16600073ffffffffffffffffffffffffffffffffffffffff167fddf252ad1be2c89b69c2b068fc378daa952ba7f163c4a11628f55a4df523b3ef60405160405180910390a46119c0600083836001611b83565b5050565b6119cd82611b30565b611a0c576040517f08c379a0000000000000000000000000000000000000000000000000000000008152600401611a03906137f3565b60405180910390fd5b80600a60008481526020019081526020016000209080519060200190611a3392919061261b565b505050565b6001816000016000828254019250508190555050565b60007f80ac58cd000000000000000000000000000000000000000000000000000000007bffffffffffffffffffffffffffffffffffffffffffffffffffffffff1916827bffffffffffffffffffffffffffffffffffffffffffffffffffffffff19161480611b1957507f5b5e139f000000000000000000000000000000000000000000000000000000007bffffffffffffffffffffffffffffffffffffffffffffffffffffffff1916827bffffffffffffffffffffffffffffffffffffffffffffffffffffffff1916145b80611b295750611b2882611d8f565b5b9050919050565b60008073ffffffffffffffffffffffffffffffffffffffff16611b5283611482565b73ffffffffffffffffffffffffffffffffffffffff1614159050919050565b611b7d84848484611df9565b50505050565b50505050565b6000611baa8473ffffffffffffffffffffffffffffffffffffffff16611f57565b15611d03578373ffffffffffffffffffffffffffffffffffffffff1663150b7a02611bd3611033565b8786866040518563ffffffff1660e01b8152600401611bf59493929190613868565b6020604051808303816000875af1925050508015611c3157506040513d601f19601f82011682018060405250810190611c2e91906138c9565b60015b611cb3573d8060008114611c61576040519150601f19603f3d011682016040523d82523d6000602084013e611c66565b606091505b506000815103611cab576040517f08c379a0000000000000000000000000000000000000000000000000000000008152600401611ca290613629565b60405180910390fd5b805181602001fd5b63150b7a0260e01b7bffffffffffffffffffffffffffffffffffffffffffffffffffffffff1916817bffffffffffffffffffffffffffffffffffffffffffffffffffffffff191614915050611d08565b600190505b949350505050565b606060405180602001604052806000815250905090565b6060611d3282610fe8565b6000611d3c611d10565b90506000815111611d5c5760405180602001604052806000815250611d87565b80611d6684611f7a565b604051602001611d77929190613685565b6040516020818303038152906040525b915050919050565b60007f01ffc9a7000000000000000000000000000000000000000000000000000000007bffffffffffffffffffffffffffffffffffffffffffffffffffffffff1916827bffffffffffffffffffffffffffffffffffffffffffffffffffffffff1916149050919050565b611e0584848484612048565b6001811115611e49576040517f08c379a0000000000000000000000000000000000000000000000000000000008152600401611e4090613968565b60405180910390fd5b6000829050600073ffffffffffffffffffffffffffffffffffffffff168573ffffffffffffffffffffffffffffffffffffffff1603611e9057611e8b8161216e565b611ecf565b8373ffffffffffffffffffffffffffffffffffffffff168573ffffffffffffffffffffffffffffffffffffffff1614611ece57611ecd85826121b7565b5b5b600073ffffffffffffffffffffffffffffffffffffffff168473ffffffffffffffffffffffffffffffffffffffff1603611f1157611f0c81612324565b611f50565b8473ffffffffffffffffffffffffffffffffffffffff168473ffffffffffffffffffffffffffffffffffffffff1614611f4f57611f4e84826123f5565b5b5b5050505050565b6000808273ffffffffffffffffffffffffffffffffffffffff163b119050919050565b606060006001611f8984612474565b01905060008167ffffffffffffffff811115611fa857611fa7612a93565b5b6040519080825280601f01601f191660200182016040528015611fda5781602001600182028036833780820191505090505b509050600082602001820190505b60011561203d578080600190039150507f3031323334353637383961626364656600000000000000000000000000000000600a86061a8153600a858161203157612030613988565b5b04945060008503611fe8575b819350505050919050565b600181111561216857600073ffffffffffffffffffffffffffffffffffffffff168473ffffffffffffffffffffffffffffffffffffffff16146120dc5780600360008673ffffffffffffffffffffffffffffffffffffffff1673ffffffffffffffffffffffffffffffffffffffff16815260200190815260200160002060008282546120d491906139e6565b925050819055505b600073ffffffffffffffffffffffffffffffffffffffff168373ffffffffffffffffffffffffffffffffffffffff16146121675780600360008573ffffffffffffffffffffffffffffffffffffffff1673ffffffffffffffffffffffffffffffffffffffff168152602001908152602001600020600082825461215f9190613a1a565b925050819055505b5b50505050565b6008805490506009600083815260200190815260200160002081905550600881908060018154018082558091505060019003906000526020600020016000909190919091505550565b600060016121c484610912565b6121ce91906139e6565b90506000600760008481526020019081526020016000205490508181146122b3576000600660008673ffffffffffffffffffffffffffffffffffffffff1673ffffffffffffffffffffffffffffffffffffffff168152602001908152602001600020600084815260200190815260200160002054905080600660008773ffffffffffffffffffffffffffffffffffffffff1673ffffffffffffffffffffffffffffffffffffffff168152602001908152602001600020600084815260200190815260200160002081905550816007600083815260200190815260200160002081905550505b6007600084815260200190815260200160002060009055600660008573ffffffffffffffffffffffffffffffffffffffff1673ffffffffffffffffffffffffffffffffffffffff16815260200190815260200160002060008381526020019081526020016000206000905550505050565b6000600160088054905061233891906139e6565b9050600060096000848152602001908152602001600020549050600060088381548110612368576123676131fc565b5b90600052602060002001549050806008838154811061238a576123896131fc565b5b9060005260206000200181905550816009600083815260200190815260200160002081905550600960008581526020019081526020016000206000905560088054806123d9576123d8613a70565b5b6001900381819060005260206000200160009055905550505050565b600061240083610912565b905081600660008573ffffffffffffffffffffffffffffffffffffffff1673ffffffffffffffffffffffffffffffffffffffff168152602001908152602001600020600083815260200190815260200160002081905550806007600084815260200190815260200160002081905550505050565b600080600090507a184f03e93ff9f4daa797ed6e38ed64bf6a1f01000000000000000083106124d2577a184f03e93ff9f4daa797ed6e38ed64bf6a1f01000000000000000083816124c8576124c7613988565b5b0492506040810190505b6d04ee2d6d415b85acef8100000000831061250f576d04ee2d6d415b85acef8100000000838161250557612504613988565b5b0492506020810190505b662386f26fc10000831061253e57662386f26fc10000838161253457612533613988565b5b0492506010810190505b6305f5e1008310612567576305f5e100838161255d5761255c613988565b5b0492506008810190505b612710831061258c57612710838161258257612581613988565b5b0492506004810190505b606483106125af57606483816125a5576125a4613988565b5b0492506002810190505b600a83106125be576001810190505b80915050919050565b6040518060800160405280600073ffffffffffffffffffffffffffffffffffffffff168152602001600073ffffffffffffffffffffffffffffffffffffffff16815260200160608152602001606081525090565b82805461262790612ef1565b90600052602060002090601f0160209004810192826126495760008555612690565b82601f1061266257805160ff1916838001178555612690565b82800160010185558215612690579182015b8281111561268f578251825591602001919060010190612674565b5b50905061269d91906126a1565b5090565b5b808211156126ba5760008160009055506001016126a2565b5090565b6000604051905090565b600080fd5b600080fd5b60007fffffffff0000000000000000000000000000000000000000000000000000000082169050919050565b612707816126d2565b811461271257600080fd5b50565b600081359050612724816126fe565b92915050565b6000602082840312156127405761273f6126c8565b5b600061274e84828501612715565b91505092915050565b60008115159050919050565b61276c81612757565b82525050565b60006020820190506127876000830184612763565b92915050565b600081519050919050565b600082825260208201905092915050565b60005b838110156127c75780820151818401526020810190506127ac565b838111156127d6576000848401525b50505050565b6000601f19601f8301169050919050565b60006127f88261278d565b6128028185612798565b93506128128185602086016127a9565b61281b816127dc565b840191505092915050565b6000602082019050818103600083015261284081846127ed565b905092915050565b6000819050919050565b61285b81612848565b811461286657600080fd5b50565b60008135905061287881612852565b92915050565b600060208284031215612894576128936126c8565b5b60006128a284828501612869565b91505092915050565b600073ffffffffffffffffffffffffffffffffffffffff82169050919050565b60006128d6826128ab565b9050919050565b6128e6816128cb565b82525050565b600060208201905061290160008301846128dd565b92915050565b612910816128cb565b811461291b57600080fd5b50565b60008135905061292d81612907565b92915050565b6000806040838503121561294a576129496126c8565b5b60006129588582860161291e565b925050602061296985828601612869565b9150509250929050565b61297c81612848565b82525050565b60006020820190506129976000830184612973565b92915050565b6000806000606084860312156129b6576129b56126c8565b5b60006129c48682870161291e565b93505060206129d58682870161291e565b92505060406129e686828701612869565b9150509250925092565b600060208284031215612a0657612a056126c8565b5b6000612a148482850161291e565b91505092915050565b612a2681612757565b8114612a3157600080fd5b50565b600081359050612a4381612a1d565b92915050565b60008060408385031215612a6057612a5f6126c8565b5b6000612a6e8582860161291e565b9250506020612a7f85828601612a34565b9150509250929050565b600080fd5b600080fd5b7f4e487b7100000000000000000000000000000000000000000000000000000000600052604160045260246000fd5b612acb826127dc565b810181811067ffffffffffffffff82111715612aea57612ae9612a93565b5b80604052505050565b6000612afd6126be565b9050612b098282612ac2565b919050565b600067ffffffffffffffff821115612b2957612b28612a93565b5b612b32826127dc565b9050602081019050919050565b82818337600083830152505050565b6000612b61612b5c84612b0e565b612af3565b905082815260208101848484011115612b7d57612b7c612a8e565b5b612b88848285612b3f565b509392505050565b600082601f830112612ba557612ba4612a89565b5b8135612bb5848260208601612b4e565b91505092915050565b60008060008060808587031215612bd857612bd76126c8565b5b6000612be68782880161291e565b9450506020612bf78782880161291e565b9350506040612c0887828801612869565b925050606085013567ffffffffffffffff811115612c2957612c286126cd565b5b612c3587828801612b90565b91505092959194509250565b612c4a816128cb565b82525050565b600082825260208201905092915050565b6000612c6c8261278d565b612c768185612c50565b9350612c868185602086016127a9565b612c8f816127dc565b840191505092915050565b6000608083016000830151612cb26000860182612c41565b506020830151612cc56020860182612c41565b5060408301518482036040860152612cdd8282612c61565b91505060608301518482036060860152612cf78282612c61565b9150508091505092915050565b60006020820190508181036000830152612d1e8184612c9a565b905092915050565b60008060408385031215612d3d57612d3c6126c8565b5b6000612d4b8582860161291e565b9250506020612d5c8582860161291e565b9150509250929050565b600067ffffffffffffffff821115612d8157612d80612a93565b5b612d8a826127dc565b9050602081019050919050565b6000612daa612da584612d66565b612af3565b905082815260208101848484011115612dc657612dc5612a8e565b5b612dd1848285612b3f565b509392505050565b600082601f830112612dee57612ded612a89565b5b8135612dfe848260208601612d97565b91505092915050565b60008060008060808587031215612e2157612e206126c8565b5b6000612e2f8782880161291e565b945050602085013567ffffffffffffffff811115612e5057612e4f6126cd565b5b612e5c87828801612dd9565b935050604085013567ffffffffffffffff811115612e7d57612e7c6126cd565b5b612e8987828801612dd9565b925050606085013567ffffffffffffffff811115612eaa57612ea96126cd565b5b612eb687828801612dd9565b91505092959194509250565b7f4e487b7100000000000000000000000000000000000000000000000000000000600052602260045260246000fd5b60006002820490506001821680612f0957607f821691505b602082108103612f1c57612f1b612ec2565b5b50919050565b7f4552433732313a20617070726f76616c20746f2063757272656e74206f776e6560008201527f7200000000000000000000000000000000000000000000000000000000000000602082015250565b6000612f7e602183612798565b9150612f8982612f22565b604082019050919050565b60006020820190508181036000830152612fad81612f71565b9050919050565b7f4552433732313a20617070726f76652063616c6c6572206973206e6f7420746f60008201527f6b656e206f776e6572206f7220617070726f76656420666f7220616c6c000000602082015250565b6000613010603d83612798565b915061301b82612fb4565b604082019050919050565b6000602082019050818103600083015261303f81613003565b9050919050565b7f4552433732313a2063616c6c6572206973206e6f7420746f6b656e206f776e6560008201527f72206f7220617070726f76656400000000000000000000000000000000000000602082015250565b60006130a2602d83612798565b91506130ad82613046565b604082019050919050565b600060208201905081810360008301526130d181613095565b9050919050565b7f455243373231456e756d657261626c653a206f776e657220696e646578206f7560008201527f74206f6620626f756e6473000000000000000000000000000000000000000000602082015250565b6000613134602b83612798565b915061313f826130d8565b604082019050919050565b6000602082019050818103600083015261316381613127565b9050919050565b7f455243373231456e756d657261626c653a20676c6f62616c20696e646578206f60008201527f7574206f6620626f756e64730000000000000000000000000000000000000000602082015250565b60006131c6602c83612798565b91506131d18261316a565b604082019050919050565b600060208201905081810360008301526131f5816131b9565b9050919050565b7f4e487b7100000000000000000000000000000000000000000000000000000000600052603260045260246000fd5b7f416c726561647920616e2061646d696e206f6620696e737469747574696f6e00600082015250565b6000613261601f83612798565b915061326c8261322b565b602082019050919050565b6000602082019050818103600083015261329081613254565b9050919050565b7f4552433732313a20696e76616c696420746f6b656e2049440000000000000000600082015250565b60006132cd601883612798565b91506132d882613297565b602082019050919050565b600060208201905081810360008301526132fc816132c0565b9050919050565b7f4552433732313a2061646472657373207a65726f206973206e6f74206120766160008201527f6c6964206f776e65720000000000000000000000000000000000000000000000602082015250565b600061335f602983612798565b915061336a82613303565b604082019050919050565b6000602082019050818103600083015261338e81613352565b9050919050565b7f53656e646572206973206e6f7420616e2061646d696e206f6620696e7374697460008201527f7574696f6e000000000000000000000000000000000000000000000000000000602082015250565b60006133f1602583612798565b91506133fc82613395565b604082019050919050565b60006020820190508181036000830152613420816133e4565b9050919050565b7f4552433732313a207472616e736665722066726f6d20696e636f72726563742060008201527f6f776e6572000000000000000000000000000000000000000000000000000000602082015250565b6000613483602583612798565b915061348e82613427565b604082019050919050565b600060208201905081810360008301526134b281613476565b9050919050565b7f4552433732313a207472616e7366657220746f20746865207a65726f2061646460008201527f7265737300000000000000000000000000000000000000000000000000000000602082015250565b6000613515602483612798565b9150613520826134b9565b604082019050919050565b6000602082019050818103600083015261354481613508565b9050919050565b7f4552433732313a20617070726f766520746f2063616c6c657200000000000000600082015250565b6000613581601983612798565b915061358c8261354b565b602082019050919050565b600060208201905081810360008301526135b081613574565b9050919050565b7f4552433732313a207472616e7366657220746f206e6f6e20455243373231526560008201527f63656976657220696d706c656d656e7465720000000000000000000000000000602082015250565b6000613613603283612798565b915061361e826135b7565b604082019050919050565b6000602082019050818103600083015261364281613606565b9050919050565b600081905092915050565b600061365f8261278d565b6136698185613649565b93506136798185602086016127a9565b80840191505092915050565b60006136918285613654565b915061369d8284613654565b91508190509392505050565b7f4552433732313a206d696e7420746f20746865207a65726f2061646472657373600082015250565b60006136df602083612798565b91506136ea826136a9565b602082019050919050565b6000602082019050818103600083015261370e816136d2565b9050919050565b7f4552433732313a20746f6b656e20616c7265616479206d696e74656400000000600082015250565b600061374b601c83612798565b915061375682613715565b602082019050919050565b6000602082019050818103600083015261377a8161373e565b9050919050565b7f45524337323155524953746f726167653a2055524920736574206f66206e6f6e60008201527f6578697374656e7420746f6b656e000000000000000000000000000000000000602082015250565b60006137dd602e83612798565b91506137e882613781565b604082019050919050565b6000602082019050818103600083015261380c816137d0565b9050919050565b600081519050919050565b600082825260208201905092915050565b600061383a82613813565b613844818561381e565b93506138548185602086016127a9565b61385d816127dc565b840191505092915050565b600060808201905061387d60008301876128dd565b61388a60208301866128dd565b6138976040830185612973565b81810360608301526138a9818461382f565b905095945050505050565b6000815190506138c3816126fe565b92915050565b6000602082840312156138df576138de6126c8565b5b60006138ed848285016138b4565b91505092915050565b7f455243373231456e756d657261626c653a20636f6e736563757469766520747260008201527f616e7366657273206e6f7420737570706f727465640000000000000000000000602082015250565b6000613952603583612798565b915061395d826138f6565b604082019050919050565b6000602082019050818103600083015261398181613945565b9050919050565b7f4e487b7100000000000000000000000000000000000000000000000000000000600052601260045260246000fd5b7f4e487b7100000000000000000000000000000000000000000000000000000000600052601160045260246000fd5b60006139f182612848565b91506139fc83612848565b925082821015613a0f57613a0e6139b7565b5b828203905092915050565b6000613a2582612848565b9150613a3083612848565b9250827fffffffffffffffffffffffffffffffffffffffffffffffffffffffffffffffff03821115613a6557613a646139b7565b5b828201905092915050565b7f4e487b7100000000000000000000000000000000000000000000000000000000600052603160045260246000fdfea2646970667358221220f73b98b551b57e6c719e002eab993b10e0c42160fffd511aee8784fc113c3d4864736f6c634300080d0033",
  "immutableReferences": {},
  "source": "// SPDX-License-Identifier: MIT\r\npragma solidity >=0.4.22 <0.9.0;\r\n\r\nimport \"@openzeppelin/contracts/token/ERC721/ERC721.sol\";\r\nimport \"@openzeppelin/contracts/token/ERC721/extensions/ERC721Enumerable.sol\";\r\nimport \"@openzeppelin/contracts/token/ERC721/extensions/ERC721URIStorage.sol\";\r\nimport \"@openzeppelin/contracts/utils/Counters.sol\";\r\n\r\ncontract DocumentNFT is ERC721, ERC721Enumerable, ERC721URIStorage\r\n{\r\n    using Counters for Counters.Counter;\r\n\tCounters.Counter documentIds;\r\n\r\n\tstruct Document\r\n\t{\r\n\t\taddress owner;\r\n\t\taddress issuer;\r\n\t\tstring _type;\r\n        string docId;\r\n\t}\r\n\r\n\tstruct Institution \r\n\t{\r\n\t\tbool isExisting;\r\n\t}\r\n\r\n\tmapping(uint256 => Document) documents;\r\n\tmapping(address => Institution) institutions;\r\n\r\n\tconstructor() ERC721(\"DocumentNFT\", \"DOC\") {}\r\n\r\n\t// Handles the minting and transferring of the document to its owner\r\n\tfunction sendDocument(\r\n\t\taddress receiver,\r\n\t\tstring memory type_,\r\n\t\tstring memory uri,\r\n        string memory docId\r\n\t) public\r\n\t{\r\n\t\t// Check if sender is admin of institution\r\n\t\trequire(institutions[msg.sender].isExisting, \"Sender is not an admin of institution\");\r\n\r\n\t\t// Generate a unique, new documentd id\r\n\t\tuint256 newDocumentId = documentIds.current();\r\n\r\n\t\t// Create a Document instance and store it to the documents mapping\r\n\t\tdocuments[newDocumentId] = Document(receiver, msg.sender, type_, docId);\r\n\r\n        // Mint\r\n\t\t_mint(msg.sender, newDocumentId);\r\n\r\n        // Save token URI\r\n        _setTokenURI(newDocumentId, uri);\r\n\r\n        // Transfer\r\n\t\t_transfer(msg.sender, receiver, newDocumentId);\r\n\r\n\t\tdocumentIds.increment();\r\n\t}\r\n\r\n\t// Returns the metadata of a document\r\n\tfunction getDocumentData(uint256 documentId) public view returns(Document memory)\r\n\t{\r\n\t\treturn documents[documentId];\r\n\t}\r\n\r\n\t/* Institution-handlers */\r\n\r\n\tfunction registerInstitution() public\r\n\t{\r\n\t\trequire(!institutions[msg.sender].isExisting, \"Already an admin of institution\");\r\n\t\t\r\n\t\tinstitutions[msg.sender] = Institution(true);\r\n\t}\r\n\r\n    /* Overrides - MUST BE INCLUDED */\r\n    \r\n\tfunction _beforeTokenTransfer(address from, address to, uint256 batchSize, uint256 tokenId) internal override(ERC721, ERC721Enumerable)\r\n\t{\r\n\t\tsuper._beforeTokenTransfer(from, to, batchSize, tokenId);\r\n\t}\r\n\r\n\tfunction supportsInterface(bytes4 interfaceId) public view override(ERC721, ERC721Enumerable) returns(bool)\r\n\t{\r\n\t\treturn super.supportsInterface(interfaceId);\r\n\t}\r\n\r\n    function _burn(uint256 tokenId) internal override(ERC721, ERC721URIStorage)\r\n\t{\r\n        super._burn(tokenId);\r\n    }\r\n\r\n\tfunction tokenURI(uint256 tokenId) public view override(ERC721, ERC721URIStorage) returns (string memory)\r\n    {\r\n        return super.tokenURI(tokenId);\r\n    }\r\n}",
  "sourcePath": "C:\\Users\\chrys\\OneDrive\\Documents\\GitHub\\iCertify\\api\\contracts\\DocumentNFT.sol",
  "compiler": {
    "name": "solc",
    "version": "0.8.13+commit.abaa5c0e.Emscripten.clang"
  },
  "schemaVersion": "3.4.13",
  "updatedAt": "2023-04-04T21:35:27.262Z",
  "networkType": "ethereum",
  "devdoc": {
    "kind": "dev",
    "methods": {
      "approve(address,uint256)": {
        "details": "See {IERC721-approve}."
      },
      "balanceOf(address)": {
        "details": "See {IERC721-balanceOf}."
      },
      "getApproved(uint256)": {
        "details": "See {IERC721-getApproved}."
      },
      "isApprovedForAll(address,address)": {
        "details": "See {IERC721-isApprovedForAll}."
      },
      "name()": {
        "details": "See {IERC721Metadata-name}."
      },
      "ownerOf(uint256)": {
        "details": "See {IERC721-ownerOf}."
      },
      "safeTransferFrom(address,address,uint256)": {
        "details": "See {IERC721-safeTransferFrom}."
      },
      "safeTransferFrom(address,address,uint256,bytes)": {
        "details": "See {IERC721-safeTransferFrom}."
      },
      "setApprovalForAll(address,bool)": {
        "details": "See {IERC721-setApprovalForAll}."
      },
      "symbol()": {
        "details": "See {IERC721Metadata-symbol}."
      },
      "tokenByIndex(uint256)": {
        "details": "See {IERC721Enumerable-tokenByIndex}."
      },
      "tokenOfOwnerByIndex(address,uint256)": {
        "details": "See {IERC721Enumerable-tokenOfOwnerByIndex}."
      },
      "totalSupply()": {
        "details": "See {IERC721Enumerable-totalSupply}."
      },
      "transferFrom(address,address,uint256)": {
        "details": "See {IERC721-transferFrom}."
      }
    },
    "version": 1
  },
  "userdoc": {
    "kind": "user",
    "methods": {},
    "version": 1
  }
}