{
  "contractName": "DocumentNFT",
  "abi": [
    {
      "inputs": [],
      "stateMutability": "nonpayable",
      "type": "constructor"
    },
    {
      "anonymous": false,
      "inputs": [
        {
          "indexed": true,
          "internalType": "address",
          "name": "owner",
          "type": "address"
        },
        {
          "indexed": true,
          "internalType": "address",
          "name": "approved",
          "type": "address"
        },
        {
          "indexed": true,
          "internalType": "uint256",
          "name": "tokenId",
          "type": "uint256"
        }
      ],
      "name": "Approval",
      "type": "event"
    },
    {
      "anonymous": false,
      "inputs": [
        {
          "indexed": true,
          "internalType": "address",
          "name": "owner",
          "type": "address"
        },
        {
          "indexed": true,
          "internalType": "address",
          "name": "operator",
          "type": "address"
        },
        {
          "indexed": false,
          "internalType": "bool",
          "name": "approved",
          "type": "bool"
        }
      ],
      "name": "ApprovalForAll",
      "type": "event"
    },
    {
      "anonymous": false,
      "inputs": [
        {
          "indexed": false,
          "internalType": "uint256",
          "name": "_fromTokenId",
          "type": "uint256"
        },
        {
          "indexed": false,
          "internalType": "uint256",
          "name": "_toTokenId",
          "type": "uint256"
        }
      ],
      "name": "BatchMetadataUpdate",
      "type": "event"
    },
    {
      "anonymous": false,
      "inputs": [
        {
          "indexed": false,
          "internalType": "uint256",
          "name": "_tokenId",
          "type": "uint256"
        }
      ],
      "name": "MetadataUpdate",
      "type": "event"
    },
    {
      "anonymous": false,
      "inputs": [
        {
          "indexed": true,
          "internalType": "address",
          "name": "from",
          "type": "address"
        },
        {
          "indexed": true,
          "internalType": "address",
          "name": "to",
          "type": "address"
        },
        {
          "indexed": true,
          "internalType": "uint256",
          "name": "tokenId",
          "type": "uint256"
        }
      ],
      "name": "Transfer",
      "type": "event"
    },
    {
      "inputs": [
        {
          "internalType": "address",
          "name": "to",
          "type": "address"
        },
        {
          "internalType": "uint256",
          "name": "tokenId",
          "type": "uint256"
        }
      ],
      "name": "approve",
      "outputs": [],
      "stateMutability": "nonpayable",
      "type": "function"
    },
    {
      "inputs": [
        {
          "internalType": "address",
          "name": "owner",
          "type": "address"
        }
      ],
      "name": "balanceOf",
      "outputs": [
        {
          "internalType": "uint256",
          "name": "",
          "type": "uint256"
        }
      ],
      "stateMutability": "view",
      "type": "function"
    },
    {
      "inputs": [
        {
          "internalType": "uint256",
          "name": "tokenId",
          "type": "uint256"
        }
      ],
      "name": "getApproved",
      "outputs": [
        {
          "internalType": "address",
          "name": "",
          "type": "address"
        }
      ],
      "stateMutability": "view",
      "type": "function"
    },
    {
      "inputs": [
        {
          "internalType": "address",
          "name": "owner",
          "type": "address"
        },
        {
          "internalType": "address",
          "name": "operator",
          "type": "address"
        }
      ],
      "name": "isApprovedForAll",
      "outputs": [
        {
          "internalType": "bool",
          "name": "",
          "type": "bool"
        }
      ],
      "stateMutability": "view",
      "type": "function"
    },
    {
      "inputs": [],
      "name": "name",
      "outputs": [
        {
          "internalType": "string",
          "name": "",
          "type": "string"
        }
      ],
      "stateMutability": "view",
      "type": "function"
    },
    {
      "inputs": [
        {
          "internalType": "uint256",
          "name": "tokenId",
          "type": "uint256"
        }
      ],
      "name": "ownerOf",
      "outputs": [
        {
          "internalType": "address",
          "name": "",
          "type": "address"
        }
      ],
      "stateMutability": "view",
      "type": "function"
    },
    {
      "inputs": [
        {
          "internalType": "address",
          "name": "from",
          "type": "address"
        },
        {
          "internalType": "address",
          "name": "to",
          "type": "address"
        },
        {
          "internalType": "uint256",
          "name": "tokenId",
          "type": "uint256"
        }
      ],
      "name": "safeTransferFrom",
      "outputs": [],
      "stateMutability": "nonpayable",
      "type": "function"
    },
    {
      "inputs": [
        {
          "internalType": "address",
          "name": "from",
          "type": "address"
        },
        {
          "internalType": "address",
          "name": "to",
          "type": "address"
        },
        {
          "internalType": "uint256",
          "name": "tokenId",
          "type": "uint256"
        },
        {
          "internalType": "bytes",
          "name": "data",
          "type": "bytes"
        }
      ],
      "name": "safeTransferFrom",
      "outputs": [],
      "stateMutability": "nonpayable",
      "type": "function"
    },
    {
      "inputs": [
        {
          "internalType": "address",
          "name": "operator",
          "type": "address"
        },
        {
          "internalType": "bool",
          "name": "approved",
          "type": "bool"
        }
      ],
      "name": "setApprovalForAll",
      "outputs": [],
      "stateMutability": "nonpayable",
      "type": "function"
    },
    {
      "inputs": [],
      "name": "symbol",
      "outputs": [
        {
          "internalType": "string",
          "name": "",
          "type": "string"
        }
      ],
      "stateMutability": "view",
      "type": "function"
    },
    {
      "inputs": [
        {
          "internalType": "uint256",
          "name": "index",
          "type": "uint256"
        }
      ],
      "name": "tokenByIndex",
      "outputs": [
        {
          "internalType": "uint256",
          "name": "",
          "type": "uint256"
        }
      ],
      "stateMutability": "view",
      "type": "function"
    },
    {
      "inputs": [
        {
          "internalType": "address",
          "name": "owner",
          "type": "address"
        },
        {
          "internalType": "uint256",
          "name": "index",
          "type": "uint256"
        }
      ],
      "name": "tokenOfOwnerByIndex",
      "outputs": [
        {
          "internalType": "uint256",
          "name": "",
          "type": "uint256"
        }
      ],
      "stateMutability": "view",
      "type": "function"
    },
    {
      "inputs": [],
      "name": "totalSupply",
      "outputs": [
        {
          "internalType": "uint256",
          "name": "",
          "type": "uint256"
        }
      ],
      "stateMutability": "view",
      "type": "function"
    },
    {
      "inputs": [
        {
          "internalType": "address",
          "name": "from",
          "type": "address"
        },
        {
          "internalType": "address",
          "name": "to",
          "type": "address"
        },
        {
          "internalType": "uint256",
          "name": "tokenId",
          "type": "uint256"
        }
      ],
      "name": "transferFrom",
      "outputs": [],
      "stateMutability": "nonpayable",
      "type": "function"
    },
    {
      "inputs": [],
      "name": "withdraw",
      "outputs": [],
      "stateMutability": "nonpayable",
      "type": "function"
    },
    {
      "inputs": [
        {
          "internalType": "address",
          "name": "receiver",
          "type": "address"
        },
        {
          "internalType": "string",
          "name": "type_",
          "type": "string"
        },
        {
          "internalType": "string",
          "name": "uri",
          "type": "string"
        },
        {
          "internalType": "string",
          "name": "docId",
          "type": "string"
        }
      ],
      "name": "sendDocument",
      "outputs": [],
      "stateMutability": "payable",
      "type": "function"
    },
    {
      "inputs": [
        {
          "internalType": "uint256",
          "name": "documentId",
          "type": "uint256"
        }
      ],
      "name": "getDocumentData",
      "outputs": [
        {
          "components": [
            {
              "internalType": "address",
              "name": "owner",
              "type": "address"
            },
            {
              "internalType": "address",
              "name": "issuer",
              "type": "address"
            },
            {
              "internalType": "string",
              "name": "_type",
              "type": "string"
            },
            {
              "internalType": "string",
              "name": "docId",
              "type": "string"
            }
          ],
          "internalType": "struct DocumentNFT.Document",
          "name": "",
          "type": "tuple"
        }
      ],
      "stateMutability": "view",
      "type": "function"
    },
    {
      "inputs": [],
      "name": "registerInstitution",
      "outputs": [],
      "stateMutability": "nonpayable",
      "type": "function"
    },
    {
      "inputs": [
        {
          "internalType": "address",
          "name": "sender",
          "type": "address"
        }
      ],
      "name": "checkInstitution",
      "outputs": [
        {
          "internalType": "bool",
          "name": "",
          "type": "bool"
        }
      ],
      "stateMutability": "view",
      "type": "function"
    },
    {
      "inputs": [
        {
          "internalType": "string",
          "name": "uri",
          "type": "string"
        }
      ],
      "name": "checkUri",
      "outputs": [
        {
          "internalType": "bool",
          "name": "",
          "type": "bool"
        }
      ],
      "stateMutability": "view",
      "type": "function"
    },
    {
      "inputs": [
        {
          "internalType": "bytes4",
          "name": "interfaceId",
          "type": "bytes4"
        }
      ],
      "name": "supportsInterface",
      "outputs": [
        {
          "internalType": "bool",
          "name": "",
          "type": "bool"
        }
      ],
      "stateMutability": "view",
      "type": "function"
    },
    {
      "inputs": [
        {
          "internalType": "uint256",
          "name": "tokenId",
          "type": "uint256"
        }
      ],
      "name": "tokenURI",
      "outputs": [
        {
          "internalType": "string",
          "name": "",
          "type": "string"
        }
      ],
      "stateMutability": "view",
      "type": "function"
    }
  ],
  "bytecode": "0x60806040523480156200001157600080fd5b506040518060400160405280600b81526020017f446f63756d656e744e46540000000000000000000000000000000000000000008152506040518060400160405280600381526020017f444f43000000000000000000000000000000000000000000000000000000000081525081600090816200008f919062000365565b508060019081620000a1919062000365565b50505033600c60006101000a81548173ffffffffffffffffffffffffffffffffffffffff021916908373ffffffffffffffffffffffffffffffffffffffff1602179055506200044c565b600081519050919050565b7f4e487b7100000000000000000000000000000000000000000000000000000000600052604160045260246000fd5b7f4e487b7100000000000000000000000000000000000000000000000000000000600052602260045260246000fd5b600060028204905060018216806200016d57607f821691505b60208210810362000183576200018262000125565b5b50919050565b60008190508160005260206000209050919050565b60006020601f8301049050919050565b600082821b905092915050565b600060088302620001ed7fffffffffffffffffffffffffffffffffffffffffffffffffffffffffffffffff82620001ae565b620001f98683620001ae565b95508019841693508086168417925050509392505050565b6000819050919050565b6000819050919050565b600062000246620002406200023a8462000211565b6200021b565b62000211565b9050919050565b6000819050919050565b620002628362000225565b6200027a62000271826200024d565b848454620001bb565b825550505050565b600090565b6200029162000282565b6200029e81848462000257565b505050565b5b81811015620002c657620002ba60008262000287565b600181019050620002a4565b5050565b601f8211156200031557620002df8162000189565b620002ea846200019e565b81016020851015620002fa578190505b6200031262000309856200019e565b830182620002a3565b50505b505050565b600082821c905092915050565b60006200033a600019846008026200031a565b1980831691505092915050565b600062000355838362000327565b9150826002028217905092915050565b6200037082620000eb565b67ffffffffffffffff8111156200038c576200038b620000f6565b5b62000398825462000154565b620003a5828285620002ca565b600060209050601f831160018114620003dd5760008415620003c8578287015190505b620003d4858262000347565b86555062000444565b601f198416620003ed8662000189565b60005b828110156200041757848901518255600182019150602085019450602081019050620003f0565b8683101562000437578489015162000433601f89168262000327565b8355505b6001600288020188555050505b505050505050565b6145b8806200045c6000396000f3fe6080604052600436106101355760003560e01c806361853764116100ab578063b88d4fde1161006f578063b88d4fde14610438578063c87b56dd14610461578063d105cdde1461049e578063e985e9c5146104db578063fa6d6f8e14610518578063fb2060851461053457610135565b806361853764146103535780636352211e1461036a57806370a08231146103a757806395d89b41146103e4578063a22cb4651461040f57610135565b806318160ddd116100fd57806318160ddd1461024557806323b872dd146102705780632f745c59146102995780633ccfd60b146102d657806342842e0e146102ed5780634f6ccce71461031657610135565b806301ffc9a71461013a57806306fdde0314610177578063081812fc146101a2578063095ea7b3146101df57806309e4f2f014610208575b600080fd5b34801561014657600080fd5b50610161600480360381019061015c9190612bbc565b610571565b60405161016e9190612c04565b60405180910390f35b34801561018357600080fd5b5061018c610583565b6040516101999190612caf565b60405180910390f35b3480156101ae57600080fd5b506101c960048036038101906101c49190612d07565b610615565b6040516101d69190612d75565b60405180910390f35b3480156101eb57600080fd5b5061020660048036038101906102019190612dbc565b61065b565b005b34801561021457600080fd5b5061022f600480360381019061022a9190612f31565b610772565b60405161023c9190612c04565b60405180910390f35b34801561025157600080fd5b5061025a6107a7565b6040516102679190612f89565b60405180910390f35b34801561027c57600080fd5b5061029760048036038101906102929190612fa4565b6107b4565b005b3480156102a557600080fd5b506102c060048036038101906102bb9190612dbc565b610814565b6040516102cd9190612f89565b60405180910390f35b3480156102e257600080fd5b506102eb6108b9565b005b3480156102f957600080fd5b50610314600480360381019061030f9190612fa4565b610a1a565b005b34801561032257600080fd5b5061033d60048036038101906103389190612d07565b610a3a565b60405161034a9190612f89565b60405180910390f35b34801561035f57600080fd5b50610368610aab565b005b34801561037657600080fd5b50610391600480360381019061038c9190612d07565b610b92565b60405161039e9190612d75565b60405180910390f35b3480156103b357600080fd5b506103ce60048036038101906103c99190612ff7565b610c18565b6040516103db9190612f89565b60405180910390f35b3480156103f057600080fd5b506103f9610ccf565b6040516104069190612caf565b60405180910390f35b34801561041b57600080fd5b5061043660048036038101906104319190613050565b610d61565b005b34801561044457600080fd5b5061045f600480360381019061045a9190613131565b610d77565b005b34801561046d57600080fd5b5061048860048036038101906104839190612d07565b610dd9565b6040516104959190612caf565b60405180910390f35b3480156104aa57600080fd5b506104c560048036038101906104c09190612d07565b610deb565b6040516104d29190613277565b60405180910390f35b3480156104e757600080fd5b5061050260048036038101906104fd9190613299565b610fe8565b60405161050f9190612c04565b60405180910390f35b610532600480360381019061052d91906132d9565b61107c565b005b34801561054057600080fd5b5061055b60048036038101906105569190612ff7565b61146e565b6040516105689190612c04565b60405180910390f35b600061057c82611532565b9050919050565b606060008054610592906133c3565b80601f01602080910402602001604051908101604052809291908181526020018280546105be906133c3565b801561060b5780601f106105e05761010080835404028352916020019161060b565b820191906000526020600020905b8154815290600101906020018083116105ee57829003601f168201915b5050505050905090565b600061062082611593565b6004600083815260200190815260200160002060009054906101000a900473ffffffffffffffffffffffffffffffffffffffff169050919050565b600061066682610b92565b90508073ffffffffffffffffffffffffffffffffffffffff168373ffffffffffffffffffffffffffffffffffffffff16036106d6576040517f08c379a00000000000000000000000000000000000000000000000000000000081526004016106cd90613466565b60405180910390fd5b8073ffffffffffffffffffffffffffffffffffffffff166106f56115de565b73ffffffffffffffffffffffffffffffffffffffff16148061072457506107238161071e6115de565b610fe8565b5b610763576040517f08c379a000000000000000000000000000000000000000000000000000000000815260040161075a906134f8565b60405180910390fd5b61076d83836115e6565b505050565b6000600f826040516107849190613554565b908152602001604051809103902060009054906101000a900460ff169050919050565b6000600880549050905090565b6107c56107bf6115de565b8261169f565b610804576040517f08c379a00000000000000000000000000000000000000000000000000000000081526004016107fb906135dd565b60405180910390fd5b61080f838383611734565b505050565b600061081f83610c18565b8210610860576040517f08c379a00000000000000000000000000000000000000000000000000000000081526004016108579061366f565b60405180910390fd5b600660008473ffffffffffffffffffffffffffffffffffffffff1673ffffffffffffffffffffffffffffffffffffffff168152602001908152602001600020600083815260200190815260200160002054905092915050565b600c60009054906101000a900473ffffffffffffffffffffffffffffffffffffffff1673ffffffffffffffffffffffffffffffffffffffff163373ffffffffffffffffffffffffffffffffffffffff1614610949576040517f08c379a000000000000000000000000000000000000000000000000000000000815260040161094090613701565b60405180910390fd5b6000600c60009054906101000a900473ffffffffffffffffffffffffffffffffffffffff1673ffffffffffffffffffffffffffffffffffffffff164760405161099190613752565b60006040518083038185875af1925050503d80600081146109ce576040519150601f19603f3d011682016040523d82523d6000602084013e6109d3565b606091505b5050905080610a17576040517f08c379a0000000000000000000000000000000000000000000000000000000008152600401610a0e906137d9565b60405180910390fd5b50565b610a3583838360405180602001604052806000815250610d77565b505050565b6000610a446107a7565b8210610a85576040517f08c379a0000000000000000000000000000000000000000000000000000000008152600401610a7c9061386b565b60405180910390fd5b60088281548110610a9957610a9861388b565b5b90600052602060002001549050919050565b600e60003373ffffffffffffffffffffffffffffffffffffffff1673ffffffffffffffffffffffffffffffffffffffff16815260200190815260200160002060009054906101000a900460ff1615610b38576040517f08c379a0000000000000000000000000000000000000000000000000000000008152600401610b2f90613906565b60405180910390fd5b6001600e60003373ffffffffffffffffffffffffffffffffffffffff1673ffffffffffffffffffffffffffffffffffffffff16815260200190815260200160002060006101000a81548160ff021916908315150217905550565b600080610b9e83611a2d565b9050600073ffffffffffffffffffffffffffffffffffffffff168173ffffffffffffffffffffffffffffffffffffffff1603610c0f576040517f08c379a0000000000000000000000000000000000000000000000000000000008152600401610c0690613972565b60405180910390fd5b80915050919050565b60008073ffffffffffffffffffffffffffffffffffffffff168273ffffffffffffffffffffffffffffffffffffffff1603610c88576040517f08c379a0000000000000000000000000000000000000000000000000000000008152600401610c7f90613a04565b60405180910390fd5b600360008373ffffffffffffffffffffffffffffffffffffffff1673ffffffffffffffffffffffffffffffffffffffff168152602001908152602001600020549050919050565b606060018054610cde906133c3565b80601f0160208091040260200160405190810160405280929190818152602001828054610d0a906133c3565b8015610d575780601f10610d2c57610100808354040283529160200191610d57565b820191906000526020600020905b815481529060010190602001808311610d3a57829003601f168201915b5050505050905090565b610d73610d6c6115de565b8383611a6a565b5050565b610d88610d826115de565b8361169f565b610dc7576040517f08c379a0000000000000000000000000000000000000000000000000000000008152600401610dbe906135dd565b60405180910390fd5b610dd384848484611bd6565b50505050565b6060610de482611c32565b9050919050565b610df3612afc565b600d60008381526020019081526020016000206040518060800160405290816000820160009054906101000a900473ffffffffffffffffffffffffffffffffffffffff1673ffffffffffffffffffffffffffffffffffffffff1673ffffffffffffffffffffffffffffffffffffffff1681526020016001820160009054906101000a900473ffffffffffffffffffffffffffffffffffffffff1673ffffffffffffffffffffffffffffffffffffffff1673ffffffffffffffffffffffffffffffffffffffff168152602001600282018054610ecd906133c3565b80601f0160208091040260200160405190810160405280929190818152602001828054610ef9906133c3565b8015610f465780601f10610f1b57610100808354040283529160200191610f46565b820191906000526020600020905b815481529060010190602001808311610f2957829003601f168201915b50505050508152602001600382018054610f5f906133c3565b80601f0160208091040260200160405190810160405280929190818152602001828054610f8b906133c3565b8015610fd85780601f10610fad57610100808354040283529160200191610fd8565b820191906000526020600020905b815481529060010190602001808311610fbb57829003601f168201915b5050505050815250509050919050565b6000600560008473ffffffffffffffffffffffffffffffffffffffff1673ffffffffffffffffffffffffffffffffffffffff16815260200190815260200160002060008373ffffffffffffffffffffffffffffffffffffffff1673ffffffffffffffffffffffffffffffffffffffff16815260200190815260200160002060009054906101000a900460ff16905092915050565b600c60009054906101000a900473ffffffffffffffffffffffffffffffffffffffff1673ffffffffffffffffffffffffffffffffffffffff163373ffffffffffffffffffffffffffffffffffffffff160361110c576040517f08c379a000000000000000000000000000000000000000000000000000000000815260040161110390613a70565b60405180910390fd5b600e60003373ffffffffffffffffffffffffffffffffffffffff1673ffffffffffffffffffffffffffffffffffffffff16815260200190815260200160002060009054906101000a900460ff16611198576040517f08c379a000000000000000000000000000000000000000000000000000000000815260040161118f90613b02565b60405180910390fd5b600e60008573ffffffffffffffffffffffffffffffffffffffff1673ffffffffffffffffffffffffffffffffffffffff16815260200190815260200160002060009054906101000a900460ff1615611225576040517f08c379a000000000000000000000000000000000000000000000000000000000815260040161121c90613b94565b60405180910390fd5b600f826040516112359190613554565b908152602001604051809103902060009054906101000a900460ff1615611291576040517f08c379a000000000000000000000000000000000000000000000000000000000815260040161128890613c26565b60405180910390fd5b672e4261016f6f12003410156112dc576040517f08c379a00000000000000000000000000000000000000000000000000000000081526004016112d390613c92565b60405180910390fd5b60006112e8600b611d44565b905060405180608001604052808673ffffffffffffffffffffffffffffffffffffffff1681526020013373ffffffffffffffffffffffffffffffffffffffff16815260200185815260200183815250600d600083815260200190815260200160002060008201518160000160006101000a81548173ffffffffffffffffffffffffffffffffffffffff021916908373ffffffffffffffffffffffffffffffffffffffff16021790555060208201518160010160006101000a81548173ffffffffffffffffffffffffffffffffffffffff021916908373ffffffffffffffffffffffffffffffffffffffff16021790555060408201518160020190816113ed9190613e5e565b5060608201518160030190816114039190613e5e565b509050506114113382611d52565b61141b8184611f6f565b611426338683611734565b6001600f846040516114389190613554565b908152602001604051809103902060006101000a81548160ff021916908315150217905550611467600b612013565b5050505050565b60008073ffffffffffffffffffffffffffffffffffffffff168273ffffffffffffffffffffffffffffffffffffffff16036114de576040517f08c379a00000000000000000000000000000000000000000000000000000000081526004016114d590613f7c565b60405180910390fd5b600e60008373ffffffffffffffffffffffffffffffffffffffff1673ffffffffffffffffffffffffffffffffffffffff16815260200190815260200160002060009054906101000a900460ff169050919050565b6000634906490660e01b7bffffffffffffffffffffffffffffffffffffffffffffffffffffffff1916827bffffffffffffffffffffffffffffffffffffffffffffffffffffffff1916148061158c575061158b82612029565b5b9050919050565b61159c816120a3565b6115db576040517f08c379a00000000000000000000000000000000000000000000000000000000081526004016115d290613972565b60405180910390fd5b50565b600033905090565b816004600083815260200190815260200160002060006101000a81548173ffffffffffffffffffffffffffffffffffffffff021916908373ffffffffffffffffffffffffffffffffffffffff160217905550808273ffffffffffffffffffffffffffffffffffffffff1661165983610b92565b73ffffffffffffffffffffffffffffffffffffffff167f8c5be1e5ebec7d5bd14f71427d1e84f3dd0314c0f7b2291e5b200ac8c7c3b92560405160405180910390a45050565b6000806116ab83610b92565b90508073ffffffffffffffffffffffffffffffffffffffff168473ffffffffffffffffffffffffffffffffffffffff1614806116ed57506116ec8185610fe8565b5b8061172b57508373ffffffffffffffffffffffffffffffffffffffff1661171384610615565b73ffffffffffffffffffffffffffffffffffffffff16145b91505092915050565b8273ffffffffffffffffffffffffffffffffffffffff1661175482610b92565b73ffffffffffffffffffffffffffffffffffffffff16146117aa576040517f08c379a00000000000000000000000000000000000000000000000000000000081526004016117a19061400e565b60405180910390fd5b600073ffffffffffffffffffffffffffffffffffffffff168273ffffffffffffffffffffffffffffffffffffffff1603611819576040517f08c379a0000000000000000000000000000000000000000000000000000000008152600401611810906140a0565b60405180910390fd5b61182683838360016120e4565b8273ffffffffffffffffffffffffffffffffffffffff1661184682610b92565b73ffffffffffffffffffffffffffffffffffffffff161461189c576040517f08c379a00000000000000000000000000000000000000000000000000000000081526004016118939061400e565b60405180910390fd5b6004600082815260200190815260200160002060006101000a81549073ffffffffffffffffffffffffffffffffffffffff02191690556001600360008573ffffffffffffffffffffffffffffffffffffffff1673ffffffffffffffffffffffffffffffffffffffff168152602001908152602001600020600082825403925050819055506001600360008473ffffffffffffffffffffffffffffffffffffffff1673ffffffffffffffffffffffffffffffffffffffff16815260200190815260200160002060008282540192505081905550816002600083815260200190815260200160002060006101000a81548173ffffffffffffffffffffffffffffffffffffffff021916908373ffffffffffffffffffffffffffffffffffffffff160217905550808273ffffffffffffffffffffffffffffffffffffffff168473ffffffffffffffffffffffffffffffffffffffff167fddf252ad1be2c89b69c2b068fc378daa952ba7f163c4a11628f55a4df523b3ef60405160405180910390a4611a2883838360016120f6565b505050565b60006002600083815260200190815260200160002060009054906101000a900473ffffffffffffffffffffffffffffffffffffffff169050919050565b8173ffffffffffffffffffffffffffffffffffffffff168373ffffffffffffffffffffffffffffffffffffffff1603611ad8576040517f08c379a0000000000000000000000000000000000000000000000000000000008152600401611acf9061410c565b60405180910390fd5b80600560008573ffffffffffffffffffffffffffffffffffffffff1673ffffffffffffffffffffffffffffffffffffffff16815260200190815260200160002060008473ffffffffffffffffffffffffffffffffffffffff1673ffffffffffffffffffffffffffffffffffffffff16815260200190815260200160002060006101000a81548160ff0219169083151502179055508173ffffffffffffffffffffffffffffffffffffffff168373ffffffffffffffffffffffffffffffffffffffff167f17307eab39ab6107e8899845ad3d59bd9653f200f220920489ca2b5937696c3183604051611bc99190612c04565b60405180910390a3505050565b611be1848484611734565b611bed848484846120fc565b611c2c576040517f08c379a0000000000000000000000000000000000000000000000000000000008152600401611c239061419e565b60405180910390fd5b50505050565b6060611c3d82611593565b6000600a60008481526020019081526020016000208054611c5d906133c3565b80601f0160208091040260200160405190810160405280929190818152602001828054611c89906133c3565b8015611cd65780601f10611cab57610100808354040283529160200191611cd6565b820191906000526020600020905b815481529060010190602001808311611cb957829003601f168201915b505050505090506000611ce7612283565b90506000815103611cfc578192505050611d3f565b600082511115611d31578082604051602001611d199291906141be565b60405160208183030381529060405292505050611d3f565b611d3a8461229a565b925050505b919050565b600081600001549050919050565b600073ffffffffffffffffffffffffffffffffffffffff168273ffffffffffffffffffffffffffffffffffffffff1603611dc1576040517f08c379a0000000000000000000000000000000000000000000000000000000008152600401611db89061422e565b60405180910390fd5b611dca816120a3565b15611e0a576040517f08c379a0000000000000000000000000000000000000000000000000000000008152600401611e019061429a565b60405180910390fd5b611e186000838360016120e4565b611e21816120a3565b15611e61576040517f08c379a0000000000000000000000000000000000000000000000000000000008152600401611e589061429a565b60405180910390fd5b6001600360008473ffffffffffffffffffffffffffffffffffffffff1673ffffffffffffffffffffffffffffffffffffffff16815260200190815260200160002060008282540192505081905550816002600083815260200190815260200160002060006101000a81548173ffffffffffffffffffffffffffffffffffffffff021916908373ffffffffffffffffffffffffffffffffffffffff160217905550808273ffffffffffffffffffffffffffffffffffffffff16600073ffffffffffffffffffffffffffffffffffffffff167fddf252ad1be2c89b69c2b068fc378daa952ba7f163c4a11628f55a4df523b3ef60405160405180910390a4611f6b6000838360016120f6565b5050565b611f78826120a3565b611fb7576040517f08c379a0000000000000000000000000000000000000000000000000000000008152600401611fae9061432c565b60405180910390fd5b80600a60008481526020019081526020016000209081611fd79190613e5e565b507ff8e1a15aba9398e019f0b49df1a4fde98ee17ae345cb5f6b5e2c27f5033e8ce7826040516120079190612f89565b60405180910390a15050565b6001816000016000828254019250508190555050565b60007f780e9d63000000000000000000000000000000000000000000000000000000007bffffffffffffffffffffffffffffffffffffffffffffffffffffffff1916827bffffffffffffffffffffffffffffffffffffffffffffffffffffffff1916148061209c575061209b82612302565b5b9050919050565b60008073ffffffffffffffffffffffffffffffffffffffff166120c583611a2d565b73ffffffffffffffffffffffffffffffffffffffff1614159050919050565b6120f0848484846123e4565b50505050565b50505050565b600061211d8473ffffffffffffffffffffffffffffffffffffffff16612542565b15612276578373ffffffffffffffffffffffffffffffffffffffff1663150b7a026121466115de565b8786866040518563ffffffff1660e01b815260040161216894939291906143a1565b6020604051808303816000875af19250505080156121a457506040513d601f19601f820116820180604052508101906121a19190614402565b60015b612226573d80600081146121d4576040519150601f19603f3d011682016040523d82523d6000602084013e6121d9565b606091505b50600081510361221e576040517f08c379a00000000000000000000000000000000000000000000000000000000081526004016122159061419e565b60405180910390fd5b805181602001fd5b63150b7a0260e01b7bffffffffffffffffffffffffffffffffffffffffffffffffffffffff1916817bffffffffffffffffffffffffffffffffffffffffffffffffffffffff19161491505061227b565b600190505b949350505050565b606060405180602001604052806000815250905090565b60606122a582611593565b60006122af612283565b905060008151116122cf57604051806020016040528060008152506122fa565b806122d984612565565b6040516020016122ea9291906141be565b6040516020818303038152906040525b915050919050565b60007f80ac58cd000000000000000000000000000000000000000000000000000000007bffffffffffffffffffffffffffffffffffffffffffffffffffffffff1916827bffffffffffffffffffffffffffffffffffffffffffffffffffffffff191614806123cd57507f5b5e139f000000000000000000000000000000000000000000000000000000007bffffffffffffffffffffffffffffffffffffffffffffffffffffffff1916827bffffffffffffffffffffffffffffffffffffffffffffffffffffffff1916145b806123dd57506123dc82612633565b5b9050919050565b6123f08484848461269d565b6001811115612434576040517f08c379a000000000000000000000000000000000000000000000000000000000815260040161242b906144a1565b60405180910390fd5b6000829050600073ffffffffffffffffffffffffffffffffffffffff168573ffffffffffffffffffffffffffffffffffffffff160361247b57612476816126a3565b6124ba565b8373ffffffffffffffffffffffffffffffffffffffff168573ffffffffffffffffffffffffffffffffffffffff16146124b9576124b885826126ec565b5b5b600073ffffffffffffffffffffffffffffffffffffffff168473ffffffffffffffffffffffffffffffffffffffff16036124fc576124f781612859565b61253b565b8473ffffffffffffffffffffffffffffffffffffffff168473ffffffffffffffffffffffffffffffffffffffff161461253a57612539848261292a565b5b5b5050505050565b6000808273ffffffffffffffffffffffffffffffffffffffff163b119050919050565b606060006001612574846129a9565b01905060008167ffffffffffffffff81111561259357612592612e06565b5b6040519080825280601f01601f1916602001820160405280156125c55781602001600182028036833780820191505090505b509050600082602001820190505b600115612628578080600190039150507f3031323334353637383961626364656600000000000000000000000000000000600a86061a8153600a858161261c5761261b6144c1565b5b049450600085036125d3575b819350505050919050565b60007f01ffc9a7000000000000000000000000000000000000000000000000000000007bffffffffffffffffffffffffffffffffffffffffffffffffffffffff1916827bffffffffffffffffffffffffffffffffffffffffffffffffffffffff1916149050919050565b50505050565b6008805490506009600083815260200190815260200160002081905550600881908060018154018082558091505060019003906000526020600020016000909190919091505550565b600060016126f984610c18565b612703919061451f565b90506000600760008481526020019081526020016000205490508181146127e8576000600660008673ffffffffffffffffffffffffffffffffffffffff1673ffffffffffffffffffffffffffffffffffffffff168152602001908152602001600020600084815260200190815260200160002054905080600660008773ffffffffffffffffffffffffffffffffffffffff1673ffffffffffffffffffffffffffffffffffffffff168152602001908152602001600020600084815260200190815260200160002081905550816007600083815260200190815260200160002081905550505b6007600084815260200190815260200160002060009055600660008573ffffffffffffffffffffffffffffffffffffffff1673ffffffffffffffffffffffffffffffffffffffff16815260200190815260200160002060008381526020019081526020016000206000905550505050565b6000600160088054905061286d919061451f565b905060006009600084815260200190815260200160002054905060006008838154811061289d5761289c61388b565b5b9060005260206000200154905080600883815481106128bf576128be61388b565b5b90600052602060002001819055508160096000838152602001908152602001600020819055506009600085815260200190815260200160002060009055600880548061290e5761290d614553565b5b6001900381819060005260206000200160009055905550505050565b600061293583610c18565b905081600660008573ffffffffffffffffffffffffffffffffffffffff1673ffffffffffffffffffffffffffffffffffffffff168152602001908152602001600020600083815260200190815260200160002081905550806007600084815260200190815260200160002081905550505050565b600080600090507a184f03e93ff9f4daa797ed6e38ed64bf6a1f0100000000000000008310612a07577a184f03e93ff9f4daa797ed6e38ed64bf6a1f01000000000000000083816129fd576129fc6144c1565b5b0492506040810190505b6d04ee2d6d415b85acef81000000008310612a44576d04ee2d6d415b85acef81000000008381612a3a57612a396144c1565b5b0492506020810190505b662386f26fc100008310612a7357662386f26fc100008381612a6957612a686144c1565b5b0492506010810190505b6305f5e1008310612a9c576305f5e1008381612a9257612a916144c1565b5b0492506008810190505b6127108310612ac1576127108381612ab757612ab66144c1565b5b0492506004810190505b60648310612ae45760648381612ada57612ad96144c1565b5b0492506002810190505b600a8310612af3576001810190505b80915050919050565b6040518060800160405280600073ffffffffffffffffffffffffffffffffffffffff168152602001600073ffffffffffffffffffffffffffffffffffffffff16815260200160608152602001606081525090565b6000604051905090565b600080fd5b600080fd5b60007fffffffff0000000000000000000000000000000000000000000000000000000082169050919050565b612b9981612b64565b8114612ba457600080fd5b50565b600081359050612bb681612b90565b92915050565b600060208284031215612bd257612bd1612b5a565b5b6000612be084828501612ba7565b91505092915050565b60008115159050919050565b612bfe81612be9565b82525050565b6000602082019050612c196000830184612bf5565b92915050565b600081519050919050565b600082825260208201905092915050565b60005b83811015612c59578082015181840152602081019050612c3e565b60008484015250505050565b6000601f19601f8301169050919050565b6000612c8182612c1f565b612c8b8185612c2a565b9350612c9b818560208601612c3b565b612ca481612c65565b840191505092915050565b60006020820190508181036000830152612cc98184612c76565b905092915050565b6000819050919050565b612ce481612cd1565b8114612cef57600080fd5b50565b600081359050612d0181612cdb565b92915050565b600060208284031215612d1d57612d1c612b5a565b5b6000612d2b84828501612cf2565b91505092915050565b600073ffffffffffffffffffffffffffffffffffffffff82169050919050565b6000612d5f82612d34565b9050919050565b612d6f81612d54565b82525050565b6000602082019050612d8a6000830184612d66565b92915050565b612d9981612d54565b8114612da457600080fd5b50565b600081359050612db681612d90565b92915050565b60008060408385031215612dd357612dd2612b5a565b5b6000612de185828601612da7565b9250506020612df285828601612cf2565b9150509250929050565b600080fd5b600080fd5b7f4e487b7100000000000000000000000000000000000000000000000000000000600052604160045260246000fd5b612e3e82612c65565b810181811067ffffffffffffffff82111715612e5d57612e5c612e06565b5b80604052505050565b6000612e70612b50565b9050612e7c8282612e35565b919050565b600067ffffffffffffffff821115612e9c57612e9b612e06565b5b612ea582612c65565b9050602081019050919050565b82818337600083830152505050565b6000612ed4612ecf84612e81565b612e66565b905082815260208101848484011115612ef057612eef612e01565b5b612efb848285612eb2565b509392505050565b600082601f830112612f1857612f17612dfc565b5b8135612f28848260208601612ec1565b91505092915050565b600060208284031215612f4757612f46612b5a565b5b600082013567ffffffffffffffff811115612f6557612f64612b5f565b5b612f7184828501612f03565b91505092915050565b612f8381612cd1565b82525050565b6000602082019050612f9e6000830184612f7a565b92915050565b600080600060608486031215612fbd57612fbc612b5a565b5b6000612fcb86828701612da7565b9350506020612fdc86828701612da7565b9250506040612fed86828701612cf2565b9150509250925092565b60006020828403121561300d5761300c612b5a565b5b600061301b84828501612da7565b91505092915050565b61302d81612be9565b811461303857600080fd5b50565b60008135905061304a81613024565b92915050565b6000806040838503121561306757613066612b5a565b5b600061307585828601612da7565b92505060206130868582860161303b565b9150509250929050565b600067ffffffffffffffff8211156130ab576130aa612e06565b5b6130b482612c65565b9050602081019050919050565b60006130d46130cf84613090565b612e66565b9050828152602081018484840111156130f0576130ef612e01565b5b6130fb848285612eb2565b509392505050565b600082601f83011261311857613117612dfc565b5b81356131288482602086016130c1565b91505092915050565b6000806000806080858703121561314b5761314a612b5a565b5b600061315987828801612da7565b945050602061316a87828801612da7565b935050604061317b87828801612cf2565b925050606085013567ffffffffffffffff81111561319c5761319b612b5f565b5b6131a887828801613103565b91505092959194509250565b6131bd81612d54565b82525050565b600082825260208201905092915050565b60006131df82612c1f565b6131e981856131c3565b93506131f9818560208601612c3b565b61320281612c65565b840191505092915050565b600060808301600083015161322560008601826131b4565b50602083015161323860208601826131b4565b506040830151848203604086015261325082826131d4565b9150506060830151848203606086015261326a82826131d4565b9150508091505092915050565b60006020820190508181036000830152613291818461320d565b905092915050565b600080604083850312156132b0576132af612b5a565b5b60006132be85828601612da7565b92505060206132cf85828601612da7565b9150509250929050565b600080600080608085870312156132f3576132f2612b5a565b5b600061330187828801612da7565b945050602085013567ffffffffffffffff81111561332257613321612b5f565b5b61332e87828801612f03565b935050604085013567ffffffffffffffff81111561334f5761334e612b5f565b5b61335b87828801612f03565b925050606085013567ffffffffffffffff81111561337c5761337b612b5f565b5b61338887828801612f03565b91505092959194509250565b7f4e487b7100000000000000000000000000000000000000000000000000000000600052602260045260246000fd5b600060028204905060018216806133db57607f821691505b6020821081036133ee576133ed613394565b5b50919050565b7f4552433732313a20617070726f76616c20746f2063757272656e74206f776e6560008201527f7200000000000000000000000000000000000000000000000000000000000000602082015250565b6000613450602183612c2a565b915061345b826133f4565b604082019050919050565b6000602082019050818103600083015261347f81613443565b9050919050565b7f4552433732313a20617070726f76652063616c6c6572206973206e6f7420746f60008201527f6b656e206f776e6572206f7220617070726f76656420666f7220616c6c000000602082015250565b60006134e2603d83612c2a565b91506134ed82613486565b604082019050919050565b60006020820190508181036000830152613511816134d5565b9050919050565b600081905092915050565b600061352e82612c1f565b6135388185613518565b9350613548818560208601612c3b565b80840191505092915050565b60006135608284613523565b915081905092915050565b7f4552433732313a2063616c6c6572206973206e6f7420746f6b656e206f776e6560008201527f72206f7220617070726f76656400000000000000000000000000000000000000602082015250565b60006135c7602d83612c2a565b91506135d28261356b565b604082019050919050565b600060208201905081810360008301526135f6816135ba565b9050919050565b7f455243373231456e756d657261626c653a206f776e657220696e646578206f7560008201527f74206f6620626f756e6473000000000000000000000000000000000000000000602082015250565b6000613659602b83612c2a565b9150613664826135fd565b604082019050919050565b600060208201905081810360008301526136888161364c565b9050919050565b7f4f6e6c7920746865206f776e6572206f66207468697320636f6e74726163742060008201527f63616e20696e6974696174652074686973000000000000000000000000000000602082015250565b60006136eb603183612c2a565b91506136f68261368f565b604082019050919050565b6000602082019050818103600083015261371a816136de565b9050919050565b600081905092915050565b50565b600061373c600083613721565b91506137478261372c565b600082019050919050565b600061375d8261372f565b9150819050919050565b7f4661696c656420746f20776974686472617720616363756d756c61746564206660008201527f6565730000000000000000000000000000000000000000000000000000000000602082015250565b60006137c3602383612c2a565b91506137ce82613767565b604082019050919050565b600060208201905081810360008301526137f2816137b6565b9050919050565b7f455243373231456e756d657261626c653a20676c6f62616c20696e646578206f60008201527f7574206f6620626f756e64730000000000000000000000000000000000000000602082015250565b6000613855602c83612c2a565b9150613860826137f9565b604082019050919050565b6000602082019050818103600083015261388481613848565b9050919050565b7f4e487b7100000000000000000000000000000000000000000000000000000000600052603260045260246000fd5b7f416c726561647920616e2061646d696e206f6620696e737469747574696f6e00600082015250565b60006138f0601f83612c2a565b91506138fb826138ba565b602082019050919050565b6000602082019050818103600083015261391f816138e3565b9050919050565b7f4552433732313a20696e76616c696420746f6b656e2049440000000000000000600082015250565b600061395c601883612c2a565b915061396782613926565b602082019050919050565b6000602082019050818103600083015261398b8161394f565b9050919050565b7f4552433732313a2061646472657373207a65726f206973206e6f74206120766160008201527f6c6964206f776e65720000000000000000000000000000000000000000000000602082015250565b60006139ee602983612c2a565b91506139f982613992565b604082019050919050565b60006020820190508181036000830152613a1d816139e1565b9050919050565b7f496e76616c696420616374696f6e000000000000000000000000000000000000600082015250565b6000613a5a600e83612c2a565b9150613a6582613a24565b602082019050919050565b60006020820190508181036000830152613a8981613a4d565b9050919050565b7f53656e646572206973206e6f7420616e2061646d696e206f6620696e7374697460008201527f7574696f6e000000000000000000000000000000000000000000000000000000602082015250565b6000613aec602583612c2a565b9150613af782613a90565b604082019050919050565b60006020820190508181036000830152613b1b81613adf565b9050919050565b7f5265636569766572206d757374206e6f7420626520616e20696e73746974757460008201527f696f6e0000000000000000000000000000000000000000000000000000000000602082015250565b6000613b7e602383612c2a565b9150613b8982613b22565b604082019050919050565b60006020820190508181036000830152613bad81613b71565b9050919050565b7f446f63756d656e7420616c7265616479206f776e656420627920616e6f74686560008201527f7220616464726573730000000000000000000000000000000000000000000000602082015250565b6000613c10602983612c2a565b9150613c1b82613bb4565b604082019050919050565b60006020820190508181036000830152613c3f81613c03565b9050919050565b7f496e73756666696369656e74207472616e73616374696f6e2066656500000000600082015250565b6000613c7c601c83612c2a565b9150613c8782613c46565b602082019050919050565b60006020820190508181036000830152613cab81613c6f565b9050919050565b60008190508160005260206000209050919050565b60006020601f8301049050919050565b600082821b905092915050565b600060088302613d147fffffffffffffffffffffffffffffffffffffffffffffffffffffffffffffffff82613cd7565b613d1e8683613cd7565b95508019841693508086168417925050509392505050565b6000819050919050565b6000613d5b613d56613d5184612cd1565b613d36565b612cd1565b9050919050565b6000819050919050565b613d7583613d40565b613d89613d8182613d62565b848454613ce4565b825550505050565b600090565b613d9e613d91565b613da9818484613d6c565b505050565b5b81811015613dcd57613dc2600082613d96565b600181019050613daf565b5050565b601f821115613e1257613de381613cb2565b613dec84613cc7565b81016020851015613dfb578190505b613e0f613e0785613cc7565b830182613dae565b50505b505050565b600082821c905092915050565b6000613e3560001984600802613e17565b1980831691505092915050565b6000613e4e8383613e24565b9150826002028217905092915050565b613e6782612c1f565b67ffffffffffffffff811115613e8057613e7f612e06565b5b613e8a82546133c3565b613e95828285613dd1565b600060209050601f831160018114613ec85760008415613eb6578287015190505b613ec08582613e42565b865550613f28565b601f198416613ed686613cb2565b60005b82811015613efe57848901518255600182019150602085019450602081019050613ed9565b86831015613f1b5784890151613f17601f891682613e24565b8355505b6001600288020188555050505b505050505050565b7f416464726573732063616e206e6f742062652030000000000000000000000000600082015250565b6000613f66601483612c2a565b9150613f7182613f30565b602082019050919050565b60006020820190508181036000830152613f9581613f59565b9050919050565b7f4552433732313a207472616e736665722066726f6d20696e636f72726563742060008201527f6f776e6572000000000000000000000000000000000000000000000000000000602082015250565b6000613ff8602583612c2a565b915061400382613f9c565b604082019050919050565b6000602082019050818103600083015261402781613feb565b9050919050565b7f4552433732313a207472616e7366657220746f20746865207a65726f2061646460008201527f7265737300000000000000000000000000000000000000000000000000000000602082015250565b600061408a602483612c2a565b91506140958261402e565b604082019050919050565b600060208201905081810360008301526140b98161407d565b9050919050565b7f4552433732313a20617070726f766520746f2063616c6c657200000000000000600082015250565b60006140f6601983612c2a565b9150614101826140c0565b602082019050919050565b60006020820190508181036000830152614125816140e9565b9050919050565b7f4552433732313a207472616e7366657220746f206e6f6e20455243373231526560008201527f63656976657220696d706c656d656e7465720000000000000000000000000000602082015250565b6000614188603283612c2a565b91506141938261412c565b604082019050919050565b600060208201905081810360008301526141b78161417b565b9050919050565b60006141ca8285613523565b91506141d68284613523565b91508190509392505050565b7f4552433732313a206d696e7420746f20746865207a65726f2061646472657373600082015250565b6000614218602083612c2a565b9150614223826141e2565b602082019050919050565b600060208201905081810360008301526142478161420b565b9050919050565b7f4552433732313a20746f6b656e20616c7265616479206d696e74656400000000600082015250565b6000614284601c83612c2a565b915061428f8261424e565b602082019050919050565b600060208201905081810360008301526142b381614277565b9050919050565b7f45524337323155524953746f726167653a2055524920736574206f66206e6f6e60008201527f6578697374656e7420746f6b656e000000000000000000000000000000000000602082015250565b6000614316602e83612c2a565b9150614321826142ba565b604082019050919050565b6000602082019050818103600083015261434581614309565b9050919050565b600081519050919050565b600082825260208201905092915050565b60006143738261434c565b61437d8185614357565b935061438d818560208601612c3b565b61439681612c65565b840191505092915050565b60006080820190506143b66000830187612d66565b6143c36020830186612d66565b6143d06040830185612f7a565b81810360608301526143e28184614368565b905095945050505050565b6000815190506143fc81612b90565b92915050565b60006020828403121561441857614417612b5a565b5b6000614426848285016143ed565b91505092915050565b7f455243373231456e756d657261626c653a20636f6e736563757469766520747260008201527f616e7366657273206e6f7420737570706f727465640000000000000000000000602082015250565b600061448b603583612c2a565b91506144968261442f565b604082019050919050565b600060208201905081810360008301526144ba8161447e565b9050919050565b7f4e487b7100000000000000000000000000000000000000000000000000000000600052601260045260246000fd5b7f4e487b7100000000000000000000000000000000000000000000000000000000600052601160045260246000fd5b600061452a82612cd1565b915061453583612cd1565b925082820390508181111561454d5761454c6144f0565b5b92915050565b7f4e487b7100000000000000000000000000000000000000000000000000000000600052603160045260246000fdfea26469706673582212208892f5bc1e8e95f631bd6ba5526c0b5ef1ce1e653aef6bc5d17ad7de9bfb33bf64736f6c63430008130033",
  "immutableReferences": {},
  "source": "// SPDX-License-Identifier: MIT\r\npragma solidity 0.8.19;\r\n\r\nimport \"@openzeppelin/contracts/token/ERC721/ERC721.sol\";\r\nimport \"@openzeppelin/contracts/token/ERC721/extensions/ERC721Enumerable.sol\";\r\nimport \"@openzeppelin/contracts/token/ERC721/extensions/ERC721URIStorage.sol\";\r\nimport \"@openzeppelin/contracts/utils/Counters.sol\";\r\n\r\ncontract DocumentNFT is ERC721, ERC721Enumerable, ERC721URIStorage\r\n{\r\n    using Counters for Counters.Counter;\r\n\tCounters.Counter documentIds;\r\n\r\n    address owner;\r\n\r\n\tstruct Document\r\n\t{\r\n\t\taddress owner;\r\n\t\taddress issuer;\r\n\t\tstring _type;\r\n        string docId;\r\n\t}\r\n\r\n\tmapping(uint256 => Document) documents;\r\n\tmapping(address => bool) institutions;\r\n    mapping(string => bool) uris;\r\n\r\n\tconstructor() ERC721(\"DocumentNFT\", \"DOC\") {\r\n        owner = msg.sender;\r\n    }\r\n\r\n    function withdraw() public {\r\n        require(msg.sender == owner, \"Only the owner of this contract can initiate this\");\r\n\r\n        (bool success, ) = payable(owner).call{value: address(this).balance}(\"\");\r\n        require(success, \"Failed to withdraw accumulated fees\");\r\n    }\r\n\r\n\t// Handles the minting and transferring of the document to its owner\r\n\tfunction sendDocument(\r\n\t\taddress receiver,\r\n\t\tstring memory type_,\r\n\t\tstring memory uri,\r\n        string memory docId\r\n\t) public payable\r\n\t{\r\n\t\t// Check if sender is admin of institution\r\n        require(msg.sender != owner, \"Invalid action\");\r\n\t\trequire(institutions[msg.sender], \"Sender is not an admin of institution\");\r\n        require(!institutions[receiver], \"Receiver must not be an institution\");\r\n        require(!uris[uri], \"Document already owned by another address\");\r\n        require(msg.value >= 3333333333 gwei, \"Insufficient transaction fee\");\r\n\r\n\t\t// Generate a unique, new documentd id\r\n\t\tuint256 newDocumentId = documentIds.current();\r\n\r\n\t\t// Create a Document instance and store it to the documents mapping\r\n\t\tdocuments[newDocumentId] = Document(receiver, msg.sender, type_, docId);\r\n\r\n        // Mint\r\n\t\t_mint(msg.sender, newDocumentId);\r\n\r\n        // Save token URI\r\n        _setTokenURI(newDocumentId, uri);\r\n\r\n        // Transfer\r\n\t\t_transfer(msg.sender, receiver, newDocumentId);\r\n\r\n        // Add uri to uris\r\n\t\turis[uri] = true;\r\n\r\n\t\tdocumentIds.increment();\r\n\t}\r\n\r\n\t// Returns the metadata of a document\r\n\tfunction getDocumentData(uint256 documentId) public view returns(Document memory)\r\n\t{\r\n\t\treturn documents[documentId];\r\n\t}\r\n\r\n\t/* Institution-handlers */\r\n\r\n    // Add sender to the institutions mapping\r\n\tfunction registerInstitution() public\r\n\t{\r\n\t\trequire(!institutions[msg.sender], \"Already an admin of institution\");\r\n\t\t\r\n\t\tinstitutions[msg.sender] = true;\r\n\t}\r\n\r\n    // Check if sender is institution\r\n    function checkInstitution(address sender) public view returns(bool)\r\n\t{\r\n        require(sender != address(0), \"Address can not be 0\");\r\n\r\n\t\treturn institutions[sender];\r\n\t}\r\n\r\n\t/* URI Handler */\r\n\r\n\tfunction checkUri(string memory uri) public view returns(bool)\r\n\t{\r\n\t\treturn uris[uri];\r\n\t}\r\n\r\n    /* Overrides - MUST BE INCLUDED */\r\n    \r\n\tfunction _beforeTokenTransfer(address from, address to, uint256 batchSize, uint256 tokenId) internal override(ERC721, ERC721Enumerable)\r\n\t{\r\n\t\tsuper._beforeTokenTransfer(from, to, batchSize, tokenId);\r\n\t}\r\n\r\n\tfunction supportsInterface(bytes4 interfaceId) public view override(ERC721, ERC721URIStorage, ERC721Enumerable) returns(bool)\r\n\t{\r\n\t\treturn super.supportsInterface(interfaceId);\r\n\t}\r\n\r\n    function _burn(uint256 tokenId) internal override(ERC721, ERC721URIStorage)\r\n\t{\r\n        super._burn(tokenId);\r\n    }\r\n\r\n\tfunction tokenURI(uint256 tokenId) public view override(ERC721, ERC721URIStorage) returns (string memory)\r\n    {\r\n        return super.tokenURI(tokenId);\r\n    }\r\n}",
  "sourcePath": "C:\\Users\\Llagas\\Documents\\GitHub\\iCertify\\api\\contracts\\DocumentNFT.sol",
  "compiler": {
    "name": "solc",
    "version": "0.8.19+commit.7dd6d404.Emscripten.clang"
  },
  "schemaVersion": "3.4.14",
  "updatedAt": "2023-06-21T13:05:22.157Z",
  "devdoc": {
    "events": {
      "Approval(address,address,uint256)": {
        "details": "Emitted when `owner` enables `approved` to manage the `tokenId` token."
      },
      "ApprovalForAll(address,address,bool)": {
        "details": "Emitted when `owner` enables or disables (`approved`) `operator` to manage all of its assets."
      },
      "BatchMetadataUpdate(uint256,uint256)": {
        "details": "This event emits when the metadata of a range of tokens is changed. So that the third-party platforms such as NFT market could timely update the images and related attributes of the NFTs."
      },
      "MetadataUpdate(uint256)": {
        "details": "This event emits when the metadata of a token is changed. So that the third-party platforms such as NFT market could timely update the images and related attributes of the NFT."
      },
      "Transfer(address,address,uint256)": {
        "details": "Emitted when `tokenId` token is transferred from `from` to `to`."
      }
    },
    "kind": "dev",
    "methods": {
      "approve(address,uint256)": {
        "details": "See {IERC721-approve}."
      },
      "balanceOf(address)": {
        "details": "See {IERC721-balanceOf}."
      },
      "getApproved(uint256)": {
        "details": "See {IERC721-getApproved}."
      },
      "isApprovedForAll(address,address)": {
        "details": "See {IERC721-isApprovedForAll}."
      },
      "name()": {
        "details": "See {IERC721Metadata-name}."
      },
      "ownerOf(uint256)": {
        "details": "See {IERC721-ownerOf}."
      },
      "safeTransferFrom(address,address,uint256)": {
        "details": "See {IERC721-safeTransferFrom}."
      },
      "safeTransferFrom(address,address,uint256,bytes)": {
        "details": "See {IERC721-safeTransferFrom}."
      },
      "setApprovalForAll(address,bool)": {
        "details": "See {IERC721-setApprovalForAll}."
      },
      "symbol()": {
        "details": "See {IERC721Metadata-symbol}."
      },
      "tokenByIndex(uint256)": {
        "details": "See {IERC721Enumerable-tokenByIndex}."
      },
      "tokenOfOwnerByIndex(address,uint256)": {
        "details": "See {IERC721Enumerable-tokenOfOwnerByIndex}."
      },
      "totalSupply()": {
        "details": "See {IERC721Enumerable-totalSupply}."
      },
      "transferFrom(address,address,uint256)": {
        "details": "See {IERC721-transferFrom}."
      }
    },
    "version": 1
  },
  "userdoc": {
    "kind": "user",
    "methods": {},
    "version": 1
  }
}