{
  "contractName": "DocumentNFT",
  "abi": [
    {
      "inputs": [],
      "stateMutability": "nonpayable",
      "type": "constructor"
    },
    {
      "anonymous": false,
      "inputs": [
        {
          "indexed": true,
          "internalType": "address",
          "name": "owner",
          "type": "address"
        },
        {
          "indexed": true,
          "internalType": "address",
          "name": "approved",
          "type": "address"
        },
        {
          "indexed": true,
          "internalType": "uint256",
          "name": "tokenId",
          "type": "uint256"
        }
      ],
      "name": "Approval",
      "type": "event"
    },
    {
      "anonymous": false,
      "inputs": [
        {
          "indexed": true,
          "internalType": "address",
          "name": "owner",
          "type": "address"
        },
        {
          "indexed": true,
          "internalType": "address",
          "name": "operator",
          "type": "address"
        },
        {
          "indexed": false,
          "internalType": "bool",
          "name": "approved",
          "type": "bool"
        }
      ],
      "name": "ApprovalForAll",
      "type": "event"
    },
    {
      "anonymous": false,
      "inputs": [
        {
          "indexed": true,
          "internalType": "address",
          "name": "from",
          "type": "address"
        },
        {
          "indexed": true,
          "internalType": "address",
          "name": "to",
          "type": "address"
        },
        {
          "indexed": true,
          "internalType": "uint256",
          "name": "tokenId",
          "type": "uint256"
        }
      ],
      "name": "Transfer",
      "type": "event"
    },
    {
      "inputs": [
        {
          "internalType": "address",
          "name": "to",
          "type": "address"
        },
        {
          "internalType": "uint256",
          "name": "tokenId",
          "type": "uint256"
        }
      ],
      "name": "approve",
      "outputs": [],
      "stateMutability": "nonpayable",
      "type": "function"
    },
    {
      "inputs": [
        {
          "internalType": "address",
          "name": "owner",
          "type": "address"
        }
      ],
      "name": "balanceOf",
      "outputs": [
        {
          "internalType": "uint256",
          "name": "",
          "type": "uint256"
        }
      ],
      "stateMutability": "view",
      "type": "function",
      "constant": true
    },
    {
      "inputs": [
        {
          "internalType": "uint256",
          "name": "tokenId",
          "type": "uint256"
        }
      ],
      "name": "getApproved",
      "outputs": [
        {
          "internalType": "address",
          "name": "",
          "type": "address"
        }
      ],
      "stateMutability": "view",
      "type": "function",
      "constant": true
    },
    {
      "inputs": [
        {
          "internalType": "address",
          "name": "owner",
          "type": "address"
        },
        {
          "internalType": "address",
          "name": "operator",
          "type": "address"
        }
      ],
      "name": "isApprovedForAll",
      "outputs": [
        {
          "internalType": "bool",
          "name": "",
          "type": "bool"
        }
      ],
      "stateMutability": "view",
      "type": "function",
      "constant": true
    },
    {
      "inputs": [],
      "name": "name",
      "outputs": [
        {
          "internalType": "string",
          "name": "",
          "type": "string"
        }
      ],
      "stateMutability": "view",
      "type": "function",
      "constant": true
    },
    {
      "inputs": [
        {
          "internalType": "uint256",
          "name": "tokenId",
          "type": "uint256"
        }
      ],
      "name": "ownerOf",
      "outputs": [
        {
          "internalType": "address",
          "name": "",
          "type": "address"
        }
      ],
      "stateMutability": "view",
      "type": "function",
      "constant": true
    },
    {
      "inputs": [
        {
          "internalType": "address",
          "name": "from",
          "type": "address"
        },
        {
          "internalType": "address",
          "name": "to",
          "type": "address"
        },
        {
          "internalType": "uint256",
          "name": "tokenId",
          "type": "uint256"
        }
      ],
      "name": "safeTransferFrom",
      "outputs": [],
      "stateMutability": "nonpayable",
      "type": "function"
    },
    {
      "inputs": [
        {
          "internalType": "address",
          "name": "from",
          "type": "address"
        },
        {
          "internalType": "address",
          "name": "to",
          "type": "address"
        },
        {
          "internalType": "uint256",
          "name": "tokenId",
          "type": "uint256"
        },
        {
          "internalType": "bytes",
          "name": "data",
          "type": "bytes"
        }
      ],
      "name": "safeTransferFrom",
      "outputs": [],
      "stateMutability": "nonpayable",
      "type": "function"
    },
    {
      "inputs": [
        {
          "internalType": "address",
          "name": "operator",
          "type": "address"
        },
        {
          "internalType": "bool",
          "name": "approved",
          "type": "bool"
        }
      ],
      "name": "setApprovalForAll",
      "outputs": [],
      "stateMutability": "nonpayable",
      "type": "function"
    },
    {
      "inputs": [],
      "name": "symbol",
      "outputs": [
        {
          "internalType": "string",
          "name": "",
          "type": "string"
        }
      ],
      "stateMutability": "view",
      "type": "function",
      "constant": true
    },
    {
      "inputs": [
        {
          "internalType": "uint256",
          "name": "index",
          "type": "uint256"
        }
      ],
      "name": "tokenByIndex",
      "outputs": [
        {
          "internalType": "uint256",
          "name": "",
          "type": "uint256"
        }
      ],
      "stateMutability": "view",
      "type": "function",
      "constant": true
    },
    {
      "inputs": [
        {
          "internalType": "address",
          "name": "owner",
          "type": "address"
        },
        {
          "internalType": "uint256",
          "name": "index",
          "type": "uint256"
        }
      ],
      "name": "tokenOfOwnerByIndex",
      "outputs": [
        {
          "internalType": "uint256",
          "name": "",
          "type": "uint256"
        }
      ],
      "stateMutability": "view",
      "type": "function",
      "constant": true
    },
    {
      "inputs": [],
      "name": "totalSupply",
      "outputs": [
        {
          "internalType": "uint256",
          "name": "",
          "type": "uint256"
        }
      ],
      "stateMutability": "view",
      "type": "function",
      "constant": true
    },
    {
      "inputs": [
        {
          "internalType": "address",
          "name": "from",
          "type": "address"
        },
        {
          "internalType": "address",
          "name": "to",
          "type": "address"
        },
        {
          "internalType": "uint256",
          "name": "tokenId",
          "type": "uint256"
        }
      ],
      "name": "transferFrom",
      "outputs": [],
      "stateMutability": "nonpayable",
      "type": "function"
    },
    {
      "inputs": [
        {
          "internalType": "address",
          "name": "receiver",
          "type": "address"
        },
        {
          "internalType": "string",
          "name": "type_",
          "type": "string"
        },
        {
          "internalType": "string",
          "name": "uri",
          "type": "string"
        },
        {
          "internalType": "string",
          "name": "docId",
          "type": "string"
        }
      ],
      "name": "sendDocument",
      "outputs": [],
      "stateMutability": "nonpayable",
      "type": "function"
    },
    {
      "inputs": [
        {
          "internalType": "uint256",
          "name": "documentId",
          "type": "uint256"
        }
      ],
      "name": "getDocumentData",
      "outputs": [
        {
          "components": [
            {
              "internalType": "address",
              "name": "owner",
              "type": "address"
            },
            {
              "internalType": "address",
              "name": "issuer",
              "type": "address"
            },
            {
              "internalType": "string",
              "name": "_type",
              "type": "string"
            },
            {
              "internalType": "string",
              "name": "docId",
              "type": "string"
            }
          ],
          "internalType": "struct DocumentNFT.Document",
          "name": "",
          "type": "tuple"
        }
      ],
      "stateMutability": "view",
      "type": "function",
      "constant": true
    },
    {
      "inputs": [],
      "name": "registerInstitution",
      "outputs": [],
      "stateMutability": "nonpayable",
      "type": "function"
    },
    {
      "inputs": [
        {
          "internalType": "address",
          "name": "sender",
          "type": "address"
        }
      ],
      "name": "checkInstitution",
      "outputs": [
        {
          "internalType": "bool",
          "name": "",
          "type": "bool"
        }
      ],
      "stateMutability": "view",
      "type": "function",
      "constant": true
    },
    {
      "inputs": [
        {
          "internalType": "string",
          "name": "uri",
          "type": "string"
        }
      ],
      "name": "checkUri",
      "outputs": [
        {
          "internalType": "bool",
          "name": "",
          "type": "bool"
        }
      ],
      "stateMutability": "view",
      "type": "function",
      "constant": true
    },
    {
      "inputs": [
        {
          "internalType": "bytes4",
          "name": "interfaceId",
          "type": "bytes4"
        }
      ],
      "name": "supportsInterface",
      "outputs": [
        {
          "internalType": "bool",
          "name": "",
          "type": "bool"
        }
      ],
      "stateMutability": "view",
      "type": "function",
      "constant": true
    },
    {
      "inputs": [
        {
          "internalType": "uint256",
          "name": "tokenId",
          "type": "uint256"
        }
      ],
      "name": "tokenURI",
      "outputs": [
        {
          "internalType": "string",
          "name": "",
          "type": "string"
        }
      ],
      "stateMutability": "view",
      "type": "function",
      "constant": true
    }
  ],
  "bytecode": "0x60806040523480156200001157600080fd5b506040518060400160405280600b81526020017f446f63756d656e744e46540000000000000000000000000000000000000000008152506040518060400160405280600381526020017f444f430000000000000000000000000000000000000000000000000000000000815250816000908051906020019062000096929190620000b8565b508060019080519060200190620000af929190620000b8565b505050620001cc565b828054620000c69062000197565b90600052602060002090601f016020900481019282620000ea576000855562000136565b82601f106200010557805160ff191683800117855562000136565b8280016001018555821562000136579182015b828111156200013557825182559160200191906001019062000118565b5b50905062000145919062000149565b5090565b5b80821115620001645760008160009055506001016200014a565b5090565b7f4e487b7100000000000000000000000000000000000000000000000000000000600052602260045260246000fd5b60006002820490506001821680620001b057607f821691505b602082108103620001c657620001c562000168565b5b50919050565b613e2380620001dc6000396000f3fe608060405234801561001057600080fd5b50600436106101375760003560e01c806361853764116100b8578063b88d4fde1161007c578063b88d4fde14610360578063c87b56dd1461037c578063d105cdde146103ac578063e985e9c5146103dc578063fa6d6f8e1461040c578063fb2060851461042857610137565b806361853764146102bc5780636352211e146102c657806370a08231146102f657806395d89b4114610326578063a22cb4651461034457610137565b806318160ddd116100ff57806318160ddd1461020657806323b872dd146102245780632f745c591461024057806342842e0e146102705780634f6ccce71461028c57610137565b806301ffc9a71461013c57806306fdde031461016c578063081812fc1461018a578063095ea7b3146101ba57806309e4f2f0146101d6575b600080fd5b6101566004803603810190610151919061291a565b610458565b6040516101639190612962565b60405180910390f35b61017461046a565b6040516101819190612a16565b60405180910390f35b6101a4600480360381019061019f9190612a6e565b6104fc565b6040516101b19190612adc565b60405180910390f35b6101d460048036038101906101cf9190612b23565b610542565b005b6101f060048036038101906101eb9190612c98565b610659565b6040516101fd9190612962565b60405180910390f35b61020e61068e565b60405161021b9190612cf0565b60405180910390f35b61023e60048036038101906102399190612d0b565b61069b565b005b61025a60048036038101906102559190612b23565b6106fb565b6040516102679190612cf0565b60405180910390f35b61028a60048036038101906102859190612d0b565b6107a0565b005b6102a660048036038101906102a19190612a6e565b6107c0565b6040516102b39190612cf0565b60405180910390f35b6102c4610831565b005b6102e060048036038101906102db9190612a6e565b610918565b6040516102ed9190612adc565b60405180910390f35b610310600480360381019061030b9190612d5e565b61099e565b60405161031d9190612cf0565b60405180910390f35b61032e610a55565b60405161033b9190612a16565b60405180910390f35b61035e60048036038101906103599190612db7565b610ae7565b005b61037a60048036038101906103759190612e98565b610afd565b005b61039660048036038101906103919190612a6e565b610b5f565b6040516103a39190612a16565b60405180910390f35b6103c660048036038101906103c19190612a6e565b610b71565b6040516103d39190612fde565b60405180910390f35b6103f660048036038101906103f19190613000565b610d6e565b6040516104039190612962565b60405180910390f35b61042660048036038101906104219190613040565b610e02565b005b610442600480360381019061043d9190612d5e565b61109a565b60405161044f9190612962565b60405180910390f35b60006104638261115e565b9050919050565b6060600080546104799061312a565b80601f01602080910402602001604051908101604052809291908181526020018280546104a59061312a565b80156104f25780601f106104c7576101008083540402835291602001916104f2565b820191906000526020600020905b8154815290600101906020018083116104d557829003601f168201915b5050505050905090565b6000610507826111d8565b6004600083815260200190815260200160002060009054906101000a900473ffffffffffffffffffffffffffffffffffffffff169050919050565b600061054d82610918565b90508073ffffffffffffffffffffffffffffffffffffffff168373ffffffffffffffffffffffffffffffffffffffff16036105bd576040517f08c379a00000000000000000000000000000000000000000000000000000000081526004016105b4906131cd565b60405180910390fd5b8073ffffffffffffffffffffffffffffffffffffffff166105dc611223565b73ffffffffffffffffffffffffffffffffffffffff16148061060b575061060a81610605611223565b610d6e565b5b61064a576040517f08c379a00000000000000000000000000000000000000000000000000000000081526004016106419061325f565b60405180910390fd5b610654838361122b565b505050565b6000600e8260405161066b91906132bb565b908152602001604051809103902060009054906101000a900460ff169050919050565b6000600880549050905090565b6106ac6106a6611223565b826112e4565b6106eb576040517f08c379a00000000000000000000000000000000000000000000000000000000081526004016106e290613344565b60405180910390fd5b6106f6838383611379565b505050565b60006107068361099e565b8210610747576040517f08c379a000000000000000000000000000000000000000000000000000000000815260040161073e906133d6565b60405180910390fd5b600660008473ffffffffffffffffffffffffffffffffffffffff1673ffffffffffffffffffffffffffffffffffffffff168152602001908152602001600020600083815260200190815260200160002054905092915050565b6107bb83838360405180602001604052806000815250610afd565b505050565b60006107ca61068e565b821061080b576040517f08c379a000000000000000000000000000000000000000000000000000000000815260040161080290613468565b60405180910390fd5b6008828154811061081f5761081e613488565b5b90600052602060002001549050919050565b600d60003373ffffffffffffffffffffffffffffffffffffffff1673ffffffffffffffffffffffffffffffffffffffff16815260200190815260200160002060009054906101000a900460ff16156108be576040517f08c379a00000000000000000000000000000000000000000000000000000000081526004016108b590613503565b60405180910390fd5b6001600d60003373ffffffffffffffffffffffffffffffffffffffff1673ffffffffffffffffffffffffffffffffffffffff16815260200190815260200160002060006101000a81548160ff021916908315150217905550565b60008061092483611672565b9050600073ffffffffffffffffffffffffffffffffffffffff168173ffffffffffffffffffffffffffffffffffffffff1603610995576040517f08c379a000000000000000000000000000000000000000000000000000000000815260040161098c9061356f565b60405180910390fd5b80915050919050565b60008073ffffffffffffffffffffffffffffffffffffffff168273ffffffffffffffffffffffffffffffffffffffff1603610a0e576040517f08c379a0000000000000000000000000000000000000000000000000000000008152600401610a0590613601565b60405180910390fd5b600360008373ffffffffffffffffffffffffffffffffffffffff1673ffffffffffffffffffffffffffffffffffffffff168152602001908152602001600020549050919050565b606060018054610a649061312a565b80601f0160208091040260200160405190810160405280929190818152602001828054610a909061312a565b8015610add5780601f10610ab257610100808354040283529160200191610add565b820191906000526020600020905b815481529060010190602001808311610ac057829003601f168201915b5050505050905090565b610af9610af2611223565b83836116af565b5050565b610b0e610b08611223565b836112e4565b610b4d576040517f08c379a0000000000000000000000000000000000000000000000000000000008152600401610b4490613344565b60405180910390fd5b610b598484848461181b565b50505050565b6060610b6a82611877565b9050919050565b610b796127b7565b600c60008381526020019081526020016000206040518060800160405290816000820160009054906101000a900473ffffffffffffffffffffffffffffffffffffffff1673ffffffffffffffffffffffffffffffffffffffff1673ffffffffffffffffffffffffffffffffffffffff1681526020016001820160009054906101000a900473ffffffffffffffffffffffffffffffffffffffff1673ffffffffffffffffffffffffffffffffffffffff1673ffffffffffffffffffffffffffffffffffffffff168152602001600282018054610c539061312a565b80601f0160208091040260200160405190810160405280929190818152602001828054610c7f9061312a565b8015610ccc5780601f10610ca157610100808354040283529160200191610ccc565b820191906000526020600020905b815481529060010190602001808311610caf57829003601f168201915b50505050508152602001600382018054610ce59061312a565b80601f0160208091040260200160405190810160405280929190818152602001828054610d119061312a565b8015610d5e5780601f10610d3357610100808354040283529160200191610d5e565b820191906000526020600020905b815481529060010190602001808311610d4157829003601f168201915b5050505050815250509050919050565b6000600560008473ffffffffffffffffffffffffffffffffffffffff1673ffffffffffffffffffffffffffffffffffffffff16815260200190815260200160002060008373ffffffffffffffffffffffffffffffffffffffff1673ffffffffffffffffffffffffffffffffffffffff16815260200190815260200160002060009054906101000a900460ff16905092915050565b600d60003373ffffffffffffffffffffffffffffffffffffffff1673ffffffffffffffffffffffffffffffffffffffff16815260200190815260200160002060009054906101000a900460ff16610e8e576040517f08c379a0000000000000000000000000000000000000000000000000000000008152600401610e8590613693565b60405180910390fd5b600e82604051610e9e91906132bb565b908152602001604051809103902060009054906101000a900460ff1615610efa576040517f08c379a0000000000000000000000000000000000000000000000000000000008152600401610ef190613725565b60405180910390fd5b6000610f06600b611989565b905060405180608001604052808673ffffffffffffffffffffffffffffffffffffffff1681526020013373ffffffffffffffffffffffffffffffffffffffff16815260200185815260200183815250600c600083815260200190815260200160002060008201518160000160006101000a81548173ffffffffffffffffffffffffffffffffffffffff021916908373ffffffffffffffffffffffffffffffffffffffff16021790555060208201518160010160006101000a81548173ffffffffffffffffffffffffffffffffffffffff021916908373ffffffffffffffffffffffffffffffffffffffff160217905550604082015181600201908051906020019061101292919061280b565b50606082015181600301908051906020019061102f92919061280b565b5090505061103d3382611997565b6110478184611bb4565b611052338683611379565b6001600e8460405161106491906132bb565b908152602001604051809103902060006101000a81548160ff021916908315150217905550611093600b611c28565b5050505050565b60008073ffffffffffffffffffffffffffffffffffffffff168273ffffffffffffffffffffffffffffffffffffffff160361110a576040517f08c379a000000000000000000000000000000000000000000000000000000000815260040161110190613791565b60405180910390fd5b600d60008373ffffffffffffffffffffffffffffffffffffffff1673ffffffffffffffffffffffffffffffffffffffff16815260200190815260200160002060009054906101000a900460ff169050919050565b60007f780e9d63000000000000000000000000000000000000000000000000000000007bffffffffffffffffffffffffffffffffffffffffffffffffffffffff1916827bffffffffffffffffffffffffffffffffffffffffffffffffffffffff191614806111d157506111d082611c3e565b5b9050919050565b6111e181611d20565b611220576040517f08c379a00000000000000000000000000000000000000000000000000000000081526004016112179061356f565b60405180910390fd5b50565b600033905090565b816004600083815260200190815260200160002060006101000a81548173ffffffffffffffffffffffffffffffffffffffff021916908373ffffffffffffffffffffffffffffffffffffffff160217905550808273ffffffffffffffffffffffffffffffffffffffff1661129e83610918565b73ffffffffffffffffffffffffffffffffffffffff167f8c5be1e5ebec7d5bd14f71427d1e84f3dd0314c0f7b2291e5b200ac8c7c3b92560405160405180910390a45050565b6000806112f083610918565b90508073ffffffffffffffffffffffffffffffffffffffff168473ffffffffffffffffffffffffffffffffffffffff16148061133257506113318185610d6e565b5b8061137057508373ffffffffffffffffffffffffffffffffffffffff16611358846104fc565b73ffffffffffffffffffffffffffffffffffffffff16145b91505092915050565b8273ffffffffffffffffffffffffffffffffffffffff1661139982610918565b73ffffffffffffffffffffffffffffffffffffffff16146113ef576040517f08c379a00000000000000000000000000000000000000000000000000000000081526004016113e690613823565b60405180910390fd5b600073ffffffffffffffffffffffffffffffffffffffff168273ffffffffffffffffffffffffffffffffffffffff160361145e576040517f08c379a0000000000000000000000000000000000000000000000000000000008152600401611455906138b5565b60405180910390fd5b61146b8383836001611d61565b8273ffffffffffffffffffffffffffffffffffffffff1661148b82610918565b73ffffffffffffffffffffffffffffffffffffffff16146114e1576040517f08c379a00000000000000000000000000000000000000000000000000000000081526004016114d890613823565b60405180910390fd5b6004600082815260200190815260200160002060006101000a81549073ffffffffffffffffffffffffffffffffffffffff02191690556001600360008573ffffffffffffffffffffffffffffffffffffffff1673ffffffffffffffffffffffffffffffffffffffff168152602001908152602001600020600082825403925050819055506001600360008473ffffffffffffffffffffffffffffffffffffffff1673ffffffffffffffffffffffffffffffffffffffff16815260200190815260200160002060008282540192505081905550816002600083815260200190815260200160002060006101000a81548173ffffffffffffffffffffffffffffffffffffffff021916908373ffffffffffffffffffffffffffffffffffffffff160217905550808273ffffffffffffffffffffffffffffffffffffffff168473ffffffffffffffffffffffffffffffffffffffff167fddf252ad1be2c89b69c2b068fc378daa952ba7f163c4a11628f55a4df523b3ef60405160405180910390a461166d8383836001611d73565b505050565b60006002600083815260200190815260200160002060009054906101000a900473ffffffffffffffffffffffffffffffffffffffff169050919050565b8173ffffffffffffffffffffffffffffffffffffffff168373ffffffffffffffffffffffffffffffffffffffff160361171d576040517f08c379a000000000000000000000000000000000000000000000000000000000815260040161171490613921565b60405180910390fd5b80600560008573ffffffffffffffffffffffffffffffffffffffff1673ffffffffffffffffffffffffffffffffffffffff16815260200190815260200160002060008473ffffffffffffffffffffffffffffffffffffffff1673ffffffffffffffffffffffffffffffffffffffff16815260200190815260200160002060006101000a81548160ff0219169083151502179055508173ffffffffffffffffffffffffffffffffffffffff168373ffffffffffffffffffffffffffffffffffffffff167f17307eab39ab6107e8899845ad3d59bd9653f200f220920489ca2b5937696c318360405161180e9190612962565b60405180910390a3505050565b611826848484611379565b61183284848484611d79565b611871576040517f08c379a0000000000000000000000000000000000000000000000000000000008152600401611868906139b3565b60405180910390fd5b50505050565b6060611882826111d8565b6000600a600084815260200190815260200160002080546118a29061312a565b80601f01602080910402602001604051908101604052809291908181526020018280546118ce9061312a565b801561191b5780601f106118f05761010080835404028352916020019161191b565b820191906000526020600020905b8154815290600101906020018083116118fe57829003601f168201915b50505050509050600061192c611f00565b90506000815103611941578192505050611984565b60008251111561197657808260405160200161195e9291906139d3565b60405160208183030381529060405292505050611984565b61197f84611f17565b925050505b919050565b600081600001549050919050565b600073ffffffffffffffffffffffffffffffffffffffff168273ffffffffffffffffffffffffffffffffffffffff1603611a06576040517f08c379a00000000000000000000000000000000000000000000000000000000081526004016119fd90613a43565b60405180910390fd5b611a0f81611d20565b15611a4f576040517f08c379a0000000000000000000000000000000000000000000000000000000008152600401611a4690613aaf565b60405180910390fd5b611a5d600083836001611d61565b611a6681611d20565b15611aa6576040517f08c379a0000000000000000000000000000000000000000000000000000000008152600401611a9d90613aaf565b60405180910390fd5b6001600360008473ffffffffffffffffffffffffffffffffffffffff1673ffffffffffffffffffffffffffffffffffffffff16815260200190815260200160002060008282540192505081905550816002600083815260200190815260200160002060006101000a81548173ffffffffffffffffffffffffffffffffffffffff021916908373ffffffffffffffffffffffffffffffffffffffff160217905550808273ffffffffffffffffffffffffffffffffffffffff16600073ffffffffffffffffffffffffffffffffffffffff167fddf252ad1be2c89b69c2b068fc378daa952ba7f163c4a11628f55a4df523b3ef60405160405180910390a4611bb0600083836001611d73565b5050565b611bbd82611d20565b611bfc576040517f08c379a0000000000000000000000000000000000000000000000000000000008152600401611bf390613b41565b60405180910390fd5b80600a60008481526020019081526020016000209080519060200190611c2392919061280b565b505050565b6001816000016000828254019250508190555050565b60007f80ac58cd000000000000000000000000000000000000000000000000000000007bffffffffffffffffffffffffffffffffffffffffffffffffffffffff1916827bffffffffffffffffffffffffffffffffffffffffffffffffffffffff19161480611d0957507f5b5e139f000000000000000000000000000000000000000000000000000000007bffffffffffffffffffffffffffffffffffffffffffffffffffffffff1916827bffffffffffffffffffffffffffffffffffffffffffffffffffffffff1916145b80611d195750611d1882611f7f565b5b9050919050565b60008073ffffffffffffffffffffffffffffffffffffffff16611d4283611672565b73ffffffffffffffffffffffffffffffffffffffff1614159050919050565b611d6d84848484611fe9565b50505050565b50505050565b6000611d9a8473ffffffffffffffffffffffffffffffffffffffff16612147565b15611ef3578373ffffffffffffffffffffffffffffffffffffffff1663150b7a02611dc3611223565b8786866040518563ffffffff1660e01b8152600401611de59493929190613bb6565b6020604051808303816000875af1925050508015611e2157506040513d601f19601f82011682018060405250810190611e1e9190613c17565b60015b611ea3573d8060008114611e51576040519150601f19603f3d011682016040523d82523d6000602084013e611e56565b606091505b506000815103611e9b576040517f08c379a0000000000000000000000000000000000000000000000000000000008152600401611e92906139b3565b60405180910390fd5b805181602001fd5b63150b7a0260e01b7bffffffffffffffffffffffffffffffffffffffffffffffffffffffff1916817bffffffffffffffffffffffffffffffffffffffffffffffffffffffff191614915050611ef8565b600190505b949350505050565b606060405180602001604052806000815250905090565b6060611f22826111d8565b6000611f2c611f00565b90506000815111611f4c5760405180602001604052806000815250611f77565b80611f568461216a565b604051602001611f679291906139d3565b6040516020818303038152906040525b915050919050565b60007f01ffc9a7000000000000000000000000000000000000000000000000000000007bffffffffffffffffffffffffffffffffffffffffffffffffffffffff1916827bffffffffffffffffffffffffffffffffffffffffffffffffffffffff1916149050919050565b611ff584848484612238565b6001811115612039576040517f08c379a000000000000000000000000000000000000000000000000000000000815260040161203090613cb6565b60405180910390fd5b6000829050600073ffffffffffffffffffffffffffffffffffffffff168573ffffffffffffffffffffffffffffffffffffffff16036120805761207b8161235e565b6120bf565b8373ffffffffffffffffffffffffffffffffffffffff168573ffffffffffffffffffffffffffffffffffffffff16146120be576120bd85826123a7565b5b5b600073ffffffffffffffffffffffffffffffffffffffff168473ffffffffffffffffffffffffffffffffffffffff1603612101576120fc81612514565b612140565b8473ffffffffffffffffffffffffffffffffffffffff168473ffffffffffffffffffffffffffffffffffffffff161461213f5761213e84826125e5565b5b5b5050505050565b6000808273ffffffffffffffffffffffffffffffffffffffff163b119050919050565b60606000600161217984612664565b01905060008167ffffffffffffffff81111561219857612197612b6d565b5b6040519080825280601f01601f1916602001820160405280156121ca5781602001600182028036833780820191505090505b509050600082602001820190505b60011561222d578080600190039150507f3031323334353637383961626364656600000000000000000000000000000000600a86061a8153600a858161222157612220613cd6565b5b049450600085036121d8575b819350505050919050565b600181111561235857600073ffffffffffffffffffffffffffffffffffffffff168473ffffffffffffffffffffffffffffffffffffffff16146122cc5780600360008673ffffffffffffffffffffffffffffffffffffffff1673ffffffffffffffffffffffffffffffffffffffff16815260200190815260200160002060008282546122c49190613d34565b925050819055505b600073ffffffffffffffffffffffffffffffffffffffff168373ffffffffffffffffffffffffffffffffffffffff16146123575780600360008573ffffffffffffffffffffffffffffffffffffffff1673ffffffffffffffffffffffffffffffffffffffff168152602001908152602001600020600082825461234f9190613d68565b925050819055505b5b50505050565b6008805490506009600083815260200190815260200160002081905550600881908060018154018082558091505060019003906000526020600020016000909190919091505550565b600060016123b48461099e565b6123be9190613d34565b90506000600760008481526020019081526020016000205490508181146124a3576000600660008673ffffffffffffffffffffffffffffffffffffffff1673ffffffffffffffffffffffffffffffffffffffff168152602001908152602001600020600084815260200190815260200160002054905080600660008773ffffffffffffffffffffffffffffffffffffffff1673ffffffffffffffffffffffffffffffffffffffff168152602001908152602001600020600084815260200190815260200160002081905550816007600083815260200190815260200160002081905550505b6007600084815260200190815260200160002060009055600660008573ffffffffffffffffffffffffffffffffffffffff1673ffffffffffffffffffffffffffffffffffffffff16815260200190815260200160002060008381526020019081526020016000206000905550505050565b600060016008805490506125289190613d34565b905060006009600084815260200190815260200160002054905060006008838154811061255857612557613488565b5b90600052602060002001549050806008838154811061257a57612579613488565b5b9060005260206000200181905550816009600083815260200190815260200160002081905550600960008581526020019081526020016000206000905560088054806125c9576125c8613dbe565b5b6001900381819060005260206000200160009055905550505050565b60006125f08361099e565b905081600660008573ffffffffffffffffffffffffffffffffffffffff1673ffffffffffffffffffffffffffffffffffffffff168152602001908152602001600020600083815260200190815260200160002081905550806007600084815260200190815260200160002081905550505050565b600080600090507a184f03e93ff9f4daa797ed6e38ed64bf6a1f01000000000000000083106126c2577a184f03e93ff9f4daa797ed6e38ed64bf6a1f01000000000000000083816126b8576126b7613cd6565b5b0492506040810190505b6d04ee2d6d415b85acef810000000083106126ff576d04ee2d6d415b85acef810000000083816126f5576126f4613cd6565b5b0492506020810190505b662386f26fc10000831061272e57662386f26fc10000838161272457612723613cd6565b5b0492506010810190505b6305f5e1008310612757576305f5e100838161274d5761274c613cd6565b5b0492506008810190505b612710831061277c57612710838161277257612771613cd6565b5b0492506004810190505b6064831061279f576064838161279557612794613cd6565b5b0492506002810190505b600a83106127ae576001810190505b80915050919050565b6040518060800160405280600073ffffffffffffffffffffffffffffffffffffffff168152602001600073ffffffffffffffffffffffffffffffffffffffff16815260200160608152602001606081525090565b8280546128179061312a565b90600052602060002090601f0160209004810192826128395760008555612880565b82601f1061285257805160ff1916838001178555612880565b82800160010185558215612880579182015b8281111561287f578251825591602001919060010190612864565b5b50905061288d9190612891565b5090565b5b808211156128aa576000816000905550600101612892565b5090565b6000604051905090565b600080fd5b600080fd5b60007fffffffff0000000000000000000000000000000000000000000000000000000082169050919050565b6128f7816128c2565b811461290257600080fd5b50565b600081359050612914816128ee565b92915050565b6000602082840312156129305761292f6128b8565b5b600061293e84828501612905565b91505092915050565b60008115159050919050565b61295c81612947565b82525050565b60006020820190506129776000830184612953565b92915050565b600081519050919050565b600082825260208201905092915050565b60005b838110156129b757808201518184015260208101905061299c565b838111156129c6576000848401525b50505050565b6000601f19601f8301169050919050565b60006129e88261297d565b6129f28185612988565b9350612a02818560208601612999565b612a0b816129cc565b840191505092915050565b60006020820190508181036000830152612a3081846129dd565b905092915050565b6000819050919050565b612a4b81612a38565b8114612a5657600080fd5b50565b600081359050612a6881612a42565b92915050565b600060208284031215612a8457612a836128b8565b5b6000612a9284828501612a59565b91505092915050565b600073ffffffffffffffffffffffffffffffffffffffff82169050919050565b6000612ac682612a9b565b9050919050565b612ad681612abb565b82525050565b6000602082019050612af16000830184612acd565b92915050565b612b0081612abb565b8114612b0b57600080fd5b50565b600081359050612b1d81612af7565b92915050565b60008060408385031215612b3a57612b396128b8565b5b6000612b4885828601612b0e565b9250506020612b5985828601612a59565b9150509250929050565b600080fd5b600080fd5b7f4e487b7100000000000000000000000000000000000000000000000000000000600052604160045260246000fd5b612ba5826129cc565b810181811067ffffffffffffffff82111715612bc457612bc3612b6d565b5b80604052505050565b6000612bd76128ae565b9050612be38282612b9c565b919050565b600067ffffffffffffffff821115612c0357612c02612b6d565b5b612c0c826129cc565b9050602081019050919050565b82818337600083830152505050565b6000612c3b612c3684612be8565b612bcd565b905082815260208101848484011115612c5757612c56612b68565b5b612c62848285612c19565b509392505050565b600082601f830112612c7f57612c7e612b63565b5b8135612c8f848260208601612c28565b91505092915050565b600060208284031215612cae57612cad6128b8565b5b600082013567ffffffffffffffff811115612ccc57612ccb6128bd565b5b612cd884828501612c6a565b91505092915050565b612cea81612a38565b82525050565b6000602082019050612d056000830184612ce1565b92915050565b600080600060608486031215612d2457612d236128b8565b5b6000612d3286828701612b0e565b9350506020612d4386828701612b0e565b9250506040612d5486828701612a59565b9150509250925092565b600060208284031215612d7457612d736128b8565b5b6000612d8284828501612b0e565b91505092915050565b612d9481612947565b8114612d9f57600080fd5b50565b600081359050612db181612d8b565b92915050565b60008060408385031215612dce57612dcd6128b8565b5b6000612ddc85828601612b0e565b9250506020612ded85828601612da2565b9150509250929050565b600067ffffffffffffffff821115612e1257612e11612b6d565b5b612e1b826129cc565b9050602081019050919050565b6000612e3b612e3684612df7565b612bcd565b905082815260208101848484011115612e5757612e56612b68565b5b612e62848285612c19565b509392505050565b600082601f830112612e7f57612e7e612b63565b5b8135612e8f848260208601612e28565b91505092915050565b60008060008060808587031215612eb257612eb16128b8565b5b6000612ec087828801612b0e565b9450506020612ed187828801612b0e565b9350506040612ee287828801612a59565b925050606085013567ffffffffffffffff811115612f0357612f026128bd565b5b612f0f87828801612e6a565b91505092959194509250565b612f2481612abb565b82525050565b600082825260208201905092915050565b6000612f468261297d565b612f508185612f2a565b9350612f60818560208601612999565b612f69816129cc565b840191505092915050565b6000608083016000830151612f8c6000860182612f1b565b506020830151612f9f6020860182612f1b565b5060408301518482036040860152612fb78282612f3b565b91505060608301518482036060860152612fd18282612f3b565b9150508091505092915050565b60006020820190508181036000830152612ff88184612f74565b905092915050565b60008060408385031215613017576130166128b8565b5b600061302585828601612b0e565b925050602061303685828601612b0e565b9150509250929050565b6000806000806080858703121561305a576130596128b8565b5b600061306887828801612b0e565b945050602085013567ffffffffffffffff811115613089576130886128bd565b5b61309587828801612c6a565b935050604085013567ffffffffffffffff8111156130b6576130b56128bd565b5b6130c287828801612c6a565b925050606085013567ffffffffffffffff8111156130e3576130e26128bd565b5b6130ef87828801612c6a565b91505092959194509250565b7f4e487b7100000000000000000000000000000000000000000000000000000000600052602260045260246000fd5b6000600282049050600182168061314257607f821691505b602082108103613155576131546130fb565b5b50919050565b7f4552433732313a20617070726f76616c20746f2063757272656e74206f776e6560008201527f7200000000000000000000000000000000000000000000000000000000000000602082015250565b60006131b7602183612988565b91506131c28261315b565b604082019050919050565b600060208201905081810360008301526131e6816131aa565b9050919050565b7f4552433732313a20617070726f76652063616c6c6572206973206e6f7420746f60008201527f6b656e206f776e6572206f7220617070726f76656420666f7220616c6c000000602082015250565b6000613249603d83612988565b9150613254826131ed565b604082019050919050565b600060208201905081810360008301526132788161323c565b9050919050565b600081905092915050565b60006132958261297d565b61329f818561327f565b93506132af818560208601612999565b80840191505092915050565b60006132c7828461328a565b915081905092915050565b7f4552433732313a2063616c6c6572206973206e6f7420746f6b656e206f776e6560008201527f72206f7220617070726f76656400000000000000000000000000000000000000602082015250565b600061332e602d83612988565b9150613339826132d2565b604082019050919050565b6000602082019050818103600083015261335d81613321565b9050919050565b7f455243373231456e756d657261626c653a206f776e657220696e646578206f7560008201527f74206f6620626f756e6473000000000000000000000000000000000000000000602082015250565b60006133c0602b83612988565b91506133cb82613364565b604082019050919050565b600060208201905081810360008301526133ef816133b3565b9050919050565b7f455243373231456e756d657261626c653a20676c6f62616c20696e646578206f60008201527f7574206f6620626f756e64730000000000000000000000000000000000000000602082015250565b6000613452602c83612988565b915061345d826133f6565b604082019050919050565b6000602082019050818103600083015261348181613445565b9050919050565b7f4e487b7100000000000000000000000000000000000000000000000000000000600052603260045260246000fd5b7f416c726561647920616e2061646d696e206f6620696e737469747574696f6e00600082015250565b60006134ed601f83612988565b91506134f8826134b7565b602082019050919050565b6000602082019050818103600083015261351c816134e0565b9050919050565b7f4552433732313a20696e76616c696420746f6b656e2049440000000000000000600082015250565b6000613559601883612988565b915061356482613523565b602082019050919050565b600060208201905081810360008301526135888161354c565b9050919050565b7f4552433732313a2061646472657373207a65726f206973206e6f74206120766160008201527f6c6964206f776e65720000000000000000000000000000000000000000000000602082015250565b60006135eb602983612988565b91506135f68261358f565b604082019050919050565b6000602082019050818103600083015261361a816135de565b9050919050565b7f53656e646572206973206e6f7420616e2061646d696e206f6620696e7374697460008201527f7574696f6e000000000000000000000000000000000000000000000000000000602082015250565b600061367d602583612988565b915061368882613621565b604082019050919050565b600060208201905081810360008301526136ac81613670565b9050919050565b7f446f63756d656e7420616c7265616479206f776e656420627920616e6f74686560008201527f7220616464726573730000000000000000000000000000000000000000000000602082015250565b600061370f602983612988565b915061371a826136b3565b604082019050919050565b6000602082019050818103600083015261373e81613702565b9050919050565b7f416464726573732063616e206e6f742062652030000000000000000000000000600082015250565b600061377b601483612988565b915061378682613745565b602082019050919050565b600060208201905081810360008301526137aa8161376e565b9050919050565b7f4552433732313a207472616e736665722066726f6d20696e636f72726563742060008201527f6f776e6572000000000000000000000000000000000000000000000000000000602082015250565b600061380d602583612988565b9150613818826137b1565b604082019050919050565b6000602082019050818103600083015261383c81613800565b9050919050565b7f4552433732313a207472616e7366657220746f20746865207a65726f2061646460008201527f7265737300000000000000000000000000000000000000000000000000000000602082015250565b600061389f602483612988565b91506138aa82613843565b604082019050919050565b600060208201905081810360008301526138ce81613892565b9050919050565b7f4552433732313a20617070726f766520746f2063616c6c657200000000000000600082015250565b600061390b601983612988565b9150613916826138d5565b602082019050919050565b6000602082019050818103600083015261393a816138fe565b9050919050565b7f4552433732313a207472616e7366657220746f206e6f6e20455243373231526560008201527f63656976657220696d706c656d656e7465720000000000000000000000000000602082015250565b600061399d603283612988565b91506139a882613941565b604082019050919050565b600060208201905081810360008301526139cc81613990565b9050919050565b60006139df828561328a565b91506139eb828461328a565b91508190509392505050565b7f4552433732313a206d696e7420746f20746865207a65726f2061646472657373600082015250565b6000613a2d602083612988565b9150613a38826139f7565b602082019050919050565b60006020820190508181036000830152613a5c81613a20565b9050919050565b7f4552433732313a20746f6b656e20616c7265616479206d696e74656400000000600082015250565b6000613a99601c83612988565b9150613aa482613a63565b602082019050919050565b60006020820190508181036000830152613ac881613a8c565b9050919050565b7f45524337323155524953746f726167653a2055524920736574206f66206e6f6e60008201527f6578697374656e7420746f6b656e000000000000000000000000000000000000602082015250565b6000613b2b602e83612988565b9150613b3682613acf565b604082019050919050565b60006020820190508181036000830152613b5a81613b1e565b9050919050565b600081519050919050565b600082825260208201905092915050565b6000613b8882613b61565b613b928185613b6c565b9350613ba2818560208601612999565b613bab816129cc565b840191505092915050565b6000608082019050613bcb6000830187612acd565b613bd86020830186612acd565b613be56040830185612ce1565b8181036060830152613bf78184613b7d565b905095945050505050565b600081519050613c11816128ee565b92915050565b600060208284031215613c2d57613c2c6128b8565b5b6000613c3b84828501613c02565b91505092915050565b7f455243373231456e756d657261626c653a20636f6e736563757469766520747260008201527f616e7366657273206e6f7420737570706f727465640000000000000000000000602082015250565b6000613ca0603583612988565b9150613cab82613c44565b604082019050919050565b60006020820190508181036000830152613ccf81613c93565b9050919050565b7f4e487b7100000000000000000000000000000000000000000000000000000000600052601260045260246000fd5b7f4e487b7100000000000000000000000000000000000000000000000000000000600052601160045260246000fd5b6000613d3f82612a38565b9150613d4a83612a38565b925082821015613d5d57613d5c613d05565b5b828203905092915050565b6000613d7382612a38565b9150613d7e83612a38565b9250827fffffffffffffffffffffffffffffffffffffffffffffffffffffffffffffffff03821115613db357613db2613d05565b5b828201905092915050565b7f4e487b7100000000000000000000000000000000000000000000000000000000600052603160045260246000fdfea2646970667358221220f65e67804526db489693ab0bc80440088334a7981c6aef7c2466652e5e14acfd64736f6c634300080d0033",
  "immutableReferences": {},
  "source": "// SPDX-License-Identifier: MIT\r\npragma solidity >=0.4.22 <0.9.0;\r\n\r\nimport \"@openzeppelin/contracts/token/ERC721/ERC721.sol\";\r\nimport \"@openzeppelin/contracts/token/ERC721/extensions/ERC721Enumerable.sol\";\r\nimport \"@openzeppelin/contracts/token/ERC721/extensions/ERC721URIStorage.sol\";\r\nimport \"@openzeppelin/contracts/utils/Counters.sol\";\r\n\r\ncontract DocumentNFT is ERC721, ERC721Enumerable, ERC721URIStorage\r\n{\r\n    using Counters for Counters.Counter;\r\n\tCounters.Counter documentIds;\r\n\r\n\tstruct Document\r\n\t{\r\n\t\taddress owner;\r\n\t\taddress issuer;\r\n\t\tstring _type;\r\n        string docId;\r\n\t}\r\n\r\n\tmapping(uint256 => Document) documents;\r\n\tmapping(address => bool) institutions;\r\n    mapping(string => bool) uris;\r\n\r\n\tconstructor() ERC721(\"DocumentNFT\", \"DOC\") {}\r\n\r\n\t// Handles the minting and transferring of the document to its owner\r\n\tfunction sendDocument(\r\n\t\taddress receiver,\r\n\t\tstring memory type_,\r\n\t\tstring memory uri,\r\n        string memory docId\r\n\t) public\r\n\t{\r\n\t\t// Check if sender is admin of institution\r\n\t\trequire(institutions[msg.sender], \"Sender is not an admin of institution\");\r\n        require(!uris[uri], \"Document already owned by another address\");\r\n\r\n\t\t// Generate a unique, new documentd id\r\n\t\tuint256 newDocumentId = documentIds.current();\r\n\r\n\t\t// Create a Document instance and store it to the documents mapping\r\n\t\tdocuments[newDocumentId] = Document(receiver, msg.sender, type_, docId);\r\n\r\n        // Mint\r\n\t\t_mint(msg.sender, newDocumentId);\r\n\r\n        // Save token URI\r\n        _setTokenURI(newDocumentId, uri);\r\n\r\n        // Transfer\r\n\t\t_transfer(msg.sender, receiver, newDocumentId);\r\n\r\n        // Add uri to uris\r\n\t\turis[uri] = true;\r\n\r\n\t\tdocumentIds.increment();\r\n\t}\r\n\r\n\t// Returns the metadata of a document\r\n\tfunction getDocumentData(uint256 documentId) public view returns(Document memory)\r\n\t{\r\n\t\treturn documents[documentId];\r\n\t}\r\n\r\n\t/* Institution-handlers */\r\n\r\n    // Add sender to the institutions mapping\r\n\tfunction registerInstitution() public\r\n\t{\r\n\t\trequire(!institutions[msg.sender], \"Already an admin of institution\");\r\n\t\t\r\n\t\tinstitutions[msg.sender] = true;\r\n\t}\r\n\r\n    // Check if sender is institution\r\n    function checkInstitution(address sender) public view returns(bool)\r\n\t{\r\n        require(sender != address(0), \"Address can not be 0\");\r\n\r\n\t\treturn institutions[sender];\r\n\t}\r\n\r\n\t/* URI Handler */\r\n\r\n\tfunction checkUri(string memory uri) public view returns(bool)\r\n\t{\r\n\t\treturn uris[uri];\r\n\t}\r\n\r\n    /* Overrides - MUST BE INCLUDED */\r\n    \r\n\tfunction _beforeTokenTransfer(address from, address to, uint256 batchSize, uint256 tokenId) internal override(ERC721, ERC721Enumerable)\r\n\t{\r\n\t\tsuper._beforeTokenTransfer(from, to, batchSize, tokenId);\r\n\t}\r\n\r\n\tfunction supportsInterface(bytes4 interfaceId) public view override(ERC721, ERC721Enumerable) returns(bool)\r\n\t{\r\n\t\treturn super.supportsInterface(interfaceId);\r\n\t}\r\n\r\n    function _burn(uint256 tokenId) internal override(ERC721, ERC721URIStorage)\r\n\t{\r\n        super._burn(tokenId);\r\n    }\r\n\r\n\tfunction tokenURI(uint256 tokenId) public view override(ERC721, ERC721URIStorage) returns (string memory)\r\n    {\r\n        return super.tokenURI(tokenId);\r\n    }\r\n}",
  "sourcePath": "C:\\Users\\chrys\\OneDrive\\Documents\\GitHub\\iCertify\\api\\contracts\\DocumentNFT.sol",
  "compiler": {
    "name": "solc",
    "version": "0.8.13+commit.abaa5c0e.Emscripten.clang"
  },
  "schemaVersion": "3.4.13",
  "updatedAt": "2023-04-26T17:43:29.101Z",
  "networkType": "ethereum",
  "devdoc": {
    "kind": "dev",
    "methods": {
      "approve(address,uint256)": {
        "details": "See {IERC721-approve}."
      },
      "balanceOf(address)": {
        "details": "See {IERC721-balanceOf}."
      },
      "getApproved(uint256)": {
        "details": "See {IERC721-getApproved}."
      },
      "isApprovedForAll(address,address)": {
        "details": "See {IERC721-isApprovedForAll}."
      },
      "name()": {
        "details": "See {IERC721Metadata-name}."
      },
      "ownerOf(uint256)": {
        "details": "See {IERC721-ownerOf}."
      },
      "safeTransferFrom(address,address,uint256)": {
        "details": "See {IERC721-safeTransferFrom}."
      },
      "safeTransferFrom(address,address,uint256,bytes)": {
        "details": "See {IERC721-safeTransferFrom}."
      },
      "setApprovalForAll(address,bool)": {
        "details": "See {IERC721-setApprovalForAll}."
      },
      "symbol()": {
        "details": "See {IERC721Metadata-symbol}."
      },
      "tokenByIndex(uint256)": {
        "details": "See {IERC721Enumerable-tokenByIndex}."
      },
      "tokenOfOwnerByIndex(address,uint256)": {
        "details": "See {IERC721Enumerable-tokenOfOwnerByIndex}."
      },
      "totalSupply()": {
        "details": "See {IERC721Enumerable-totalSupply}."
      },
      "transferFrom(address,address,uint256)": {
        "details": "See {IERC721-transferFrom}."
      }
    },
    "version": 1
  },
  "userdoc": {
    "kind": "user",
    "methods": {},
    "version": 1
  }
}