{
  "contractName": "DocumentNFT",
  "abi": [
    {
      "inputs": [],
      "stateMutability": "nonpayable",
      "type": "constructor"
    },
    {
      "anonymous": false,
      "inputs": [
        {
          "indexed": true,
          "internalType": "address",
          "name": "owner",
          "type": "address"
        },
        {
          "indexed": true,
          "internalType": "address",
          "name": "approved",
          "type": "address"
        },
        {
          "indexed": true,
          "internalType": "uint256",
          "name": "tokenId",
          "type": "uint256"
        }
      ],
      "name": "Approval",
      "type": "event"
    },
    {
      "anonymous": false,
      "inputs": [
        {
          "indexed": true,
          "internalType": "address",
          "name": "owner",
          "type": "address"
        },
        {
          "indexed": true,
          "internalType": "address",
          "name": "operator",
          "type": "address"
        },
        {
          "indexed": false,
          "internalType": "bool",
          "name": "approved",
          "type": "bool"
        }
      ],
      "name": "ApprovalForAll",
      "type": "event"
    },
    {
      "anonymous": false,
      "inputs": [
        {
          "indexed": true,
          "internalType": "address",
          "name": "from",
          "type": "address"
        },
        {
          "indexed": true,
          "internalType": "address",
          "name": "to",
          "type": "address"
        },
        {
          "indexed": true,
          "internalType": "uint256",
          "name": "tokenId",
          "type": "uint256"
        }
      ],
      "name": "Transfer",
      "type": "event"
    },
    {
      "inputs": [
        {
          "internalType": "address",
          "name": "to",
          "type": "address"
        },
        {
          "internalType": "uint256",
          "name": "tokenId",
          "type": "uint256"
        }
      ],
      "name": "approve",
      "outputs": [],
      "stateMutability": "nonpayable",
      "type": "function"
    },
    {
      "inputs": [
        {
          "internalType": "address",
          "name": "owner",
          "type": "address"
        }
      ],
      "name": "balanceOf",
      "outputs": [
        {
          "internalType": "uint256",
          "name": "",
          "type": "uint256"
        }
      ],
      "stateMutability": "view",
      "type": "function",
      "constant": true
    },
    {
      "inputs": [
        {
          "internalType": "uint256",
          "name": "tokenId",
          "type": "uint256"
        }
      ],
      "name": "getApproved",
      "outputs": [
        {
          "internalType": "address",
          "name": "",
          "type": "address"
        }
      ],
      "stateMutability": "view",
      "type": "function",
      "constant": true
    },
    {
      "inputs": [
        {
          "internalType": "address",
          "name": "owner",
          "type": "address"
        },
        {
          "internalType": "address",
          "name": "operator",
          "type": "address"
        }
      ],
      "name": "isApprovedForAll",
      "outputs": [
        {
          "internalType": "bool",
          "name": "",
          "type": "bool"
        }
      ],
      "stateMutability": "view",
      "type": "function",
      "constant": true
    },
    {
      "inputs": [],
      "name": "name",
      "outputs": [
        {
          "internalType": "string",
          "name": "",
          "type": "string"
        }
      ],
      "stateMutability": "view",
      "type": "function",
      "constant": true
    },
    {
      "inputs": [
        {
          "internalType": "uint256",
          "name": "tokenId",
          "type": "uint256"
        }
      ],
      "name": "ownerOf",
      "outputs": [
        {
          "internalType": "address",
          "name": "",
          "type": "address"
        }
      ],
      "stateMutability": "view",
      "type": "function",
      "constant": true
    },
    {
      "inputs": [
        {
          "internalType": "address",
          "name": "from",
          "type": "address"
        },
        {
          "internalType": "address",
          "name": "to",
          "type": "address"
        },
        {
          "internalType": "uint256",
          "name": "tokenId",
          "type": "uint256"
        }
      ],
      "name": "safeTransferFrom",
      "outputs": [],
      "stateMutability": "nonpayable",
      "type": "function"
    },
    {
      "inputs": [
        {
          "internalType": "address",
          "name": "from",
          "type": "address"
        },
        {
          "internalType": "address",
          "name": "to",
          "type": "address"
        },
        {
          "internalType": "uint256",
          "name": "tokenId",
          "type": "uint256"
        },
        {
          "internalType": "bytes",
          "name": "data",
          "type": "bytes"
        }
      ],
      "name": "safeTransferFrom",
      "outputs": [],
      "stateMutability": "nonpayable",
      "type": "function"
    },
    {
      "inputs": [
        {
          "internalType": "address",
          "name": "operator",
          "type": "address"
        },
        {
          "internalType": "bool",
          "name": "approved",
          "type": "bool"
        }
      ],
      "name": "setApprovalForAll",
      "outputs": [],
      "stateMutability": "nonpayable",
      "type": "function"
    },
    {
      "inputs": [],
      "name": "symbol",
      "outputs": [
        {
          "internalType": "string",
          "name": "",
          "type": "string"
        }
      ],
      "stateMutability": "view",
      "type": "function",
      "constant": true
    },
    {
      "inputs": [
        {
          "internalType": "uint256",
          "name": "index",
          "type": "uint256"
        }
      ],
      "name": "tokenByIndex",
      "outputs": [
        {
          "internalType": "uint256",
          "name": "",
          "type": "uint256"
        }
      ],
      "stateMutability": "view",
      "type": "function",
      "constant": true
    },
    {
      "inputs": [
        {
          "internalType": "address",
          "name": "owner",
          "type": "address"
        },
        {
          "internalType": "uint256",
          "name": "index",
          "type": "uint256"
        }
      ],
      "name": "tokenOfOwnerByIndex",
      "outputs": [
        {
          "internalType": "uint256",
          "name": "",
          "type": "uint256"
        }
      ],
      "stateMutability": "view",
      "type": "function",
      "constant": true
    },
    {
      "inputs": [],
      "name": "totalSupply",
      "outputs": [
        {
          "internalType": "uint256",
          "name": "",
          "type": "uint256"
        }
      ],
      "stateMutability": "view",
      "type": "function",
      "constant": true
    },
    {
      "inputs": [
        {
          "internalType": "address",
          "name": "from",
          "type": "address"
        },
        {
          "internalType": "address",
          "name": "to",
          "type": "address"
        },
        {
          "internalType": "uint256",
          "name": "tokenId",
          "type": "uint256"
        }
      ],
      "name": "transferFrom",
      "outputs": [],
      "stateMutability": "nonpayable",
      "type": "function"
    },
    {
      "inputs": [
        {
          "internalType": "address",
          "name": "receiver",
          "type": "address"
        },
        {
          "internalType": "string",
          "name": "type_",
          "type": "string"
        },
        {
          "internalType": "string",
          "name": "uri",
          "type": "string"
        },
        {
          "internalType": "string",
          "name": "docId",
          "type": "string"
        }
      ],
      "name": "sendDocument",
      "outputs": [],
      "stateMutability": "nonpayable",
      "type": "function"
    },
    {
      "inputs": [
        {
          "internalType": "uint256",
          "name": "documentId",
          "type": "uint256"
        }
      ],
      "name": "getDocumentData",
      "outputs": [
        {
          "components": [
            {
              "internalType": "address",
              "name": "owner",
              "type": "address"
            },
            {
              "internalType": "address",
              "name": "issuer",
              "type": "address"
            },
            {
              "internalType": "string",
              "name": "_type",
              "type": "string"
            },
            {
              "internalType": "string",
              "name": "docId",
              "type": "string"
            }
          ],
          "internalType": "struct DocumentNFT.Document",
          "name": "",
          "type": "tuple"
        }
      ],
      "stateMutability": "view",
      "type": "function",
      "constant": true
    },
    {
      "inputs": [],
      "name": "registerInstitution",
      "outputs": [],
      "stateMutability": "nonpayable",
      "type": "function"
    },
    {
      "inputs": [
        {
          "internalType": "address",
          "name": "sender",
          "type": "address"
        }
      ],
      "name": "checkInstitution",
      "outputs": [
        {
          "internalType": "bool",
          "name": "",
          "type": "bool"
        }
      ],
      "stateMutability": "view",
      "type": "function",
      "constant": true
    },
    {
      "inputs": [
        {
          "internalType": "string",
          "name": "uri",
          "type": "string"
        }
      ],
      "name": "checkUri",
      "outputs": [
        {
          "internalType": "bool",
          "name": "",
          "type": "bool"
        }
      ],
      "stateMutability": "view",
      "type": "function",
      "constant": true
    },
    {
      "inputs": [
        {
          "internalType": "bytes4",
          "name": "interfaceId",
          "type": "bytes4"
        }
      ],
      "name": "supportsInterface",
      "outputs": [
        {
          "internalType": "bool",
          "name": "",
          "type": "bool"
        }
      ],
      "stateMutability": "view",
      "type": "function",
      "constant": true
    },
    {
      "inputs": [
        {
          "internalType": "uint256",
          "name": "tokenId",
          "type": "uint256"
        }
      ],
      "name": "tokenURI",
      "outputs": [
        {
          "internalType": "string",
          "name": "",
          "type": "string"
        }
      ],
      "stateMutability": "view",
      "type": "function",
      "constant": true
    }
  ],
  "bytecode": "0x60806040523480156200001157600080fd5b506040518060400160405280600b81526020017f446f63756d656e744e46540000000000000000000000000000000000000000008152506040518060400160405280600381526020017f444f430000000000000000000000000000000000000000000000000000000000815250816000908051906020019062000096929190620000b8565b508060019080519060200190620000af929190620000b8565b505050620001cc565b828054620000c69062000197565b90600052602060002090601f016020900481019282620000ea576000855562000136565b82601f106200010557805160ff191683800117855562000136565b8280016001018555821562000136579182015b828111156200013557825182559160200191906001019062000118565b5b50905062000145919062000149565b5090565b5b80821115620001645760008160009055506001016200014a565b5090565b7f4e487b7100000000000000000000000000000000000000000000000000000000600052602260045260246000fd5b60006002820490506001821680620001b057607f821691505b602082108103620001c657620001c562000168565b5b50919050565b613f4280620001dc6000396000f3fe608060405234801561001057600080fd5b50600436106101375760003560e01c806361853764116100b8578063b88d4fde1161007c578063b88d4fde14610360578063c87b56dd1461037c578063d105cdde146103ac578063e985e9c5146103dc578063fa6d6f8e1461040c578063fb2060851461042857610137565b806361853764146102bc5780636352211e146102c657806370a08231146102f657806395d89b4114610326578063a22cb4651461034457610137565b806318160ddd116100ff57806318160ddd1461020657806323b872dd146102245780632f745c591461024057806342842e0e146102705780634f6ccce71461028c57610137565b806301ffc9a71461013c57806306fdde031461016c578063081812fc1461018a578063095ea7b3146101ba57806309e4f2f0146101d6575b600080fd5b610156600480360381019061015191906129a7565b610458565b60405161016391906129ef565b60405180910390f35b61017461046a565b6040516101819190612aa3565b60405180910390f35b6101a4600480360381019061019f9190612afb565b6104fc565b6040516101b19190612b69565b60405180910390f35b6101d460048036038101906101cf9190612bb0565b610542565b005b6101f060048036038101906101eb9190612d25565b610659565b6040516101fd91906129ef565b60405180910390f35b61020e61068e565b60405161021b9190612d7d565b60405180910390f35b61023e60048036038101906102399190612d98565b61069b565b005b61025a60048036038101906102559190612bb0565b6106fb565b6040516102679190612d7d565b60405180910390f35b61028a60048036038101906102859190612d98565b6107a0565b005b6102a660048036038101906102a19190612afb565b6107c0565b6040516102b39190612d7d565b60405180910390f35b6102c4610831565b005b6102e060048036038101906102db9190612afb565b610918565b6040516102ed9190612b69565b60405180910390f35b610310600480360381019061030b9190612deb565b61099e565b60405161031d9190612d7d565b60405180910390f35b61032e610a55565b60405161033b9190612aa3565b60405180910390f35b61035e60048036038101906103599190612e44565b610ae7565b005b61037a60048036038101906103759190612f25565b610afd565b005b61039660048036038101906103919190612afb565b610b5f565b6040516103a39190612aa3565b60405180910390f35b6103c660048036038101906103c19190612afb565b610b71565b6040516103d3919061306b565b60405180910390f35b6103f660048036038101906103f1919061308d565b610d6e565b60405161040391906129ef565b60405180910390f35b610426600480360381019061042191906130cd565b610e02565b005b610442600480360381019061043d9190612deb565b611127565b60405161044f91906129ef565b60405180910390f35b6000610463826111eb565b9050919050565b606060008054610479906131b7565b80601f01602080910402602001604051908101604052809291908181526020018280546104a5906131b7565b80156104f25780601f106104c7576101008083540402835291602001916104f2565b820191906000526020600020905b8154815290600101906020018083116104d557829003601f168201915b5050505050905090565b600061050782611265565b6004600083815260200190815260200160002060009054906101000a900473ffffffffffffffffffffffffffffffffffffffff169050919050565b600061054d82610918565b90508073ffffffffffffffffffffffffffffffffffffffff168373ffffffffffffffffffffffffffffffffffffffff16036105bd576040517f08c379a00000000000000000000000000000000000000000000000000000000081526004016105b49061325a565b60405180910390fd5b8073ffffffffffffffffffffffffffffffffffffffff166105dc6112b0565b73ffffffffffffffffffffffffffffffffffffffff16148061060b575061060a816106056112b0565b610d6e565b5b61064a576040517f08c379a0000000000000000000000000000000000000000000000000000000008152600401610641906132ec565b60405180910390fd5b61065483836112b8565b505050565b6000600e8260405161066b9190613348565b908152602001604051809103902060009054906101000a900460ff169050919050565b6000600880549050905090565b6106ac6106a66112b0565b82611371565b6106eb576040517f08c379a00000000000000000000000000000000000000000000000000000000081526004016106e2906133d1565b60405180910390fd5b6106f6838383611406565b505050565b60006107068361099e565b8210610747576040517f08c379a000000000000000000000000000000000000000000000000000000000815260040161073e90613463565b60405180910390fd5b600660008473ffffffffffffffffffffffffffffffffffffffff1673ffffffffffffffffffffffffffffffffffffffff168152602001908152602001600020600083815260200190815260200160002054905092915050565b6107bb83838360405180602001604052806000815250610afd565b505050565b60006107ca61068e565b821061080b576040517f08c379a0000000000000000000000000000000000000000000000000000000008152600401610802906134f5565b60405180910390fd5b6008828154811061081f5761081e613515565b5b90600052602060002001549050919050565b600d60003373ffffffffffffffffffffffffffffffffffffffff1673ffffffffffffffffffffffffffffffffffffffff16815260200190815260200160002060009054906101000a900460ff16156108be576040517f08c379a00000000000000000000000000000000000000000000000000000000081526004016108b590613590565b60405180910390fd5b6001600d60003373ffffffffffffffffffffffffffffffffffffffff1673ffffffffffffffffffffffffffffffffffffffff16815260200190815260200160002060006101000a81548160ff021916908315150217905550565b600080610924836116ff565b9050600073ffffffffffffffffffffffffffffffffffffffff168173ffffffffffffffffffffffffffffffffffffffff1603610995576040517f08c379a000000000000000000000000000000000000000000000000000000000815260040161098c906135fc565b60405180910390fd5b80915050919050565b60008073ffffffffffffffffffffffffffffffffffffffff168273ffffffffffffffffffffffffffffffffffffffff1603610a0e576040517f08c379a0000000000000000000000000000000000000000000000000000000008152600401610a059061368e565b60405180910390fd5b600360008373ffffffffffffffffffffffffffffffffffffffff1673ffffffffffffffffffffffffffffffffffffffff168152602001908152602001600020549050919050565b606060018054610a64906131b7565b80601f0160208091040260200160405190810160405280929190818152602001828054610a90906131b7565b8015610add5780601f10610ab257610100808354040283529160200191610add565b820191906000526020600020905b815481529060010190602001808311610ac057829003601f168201915b5050505050905090565b610af9610af26112b0565b838361173c565b5050565b610b0e610b086112b0565b83611371565b610b4d576040517f08c379a0000000000000000000000000000000000000000000000000000000008152600401610b44906133d1565b60405180910390fd5b610b59848484846118a8565b50505050565b6060610b6a82611904565b9050919050565b610b79612844565b600c60008381526020019081526020016000206040518060800160405290816000820160009054906101000a900473ffffffffffffffffffffffffffffffffffffffff1673ffffffffffffffffffffffffffffffffffffffff1673ffffffffffffffffffffffffffffffffffffffff1681526020016001820160009054906101000a900473ffffffffffffffffffffffffffffffffffffffff1673ffffffffffffffffffffffffffffffffffffffff1673ffffffffffffffffffffffffffffffffffffffff168152602001600282018054610c53906131b7565b80601f0160208091040260200160405190810160405280929190818152602001828054610c7f906131b7565b8015610ccc5780601f10610ca157610100808354040283529160200191610ccc565b820191906000526020600020905b815481529060010190602001808311610caf57829003601f168201915b50505050508152602001600382018054610ce5906131b7565b80601f0160208091040260200160405190810160405280929190818152602001828054610d11906131b7565b8015610d5e5780601f10610d3357610100808354040283529160200191610d5e565b820191906000526020600020905b815481529060010190602001808311610d4157829003601f168201915b5050505050815250509050919050565b6000600560008473ffffffffffffffffffffffffffffffffffffffff1673ffffffffffffffffffffffffffffffffffffffff16815260200190815260200160002060008373ffffffffffffffffffffffffffffffffffffffff1673ffffffffffffffffffffffffffffffffffffffff16815260200190815260200160002060009054906101000a900460ff16905092915050565b600d60003373ffffffffffffffffffffffffffffffffffffffff1673ffffffffffffffffffffffffffffffffffffffff16815260200190815260200160002060009054906101000a900460ff16610e8e576040517f08c379a0000000000000000000000000000000000000000000000000000000008152600401610e8590613720565b60405180910390fd5b600d60008573ffffffffffffffffffffffffffffffffffffffff1673ffffffffffffffffffffffffffffffffffffffff16815260200190815260200160002060009054906101000a900460ff1615610f1b576040517f08c379a0000000000000000000000000000000000000000000000000000000008152600401610f12906137b2565b60405180910390fd5b600e82604051610f2b9190613348565b908152602001604051809103902060009054906101000a900460ff1615610f87576040517f08c379a0000000000000000000000000000000000000000000000000000000008152600401610f7e90613844565b60405180910390fd5b6000610f93600b611a16565b905060405180608001604052808673ffffffffffffffffffffffffffffffffffffffff1681526020013373ffffffffffffffffffffffffffffffffffffffff16815260200185815260200183815250600c600083815260200190815260200160002060008201518160000160006101000a81548173ffffffffffffffffffffffffffffffffffffffff021916908373ffffffffffffffffffffffffffffffffffffffff16021790555060208201518160010160006101000a81548173ffffffffffffffffffffffffffffffffffffffff021916908373ffffffffffffffffffffffffffffffffffffffff160217905550604082015181600201908051906020019061109f929190612898565b5060608201518160030190805190602001906110bc929190612898565b509050506110ca3382611a24565b6110d48184611c41565b6110df338683611406565b6001600e846040516110f19190613348565b908152602001604051809103902060006101000a81548160ff021916908315150217905550611120600b611cb5565b5050505050565b60008073ffffffffffffffffffffffffffffffffffffffff168273ffffffffffffffffffffffffffffffffffffffff1603611197576040517f08c379a000000000000000000000000000000000000000000000000000000000815260040161118e906138b0565b60405180910390fd5b600d60008373ffffffffffffffffffffffffffffffffffffffff1673ffffffffffffffffffffffffffffffffffffffff16815260200190815260200160002060009054906101000a900460ff169050919050565b60007f780e9d63000000000000000000000000000000000000000000000000000000007bffffffffffffffffffffffffffffffffffffffffffffffffffffffff1916827bffffffffffffffffffffffffffffffffffffffffffffffffffffffff1916148061125e575061125d82611ccb565b5b9050919050565b61126e81611dad565b6112ad576040517f08c379a00000000000000000000000000000000000000000000000000000000081526004016112a4906135fc565b60405180910390fd5b50565b600033905090565b816004600083815260200190815260200160002060006101000a81548173ffffffffffffffffffffffffffffffffffffffff021916908373ffffffffffffffffffffffffffffffffffffffff160217905550808273ffffffffffffffffffffffffffffffffffffffff1661132b83610918565b73ffffffffffffffffffffffffffffffffffffffff167f8c5be1e5ebec7d5bd14f71427d1e84f3dd0314c0f7b2291e5b200ac8c7c3b92560405160405180910390a45050565b60008061137d83610918565b90508073ffffffffffffffffffffffffffffffffffffffff168473ffffffffffffffffffffffffffffffffffffffff1614806113bf57506113be8185610d6e565b5b806113fd57508373ffffffffffffffffffffffffffffffffffffffff166113e5846104fc565b73ffffffffffffffffffffffffffffffffffffffff16145b91505092915050565b8273ffffffffffffffffffffffffffffffffffffffff1661142682610918565b73ffffffffffffffffffffffffffffffffffffffff161461147c576040517f08c379a000000000000000000000000000000000000000000000000000000000815260040161147390613942565b60405180910390fd5b600073ffffffffffffffffffffffffffffffffffffffff168273ffffffffffffffffffffffffffffffffffffffff16036114eb576040517f08c379a00000000000000000000000000000000000000000000000000000000081526004016114e2906139d4565b60405180910390fd5b6114f88383836001611dee565b8273ffffffffffffffffffffffffffffffffffffffff1661151882610918565b73ffffffffffffffffffffffffffffffffffffffff161461156e576040517f08c379a000000000000000000000000000000000000000000000000000000000815260040161156590613942565b60405180910390fd5b6004600082815260200190815260200160002060006101000a81549073ffffffffffffffffffffffffffffffffffffffff02191690556001600360008573ffffffffffffffffffffffffffffffffffffffff1673ffffffffffffffffffffffffffffffffffffffff168152602001908152602001600020600082825403925050819055506001600360008473ffffffffffffffffffffffffffffffffffffffff1673ffffffffffffffffffffffffffffffffffffffff16815260200190815260200160002060008282540192505081905550816002600083815260200190815260200160002060006101000a81548173ffffffffffffffffffffffffffffffffffffffff021916908373ffffffffffffffffffffffffffffffffffffffff160217905550808273ffffffffffffffffffffffffffffffffffffffff168473ffffffffffffffffffffffffffffffffffffffff167fddf252ad1be2c89b69c2b068fc378daa952ba7f163c4a11628f55a4df523b3ef60405160405180910390a46116fa8383836001611e00565b505050565b60006002600083815260200190815260200160002060009054906101000a900473ffffffffffffffffffffffffffffffffffffffff169050919050565b8173ffffffffffffffffffffffffffffffffffffffff168373ffffffffffffffffffffffffffffffffffffffff16036117aa576040517f08c379a00000000000000000000000000000000000000000000000000000000081526004016117a190613a40565b60405180910390fd5b80600560008573ffffffffffffffffffffffffffffffffffffffff1673ffffffffffffffffffffffffffffffffffffffff16815260200190815260200160002060008473ffffffffffffffffffffffffffffffffffffffff1673ffffffffffffffffffffffffffffffffffffffff16815260200190815260200160002060006101000a81548160ff0219169083151502179055508173ffffffffffffffffffffffffffffffffffffffff168373ffffffffffffffffffffffffffffffffffffffff167f17307eab39ab6107e8899845ad3d59bd9653f200f220920489ca2b5937696c318360405161189b91906129ef565b60405180910390a3505050565b6118b3848484611406565b6118bf84848484611e06565b6118fe576040517f08c379a00000000000000000000000000000000000000000000000000000000081526004016118f590613ad2565b60405180910390fd5b50505050565b606061190f82611265565b6000600a6000848152602001908152602001600020805461192f906131b7565b80601f016020809104026020016040519081016040528092919081815260200182805461195b906131b7565b80156119a85780601f1061197d576101008083540402835291602001916119a8565b820191906000526020600020905b81548152906001019060200180831161198b57829003601f168201915b5050505050905060006119b9611f8d565b905060008151036119ce578192505050611a11565b600082511115611a035780826040516020016119eb929190613af2565b60405160208183030381529060405292505050611a11565b611a0c84611fa4565b925050505b919050565b600081600001549050919050565b600073ffffffffffffffffffffffffffffffffffffffff168273ffffffffffffffffffffffffffffffffffffffff1603611a93576040517f08c379a0000000000000000000000000000000000000000000000000000000008152600401611a8a90613b62565b60405180910390fd5b611a9c81611dad565b15611adc576040517f08c379a0000000000000000000000000000000000000000000000000000000008152600401611ad390613bce565b60405180910390fd5b611aea600083836001611dee565b611af381611dad565b15611b33576040517f08c379a0000000000000000000000000000000000000000000000000000000008152600401611b2a90613bce565b60405180910390fd5b6001600360008473ffffffffffffffffffffffffffffffffffffffff1673ffffffffffffffffffffffffffffffffffffffff16815260200190815260200160002060008282540192505081905550816002600083815260200190815260200160002060006101000a81548173ffffffffffffffffffffffffffffffffffffffff021916908373ffffffffffffffffffffffffffffffffffffffff160217905550808273ffffffffffffffffffffffffffffffffffffffff16600073ffffffffffffffffffffffffffffffffffffffff167fddf252ad1be2c89b69c2b068fc378daa952ba7f163c4a11628f55a4df523b3ef60405160405180910390a4611c3d600083836001611e00565b5050565b611c4a82611dad565b611c89576040517f08c379a0000000000000000000000000000000000000000000000000000000008152600401611c8090613c60565b60405180910390fd5b80600a60008481526020019081526020016000209080519060200190611cb0929190612898565b505050565b6001816000016000828254019250508190555050565b60007f80ac58cd000000000000000000000000000000000000000000000000000000007bffffffffffffffffffffffffffffffffffffffffffffffffffffffff1916827bffffffffffffffffffffffffffffffffffffffffffffffffffffffff19161480611d9657507f5b5e139f000000000000000000000000000000000000000000000000000000007bffffffffffffffffffffffffffffffffffffffffffffffffffffffff1916827bffffffffffffffffffffffffffffffffffffffffffffffffffffffff1916145b80611da65750611da58261200c565b5b9050919050565b60008073ffffffffffffffffffffffffffffffffffffffff16611dcf836116ff565b73ffffffffffffffffffffffffffffffffffffffff1614159050919050565b611dfa84848484612076565b50505050565b50505050565b6000611e278473ffffffffffffffffffffffffffffffffffffffff166121d4565b15611f80578373ffffffffffffffffffffffffffffffffffffffff1663150b7a02611e506112b0565b8786866040518563ffffffff1660e01b8152600401611e729493929190613cd5565b6020604051808303816000875af1925050508015611eae57506040513d601f19601f82011682018060405250810190611eab9190613d36565b60015b611f30573d8060008114611ede576040519150601f19603f3d011682016040523d82523d6000602084013e611ee3565b606091505b506000815103611f28576040517f08c379a0000000000000000000000000000000000000000000000000000000008152600401611f1f90613ad2565b60405180910390fd5b805181602001fd5b63150b7a0260e01b7bffffffffffffffffffffffffffffffffffffffffffffffffffffffff1916817bffffffffffffffffffffffffffffffffffffffffffffffffffffffff191614915050611f85565b600190505b949350505050565b606060405180602001604052806000815250905090565b6060611faf82611265565b6000611fb9611f8d565b90506000815111611fd95760405180602001604052806000815250612004565b80611fe3846121f7565b604051602001611ff4929190613af2565b6040516020818303038152906040525b915050919050565b60007f01ffc9a7000000000000000000000000000000000000000000000000000000007bffffffffffffffffffffffffffffffffffffffffffffffffffffffff1916827bffffffffffffffffffffffffffffffffffffffffffffffffffffffff1916149050919050565b612082848484846122c5565b60018111156120c6576040517f08c379a00000000000000000000000000000000000000000000000000000000081526004016120bd90613dd5565b60405180910390fd5b6000829050600073ffffffffffffffffffffffffffffffffffffffff168573ffffffffffffffffffffffffffffffffffffffff160361210d57612108816123eb565b61214c565b8373ffffffffffffffffffffffffffffffffffffffff168573ffffffffffffffffffffffffffffffffffffffff161461214b5761214a8582612434565b5b5b600073ffffffffffffffffffffffffffffffffffffffff168473ffffffffffffffffffffffffffffffffffffffff160361218e57612189816125a1565b6121cd565b8473ffffffffffffffffffffffffffffffffffffffff168473ffffffffffffffffffffffffffffffffffffffff16146121cc576121cb8482612672565b5b5b5050505050565b6000808273ffffffffffffffffffffffffffffffffffffffff163b119050919050565b606060006001612206846126f1565b01905060008167ffffffffffffffff81111561222557612224612bfa565b5b6040519080825280601f01601f1916602001820160405280156122575781602001600182028036833780820191505090505b509050600082602001820190505b6001156122ba578080600190039150507f3031323334353637383961626364656600000000000000000000000000000000600a86061a8153600a85816122ae576122ad613df5565b5b04945060008503612265575b819350505050919050565b60018111156123e557600073ffffffffffffffffffffffffffffffffffffffff168473ffffffffffffffffffffffffffffffffffffffff16146123595780600360008673ffffffffffffffffffffffffffffffffffffffff1673ffffffffffffffffffffffffffffffffffffffff16815260200190815260200160002060008282546123519190613e53565b925050819055505b600073ffffffffffffffffffffffffffffffffffffffff168373ffffffffffffffffffffffffffffffffffffffff16146123e45780600360008573ffffffffffffffffffffffffffffffffffffffff1673ffffffffffffffffffffffffffffffffffffffff16815260200190815260200160002060008282546123dc9190613e87565b925050819055505b5b50505050565b6008805490506009600083815260200190815260200160002081905550600881908060018154018082558091505060019003906000526020600020016000909190919091505550565b600060016124418461099e565b61244b9190613e53565b9050600060076000848152602001908152602001600020549050818114612530576000600660008673ffffffffffffffffffffffffffffffffffffffff1673ffffffffffffffffffffffffffffffffffffffff168152602001908152602001600020600084815260200190815260200160002054905080600660008773ffffffffffffffffffffffffffffffffffffffff1673ffffffffffffffffffffffffffffffffffffffff168152602001908152602001600020600084815260200190815260200160002081905550816007600083815260200190815260200160002081905550505b6007600084815260200190815260200160002060009055600660008573ffffffffffffffffffffffffffffffffffffffff1673ffffffffffffffffffffffffffffffffffffffff16815260200190815260200160002060008381526020019081526020016000206000905550505050565b600060016008805490506125b59190613e53565b90506000600960008481526020019081526020016000205490506000600883815481106125e5576125e4613515565b5b90600052602060002001549050806008838154811061260757612606613515565b5b90600052602060002001819055508160096000838152602001908152602001600020819055506009600085815260200190815260200160002060009055600880548061265657612655613edd565b5b6001900381819060005260206000200160009055905550505050565b600061267d8361099e565b905081600660008573ffffffffffffffffffffffffffffffffffffffff1673ffffffffffffffffffffffffffffffffffffffff168152602001908152602001600020600083815260200190815260200160002081905550806007600084815260200190815260200160002081905550505050565b600080600090507a184f03e93ff9f4daa797ed6e38ed64bf6a1f010000000000000000831061274f577a184f03e93ff9f4daa797ed6e38ed64bf6a1f010000000000000000838161274557612744613df5565b5b0492506040810190505b6d04ee2d6d415b85acef8100000000831061278c576d04ee2d6d415b85acef8100000000838161278257612781613df5565b5b0492506020810190505b662386f26fc1000083106127bb57662386f26fc1000083816127b1576127b0613df5565b5b0492506010810190505b6305f5e10083106127e4576305f5e10083816127da576127d9613df5565b5b0492506008810190505b61271083106128095761271083816127ff576127fe613df5565b5b0492506004810190505b6064831061282c576064838161282257612821613df5565b5b0492506002810190505b600a831061283b576001810190505b80915050919050565b6040518060800160405280600073ffffffffffffffffffffffffffffffffffffffff168152602001600073ffffffffffffffffffffffffffffffffffffffff16815260200160608152602001606081525090565b8280546128a4906131b7565b90600052602060002090601f0160209004810192826128c6576000855561290d565b82601f106128df57805160ff191683800117855561290d565b8280016001018555821561290d579182015b8281111561290c5782518255916020019190600101906128f1565b5b50905061291a919061291e565b5090565b5b8082111561293757600081600090555060010161291f565b5090565b6000604051905090565b600080fd5b600080fd5b60007fffffffff0000000000000000000000000000000000000000000000000000000082169050919050565b6129848161294f565b811461298f57600080fd5b50565b6000813590506129a18161297b565b92915050565b6000602082840312156129bd576129bc612945565b5b60006129cb84828501612992565b91505092915050565b60008115159050919050565b6129e9816129d4565b82525050565b6000602082019050612a0460008301846129e0565b92915050565b600081519050919050565b600082825260208201905092915050565b60005b83811015612a44578082015181840152602081019050612a29565b83811115612a53576000848401525b50505050565b6000601f19601f8301169050919050565b6000612a7582612a0a565b612a7f8185612a15565b9350612a8f818560208601612a26565b612a9881612a59565b840191505092915050565b60006020820190508181036000830152612abd8184612a6a565b905092915050565b6000819050919050565b612ad881612ac5565b8114612ae357600080fd5b50565b600081359050612af581612acf565b92915050565b600060208284031215612b1157612b10612945565b5b6000612b1f84828501612ae6565b91505092915050565b600073ffffffffffffffffffffffffffffffffffffffff82169050919050565b6000612b5382612b28565b9050919050565b612b6381612b48565b82525050565b6000602082019050612b7e6000830184612b5a565b92915050565b612b8d81612b48565b8114612b9857600080fd5b50565b600081359050612baa81612b84565b92915050565b60008060408385031215612bc757612bc6612945565b5b6000612bd585828601612b9b565b9250506020612be685828601612ae6565b9150509250929050565b600080fd5b600080fd5b7f4e487b7100000000000000000000000000000000000000000000000000000000600052604160045260246000fd5b612c3282612a59565b810181811067ffffffffffffffff82111715612c5157612c50612bfa565b5b80604052505050565b6000612c6461293b565b9050612c708282612c29565b919050565b600067ffffffffffffffff821115612c9057612c8f612bfa565b5b612c9982612a59565b9050602081019050919050565b82818337600083830152505050565b6000612cc8612cc384612c75565b612c5a565b905082815260208101848484011115612ce457612ce3612bf5565b5b612cef848285612ca6565b509392505050565b600082601f830112612d0c57612d0b612bf0565b5b8135612d1c848260208601612cb5565b91505092915050565b600060208284031215612d3b57612d3a612945565b5b600082013567ffffffffffffffff811115612d5957612d5861294a565b5b612d6584828501612cf7565b91505092915050565b612d7781612ac5565b82525050565b6000602082019050612d926000830184612d6e565b92915050565b600080600060608486031215612db157612db0612945565b5b6000612dbf86828701612b9b565b9350506020612dd086828701612b9b565b9250506040612de186828701612ae6565b9150509250925092565b600060208284031215612e0157612e00612945565b5b6000612e0f84828501612b9b565b91505092915050565b612e21816129d4565b8114612e2c57600080fd5b50565b600081359050612e3e81612e18565b92915050565b60008060408385031215612e5b57612e5a612945565b5b6000612e6985828601612b9b565b9250506020612e7a85828601612e2f565b9150509250929050565b600067ffffffffffffffff821115612e9f57612e9e612bfa565b5b612ea882612a59565b9050602081019050919050565b6000612ec8612ec384612e84565b612c5a565b905082815260208101848484011115612ee457612ee3612bf5565b5b612eef848285612ca6565b509392505050565b600082601f830112612f0c57612f0b612bf0565b5b8135612f1c848260208601612eb5565b91505092915050565b60008060008060808587031215612f3f57612f3e612945565b5b6000612f4d87828801612b9b565b9450506020612f5e87828801612b9b565b9350506040612f6f87828801612ae6565b925050606085013567ffffffffffffffff811115612f9057612f8f61294a565b5b612f9c87828801612ef7565b91505092959194509250565b612fb181612b48565b82525050565b600082825260208201905092915050565b6000612fd382612a0a565b612fdd8185612fb7565b9350612fed818560208601612a26565b612ff681612a59565b840191505092915050565b60006080830160008301516130196000860182612fa8565b50602083015161302c6020860182612fa8565b50604083015184820360408601526130448282612fc8565b9150506060830151848203606086015261305e8282612fc8565b9150508091505092915050565b600060208201905081810360008301526130858184613001565b905092915050565b600080604083850312156130a4576130a3612945565b5b60006130b285828601612b9b565b92505060206130c385828601612b9b565b9150509250929050565b600080600080608085870312156130e7576130e6612945565b5b60006130f587828801612b9b565b945050602085013567ffffffffffffffff8111156131165761311561294a565b5b61312287828801612cf7565b935050604085013567ffffffffffffffff8111156131435761314261294a565b5b61314f87828801612cf7565b925050606085013567ffffffffffffffff8111156131705761316f61294a565b5b61317c87828801612cf7565b91505092959194509250565b7f4e487b7100000000000000000000000000000000000000000000000000000000600052602260045260246000fd5b600060028204905060018216806131cf57607f821691505b6020821081036131e2576131e1613188565b5b50919050565b7f4552433732313a20617070726f76616c20746f2063757272656e74206f776e6560008201527f7200000000000000000000000000000000000000000000000000000000000000602082015250565b6000613244602183612a15565b915061324f826131e8565b604082019050919050565b6000602082019050818103600083015261327381613237565b9050919050565b7f4552433732313a20617070726f76652063616c6c6572206973206e6f7420746f60008201527f6b656e206f776e6572206f7220617070726f76656420666f7220616c6c000000602082015250565b60006132d6603d83612a15565b91506132e18261327a565b604082019050919050565b60006020820190508181036000830152613305816132c9565b9050919050565b600081905092915050565b600061332282612a0a565b61332c818561330c565b935061333c818560208601612a26565b80840191505092915050565b60006133548284613317565b915081905092915050565b7f4552433732313a2063616c6c6572206973206e6f7420746f6b656e206f776e6560008201527f72206f7220617070726f76656400000000000000000000000000000000000000602082015250565b60006133bb602d83612a15565b91506133c68261335f565b604082019050919050565b600060208201905081810360008301526133ea816133ae565b9050919050565b7f455243373231456e756d657261626c653a206f776e657220696e646578206f7560008201527f74206f6620626f756e6473000000000000000000000000000000000000000000602082015250565b600061344d602b83612a15565b9150613458826133f1565b604082019050919050565b6000602082019050818103600083015261347c81613440565b9050919050565b7f455243373231456e756d657261626c653a20676c6f62616c20696e646578206f60008201527f7574206f6620626f756e64730000000000000000000000000000000000000000602082015250565b60006134df602c83612a15565b91506134ea82613483565b604082019050919050565b6000602082019050818103600083015261350e816134d2565b9050919050565b7f4e487b7100000000000000000000000000000000000000000000000000000000600052603260045260246000fd5b7f416c726561647920616e2061646d696e206f6620696e737469747574696f6e00600082015250565b600061357a601f83612a15565b915061358582613544565b602082019050919050565b600060208201905081810360008301526135a98161356d565b9050919050565b7f4552433732313a20696e76616c696420746f6b656e2049440000000000000000600082015250565b60006135e6601883612a15565b91506135f1826135b0565b602082019050919050565b60006020820190508181036000830152613615816135d9565b9050919050565b7f4552433732313a2061646472657373207a65726f206973206e6f74206120766160008201527f6c6964206f776e65720000000000000000000000000000000000000000000000602082015250565b6000613678602983612a15565b91506136838261361c565b604082019050919050565b600060208201905081810360008301526136a78161366b565b9050919050565b7f53656e646572206973206e6f7420616e2061646d696e206f6620696e7374697460008201527f7574696f6e000000000000000000000000000000000000000000000000000000602082015250565b600061370a602583612a15565b9150613715826136ae565b604082019050919050565b60006020820190508181036000830152613739816136fd565b9050919050565b7f5265636569766572206d757374206e6f7420626520616e20696e73746974757460008201527f696f6e0000000000000000000000000000000000000000000000000000000000602082015250565b600061379c602383612a15565b91506137a782613740565b604082019050919050565b600060208201905081810360008301526137cb8161378f565b9050919050565b7f446f63756d656e7420616c7265616479206f776e656420627920616e6f74686560008201527f7220616464726573730000000000000000000000000000000000000000000000602082015250565b600061382e602983612a15565b9150613839826137d2565b604082019050919050565b6000602082019050818103600083015261385d81613821565b9050919050565b7f416464726573732063616e206e6f742062652030000000000000000000000000600082015250565b600061389a601483612a15565b91506138a582613864565b602082019050919050565b600060208201905081810360008301526138c98161388d565b9050919050565b7f4552433732313a207472616e736665722066726f6d20696e636f72726563742060008201527f6f776e6572000000000000000000000000000000000000000000000000000000602082015250565b600061392c602583612a15565b9150613937826138d0565b604082019050919050565b6000602082019050818103600083015261395b8161391f565b9050919050565b7f4552433732313a207472616e7366657220746f20746865207a65726f2061646460008201527f7265737300000000000000000000000000000000000000000000000000000000602082015250565b60006139be602483612a15565b91506139c982613962565b604082019050919050565b600060208201905081810360008301526139ed816139b1565b9050919050565b7f4552433732313a20617070726f766520746f2063616c6c657200000000000000600082015250565b6000613a2a601983612a15565b9150613a35826139f4565b602082019050919050565b60006020820190508181036000830152613a5981613a1d565b9050919050565b7f4552433732313a207472616e7366657220746f206e6f6e20455243373231526560008201527f63656976657220696d706c656d656e7465720000000000000000000000000000602082015250565b6000613abc603283612a15565b9150613ac782613a60565b604082019050919050565b60006020820190508181036000830152613aeb81613aaf565b9050919050565b6000613afe8285613317565b9150613b0a8284613317565b91508190509392505050565b7f4552433732313a206d696e7420746f20746865207a65726f2061646472657373600082015250565b6000613b4c602083612a15565b9150613b5782613b16565b602082019050919050565b60006020820190508181036000830152613b7b81613b3f565b9050919050565b7f4552433732313a20746f6b656e20616c7265616479206d696e74656400000000600082015250565b6000613bb8601c83612a15565b9150613bc382613b82565b602082019050919050565b60006020820190508181036000830152613be781613bab565b9050919050565b7f45524337323155524953746f726167653a2055524920736574206f66206e6f6e60008201527f6578697374656e7420746f6b656e000000000000000000000000000000000000602082015250565b6000613c4a602e83612a15565b9150613c5582613bee565b604082019050919050565b60006020820190508181036000830152613c7981613c3d565b9050919050565b600081519050919050565b600082825260208201905092915050565b6000613ca782613c80565b613cb18185613c8b565b9350613cc1818560208601612a26565b613cca81612a59565b840191505092915050565b6000608082019050613cea6000830187612b5a565b613cf76020830186612b5a565b613d046040830185612d6e565b8181036060830152613d168184613c9c565b905095945050505050565b600081519050613d308161297b565b92915050565b600060208284031215613d4c57613d4b612945565b5b6000613d5a84828501613d21565b91505092915050565b7f455243373231456e756d657261626c653a20636f6e736563757469766520747260008201527f616e7366657273206e6f7420737570706f727465640000000000000000000000602082015250565b6000613dbf603583612a15565b9150613dca82613d63565b604082019050919050565b60006020820190508181036000830152613dee81613db2565b9050919050565b7f4e487b7100000000000000000000000000000000000000000000000000000000600052601260045260246000fd5b7f4e487b7100000000000000000000000000000000000000000000000000000000600052601160045260246000fd5b6000613e5e82612ac5565b9150613e6983612ac5565b925082821015613e7c57613e7b613e24565b5b828203905092915050565b6000613e9282612ac5565b9150613e9d83612ac5565b9250827fffffffffffffffffffffffffffffffffffffffffffffffffffffffffffffffff03821115613ed257613ed1613e24565b5b828201905092915050565b7f4e487b7100000000000000000000000000000000000000000000000000000000600052603160045260246000fdfea26469706673582212203ae0eed54e676a45e1e8bc0bb8fd504cc9830f9445c97dd93fc56213919515bc64736f6c634300080d0033",
  "immutableReferences": {},
  "source": "// SPDX-License-Identifier: MIT\r\npragma solidity >=0.4.22 <0.9.0;\r\n\r\nimport \"@openzeppelin/contracts/token/ERC721/ERC721.sol\";\r\nimport \"@openzeppelin/contracts/token/ERC721/extensions/ERC721Enumerable.sol\";\r\nimport \"@openzeppelin/contracts/token/ERC721/extensions/ERC721URIStorage.sol\";\r\nimport \"@openzeppelin/contracts/utils/Counters.sol\";\r\n\r\ncontract DocumentNFT is ERC721, ERC721Enumerable, ERC721URIStorage\r\n{\r\n    using Counters for Counters.Counter;\r\n\tCounters.Counter documentIds;\r\n\r\n\tstruct Document\r\n\t{\r\n\t\taddress owner;\r\n\t\taddress issuer;\r\n\t\tstring _type;\r\n        string docId;\r\n\t}\r\n\r\n\tmapping(uint256 => Document) documents;\r\n\tmapping(address => bool) institutions;\r\n    mapping(string => bool) uris;\r\n\r\n\tconstructor() ERC721(\"DocumentNFT\", \"DOC\") {}\r\n\r\n\t// Handles the minting and transferring of the document to its owner\r\n\tfunction sendDocument(\r\n\t\taddress receiver,\r\n\t\tstring memory type_,\r\n\t\tstring memory uri,\r\n        string memory docId\r\n\t) public\r\n\t{\r\n\t\t// Check if sender is admin of institution\r\n\t\trequire(institutions[msg.sender], \"Sender is not an admin of institution\");\r\n        require(!institutions[receiver], \"Receiver must not be an institution\");\r\n        require(!uris[uri], \"Document already owned by another address\");\r\n\r\n\t\t// Generate a unique, new documentd id\r\n\t\tuint256 newDocumentId = documentIds.current();\r\n\r\n\t\t// Create a Document instance and store it to the documents mapping\r\n\t\tdocuments[newDocumentId] = Document(receiver, msg.sender, type_, docId);\r\n\r\n        // Mint\r\n\t\t_mint(msg.sender, newDocumentId);\r\n\r\n        // Save token URI\r\n        _setTokenURI(newDocumentId, uri);\r\n\r\n        // Transfer\r\n\t\t_transfer(msg.sender, receiver, newDocumentId);\r\n\r\n        // Add uri to uris\r\n\t\turis[uri] = true;\r\n\r\n\t\tdocumentIds.increment();\r\n\t}\r\n\r\n\t// Returns the metadata of a document\r\n\tfunction getDocumentData(uint256 documentId) public view returns(Document memory)\r\n\t{\r\n\t\treturn documents[documentId];\r\n\t}\r\n\r\n\t/* Institution-handlers */\r\n\r\n    // Add sender to the institutions mapping\r\n\tfunction registerInstitution() public\r\n\t{\r\n\t\trequire(!institutions[msg.sender], \"Already an admin of institution\");\r\n\t\t\r\n\t\tinstitutions[msg.sender] = true;\r\n\t}\r\n\r\n    // Check if sender is institution\r\n    function checkInstitution(address sender) public view returns(bool)\r\n\t{\r\n        require(sender != address(0), \"Address can not be 0\");\r\n\r\n\t\treturn institutions[sender];\r\n\t}\r\n\r\n\t/* URI Handler */\r\n\r\n\tfunction checkUri(string memory uri) public view returns(bool)\r\n\t{\r\n\t\treturn uris[uri];\r\n\t}\r\n\r\n    /* Overrides - MUST BE INCLUDED */\r\n    \r\n\tfunction _beforeTokenTransfer(address from, address to, uint256 batchSize, uint256 tokenId) internal override(ERC721, ERC721Enumerable)\r\n\t{\r\n\t\tsuper._beforeTokenTransfer(from, to, batchSize, tokenId);\r\n\t}\r\n\r\n\tfunction supportsInterface(bytes4 interfaceId) public view override(ERC721, ERC721Enumerable) returns(bool)\r\n\t{\r\n\t\treturn super.supportsInterface(interfaceId);\r\n\t}\r\n\r\n    function _burn(uint256 tokenId) internal override(ERC721, ERC721URIStorage)\r\n\t{\r\n        super._burn(tokenId);\r\n    }\r\n\r\n\tfunction tokenURI(uint256 tokenId) public view override(ERC721, ERC721URIStorage) returns (string memory)\r\n    {\r\n        return super.tokenURI(tokenId);\r\n    }\r\n}",
  "sourcePath": "C:\\Users\\chrys\\OneDrive\\Documents\\GitHub\\iCertify\\api\\contracts\\DocumentNFT.sol",
  "compiler": {
    "name": "solc",
    "version": "0.8.13+commit.abaa5c0e.Emscripten.clang"
  },
  "schemaVersion": "3.4.13",
  "updatedAt": "2023-05-02T13:40:59.933Z",
  "networkType": "ethereum",
  "devdoc": {
    "kind": "dev",
    "methods": {
      "approve(address,uint256)": {
        "details": "See {IERC721-approve}."
      },
      "balanceOf(address)": {
        "details": "See {IERC721-balanceOf}."
      },
      "getApproved(uint256)": {
        "details": "See {IERC721-getApproved}."
      },
      "isApprovedForAll(address,address)": {
        "details": "See {IERC721-isApprovedForAll}."
      },
      "name()": {
        "details": "See {IERC721Metadata-name}."
      },
      "ownerOf(uint256)": {
        "details": "See {IERC721-ownerOf}."
      },
      "safeTransferFrom(address,address,uint256)": {
        "details": "See {IERC721-safeTransferFrom}."
      },
      "safeTransferFrom(address,address,uint256,bytes)": {
        "details": "See {IERC721-safeTransferFrom}."
      },
      "setApprovalForAll(address,bool)": {
        "details": "See {IERC721-setApprovalForAll}."
      },
      "symbol()": {
        "details": "See {IERC721Metadata-symbol}."
      },
      "tokenByIndex(uint256)": {
        "details": "See {IERC721Enumerable-tokenByIndex}."
      },
      "tokenOfOwnerByIndex(address,uint256)": {
        "details": "See {IERC721Enumerable-tokenOfOwnerByIndex}."
      },
      "totalSupply()": {
        "details": "See {IERC721Enumerable-totalSupply}."
      },
      "transferFrom(address,address,uint256)": {
        "details": "See {IERC721-transferFrom}."
      }
    },
    "version": 1
  },
  "userdoc": {
    "kind": "user",
    "methods": {},
    "version": 1
  }
}