{
  "contractName": "DocumentNFT",
  "abi": [
    {
      "inputs": [],
      "stateMutability": "nonpayable",
      "type": "constructor"
    },
    {
      "anonymous": false,
      "inputs": [
        {
          "indexed": true,
          "internalType": "address",
          "name": "owner",
          "type": "address"
        },
        {
          "indexed": true,
          "internalType": "address",
          "name": "approved",
          "type": "address"
        },
        {
          "indexed": true,
          "internalType": "uint256",
          "name": "tokenId",
          "type": "uint256"
        }
      ],
      "name": "Approval",
      "type": "event"
    },
    {
      "anonymous": false,
      "inputs": [
        {
          "indexed": true,
          "internalType": "address",
          "name": "owner",
          "type": "address"
        },
        {
          "indexed": true,
          "internalType": "address",
          "name": "operator",
          "type": "address"
        },
        {
          "indexed": false,
          "internalType": "bool",
          "name": "approved",
          "type": "bool"
        }
      ],
      "name": "ApprovalForAll",
      "type": "event"
    },
    {
      "anonymous": false,
      "inputs": [
        {
          "indexed": true,
          "internalType": "address",
          "name": "from",
          "type": "address"
        },
        {
          "indexed": true,
          "internalType": "address",
          "name": "to",
          "type": "address"
        },
        {
          "indexed": true,
          "internalType": "uint256",
          "name": "tokenId",
          "type": "uint256"
        }
      ],
      "name": "Transfer",
      "type": "event"
    },
    {
      "inputs": [
        {
          "internalType": "address",
          "name": "to",
          "type": "address"
        },
        {
          "internalType": "uint256",
          "name": "tokenId",
          "type": "uint256"
        }
      ],
      "name": "approve",
      "outputs": [],
      "stateMutability": "nonpayable",
      "type": "function"
    },
    {
      "inputs": [
        {
          "internalType": "address",
          "name": "owner",
          "type": "address"
        }
      ],
      "name": "balanceOf",
      "outputs": [
        {
          "internalType": "uint256",
          "name": "",
          "type": "uint256"
        }
      ],
      "stateMutability": "view",
      "type": "function",
      "constant": true
    },
    {
      "inputs": [
        {
          "internalType": "uint256",
          "name": "tokenId",
          "type": "uint256"
        }
      ],
      "name": "getApproved",
      "outputs": [
        {
          "internalType": "address",
          "name": "",
          "type": "address"
        }
      ],
      "stateMutability": "view",
      "type": "function",
      "constant": true
    },
    {
      "inputs": [
        {
          "internalType": "address",
          "name": "owner",
          "type": "address"
        },
        {
          "internalType": "address",
          "name": "operator",
          "type": "address"
        }
      ],
      "name": "isApprovedForAll",
      "outputs": [
        {
          "internalType": "bool",
          "name": "",
          "type": "bool"
        }
      ],
      "stateMutability": "view",
      "type": "function",
      "constant": true
    },
    {
      "inputs": [],
      "name": "name",
      "outputs": [
        {
          "internalType": "string",
          "name": "",
          "type": "string"
        }
      ],
      "stateMutability": "view",
      "type": "function",
      "constant": true
    },
    {
      "inputs": [
        {
          "internalType": "uint256",
          "name": "tokenId",
          "type": "uint256"
        }
      ],
      "name": "ownerOf",
      "outputs": [
        {
          "internalType": "address",
          "name": "",
          "type": "address"
        }
      ],
      "stateMutability": "view",
      "type": "function",
      "constant": true
    },
    {
      "inputs": [
        {
          "internalType": "address",
          "name": "from",
          "type": "address"
        },
        {
          "internalType": "address",
          "name": "to",
          "type": "address"
        },
        {
          "internalType": "uint256",
          "name": "tokenId",
          "type": "uint256"
        }
      ],
      "name": "safeTransferFrom",
      "outputs": [],
      "stateMutability": "nonpayable",
      "type": "function"
    },
    {
      "inputs": [
        {
          "internalType": "address",
          "name": "from",
          "type": "address"
        },
        {
          "internalType": "address",
          "name": "to",
          "type": "address"
        },
        {
          "internalType": "uint256",
          "name": "tokenId",
          "type": "uint256"
        },
        {
          "internalType": "bytes",
          "name": "data",
          "type": "bytes"
        }
      ],
      "name": "safeTransferFrom",
      "outputs": [],
      "stateMutability": "nonpayable",
      "type": "function"
    },
    {
      "inputs": [
        {
          "internalType": "address",
          "name": "operator",
          "type": "address"
        },
        {
          "internalType": "bool",
          "name": "approved",
          "type": "bool"
        }
      ],
      "name": "setApprovalForAll",
      "outputs": [],
      "stateMutability": "nonpayable",
      "type": "function"
    },
    {
      "inputs": [],
      "name": "symbol",
      "outputs": [
        {
          "internalType": "string",
          "name": "",
          "type": "string"
        }
      ],
      "stateMutability": "view",
      "type": "function",
      "constant": true
    },
    {
      "inputs": [
        {
          "internalType": "uint256",
          "name": "index",
          "type": "uint256"
        }
      ],
      "name": "tokenByIndex",
      "outputs": [
        {
          "internalType": "uint256",
          "name": "",
          "type": "uint256"
        }
      ],
      "stateMutability": "view",
      "type": "function",
      "constant": true
    },
    {
      "inputs": [
        {
          "internalType": "address",
          "name": "owner",
          "type": "address"
        },
        {
          "internalType": "uint256",
          "name": "index",
          "type": "uint256"
        }
      ],
      "name": "tokenOfOwnerByIndex",
      "outputs": [
        {
          "internalType": "uint256",
          "name": "",
          "type": "uint256"
        }
      ],
      "stateMutability": "view",
      "type": "function",
      "constant": true
    },
    {
      "inputs": [],
      "name": "totalSupply",
      "outputs": [
        {
          "internalType": "uint256",
          "name": "",
          "type": "uint256"
        }
      ],
      "stateMutability": "view",
      "type": "function",
      "constant": true
    },
    {
      "inputs": [
        {
          "internalType": "address",
          "name": "from",
          "type": "address"
        },
        {
          "internalType": "address",
          "name": "to",
          "type": "address"
        },
        {
          "internalType": "uint256",
          "name": "tokenId",
          "type": "uint256"
        }
      ],
      "name": "transferFrom",
      "outputs": [],
      "stateMutability": "nonpayable",
      "type": "function"
    },
    {
      "inputs": [
        {
          "internalType": "address",
          "name": "receiver",
          "type": "address"
        },
        {
          "internalType": "string",
          "name": "type_",
          "type": "string"
        },
        {
          "internalType": "string",
          "name": "uri",
          "type": "string"
        },
        {
          "internalType": "string",
          "name": "docId",
          "type": "string"
        }
      ],
      "name": "sendDocument",
      "outputs": [],
      "stateMutability": "nonpayable",
      "type": "function"
    },
    {
      "inputs": [
        {
          "internalType": "uint256",
          "name": "documentId",
          "type": "uint256"
        }
      ],
      "name": "getDocumentData",
      "outputs": [
        {
          "components": [
            {
              "internalType": "address",
              "name": "owner",
              "type": "address"
            },
            {
              "internalType": "address",
              "name": "issuer",
              "type": "address"
            },
            {
              "internalType": "string",
              "name": "_type",
              "type": "string"
            },
            {
              "internalType": "string",
              "name": "docId",
              "type": "string"
            }
          ],
          "internalType": "struct DocumentNFT.Document",
          "name": "",
          "type": "tuple"
        }
      ],
      "stateMutability": "view",
      "type": "function",
      "constant": true
    },
    {
      "inputs": [],
      "name": "registerInstitution",
      "outputs": [],
      "stateMutability": "nonpayable",
      "type": "function"
    },
    {
      "inputs": [],
      "name": "checkInstitution",
      "outputs": [
        {
          "internalType": "bool",
          "name": "",
          "type": "bool"
        }
      ],
      "stateMutability": "view",
      "type": "function",
      "constant": true
    },
    {
      "inputs": [
        {
          "internalType": "string",
          "name": "uri",
          "type": "string"
        }
      ],
      "name": "checkUri",
      "outputs": [
        {
          "internalType": "bool",
          "name": "",
          "type": "bool"
        }
      ],
      "stateMutability": "view",
      "type": "function",
      "constant": true
    },
    {
      "inputs": [
        {
          "internalType": "bytes4",
          "name": "interfaceId",
          "type": "bytes4"
        }
      ],
      "name": "supportsInterface",
      "outputs": [
        {
          "internalType": "bool",
          "name": "",
          "type": "bool"
        }
      ],
      "stateMutability": "view",
      "type": "function",
      "constant": true
    },
    {
      "inputs": [
        {
          "internalType": "uint256",
          "name": "tokenId",
          "type": "uint256"
        }
      ],
      "name": "tokenURI",
      "outputs": [
        {
          "internalType": "string",
          "name": "",
          "type": "string"
        }
      ],
      "stateMutability": "view",
      "type": "function",
      "constant": true
    }
  ],
  "bytecode": "0x60806040523480156200001157600080fd5b506040518060400160405280600b81526020017f446f63756d656e744e46540000000000000000000000000000000000000000008152506040518060400160405280600381526020017f444f430000000000000000000000000000000000000000000000000000000000815250816000908051906020019062000096929190620000b8565b508060019080519060200190620000af929190620000b8565b505050620001cc565b828054620000c69062000197565b90600052602060002090601f016020900481019282620000ea576000855562000136565b82601f106200010557805160ff191683800117855562000136565b8280016001018555821562000136579182015b828111156200013557825182559160200191906001019062000118565b5b50905062000145919062000149565b5090565b5b80821115620001645760008160009055506001016200014a565b5090565b7f4e487b7100000000000000000000000000000000000000000000000000000000600052602260045260246000fd5b60006002820490506001821680620001b057607f821691505b602082108103620001c657620001c562000168565b5b50919050565b613d3580620001dc6000396000f3fe608060405234801561001057600080fd5b50600436106101375760003560e01c806361853764116100b8578063b88d4fde1161007c578063b88d4fde14610360578063bbf6adb61461037c578063c87b56dd1461039a578063d105cdde146103ca578063e985e9c5146103fa578063fa6d6f8e1461042a57610137565b806361853764146102bc5780636352211e146102c657806370a08231146102f657806395d89b4114610326578063a22cb4651461034457610137565b806318160ddd116100ff57806318160ddd1461020657806323b872dd146102245780632f745c591461024057806342842e0e146102705780634f6ccce71461028c57610137565b806301ffc9a71461013c57806306fdde031461016c578063081812fc1461018a578063095ea7b3146101ba57806309e4f2f0146101d6575b600080fd5b61015660048036038101906101519190612898565b610446565b60405161016391906128e0565b60405180910390f35b610174610458565b6040516101819190612994565b60405180910390f35b6101a4600480360381019061019f91906129ec565b6104ea565b6040516101b19190612a5a565b60405180910390f35b6101d460048036038101906101cf9190612aa1565b610530565b005b6101f060048036038101906101eb9190612c16565b610647565b6040516101fd91906128e0565b60405180910390f35b61020e61067c565b60405161021b9190612c6e565b60405180910390f35b61023e60048036038101906102399190612c89565b610689565b005b61025a60048036038101906102559190612aa1565b6106e9565b6040516102679190612c6e565b60405180910390f35b61028a60048036038101906102859190612c89565b61078e565b005b6102a660048036038101906102a191906129ec565b6107ae565b6040516102b39190612c6e565b60405180910390f35b6102c461081f565b005b6102e060048036038101906102db91906129ec565b610906565b6040516102ed9190612a5a565b60405180910390f35b610310600480360381019061030b9190612cdc565b61098c565b60405161031d9190612c6e565b60405180910390f35b61032e610a43565b60405161033b9190612994565b60405180910390f35b61035e60048036038101906103599190612d35565b610ad5565b005b61037a60048036038101906103759190612e16565b610aeb565b005b610384610b4d565b60405161039191906128e0565b60405180910390f35b6103b460048036038101906103af91906129ec565b610ba1565b6040516103c19190612994565b60405180910390f35b6103e460048036038101906103df91906129ec565b610bb3565b6040516103f19190612f5c565b60405180910390f35b610414600480360381019061040f9190612f7e565b610db0565b60405161042191906128e0565b60405180910390f35b610444600480360381019061043f9190612fbe565b610e44565b005b6000610451826110dc565b9050919050565b606060008054610467906130a8565b80601f0160208091040260200160405190810160405280929190818152602001828054610493906130a8565b80156104e05780601f106104b5576101008083540402835291602001916104e0565b820191906000526020600020905b8154815290600101906020018083116104c357829003601f168201915b5050505050905090565b60006104f582611156565b6004600083815260200190815260200160002060009054906101000a900473ffffffffffffffffffffffffffffffffffffffff169050919050565b600061053b82610906565b90508073ffffffffffffffffffffffffffffffffffffffff168373ffffffffffffffffffffffffffffffffffffffff16036105ab576040517f08c379a00000000000000000000000000000000000000000000000000000000081526004016105a29061314b565b60405180910390fd5b8073ffffffffffffffffffffffffffffffffffffffff166105ca6111a1565b73ffffffffffffffffffffffffffffffffffffffff1614806105f957506105f8816105f36111a1565b610db0565b5b610638576040517f08c379a000000000000000000000000000000000000000000000000000000000815260040161062f906131dd565b60405180910390fd5b61064283836111a9565b505050565b6000600e826040516106599190613239565b908152602001604051809103902060009054906101000a900460ff169050919050565b6000600880549050905090565b61069a6106946111a1565b82611262565b6106d9576040517f08c379a00000000000000000000000000000000000000000000000000000000081526004016106d0906132c2565b60405180910390fd5b6106e48383836112f7565b505050565b60006106f48361098c565b8210610735576040517f08c379a000000000000000000000000000000000000000000000000000000000815260040161072c90613354565b60405180910390fd5b600660008473ffffffffffffffffffffffffffffffffffffffff1673ffffffffffffffffffffffffffffffffffffffff168152602001908152602001600020600083815260200190815260200160002054905092915050565b6107a983838360405180602001604052806000815250610aeb565b505050565b60006107b861067c565b82106107f9576040517f08c379a00000000000000000000000000000000000000000000000000000000081526004016107f0906133e6565b60405180910390fd5b6008828154811061080d5761080c613406565b5b90600052602060002001549050919050565b600d60003373ffffffffffffffffffffffffffffffffffffffff1673ffffffffffffffffffffffffffffffffffffffff16815260200190815260200160002060009054906101000a900460ff16156108ac576040517f08c379a00000000000000000000000000000000000000000000000000000000081526004016108a390613481565b60405180910390fd5b6001600d60003373ffffffffffffffffffffffffffffffffffffffff1673ffffffffffffffffffffffffffffffffffffffff16815260200190815260200160002060006101000a81548160ff021916908315150217905550565b600080610912836115f0565b9050600073ffffffffffffffffffffffffffffffffffffffff168173ffffffffffffffffffffffffffffffffffffffff1603610983576040517f08c379a000000000000000000000000000000000000000000000000000000000815260040161097a906134ed565b60405180910390fd5b80915050919050565b60008073ffffffffffffffffffffffffffffffffffffffff168273ffffffffffffffffffffffffffffffffffffffff16036109fc576040517f08c379a00000000000000000000000000000000000000000000000000000000081526004016109f39061357f565b60405180910390fd5b600360008373ffffffffffffffffffffffffffffffffffffffff1673ffffffffffffffffffffffffffffffffffffffff168152602001908152602001600020549050919050565b606060018054610a52906130a8565b80601f0160208091040260200160405190810160405280929190818152602001828054610a7e906130a8565b8015610acb5780601f10610aa057610100808354040283529160200191610acb565b820191906000526020600020905b815481529060010190602001808311610aae57829003601f168201915b5050505050905090565b610ae7610ae06111a1565b838361162d565b5050565b610afc610af66111a1565b83611262565b610b3b576040517f08c379a0000000000000000000000000000000000000000000000000000000008152600401610b32906132c2565b60405180910390fd5b610b4784848484611799565b50505050565b6000600d60003373ffffffffffffffffffffffffffffffffffffffff1673ffffffffffffffffffffffffffffffffffffffff16815260200190815260200160002060009054906101000a900460ff16905090565b6060610bac826117f5565b9050919050565b610bbb612735565b600c60008381526020019081526020016000206040518060800160405290816000820160009054906101000a900473ffffffffffffffffffffffffffffffffffffffff1673ffffffffffffffffffffffffffffffffffffffff1673ffffffffffffffffffffffffffffffffffffffff1681526020016001820160009054906101000a900473ffffffffffffffffffffffffffffffffffffffff1673ffffffffffffffffffffffffffffffffffffffff1673ffffffffffffffffffffffffffffffffffffffff168152602001600282018054610c95906130a8565b80601f0160208091040260200160405190810160405280929190818152602001828054610cc1906130a8565b8015610d0e5780601f10610ce357610100808354040283529160200191610d0e565b820191906000526020600020905b815481529060010190602001808311610cf157829003601f168201915b50505050508152602001600382018054610d27906130a8565b80601f0160208091040260200160405190810160405280929190818152602001828054610d53906130a8565b8015610da05780601f10610d7557610100808354040283529160200191610da0565b820191906000526020600020905b815481529060010190602001808311610d8357829003601f168201915b5050505050815250509050919050565b6000600560008473ffffffffffffffffffffffffffffffffffffffff1673ffffffffffffffffffffffffffffffffffffffff16815260200190815260200160002060008373ffffffffffffffffffffffffffffffffffffffff1673ffffffffffffffffffffffffffffffffffffffff16815260200190815260200160002060009054906101000a900460ff16905092915050565b600d60003373ffffffffffffffffffffffffffffffffffffffff1673ffffffffffffffffffffffffffffffffffffffff16815260200190815260200160002060009054906101000a900460ff16610ed0576040517f08c379a0000000000000000000000000000000000000000000000000000000008152600401610ec790613611565b60405180910390fd5b600e82604051610ee09190613239565b908152602001604051809103902060009054906101000a900460ff1615610f3c576040517f08c379a0000000000000000000000000000000000000000000000000000000008152600401610f33906136a3565b60405180910390fd5b6000610f48600b611907565b905060405180608001604052808673ffffffffffffffffffffffffffffffffffffffff1681526020013373ffffffffffffffffffffffffffffffffffffffff16815260200185815260200183815250600c600083815260200190815260200160002060008201518160000160006101000a81548173ffffffffffffffffffffffffffffffffffffffff021916908373ffffffffffffffffffffffffffffffffffffffff16021790555060208201518160010160006101000a81548173ffffffffffffffffffffffffffffffffffffffff021916908373ffffffffffffffffffffffffffffffffffffffff1602179055506040820151816002019080519060200190611054929190612789565b506060820151816003019080519060200190611071929190612789565b5090505061107f3382611915565b6110898184611b32565b6110943386836112f7565b6001600e846040516110a69190613239565b908152602001604051809103902060006101000a81548160ff0219169083151502179055506110d5600b611ba6565b5050505050565b60007f780e9d63000000000000000000000000000000000000000000000000000000007bffffffffffffffffffffffffffffffffffffffffffffffffffffffff1916827bffffffffffffffffffffffffffffffffffffffffffffffffffffffff1916148061114f575061114e82611bbc565b5b9050919050565b61115f81611c9e565b61119e576040517f08c379a0000000000000000000000000000000000000000000000000000000008152600401611195906134ed565b60405180910390fd5b50565b600033905090565b816004600083815260200190815260200160002060006101000a81548173ffffffffffffffffffffffffffffffffffffffff021916908373ffffffffffffffffffffffffffffffffffffffff160217905550808273ffffffffffffffffffffffffffffffffffffffff1661121c83610906565b73ffffffffffffffffffffffffffffffffffffffff167f8c5be1e5ebec7d5bd14f71427d1e84f3dd0314c0f7b2291e5b200ac8c7c3b92560405160405180910390a45050565b60008061126e83610906565b90508073ffffffffffffffffffffffffffffffffffffffff168473ffffffffffffffffffffffffffffffffffffffff1614806112b057506112af8185610db0565b5b806112ee57508373ffffffffffffffffffffffffffffffffffffffff166112d6846104ea565b73ffffffffffffffffffffffffffffffffffffffff16145b91505092915050565b8273ffffffffffffffffffffffffffffffffffffffff1661131782610906565b73ffffffffffffffffffffffffffffffffffffffff161461136d576040517f08c379a000000000000000000000000000000000000000000000000000000000815260040161136490613735565b60405180910390fd5b600073ffffffffffffffffffffffffffffffffffffffff168273ffffffffffffffffffffffffffffffffffffffff16036113dc576040517f08c379a00000000000000000000000000000000000000000000000000000000081526004016113d3906137c7565b60405180910390fd5b6113e98383836001611cdf565b8273ffffffffffffffffffffffffffffffffffffffff1661140982610906565b73ffffffffffffffffffffffffffffffffffffffff161461145f576040517f08c379a000000000000000000000000000000000000000000000000000000000815260040161145690613735565b60405180910390fd5b6004600082815260200190815260200160002060006101000a81549073ffffffffffffffffffffffffffffffffffffffff02191690556001600360008573ffffffffffffffffffffffffffffffffffffffff1673ffffffffffffffffffffffffffffffffffffffff168152602001908152602001600020600082825403925050819055506001600360008473ffffffffffffffffffffffffffffffffffffffff1673ffffffffffffffffffffffffffffffffffffffff16815260200190815260200160002060008282540192505081905550816002600083815260200190815260200160002060006101000a81548173ffffffffffffffffffffffffffffffffffffffff021916908373ffffffffffffffffffffffffffffffffffffffff160217905550808273ffffffffffffffffffffffffffffffffffffffff168473ffffffffffffffffffffffffffffffffffffffff167fddf252ad1be2c89b69c2b068fc378daa952ba7f163c4a11628f55a4df523b3ef60405160405180910390a46115eb8383836001611cf1565b505050565b60006002600083815260200190815260200160002060009054906101000a900473ffffffffffffffffffffffffffffffffffffffff169050919050565b8173ffffffffffffffffffffffffffffffffffffffff168373ffffffffffffffffffffffffffffffffffffffff160361169b576040517f08c379a000000000000000000000000000000000000000000000000000000000815260040161169290613833565b60405180910390fd5b80600560008573ffffffffffffffffffffffffffffffffffffffff1673ffffffffffffffffffffffffffffffffffffffff16815260200190815260200160002060008473ffffffffffffffffffffffffffffffffffffffff1673ffffffffffffffffffffffffffffffffffffffff16815260200190815260200160002060006101000a81548160ff0219169083151502179055508173ffffffffffffffffffffffffffffffffffffffff168373ffffffffffffffffffffffffffffffffffffffff167f17307eab39ab6107e8899845ad3d59bd9653f200f220920489ca2b5937696c318360405161178c91906128e0565b60405180910390a3505050565b6117a48484846112f7565b6117b084848484611cf7565b6117ef576040517f08c379a00000000000000000000000000000000000000000000000000000000081526004016117e6906138c5565b60405180910390fd5b50505050565b606061180082611156565b6000600a60008481526020019081526020016000208054611820906130a8565b80601f016020809104026020016040519081016040528092919081815260200182805461184c906130a8565b80156118995780601f1061186e57610100808354040283529160200191611899565b820191906000526020600020905b81548152906001019060200180831161187c57829003601f168201915b5050505050905060006118aa611e7e565b905060008151036118bf578192505050611902565b6000825111156118f45780826040516020016118dc9291906138e5565b60405160208183030381529060405292505050611902565b6118fd84611e95565b925050505b919050565b600081600001549050919050565b600073ffffffffffffffffffffffffffffffffffffffff168273ffffffffffffffffffffffffffffffffffffffff1603611984576040517f08c379a000000000000000000000000000000000000000000000000000000000815260040161197b90613955565b60405180910390fd5b61198d81611c9e565b156119cd576040517f08c379a00000000000000000000000000000000000000000000000000000000081526004016119c4906139c1565b60405180910390fd5b6119db600083836001611cdf565b6119e481611c9e565b15611a24576040517f08c379a0000000000000000000000000000000000000000000000000000000008152600401611a1b906139c1565b60405180910390fd5b6001600360008473ffffffffffffffffffffffffffffffffffffffff1673ffffffffffffffffffffffffffffffffffffffff16815260200190815260200160002060008282540192505081905550816002600083815260200190815260200160002060006101000a81548173ffffffffffffffffffffffffffffffffffffffff021916908373ffffffffffffffffffffffffffffffffffffffff160217905550808273ffffffffffffffffffffffffffffffffffffffff16600073ffffffffffffffffffffffffffffffffffffffff167fddf252ad1be2c89b69c2b068fc378daa952ba7f163c4a11628f55a4df523b3ef60405160405180910390a4611b2e600083836001611cf1565b5050565b611b3b82611c9e565b611b7a576040517f08c379a0000000000000000000000000000000000000000000000000000000008152600401611b7190613a53565b60405180910390fd5b80600a60008481526020019081526020016000209080519060200190611ba1929190612789565b505050565b6001816000016000828254019250508190555050565b60007f80ac58cd000000000000000000000000000000000000000000000000000000007bffffffffffffffffffffffffffffffffffffffffffffffffffffffff1916827bffffffffffffffffffffffffffffffffffffffffffffffffffffffff19161480611c8757507f5b5e139f000000000000000000000000000000000000000000000000000000007bffffffffffffffffffffffffffffffffffffffffffffffffffffffff1916827bffffffffffffffffffffffffffffffffffffffffffffffffffffffff1916145b80611c975750611c9682611efd565b5b9050919050565b60008073ffffffffffffffffffffffffffffffffffffffff16611cc0836115f0565b73ffffffffffffffffffffffffffffffffffffffff1614159050919050565b611ceb84848484611f67565b50505050565b50505050565b6000611d188473ffffffffffffffffffffffffffffffffffffffff166120c5565b15611e71578373ffffffffffffffffffffffffffffffffffffffff1663150b7a02611d416111a1565b8786866040518563ffffffff1660e01b8152600401611d639493929190613ac8565b6020604051808303816000875af1925050508015611d9f57506040513d601f19601f82011682018060405250810190611d9c9190613b29565b60015b611e21573d8060008114611dcf576040519150601f19603f3d011682016040523d82523d6000602084013e611dd4565b606091505b506000815103611e19576040517f08c379a0000000000000000000000000000000000000000000000000000000008152600401611e10906138c5565b60405180910390fd5b805181602001fd5b63150b7a0260e01b7bffffffffffffffffffffffffffffffffffffffffffffffffffffffff1916817bffffffffffffffffffffffffffffffffffffffffffffffffffffffff191614915050611e76565b600190505b949350505050565b606060405180602001604052806000815250905090565b6060611ea082611156565b6000611eaa611e7e565b90506000815111611eca5760405180602001604052806000815250611ef5565b80611ed4846120e8565b604051602001611ee59291906138e5565b6040516020818303038152906040525b915050919050565b60007f01ffc9a7000000000000000000000000000000000000000000000000000000007bffffffffffffffffffffffffffffffffffffffffffffffffffffffff1916827bffffffffffffffffffffffffffffffffffffffffffffffffffffffff1916149050919050565b611f73848484846121b6565b6001811115611fb7576040517f08c379a0000000000000000000000000000000000000000000000000000000008152600401611fae90613bc8565b60405180910390fd5b6000829050600073ffffffffffffffffffffffffffffffffffffffff168573ffffffffffffffffffffffffffffffffffffffff1603611ffe57611ff9816122dc565b61203d565b8373ffffffffffffffffffffffffffffffffffffffff168573ffffffffffffffffffffffffffffffffffffffff161461203c5761203b8582612325565b5b5b600073ffffffffffffffffffffffffffffffffffffffff168473ffffffffffffffffffffffffffffffffffffffff160361207f5761207a81612492565b6120be565b8473ffffffffffffffffffffffffffffffffffffffff168473ffffffffffffffffffffffffffffffffffffffff16146120bd576120bc8482612563565b5b5b5050505050565b6000808273ffffffffffffffffffffffffffffffffffffffff163b119050919050565b6060600060016120f7846125e2565b01905060008167ffffffffffffffff81111561211657612115612aeb565b5b6040519080825280601f01601f1916602001820160405280156121485781602001600182028036833780820191505090505b509050600082602001820190505b6001156121ab578080600190039150507f3031323334353637383961626364656600000000000000000000000000000000600a86061a8153600a858161219f5761219e613be8565b5b04945060008503612156575b819350505050919050565b60018111156122d657600073ffffffffffffffffffffffffffffffffffffffff168473ffffffffffffffffffffffffffffffffffffffff161461224a5780600360008673ffffffffffffffffffffffffffffffffffffffff1673ffffffffffffffffffffffffffffffffffffffff16815260200190815260200160002060008282546122429190613c46565b925050819055505b600073ffffffffffffffffffffffffffffffffffffffff168373ffffffffffffffffffffffffffffffffffffffff16146122d55780600360008573ffffffffffffffffffffffffffffffffffffffff1673ffffffffffffffffffffffffffffffffffffffff16815260200190815260200160002060008282546122cd9190613c7a565b925050819055505b5b50505050565b6008805490506009600083815260200190815260200160002081905550600881908060018154018082558091505060019003906000526020600020016000909190919091505550565b600060016123328461098c565b61233c9190613c46565b9050600060076000848152602001908152602001600020549050818114612421576000600660008673ffffffffffffffffffffffffffffffffffffffff1673ffffffffffffffffffffffffffffffffffffffff168152602001908152602001600020600084815260200190815260200160002054905080600660008773ffffffffffffffffffffffffffffffffffffffff1673ffffffffffffffffffffffffffffffffffffffff168152602001908152602001600020600084815260200190815260200160002081905550816007600083815260200190815260200160002081905550505b6007600084815260200190815260200160002060009055600660008573ffffffffffffffffffffffffffffffffffffffff1673ffffffffffffffffffffffffffffffffffffffff16815260200190815260200160002060008381526020019081526020016000206000905550505050565b600060016008805490506124a69190613c46565b90506000600960008481526020019081526020016000205490506000600883815481106124d6576124d5613406565b5b9060005260206000200154905080600883815481106124f8576124f7613406565b5b90600052602060002001819055508160096000838152602001908152602001600020819055506009600085815260200190815260200160002060009055600880548061254757612546613cd0565b5b6001900381819060005260206000200160009055905550505050565b600061256e8361098c565b905081600660008573ffffffffffffffffffffffffffffffffffffffff1673ffffffffffffffffffffffffffffffffffffffff168152602001908152602001600020600083815260200190815260200160002081905550806007600084815260200190815260200160002081905550505050565b600080600090507a184f03e93ff9f4daa797ed6e38ed64bf6a1f0100000000000000008310612640577a184f03e93ff9f4daa797ed6e38ed64bf6a1f010000000000000000838161263657612635613be8565b5b0492506040810190505b6d04ee2d6d415b85acef8100000000831061267d576d04ee2d6d415b85acef8100000000838161267357612672613be8565b5b0492506020810190505b662386f26fc1000083106126ac57662386f26fc1000083816126a2576126a1613be8565b5b0492506010810190505b6305f5e10083106126d5576305f5e10083816126cb576126ca613be8565b5b0492506008810190505b61271083106126fa5761271083816126f0576126ef613be8565b5b0492506004810190505b6064831061271d576064838161271357612712613be8565b5b0492506002810190505b600a831061272c576001810190505b80915050919050565b6040518060800160405280600073ffffffffffffffffffffffffffffffffffffffff168152602001600073ffffffffffffffffffffffffffffffffffffffff16815260200160608152602001606081525090565b828054612795906130a8565b90600052602060002090601f0160209004810192826127b757600085556127fe565b82601f106127d057805160ff19168380011785556127fe565b828001600101855582156127fe579182015b828111156127fd5782518255916020019190600101906127e2565b5b50905061280b919061280f565b5090565b5b80821115612828576000816000905550600101612810565b5090565b6000604051905090565b600080fd5b600080fd5b60007fffffffff0000000000000000000000000000000000000000000000000000000082169050919050565b61287581612840565b811461288057600080fd5b50565b6000813590506128928161286c565b92915050565b6000602082840312156128ae576128ad612836565b5b60006128bc84828501612883565b91505092915050565b60008115159050919050565b6128da816128c5565b82525050565b60006020820190506128f560008301846128d1565b92915050565b600081519050919050565b600082825260208201905092915050565b60005b8381101561293557808201518184015260208101905061291a565b83811115612944576000848401525b50505050565b6000601f19601f8301169050919050565b6000612966826128fb565b6129708185612906565b9350612980818560208601612917565b6129898161294a565b840191505092915050565b600060208201905081810360008301526129ae818461295b565b905092915050565b6000819050919050565b6129c9816129b6565b81146129d457600080fd5b50565b6000813590506129e6816129c0565b92915050565b600060208284031215612a0257612a01612836565b5b6000612a10848285016129d7565b91505092915050565b600073ffffffffffffffffffffffffffffffffffffffff82169050919050565b6000612a4482612a19565b9050919050565b612a5481612a39565b82525050565b6000602082019050612a6f6000830184612a4b565b92915050565b612a7e81612a39565b8114612a8957600080fd5b50565b600081359050612a9b81612a75565b92915050565b60008060408385031215612ab857612ab7612836565b5b6000612ac685828601612a8c565b9250506020612ad7858286016129d7565b9150509250929050565b600080fd5b600080fd5b7f4e487b7100000000000000000000000000000000000000000000000000000000600052604160045260246000fd5b612b238261294a565b810181811067ffffffffffffffff82111715612b4257612b41612aeb565b5b80604052505050565b6000612b5561282c565b9050612b618282612b1a565b919050565b600067ffffffffffffffff821115612b8157612b80612aeb565b5b612b8a8261294a565b9050602081019050919050565b82818337600083830152505050565b6000612bb9612bb484612b66565b612b4b565b905082815260208101848484011115612bd557612bd4612ae6565b5b612be0848285612b97565b509392505050565b600082601f830112612bfd57612bfc612ae1565b5b8135612c0d848260208601612ba6565b91505092915050565b600060208284031215612c2c57612c2b612836565b5b600082013567ffffffffffffffff811115612c4a57612c4961283b565b5b612c5684828501612be8565b91505092915050565b612c68816129b6565b82525050565b6000602082019050612c836000830184612c5f565b92915050565b600080600060608486031215612ca257612ca1612836565b5b6000612cb086828701612a8c565b9350506020612cc186828701612a8c565b9250506040612cd2868287016129d7565b9150509250925092565b600060208284031215612cf257612cf1612836565b5b6000612d0084828501612a8c565b91505092915050565b612d12816128c5565b8114612d1d57600080fd5b50565b600081359050612d2f81612d09565b92915050565b60008060408385031215612d4c57612d4b612836565b5b6000612d5a85828601612a8c565b9250506020612d6b85828601612d20565b9150509250929050565b600067ffffffffffffffff821115612d9057612d8f612aeb565b5b612d998261294a565b9050602081019050919050565b6000612db9612db484612d75565b612b4b565b905082815260208101848484011115612dd557612dd4612ae6565b5b612de0848285612b97565b509392505050565b600082601f830112612dfd57612dfc612ae1565b5b8135612e0d848260208601612da6565b91505092915050565b60008060008060808587031215612e3057612e2f612836565b5b6000612e3e87828801612a8c565b9450506020612e4f87828801612a8c565b9350506040612e60878288016129d7565b925050606085013567ffffffffffffffff811115612e8157612e8061283b565b5b612e8d87828801612de8565b91505092959194509250565b612ea281612a39565b82525050565b600082825260208201905092915050565b6000612ec4826128fb565b612ece8185612ea8565b9350612ede818560208601612917565b612ee78161294a565b840191505092915050565b6000608083016000830151612f0a6000860182612e99565b506020830151612f1d6020860182612e99565b5060408301518482036040860152612f358282612eb9565b91505060608301518482036060860152612f4f8282612eb9565b9150508091505092915050565b60006020820190508181036000830152612f768184612ef2565b905092915050565b60008060408385031215612f9557612f94612836565b5b6000612fa385828601612a8c565b9250506020612fb485828601612a8c565b9150509250929050565b60008060008060808587031215612fd857612fd7612836565b5b6000612fe687828801612a8c565b945050602085013567ffffffffffffffff8111156130075761300661283b565b5b61301387828801612be8565b935050604085013567ffffffffffffffff8111156130345761303361283b565b5b61304087828801612be8565b925050606085013567ffffffffffffffff8111156130615761306061283b565b5b61306d87828801612be8565b91505092959194509250565b7f4e487b7100000000000000000000000000000000000000000000000000000000600052602260045260246000fd5b600060028204905060018216806130c057607f821691505b6020821081036130d3576130d2613079565b5b50919050565b7f4552433732313a20617070726f76616c20746f2063757272656e74206f776e6560008201527f7200000000000000000000000000000000000000000000000000000000000000602082015250565b6000613135602183612906565b9150613140826130d9565b604082019050919050565b6000602082019050818103600083015261316481613128565b9050919050565b7f4552433732313a20617070726f76652063616c6c6572206973206e6f7420746f60008201527f6b656e206f776e6572206f7220617070726f76656420666f7220616c6c000000602082015250565b60006131c7603d83612906565b91506131d28261316b565b604082019050919050565b600060208201905081810360008301526131f6816131ba565b9050919050565b600081905092915050565b6000613213826128fb565b61321d81856131fd565b935061322d818560208601612917565b80840191505092915050565b60006132458284613208565b915081905092915050565b7f4552433732313a2063616c6c6572206973206e6f7420746f6b656e206f776e6560008201527f72206f7220617070726f76656400000000000000000000000000000000000000602082015250565b60006132ac602d83612906565b91506132b782613250565b604082019050919050565b600060208201905081810360008301526132db8161329f565b9050919050565b7f455243373231456e756d657261626c653a206f776e657220696e646578206f7560008201527f74206f6620626f756e6473000000000000000000000000000000000000000000602082015250565b600061333e602b83612906565b9150613349826132e2565b604082019050919050565b6000602082019050818103600083015261336d81613331565b9050919050565b7f455243373231456e756d657261626c653a20676c6f62616c20696e646578206f60008201527f7574206f6620626f756e64730000000000000000000000000000000000000000602082015250565b60006133d0602c83612906565b91506133db82613374565b604082019050919050565b600060208201905081810360008301526133ff816133c3565b9050919050565b7f4e487b7100000000000000000000000000000000000000000000000000000000600052603260045260246000fd5b7f416c726561647920616e2061646d696e206f6620696e737469747574696f6e00600082015250565b600061346b601f83612906565b915061347682613435565b602082019050919050565b6000602082019050818103600083015261349a8161345e565b9050919050565b7f4552433732313a20696e76616c696420746f6b656e2049440000000000000000600082015250565b60006134d7601883612906565b91506134e2826134a1565b602082019050919050565b60006020820190508181036000830152613506816134ca565b9050919050565b7f4552433732313a2061646472657373207a65726f206973206e6f74206120766160008201527f6c6964206f776e65720000000000000000000000000000000000000000000000602082015250565b6000613569602983612906565b91506135748261350d565b604082019050919050565b600060208201905081810360008301526135988161355c565b9050919050565b7f53656e646572206973206e6f7420616e2061646d696e206f6620696e7374697460008201527f7574696f6e000000000000000000000000000000000000000000000000000000602082015250565b60006135fb602583612906565b91506136068261359f565b604082019050919050565b6000602082019050818103600083015261362a816135ee565b9050919050565b7f446f63756d656e7420616c7265616479206f776e656420627920616e6f74686560008201527f7220616464726573730000000000000000000000000000000000000000000000602082015250565b600061368d602983612906565b915061369882613631565b604082019050919050565b600060208201905081810360008301526136bc81613680565b9050919050565b7f4552433732313a207472616e736665722066726f6d20696e636f72726563742060008201527f6f776e6572000000000000000000000000000000000000000000000000000000602082015250565b600061371f602583612906565b915061372a826136c3565b604082019050919050565b6000602082019050818103600083015261374e81613712565b9050919050565b7f4552433732313a207472616e7366657220746f20746865207a65726f2061646460008201527f7265737300000000000000000000000000000000000000000000000000000000602082015250565b60006137b1602483612906565b91506137bc82613755565b604082019050919050565b600060208201905081810360008301526137e0816137a4565b9050919050565b7f4552433732313a20617070726f766520746f2063616c6c657200000000000000600082015250565b600061381d601983612906565b9150613828826137e7565b602082019050919050565b6000602082019050818103600083015261384c81613810565b9050919050565b7f4552433732313a207472616e7366657220746f206e6f6e20455243373231526560008201527f63656976657220696d706c656d656e7465720000000000000000000000000000602082015250565b60006138af603283612906565b91506138ba82613853565b604082019050919050565b600060208201905081810360008301526138de816138a2565b9050919050565b60006138f18285613208565b91506138fd8284613208565b91508190509392505050565b7f4552433732313a206d696e7420746f20746865207a65726f2061646472657373600082015250565b600061393f602083612906565b915061394a82613909565b602082019050919050565b6000602082019050818103600083015261396e81613932565b9050919050565b7f4552433732313a20746f6b656e20616c7265616479206d696e74656400000000600082015250565b60006139ab601c83612906565b91506139b682613975565b602082019050919050565b600060208201905081810360008301526139da8161399e565b9050919050565b7f45524337323155524953746f726167653a2055524920736574206f66206e6f6e60008201527f6578697374656e7420746f6b656e000000000000000000000000000000000000602082015250565b6000613a3d602e83612906565b9150613a48826139e1565b604082019050919050565b60006020820190508181036000830152613a6c81613a30565b9050919050565b600081519050919050565b600082825260208201905092915050565b6000613a9a82613a73565b613aa48185613a7e565b9350613ab4818560208601612917565b613abd8161294a565b840191505092915050565b6000608082019050613add6000830187612a4b565b613aea6020830186612a4b565b613af76040830185612c5f565b8181036060830152613b098184613a8f565b905095945050505050565b600081519050613b238161286c565b92915050565b600060208284031215613b3f57613b3e612836565b5b6000613b4d84828501613b14565b91505092915050565b7f455243373231456e756d657261626c653a20636f6e736563757469766520747260008201527f616e7366657273206e6f7420737570706f727465640000000000000000000000602082015250565b6000613bb2603583612906565b9150613bbd82613b56565b604082019050919050565b60006020820190508181036000830152613be181613ba5565b9050919050565b7f4e487b7100000000000000000000000000000000000000000000000000000000600052601260045260246000fd5b7f4e487b7100000000000000000000000000000000000000000000000000000000600052601160045260246000fd5b6000613c51826129b6565b9150613c5c836129b6565b925082821015613c6f57613c6e613c17565b5b828203905092915050565b6000613c85826129b6565b9150613c90836129b6565b9250827fffffffffffffffffffffffffffffffffffffffffffffffffffffffffffffffff03821115613cc557613cc4613c17565b5b828201905092915050565b7f4e487b7100000000000000000000000000000000000000000000000000000000600052603160045260246000fdfea2646970667358221220fa9aca607be973b825bf59c2aecd52aa21f81436a7da3f72fbb6434c5140b15264736f6c634300080d0033",
  "immutableReferences": {},
  "source": "// SPDX-License-Identifier: MIT\r\npragma solidity >=0.4.22 <0.9.0;\r\n\r\nimport \"@openzeppelin/contracts/token/ERC721/ERC721.sol\";\r\nimport \"@openzeppelin/contracts/token/ERC721/extensions/ERC721Enumerable.sol\";\r\nimport \"@openzeppelin/contracts/token/ERC721/extensions/ERC721URIStorage.sol\";\r\nimport \"@openzeppelin/contracts/utils/Counters.sol\";\r\n\r\ncontract DocumentNFT is ERC721, ERC721Enumerable, ERC721URIStorage\r\n{\r\n    using Counters for Counters.Counter;\r\n\tCounters.Counter documentIds;\r\n\r\n\tstruct Document\r\n\t{\r\n\t\taddress owner;\r\n\t\taddress issuer;\r\n\t\tstring _type;\r\n        string docId;\r\n\t}\r\n\r\n\tmapping(uint256 => Document) documents;\r\n\tmapping(address => bool) institutions;\r\n    mapping(string => bool) uris;\r\n\r\n\tconstructor() ERC721(\"DocumentNFT\", \"DOC\") {}\r\n\r\n\t// Handles the minting and transferring of the document to its owner\r\n\tfunction sendDocument(\r\n\t\taddress receiver,\r\n\t\tstring memory type_,\r\n\t\tstring memory uri,\r\n        string memory docId\r\n\t) public\r\n\t{\r\n\t\t// Check if sender is admin of institution\r\n\t\trequire(institutions[msg.sender], \"Sender is not an admin of institution\");\r\n        require(!uris[uri], \"Document already owned by another address\");\r\n\r\n\t\t// Generate a unique, new documentd id\r\n\t\tuint256 newDocumentId = documentIds.current();\r\n\r\n\t\t// Create a Document instance and store it to the documents mapping\r\n\t\tdocuments[newDocumentId] = Document(receiver, msg.sender, type_, docId);\r\n\r\n        // Mint\r\n\t\t_mint(msg.sender, newDocumentId);\r\n\r\n        // Save token URI\r\n        _setTokenURI(newDocumentId, uri);\r\n\r\n        // Transfer\r\n\t\t_transfer(msg.sender, receiver, newDocumentId);\r\n\r\n        // Add uri to uris\r\n\t\turis[uri] = true;\r\n\r\n\t\tdocumentIds.increment();\r\n\t}\r\n\r\n\t// Returns the metadata of a document\r\n\tfunction getDocumentData(uint256 documentId) public view returns(Document memory)\r\n\t{\r\n\t\treturn documents[documentId];\r\n\t}\r\n\r\n\t/* Institution-handlers */\r\n\r\n    // Add sender to the institutions mapping\r\n\tfunction registerInstitution() public\r\n\t{\r\n\t\trequire(!institutions[msg.sender], \"Already an admin of institution\");\r\n\t\t\r\n\t\tinstitutions[msg.sender] = true;\r\n\t}\r\n\r\n    // Check if sender is institution\r\n    function checkInstitution() public view returns(bool)\r\n\t{\r\n\t\treturn institutions[msg.sender];\r\n\t}\r\n\r\n\t/* URI Handler */\r\n\r\n\tfunction checkUri(string memory uri) public view returns(bool)\r\n\t{\r\n\t\treturn uris[uri];\r\n\t}\r\n\r\n    /* Overrides - MUST BE INCLUDED */\r\n    \r\n\tfunction _beforeTokenTransfer(address from, address to, uint256 batchSize, uint256 tokenId) internal override(ERC721, ERC721Enumerable)\r\n\t{\r\n\t\tsuper._beforeTokenTransfer(from, to, batchSize, tokenId);\r\n\t}\r\n\r\n\tfunction supportsInterface(bytes4 interfaceId) public view override(ERC721, ERC721Enumerable) returns(bool)\r\n\t{\r\n\t\treturn super.supportsInterface(interfaceId);\r\n\t}\r\n\r\n    function _burn(uint256 tokenId) internal override(ERC721, ERC721URIStorage)\r\n\t{\r\n        super._burn(tokenId);\r\n    }\r\n\r\n\tfunction tokenURI(uint256 tokenId) public view override(ERC721, ERC721URIStorage) returns (string memory)\r\n    {\r\n        return super.tokenURI(tokenId);\r\n    }\r\n}",
  "sourcePath": "C:\\Users\\admin\\Documents\\GitHub\\iCertify\\api\\contracts\\DocumentNFT.sol",
  "compiler": {
    "name": "solc",
    "version": "0.8.13+commit.abaa5c0e.Emscripten.clang"
  },
  "schemaVersion": "3.4.7",
  "updatedAt": "2023-04-05T23:27:02.269Z",
  "networkType": "ethereum",
  "devdoc": {
    "kind": "dev",
    "methods": {
      "approve(address,uint256)": {
        "details": "See {IERC721-approve}."
      },
      "balanceOf(address)": {
        "details": "See {IERC721-balanceOf}."
      },
      "getApproved(uint256)": {
        "details": "See {IERC721-getApproved}."
      },
      "isApprovedForAll(address,address)": {
        "details": "See {IERC721-isApprovedForAll}."
      },
      "name()": {
        "details": "See {IERC721Metadata-name}."
      },
      "ownerOf(uint256)": {
        "details": "See {IERC721-ownerOf}."
      },
      "safeTransferFrom(address,address,uint256)": {
        "details": "See {IERC721-safeTransferFrom}."
      },
      "safeTransferFrom(address,address,uint256,bytes)": {
        "details": "See {IERC721-safeTransferFrom}."
      },
      "setApprovalForAll(address,bool)": {
        "details": "See {IERC721-setApprovalForAll}."
      },
      "symbol()": {
        "details": "See {IERC721Metadata-symbol}."
      },
      "tokenByIndex(uint256)": {
        "details": "See {IERC721Enumerable-tokenByIndex}."
      },
      "tokenOfOwnerByIndex(address,uint256)": {
        "details": "See {IERC721Enumerable-tokenOfOwnerByIndex}."
      },
      "totalSupply()": {
        "details": "See {IERC721Enumerable-totalSupply}."
      },
      "transferFrom(address,address,uint256)": {
        "details": "See {IERC721-transferFrom}."
      }
    },
    "version": 1
  },
  "userdoc": {
    "kind": "user",
    "methods": {},
    "version": 1
  }
}