{
  "contractName": "DocumentNFT",
  "abi": [
    {
      "inputs": [],
      "stateMutability": "nonpayable",
      "type": "constructor"
    },
    {
      "anonymous": false,
      "inputs": [
        {
          "indexed": true,
          "internalType": "address",
          "name": "owner",
          "type": "address"
        },
        {
          "indexed": true,
          "internalType": "address",
          "name": "approved",
          "type": "address"
        },
        {
          "indexed": true,
          "internalType": "uint256",
          "name": "tokenId",
          "type": "uint256"
        }
      ],
      "name": "Approval",
      "type": "event"
    },
    {
      "anonymous": false,
      "inputs": [
        {
          "indexed": true,
          "internalType": "address",
          "name": "owner",
          "type": "address"
        },
        {
          "indexed": true,
          "internalType": "address",
          "name": "operator",
          "type": "address"
        },
        {
          "indexed": false,
          "internalType": "bool",
          "name": "approved",
          "type": "bool"
        }
      ],
      "name": "ApprovalForAll",
      "type": "event"
    },
    {
      "anonymous": false,
      "inputs": [
        {
          "indexed": true,
          "internalType": "address",
          "name": "from",
          "type": "address"
        },
        {
          "indexed": true,
          "internalType": "address",
          "name": "to",
          "type": "address"
        },
        {
          "indexed": true,
          "internalType": "uint256",
          "name": "tokenId",
          "type": "uint256"
        }
      ],
      "name": "Transfer",
      "type": "event"
    },
    {
      "inputs": [
        {
          "internalType": "address",
          "name": "to",
          "type": "address"
        },
        {
          "internalType": "uint256",
          "name": "tokenId",
          "type": "uint256"
        }
      ],
      "name": "approve",
      "outputs": [],
      "stateMutability": "nonpayable",
      "type": "function"
    },
    {
      "inputs": [
        {
          "internalType": "address",
          "name": "owner",
          "type": "address"
        }
      ],
      "name": "balanceOf",
      "outputs": [
        {
          "internalType": "uint256",
          "name": "",
          "type": "uint256"
        }
      ],
      "stateMutability": "view",
      "type": "function"
    },
    {
      "inputs": [
        {
          "internalType": "uint256",
          "name": "tokenId",
          "type": "uint256"
        }
      ],
      "name": "getApproved",
      "outputs": [
        {
          "internalType": "address",
          "name": "",
          "type": "address"
        }
      ],
      "stateMutability": "view",
      "type": "function"
    },
    {
      "inputs": [
        {
          "internalType": "address",
          "name": "owner",
          "type": "address"
        },
        {
          "internalType": "address",
          "name": "operator",
          "type": "address"
        }
      ],
      "name": "isApprovedForAll",
      "outputs": [
        {
          "internalType": "bool",
          "name": "",
          "type": "bool"
        }
      ],
      "stateMutability": "view",
      "type": "function"
    },
    {
      "inputs": [],
      "name": "name",
      "outputs": [
        {
          "internalType": "string",
          "name": "",
          "type": "string"
        }
      ],
      "stateMutability": "view",
      "type": "function"
    },
    {
      "inputs": [
        {
          "internalType": "uint256",
          "name": "tokenId",
          "type": "uint256"
        }
      ],
      "name": "ownerOf",
      "outputs": [
        {
          "internalType": "address",
          "name": "",
          "type": "address"
        }
      ],
      "stateMutability": "view",
      "type": "function"
    },
    {
      "inputs": [
        {
          "internalType": "address",
          "name": "from",
          "type": "address"
        },
        {
          "internalType": "address",
          "name": "to",
          "type": "address"
        },
        {
          "internalType": "uint256",
          "name": "tokenId",
          "type": "uint256"
        }
      ],
      "name": "safeTransferFrom",
      "outputs": [],
      "stateMutability": "nonpayable",
      "type": "function"
    },
    {
      "inputs": [
        {
          "internalType": "address",
          "name": "from",
          "type": "address"
        },
        {
          "internalType": "address",
          "name": "to",
          "type": "address"
        },
        {
          "internalType": "uint256",
          "name": "tokenId",
          "type": "uint256"
        },
        {
          "internalType": "bytes",
          "name": "_data",
          "type": "bytes"
        }
      ],
      "name": "safeTransferFrom",
      "outputs": [],
      "stateMutability": "nonpayable",
      "type": "function"
    },
    {
      "inputs": [
        {
          "internalType": "address",
          "name": "operator",
          "type": "address"
        },
        {
          "internalType": "bool",
          "name": "approved",
          "type": "bool"
        }
      ],
      "name": "setApprovalForAll",
      "outputs": [],
      "stateMutability": "nonpayable",
      "type": "function"
    },
    {
      "inputs": [
        {
          "internalType": "bytes4",
          "name": "interfaceId",
          "type": "bytes4"
        }
      ],
      "name": "supportsInterface",
      "outputs": [
        {
          "internalType": "bool",
          "name": "",
          "type": "bool"
        }
      ],
      "stateMutability": "view",
      "type": "function"
    },
    {
      "inputs": [],
      "name": "symbol",
      "outputs": [
        {
          "internalType": "string",
          "name": "",
          "type": "string"
        }
      ],
      "stateMutability": "view",
      "type": "function"
    },
    {
      "inputs": [
        {
          "internalType": "uint256",
          "name": "tokenId",
          "type": "uint256"
        }
      ],
      "name": "tokenURI",
      "outputs": [
        {
          "internalType": "string",
          "name": "",
          "type": "string"
        }
      ],
      "stateMutability": "view",
      "type": "function"
    },
    {
      "inputs": [
        {
          "internalType": "address",
          "name": "from",
          "type": "address"
        },
        {
          "internalType": "address",
          "name": "to",
          "type": "address"
        },
        {
          "internalType": "uint256",
          "name": "tokenId",
          "type": "uint256"
        }
      ],
      "name": "transferFrom",
      "outputs": [],
      "stateMutability": "nonpayable",
      "type": "function"
    },
    {
      "inputs": [
        {
          "internalType": "string",
          "name": "_name",
          "type": "string"
        },
        {
          "internalType": "string",
          "name": "_docType",
          "type": "string"
        },
        {
          "internalType": "string",
          "name": "_uri",
          "type": "string"
        }
      ],
      "name": "mint",
      "outputs": [],
      "stateMutability": "nonpayable",
      "type": "function"
    },
    {
      "inputs": [
        {
          "internalType": "uint256",
          "name": "_documentId",
          "type": "uint256"
        },
        {
          "internalType": "address",
          "name": "_receiver",
          "type": "address"
        }
      ],
      "name": "transfer",
      "outputs": [],
      "stateMutability": "nonpayable",
      "type": "function"
    },
    {
      "inputs": [
        {
          "internalType": "uint256",
          "name": "_documentId",
          "type": "uint256"
        }
      ],
      "name": "retrieveMetadata",
      "outputs": [
        {
          "components": [
            {
              "internalType": "string",
              "name": "name",
              "type": "string"
            },
            {
              "internalType": "string",
              "name": "docType",
              "type": "string"
            },
            {
              "internalType": "address",
              "name": "organization",
              "type": "address"
            },
            {
              "internalType": "address",
              "name": "owner",
              "type": "address"
            },
            {
              "internalType": "string",
              "name": "uri",
              "type": "string"
            }
          ],
          "internalType": "struct DocumentNFT.DocumentMetadata",
          "name": "",
          "type": "tuple"
        }
      ],
      "stateMutability": "view",
      "type": "function"
    }
  ],
  "bytecode": "0x60806040523480156200001157600080fd5b506040518060400160405280600b81526020017f446f63756d656e744e46540000000000000000000000000000000000000000008152506040518060400160405280600381526020017f444f430000000000000000000000000000000000000000000000000000000000815250816000908051906020019062000096929190620000b8565b508060019080519060200190620000af929190620000b8565b505050620001cc565b828054620000c69062000197565b90600052602060002090601f016020900481019282620000ea576000855562000136565b82601f106200010557805160ff191683800117855562000136565b8280016001018555821562000136579182015b828111156200013557825182559160200191906001019062000118565b5b50905062000145919062000149565b5090565b5b80821115620001645760008160009055506001016200014a565b5090565b7f4e487b7100000000000000000000000000000000000000000000000000000000600052602260045260246000fd5b60006002820490506001821680620001b057607f821691505b602082108103620001c657620001c562000168565b5b50919050565b61308480620001dc6000396000f3fe608060405234801561001057600080fd5b50600436106101005760003560e01c806395d89b4111610097578063c87b56dd11610066578063c87b56dd146102a9578063d645ddf6146102d9578063da4b81ee146102f5578063e985e9c51461032557610100565b806395d89b4114610237578063a22cb46514610255578063b7760c8f14610271578063b88d4fde1461028d57610100565b806323b872dd116100d357806323b872dd1461019f57806342842e0e146101bb5780636352211e146101d757806370a082311461020757610100565b806301ffc9a71461010557806306fdde0314610135578063081812fc14610153578063095ea7b314610183575b600080fd5b61011f600480360381019061011a9190611cc0565b610355565b60405161012c9190611d08565b60405180910390f35b61013d610437565b60405161014a9190611dbc565b60405180910390f35b61016d60048036038101906101689190611e14565b6104c9565b60405161017a9190611e82565b60405180910390f35b61019d60048036038101906101989190611ec9565b61054e565b005b6101b960048036038101906101b49190611f09565b610665565b005b6101d560048036038101906101d09190611f09565b6106c5565b005b6101f160048036038101906101ec9190611e14565b6106e5565b6040516101fe9190611e82565b60405180910390f35b610221600480360381019061021c9190611f5c565b610796565b60405161022e9190611f98565b60405180910390f35b61023f61084d565b60405161024c9190611dbc565b60405180910390f35b61026f600480360381019061026a9190611fdf565b6108df565b005b61028b6004803603810190610286919061201f565b6108f5565b005b6102a760048036038101906102a29190612194565b610976565b005b6102c360048036038101906102be9190611e14565b6109d8565b6040516102d09190611dbc565b60405180910390f35b6102f360048036038101906102ee91906122b8565b610a7f565b005b61030f600480360381019061030a9190611e14565b610b0e565b60405161031c919061243c565b60405180910390f35b61033f600480360381019061033a919061245e565b610dc0565b60405161034c9190611d08565b60405180910390f35b60007f80ac58cd000000000000000000000000000000000000000000000000000000007bffffffffffffffffffffffffffffffffffffffffffffffffffffffff1916827bffffffffffffffffffffffffffffffffffffffffffffffffffffffff1916148061042057507f5b5e139f000000000000000000000000000000000000000000000000000000007bffffffffffffffffffffffffffffffffffffffffffffffffffffffff1916827bffffffffffffffffffffffffffffffffffffffffffffffffffffffff1916145b80610430575061042f82610e54565b5b9050919050565b606060008054610446906124cd565b80601f0160208091040260200160405190810160405280929190818152602001828054610472906124cd565b80156104bf5780601f10610494576101008083540402835291602001916104bf565b820191906000526020600020905b8154815290600101906020018083116104a257829003601f168201915b5050505050905090565b60006104d482610ebe565b610513576040517f08c379a000000000000000000000000000000000000000000000000000000000815260040161050a90612570565b60405180910390fd5b6004600083815260200190815260200160002060009054906101000a900473ffffffffffffffffffffffffffffffffffffffff169050919050565b6000610559826106e5565b90508073ffffffffffffffffffffffffffffffffffffffff168373ffffffffffffffffffffffffffffffffffffffff16036105c9576040517f08c379a00000000000000000000000000000000000000000000000000000000081526004016105c090612602565b60405180910390fd5b8073ffffffffffffffffffffffffffffffffffffffff166105e8610f2a565b73ffffffffffffffffffffffffffffffffffffffff161480610617575061061681610611610f2a565b610dc0565b5b610656576040517f08c379a000000000000000000000000000000000000000000000000000000000815260040161064d90612694565b60405180910390fd5b6106608383610f32565b505050565b610676610670610f2a565b82610feb565b6106b5576040517f08c379a00000000000000000000000000000000000000000000000000000000081526004016106ac90612726565b60405180910390fd5b6106c08383836110c9565b505050565b6106e083838360405180602001604052806000815250610976565b505050565b6000806002600084815260200190815260200160002060009054906101000a900473ffffffffffffffffffffffffffffffffffffffff169050600073ffffffffffffffffffffffffffffffffffffffff168173ffffffffffffffffffffffffffffffffffffffff160361078d576040517f08c379a0000000000000000000000000000000000000000000000000000000008152600401610784906127b8565b60405180910390fd5b80915050919050565b60008073ffffffffffffffffffffffffffffffffffffffff168273ffffffffffffffffffffffffffffffffffffffff1603610806576040517f08c379a00000000000000000000000000000000000000000000000000000000081526004016107fd9061284a565b60405180910390fd5b600360008373ffffffffffffffffffffffffffffffffffffffff1673ffffffffffffffffffffffffffffffffffffffff168152602001908152602001600020549050919050565b60606001805461085c906124cd565b80601f0160208091040260200160405190810160405280929190818152602001828054610888906124cd565b80156108d55780601f106108aa576101008083540402835291602001916108d5565b820191906000526020600020905b8154815290600101906020018083116108b857829003601f168201915b5050505050905090565b6108f16108ea610f2a565b838361132f565b5050565b806008600760008581526020019081526020016000206040516109189190612909565b908152602001604051809103902060030160006101000a81548173ffffffffffffffffffffffffffffffffffffffff021916908373ffffffffffffffffffffffffffffffffffffffff1602179055506109723382846110c9565b5050565b610987610981610f2a565b83610feb565b6109c6576040517f08c379a00000000000000000000000000000000000000000000000000000000081526004016109bd90612726565b60405180910390fd5b6109d28484848461149b565b50505050565b60606109e382610ebe565b610a22576040517f08c379a0000000000000000000000000000000000000000000000000000000008152600401610a1990612992565b60405180910390fd5b6000610a2c6114f7565b90506000815111610a4c5760405180602001604052806000815250610a77565b80610a568461150e565b604051602001610a679291906129e3565b6040516020818303038152906040525b915050919050565b6000610a8b600661166e565b9050610a97818361167c565b610af4826040518060a001604052808781526020018681526020013373ffffffffffffffffffffffffffffffffffffffff168152602001600073ffffffffffffffffffffffffffffffffffffffff168152602001858152506116a8565b610afe33826117b3565b610b08600661198c565b50505050565b610b16611b56565b6000600860076000858152602001908152602001600020604051610b3a9190612909565b90815260200160405180910390206040518060a0016040529081600082018054610b63906124cd565b80601f0160208091040260200160405190810160405280929190818152602001828054610b8f906124cd565b8015610bdc5780601f10610bb157610100808354040283529160200191610bdc565b820191906000526020600020905b815481529060010190602001808311610bbf57829003601f168201915b50505050508152602001600182018054610bf5906124cd565b80601f0160208091040260200160405190810160405280929190818152602001828054610c21906124cd565b8015610c6e5780601f10610c4357610100808354040283529160200191610c6e565b820191906000526020600020905b815481529060010190602001808311610c5157829003601f168201915b505050505081526020016002820160009054906101000a900473ffffffffffffffffffffffffffffffffffffffff1673ffffffffffffffffffffffffffffffffffffffff1673ffffffffffffffffffffffffffffffffffffffff1681526020016003820160009054906101000a900473ffffffffffffffffffffffffffffffffffffffff1673ffffffffffffffffffffffffffffffffffffffff1673ffffffffffffffffffffffffffffffffffffffff168152602001600482018054610d33906124cd565b80601f0160208091040260200160405190810160405280929190818152602001828054610d5f906124cd565b8015610dac5780601f10610d8157610100808354040283529160200191610dac565b820191906000526020600020905b815481529060010190602001808311610d8f57829003601f168201915b505050505081525050905080915050919050565b6000600560008473ffffffffffffffffffffffffffffffffffffffff1673ffffffffffffffffffffffffffffffffffffffff16815260200190815260200160002060008373ffffffffffffffffffffffffffffffffffffffff1673ffffffffffffffffffffffffffffffffffffffff16815260200190815260200160002060009054906101000a900460ff16905092915050565b60007f01ffc9a7000000000000000000000000000000000000000000000000000000007bffffffffffffffffffffffffffffffffffffffffffffffffffffffff1916827bffffffffffffffffffffffffffffffffffffffffffffffffffffffff1916149050919050565b60008073ffffffffffffffffffffffffffffffffffffffff166002600084815260200190815260200160002060009054906101000a900473ffffffffffffffffffffffffffffffffffffffff1673ffffffffffffffffffffffffffffffffffffffff1614159050919050565b600033905090565b816004600083815260200190815260200160002060006101000a81548173ffffffffffffffffffffffffffffffffffffffff021916908373ffffffffffffffffffffffffffffffffffffffff160217905550808273ffffffffffffffffffffffffffffffffffffffff16610fa5836106e5565b73ffffffffffffffffffffffffffffffffffffffff167f8c5be1e5ebec7d5bd14f71427d1e84f3dd0314c0f7b2291e5b200ac8c7c3b92560405160405180910390a45050565b6000610ff682610ebe565b611035576040517f08c379a000000000000000000000000000000000000000000000000000000000815260040161102c90612a79565b60405180910390fd5b6000611040836106e5565b90508073ffffffffffffffffffffffffffffffffffffffff168473ffffffffffffffffffffffffffffffffffffffff1614806110af57508373ffffffffffffffffffffffffffffffffffffffff16611097846104c9565b73ffffffffffffffffffffffffffffffffffffffff16145b806110c057506110bf8185610dc0565b5b91505092915050565b8273ffffffffffffffffffffffffffffffffffffffff166110e9826106e5565b73ffffffffffffffffffffffffffffffffffffffff161461113f576040517f08c379a000000000000000000000000000000000000000000000000000000000815260040161113690612b0b565b60405180910390fd5b600073ffffffffffffffffffffffffffffffffffffffff168273ffffffffffffffffffffffffffffffffffffffff16036111ae576040517f08c379a00000000000000000000000000000000000000000000000000000000081526004016111a590612b9d565b60405180910390fd5b6111b98383836119a2565b6111c4600082610f32565b6001600360008573ffffffffffffffffffffffffffffffffffffffff1673ffffffffffffffffffffffffffffffffffffffff16815260200190815260200160002060008282546112149190612bec565b925050819055506001600360008473ffffffffffffffffffffffffffffffffffffffff1673ffffffffffffffffffffffffffffffffffffffff168152602001908152602001600020600082825461126b9190612c20565b92505081905550816002600083815260200190815260200160002060006101000a81548173ffffffffffffffffffffffffffffffffffffffff021916908373ffffffffffffffffffffffffffffffffffffffff160217905550808273ffffffffffffffffffffffffffffffffffffffff168473ffffffffffffffffffffffffffffffffffffffff167fddf252ad1be2c89b69c2b068fc378daa952ba7f163c4a11628f55a4df523b3ef60405160405180910390a461132a8383836119a7565b505050565b8173ffffffffffffffffffffffffffffffffffffffff168373ffffffffffffffffffffffffffffffffffffffff160361139d576040517f08c379a000000000000000000000000000000000000000000000000000000000815260040161139490612cc2565b60405180910390fd5b80600560008573ffffffffffffffffffffffffffffffffffffffff1673ffffffffffffffffffffffffffffffffffffffff16815260200190815260200160002060008473ffffffffffffffffffffffffffffffffffffffff1673ffffffffffffffffffffffffffffffffffffffff16815260200190815260200160002060006101000a81548160ff0219169083151502179055508173ffffffffffffffffffffffffffffffffffffffff168373ffffffffffffffffffffffffffffffffffffffff167f17307eab39ab6107e8899845ad3d59bd9653f200f220920489ca2b5937696c318360405161148e9190611d08565b60405180910390a3505050565b6114a68484846110c9565b6114b2848484846119ac565b6114f1576040517f08c379a00000000000000000000000000000000000000000000000000000000081526004016114e890612d54565b60405180910390fd5b50505050565b606060405180602001604052806000815250905090565b606060008203611555576040518060400160405280600181526020017f30000000000000000000000000000000000000000000000000000000000000008152509050611669565b600082905060005b6000821461158757808061157090612d74565b915050600a826115809190612deb565b915061155d565b60008167ffffffffffffffff8111156115a3576115a2612069565b5b6040519080825280601f01601f1916602001820160405280156115d55781602001600182028036833780820191505090505b5090505b60008514611662576001826115ee9190612bec565b9150600a856115fd9190612e1c565b60306116099190612c20565b60f81b81838151811061161f5761161e612e4d565b5b60200101907effffffffffffffffffffffffffffffffffffffffffffffffffffffffffffff1916908160001a905350600a8561165b9190612deb565b94506115d9565b8093505050505b919050565b600081600001549050919050565b806007600084815260200190815260200160002090805190602001906116a3929190611bb1565b505050565b806008836040516116b99190612e7c565b908152602001604051809103902060008201518160000190805190602001906116e3929190611bb1565b506020820151816001019080519060200190611700929190611bb1565b5060408201518160020160006101000a81548173ffffffffffffffffffffffffffffffffffffffff021916908373ffffffffffffffffffffffffffffffffffffffff16021790555060608201518160030160006101000a81548173ffffffffffffffffffffffffffffffffffffffff021916908373ffffffffffffffffffffffffffffffffffffffff16021790555060808201518160040190805190602001906117ab929190611bb1565b509050505050565b600073ffffffffffffffffffffffffffffffffffffffff168273ffffffffffffffffffffffffffffffffffffffff1603611822576040517f08c379a000000000000000000000000000000000000000000000000000000000815260040161181990612edf565b60405180910390fd5b61182b81610ebe565b1561186b576040517f08c379a000000000000000000000000000000000000000000000000000000000815260040161186290612f4b565b60405180910390fd5b611877600083836119a2565b6001600360008473ffffffffffffffffffffffffffffffffffffffff1673ffffffffffffffffffffffffffffffffffffffff16815260200190815260200160002060008282546118c79190612c20565b92505081905550816002600083815260200190815260200160002060006101000a81548173ffffffffffffffffffffffffffffffffffffffff021916908373ffffffffffffffffffffffffffffffffffffffff160217905550808273ffffffffffffffffffffffffffffffffffffffff16600073ffffffffffffffffffffffffffffffffffffffff167fddf252ad1be2c89b69c2b068fc378daa952ba7f163c4a11628f55a4df523b3ef60405160405180910390a4611988600083836119a7565b5050565b6001816000016000828254019250508190555050565b505050565b505050565b60006119cd8473ffffffffffffffffffffffffffffffffffffffff16611b33565b15611b26578373ffffffffffffffffffffffffffffffffffffffff1663150b7a026119f6610f2a565b8786866040518563ffffffff1660e01b8152600401611a189493929190612fc0565b6020604051808303816000875af1925050508015611a5457506040513d601f19601f82011682018060405250810190611a519190613021565b60015b611ad6573d8060008114611a84576040519150601f19603f3d011682016040523d82523d6000602084013e611a89565b606091505b506000815103611ace576040517f08c379a0000000000000000000000000000000000000000000000000000000008152600401611ac590612d54565b60405180910390fd5b805181602001fd5b63150b7a0260e01b7bffffffffffffffffffffffffffffffffffffffffffffffffffffffff1916817bffffffffffffffffffffffffffffffffffffffffffffffffffffffff191614915050611b2b565b600190505b949350505050565b6000808273ffffffffffffffffffffffffffffffffffffffff163b119050919050565b6040518060a001604052806060815260200160608152602001600073ffffffffffffffffffffffffffffffffffffffff168152602001600073ffffffffffffffffffffffffffffffffffffffff168152602001606081525090565b828054611bbd906124cd565b90600052602060002090601f016020900481019282611bdf5760008555611c26565b82601f10611bf857805160ff1916838001178555611c26565b82800160010185558215611c26579182015b82811115611c25578251825591602001919060010190611c0a565b5b509050611c339190611c37565b5090565b5b80821115611c50576000816000905550600101611c38565b5090565b6000604051905090565b600080fd5b600080fd5b60007fffffffff0000000000000000000000000000000000000000000000000000000082169050919050565b611c9d81611c68565b8114611ca857600080fd5b50565b600081359050611cba81611c94565b92915050565b600060208284031215611cd657611cd5611c5e565b5b6000611ce484828501611cab565b91505092915050565b60008115159050919050565b611d0281611ced565b82525050565b6000602082019050611d1d6000830184611cf9565b92915050565b600081519050919050565b600082825260208201905092915050565b60005b83811015611d5d578082015181840152602081019050611d42565b83811115611d6c576000848401525b50505050565b6000601f19601f8301169050919050565b6000611d8e82611d23565b611d988185611d2e565b9350611da8818560208601611d3f565b611db181611d72565b840191505092915050565b60006020820190508181036000830152611dd68184611d83565b905092915050565b6000819050919050565b611df181611dde565b8114611dfc57600080fd5b50565b600081359050611e0e81611de8565b92915050565b600060208284031215611e2a57611e29611c5e565b5b6000611e3884828501611dff565b91505092915050565b600073ffffffffffffffffffffffffffffffffffffffff82169050919050565b6000611e6c82611e41565b9050919050565b611e7c81611e61565b82525050565b6000602082019050611e976000830184611e73565b92915050565b611ea681611e61565b8114611eb157600080fd5b50565b600081359050611ec381611e9d565b92915050565b60008060408385031215611ee057611edf611c5e565b5b6000611eee85828601611eb4565b9250506020611eff85828601611dff565b9150509250929050565b600080600060608486031215611f2257611f21611c5e565b5b6000611f3086828701611eb4565b9350506020611f4186828701611eb4565b9250506040611f5286828701611dff565b9150509250925092565b600060208284031215611f7257611f71611c5e565b5b6000611f8084828501611eb4565b91505092915050565b611f9281611dde565b82525050565b6000602082019050611fad6000830184611f89565b92915050565b611fbc81611ced565b8114611fc757600080fd5b50565b600081359050611fd981611fb3565b92915050565b60008060408385031215611ff657611ff5611c5e565b5b600061200485828601611eb4565b925050602061201585828601611fca565b9150509250929050565b6000806040838503121561203657612035611c5e565b5b600061204485828601611dff565b925050602061205585828601611eb4565b9150509250929050565b600080fd5b600080fd5b7f4e487b7100000000000000000000000000000000000000000000000000000000600052604160045260246000fd5b6120a182611d72565b810181811067ffffffffffffffff821117156120c0576120bf612069565b5b80604052505050565b60006120d3611c54565b90506120df8282612098565b919050565b600067ffffffffffffffff8211156120ff576120fe612069565b5b61210882611d72565b9050602081019050919050565b82818337600083830152505050565b6000612137612132846120e4565b6120c9565b90508281526020810184848401111561215357612152612064565b5b61215e848285612115565b509392505050565b600082601f83011261217b5761217a61205f565b5b813561218b848260208601612124565b91505092915050565b600080600080608085870312156121ae576121ad611c5e565b5b60006121bc87828801611eb4565b94505060206121cd87828801611eb4565b93505060406121de87828801611dff565b925050606085013567ffffffffffffffff8111156121ff576121fe611c63565b5b61220b87828801612166565b91505092959194509250565b600067ffffffffffffffff82111561223257612231612069565b5b61223b82611d72565b9050602081019050919050565b600061225b61225684612217565b6120c9565b90508281526020810184848401111561227757612276612064565b5b612282848285612115565b509392505050565b600082601f83011261229f5761229e61205f565b5b81356122af848260208601612248565b91505092915050565b6000806000606084860312156122d1576122d0611c5e565b5b600084013567ffffffffffffffff8111156122ef576122ee611c63565b5b6122fb8682870161228a565b935050602084013567ffffffffffffffff81111561231c5761231b611c63565b5b6123288682870161228a565b925050604084013567ffffffffffffffff81111561234957612348611c63565b5b6123558682870161228a565b9150509250925092565b600082825260208201905092915050565b600061237b82611d23565b612385818561235f565b9350612395818560208601611d3f565b61239e81611d72565b840191505092915050565b6123b281611e61565b82525050565b600060a08301600083015184820360008601526123d58282612370565b915050602083015184820360208601526123ef8282612370565b915050604083015161240460408601826123a9565b50606083015161241760608601826123a9565b506080830151848203608086015261242f8282612370565b9150508091505092915050565b6000602082019050818103600083015261245681846123b8565b905092915050565b6000806040838503121561247557612474611c5e565b5b600061248385828601611eb4565b925050602061249485828601611eb4565b9150509250929050565b7f4e487b7100000000000000000000000000000000000000000000000000000000600052602260045260246000fd5b600060028204905060018216806124e557607f821691505b6020821081036124f8576124f761249e565b5b50919050565b7f4552433732313a20617070726f76656420717565727920666f72206e6f6e657860008201527f697374656e7420746f6b656e0000000000000000000000000000000000000000602082015250565b600061255a602c83611d2e565b9150612565826124fe565b604082019050919050565b600060208201905081810360008301526125898161254d565b9050919050565b7f4552433732313a20617070726f76616c20746f2063757272656e74206f776e6560008201527f7200000000000000000000000000000000000000000000000000000000000000602082015250565b60006125ec602183611d2e565b91506125f782612590565b604082019050919050565b6000602082019050818103600083015261261b816125df565b9050919050565b7f4552433732313a20617070726f76652063616c6c6572206973206e6f74206f7760008201527f6e6572206e6f7220617070726f76656420666f7220616c6c0000000000000000602082015250565b600061267e603883611d2e565b915061268982612622565b604082019050919050565b600060208201905081810360008301526126ad81612671565b9050919050565b7f4552433732313a207472616e736665722063616c6c6572206973206e6f74206f60008201527f776e6572206e6f7220617070726f766564000000000000000000000000000000602082015250565b6000612710603183611d2e565b915061271b826126b4565b604082019050919050565b6000602082019050818103600083015261273f81612703565b9050919050565b7f4552433732313a206f776e657220717565727920666f72206e6f6e657869737460008201527f656e7420746f6b656e0000000000000000000000000000000000000000000000602082015250565b60006127a2602983611d2e565b91506127ad82612746565b604082019050919050565b600060208201905081810360008301526127d181612795565b9050919050565b7f4552433732313a2062616c616e636520717565727920666f7220746865207a6560008201527f726f206164647265737300000000000000000000000000000000000000000000602082015250565b6000612834602a83611d2e565b915061283f826127d8565b604082019050919050565b6000602082019050818103600083015261286381612827565b9050919050565b600081905092915050565b60008190508160005260206000209050919050565b60008154612897816124cd565b6128a1818661286a565b945060018216600081146128bc57600181146128cd57612900565b60ff19831686528186019350612900565b6128d685612875565b60005b838110156128f8578154818901526001820191506020810190506128d9565b838801955050505b50505092915050565b6000612915828461288a565b915081905092915050565b7f4552433732314d657461646174613a2055524920717565727920666f72206e6f60008201527f6e6578697374656e7420746f6b656e0000000000000000000000000000000000602082015250565b600061297c602f83611d2e565b915061298782612920565b604082019050919050565b600060208201905081810360008301526129ab8161296f565b9050919050565b60006129bd82611d23565b6129c7818561286a565b93506129d7818560208601611d3f565b80840191505092915050565b60006129ef82856129b2565b91506129fb82846129b2565b91508190509392505050565b7f4552433732313a206f70657261746f7220717565727920666f72206e6f6e657860008201527f697374656e7420746f6b656e0000000000000000000000000000000000000000602082015250565b6000612a63602c83611d2e565b9150612a6e82612a07565b604082019050919050565b60006020820190508181036000830152612a9281612a56565b9050919050565b7f4552433732313a207472616e736665722066726f6d20696e636f72726563742060008201527f6f776e6572000000000000000000000000000000000000000000000000000000602082015250565b6000612af5602583611d2e565b9150612b0082612a99565b604082019050919050565b60006020820190508181036000830152612b2481612ae8565b9050919050565b7f4552433732313a207472616e7366657220746f20746865207a65726f2061646460008201527f7265737300000000000000000000000000000000000000000000000000000000602082015250565b6000612b87602483611d2e565b9150612b9282612b2b565b604082019050919050565b60006020820190508181036000830152612bb681612b7a565b9050919050565b7f4e487b7100000000000000000000000000000000000000000000000000000000600052601160045260246000fd5b6000612bf782611dde565b9150612c0283611dde565b925082821015612c1557612c14612bbd565b5b828203905092915050565b6000612c2b82611dde565b9150612c3683611dde565b9250827fffffffffffffffffffffffffffffffffffffffffffffffffffffffffffffffff03821115612c6b57612c6a612bbd565b5b828201905092915050565b7f4552433732313a20617070726f766520746f2063616c6c657200000000000000600082015250565b6000612cac601983611d2e565b9150612cb782612c76565b602082019050919050565b60006020820190508181036000830152612cdb81612c9f565b9050919050565b7f4552433732313a207472616e7366657220746f206e6f6e20455243373231526560008201527f63656976657220696d706c656d656e7465720000000000000000000000000000602082015250565b6000612d3e603283611d2e565b9150612d4982612ce2565b604082019050919050565b60006020820190508181036000830152612d6d81612d31565b9050919050565b6000612d7f82611dde565b91507fffffffffffffffffffffffffffffffffffffffffffffffffffffffffffffffff8203612db157612db0612bbd565b5b600182019050919050565b7f4e487b7100000000000000000000000000000000000000000000000000000000600052601260045260246000fd5b6000612df682611dde565b9150612e0183611dde565b925082612e1157612e10612dbc565b5b828204905092915050565b6000612e2782611dde565b9150612e3283611dde565b925082612e4257612e41612dbc565b5b828206905092915050565b7f4e487b7100000000000000000000000000000000000000000000000000000000600052603260045260246000fd5b6000612e8882846129b2565b915081905092915050565b7f4552433732313a206d696e7420746f20746865207a65726f2061646472657373600082015250565b6000612ec9602083611d2e565b9150612ed482612e93565b602082019050919050565b60006020820190508181036000830152612ef881612ebc565b9050919050565b7f4552433732313a20746f6b656e20616c7265616479206d696e74656400000000600082015250565b6000612f35601c83611d2e565b9150612f4082612eff565b602082019050919050565b60006020820190508181036000830152612f6481612f28565b9050919050565b600081519050919050565b600082825260208201905092915050565b6000612f9282612f6b565b612f9c8185612f76565b9350612fac818560208601611d3f565b612fb581611d72565b840191505092915050565b6000608082019050612fd56000830187611e73565b612fe26020830186611e73565b612fef6040830185611f89565b81810360608301526130018184612f87565b905095945050505050565b60008151905061301b81611c94565b92915050565b60006020828403121561303757613036611c5e565b5b60006130458482850161300c565b9150509291505056fea2646970667358221220514edbc108453083b6ef5855c60efa8d8021a4ecf735e5ecb40759266005c2e264736f6c634300080d0033",
  "immutableReferences": {},
  "source": "// SPDX-License-Identifier: MIT\r\npragma solidity 0.8.13;\r\n\r\nimport '@openzeppelin/contracts/token/ERC721/ERC721.sol';\r\nimport '@openzeppelin/contracts/utils/Counters.sol';\r\n\r\ncontract DocumentNFT is ERC721 {\r\n    using Counters for Counters.Counter;\r\n    Counters.Counter _documentIds;\r\n\r\n    struct DocumentMetadata {\r\n        string name;\r\n        string docType;\r\n        address organization;\r\n        address owner;\r\n        string uri;\r\n    }\r\n\r\n    mapping(uint256 => string) documentURIs;\r\n    mapping(string => DocumentMetadata) documents;\r\n\r\n    constructor() ERC721(\"DocumentNFT\", \"DOC\") {}\r\n\r\n    function mint (\r\n        string memory _name,\r\n        string memory _docType,\r\n        string memory _uri\r\n    ) public {\r\n        uint256 newDocumentId = _documentIds.current();\r\n        _setDocumentUri(newDocumentId, _uri);\r\n        _setDocumentMetadata(_uri, DocumentMetadata(_name, _docType, msg.sender, address(0), _uri));\r\n        _mint(msg.sender, newDocumentId);\r\n\r\n        _documentIds.increment();\r\n    }\r\n\r\n    function transfer (\r\n        uint256 _documentId,\r\n        address _receiver\r\n    ) public {\r\n        documents[documentURIs[_documentId]].owner = _receiver;\r\n\r\n        _transfer(msg.sender, _receiver, _documentId);\r\n    }\r\n\r\n    function retrieveMetadata(uint256 _documentId) public view returns (DocumentMetadata memory) {\r\n        DocumentMetadata memory metadata = documents[documentURIs[_documentId]];\r\n\r\n        return metadata;\r\n    }\r\n\r\n    function _setDocumentUri (\r\n        uint256 _documentId,\r\n        string memory _documentUri\r\n    ) internal {\r\n        documentURIs[_documentId] = _documentUri;\r\n    }\r\n\r\n    function _setDocumentMetadata (\r\n        string memory _documentUri,\r\n        DocumentMetadata memory _documentMetadata\r\n    ) internal {\r\n        documents[_documentUri] = _documentMetadata;\r\n    }\r\n}",
  "sourcePath": "C:\\Users\\admin\\Documents\\GitHub\\iCertify\\contracts\\DocumentNFT.sol",
  "compiler": {
    "name": "solc",
    "version": "0.8.13+commit.abaa5c0e.Emscripten.clang"
  },
  "schemaVersion": "3.4.7",
  "updatedAt": "2022-04-17T06:35:36.413Z",
  "devdoc": {
    "kind": "dev",
    "methods": {
      "approve(address,uint256)": {
        "details": "See {IERC721-approve}."
      },
      "balanceOf(address)": {
        "details": "See {IERC721-balanceOf}."
      },
      "getApproved(uint256)": {
        "details": "See {IERC721-getApproved}."
      },
      "isApprovedForAll(address,address)": {
        "details": "See {IERC721-isApprovedForAll}."
      },
      "name()": {
        "details": "See {IERC721Metadata-name}."
      },
      "ownerOf(uint256)": {
        "details": "See {IERC721-ownerOf}."
      },
      "safeTransferFrom(address,address,uint256)": {
        "details": "See {IERC721-safeTransferFrom}."
      },
      "safeTransferFrom(address,address,uint256,bytes)": {
        "details": "See {IERC721-safeTransferFrom}."
      },
      "setApprovalForAll(address,bool)": {
        "details": "See {IERC721-setApprovalForAll}."
      },
      "supportsInterface(bytes4)": {
        "details": "See {IERC165-supportsInterface}."
      },
      "symbol()": {
        "details": "See {IERC721Metadata-symbol}."
      },
      "tokenURI(uint256)": {
        "details": "See {IERC721Metadata-tokenURI}."
      },
      "transferFrom(address,address,uint256)": {
        "details": "See {IERC721-transferFrom}."
      }
    },
    "version": 1
  },
  "userdoc": {
    "kind": "user",
    "methods": {},
    "version": 1
  }
}